S01E00007261696C5F736F635F7261696C746573745F34313632412E73333756
S21400000000080020D50F000069BC010069BC010093
S214000010A5D4010069BC010069BC010069BC0100EF
S21400002069BC010069BC010069BC010069BC010033
S21400003069BC010069BC010069BC010069BC010023
S21400004069BC01007566010069BC010069BC01005D
S214000050A55E0100FDEC0100F9EC010095660100CB
S214000060F1EC0100391700004918000069BC0100D6
S214000070D90C0000C90C000069BC010069BC010075
S21400008069BC010069BC01006918000069BC010078
S21400009069BC010069BC010069BC010069BC0100C3
S2140000A069BC010069BC010069BC010069BC0100B3
S2140000B0C9660100F5EC010029FF00000567010094
S2140000C069BC0100F143010069BC010069BC010084
S2140000D069BC010069BC010069BC010069BC010083
S2140000E069BC010069BC010069BC010069BC010073
S2140000F069BC010069BC010069BC010069BC010063
S21400010069BC010069BC010069BC01000000000078
S214000110013800D0FCE77047000000000000000037
S21400012001F0FF01102A2BDB10F0070F08D010F8A3
S214000130013B013A8B422DD010F0070F42B3F6D1A7
S214000140F0B441EA012141EA014122F007047FF0C0
S21400015000070023F0E80256083C85EA010586EA17
S214000160010685FA47F5A3FA87F586FA47F6A5FA53
S21400017087F68EB9EED1F0BC01F0FF0102F007025F
S21400018032B110F8013B013A83EA010313B1F8D10A
S2140001900020704701387047002D06BF35460338EB
S2140001A0073815F0010F07D1013015F4807F02BF24
S2140001B0013015F4C03F0130F0BC0138704700BF75
S2140001C02DE9F04F2DED028B91B082460C469346FA
S2140001D01D46DDE91C23104619461AF057F900287B
S2140001E000F007814FF0FF32B14BDDE91C011AF039
S2140001F075F9002840F0FD804FF0FF326FF4801351
S214000200DDE91C011AF04CF9002840F0F2800022CB
S2140002100023DDE91C011AF043F9002840F0FE80B7
S2140002209DED1C7B8DED067B209B13F480630F9366
S21400023001D106231E93DDE906010246C1F30A50EA
S214000240C1F31303904643F07F5949F44019A0F2D6
S214000250FF3019F049FE84A3D3E9002319F0AEFE5F
S21400026083A3D3E9002319F0F3FC06460F460022C9
S214000270904B4046494619F0E9FC7FA3D3E900239A
S21400028019F09CFE02460B463046394619F0E0FC53
S2140002901AF02EF9064619F027FE8046894678A3FE
S2140002A0D3E9002319F08AFE0022834B19F0D0FC14
S2140002B01AF01EF9074674A3D3E9002340464946C0
S2140002C019F07CFE80468946384619F00DFE70A36C
S2140002D0D3E9002319F072FE02460B464046494613
S2140002E019F0B4FC8046894602460B4619F066FEB5
S2140002F0CDE90A0107F2FF3700210022CDE90812F6
S2140003003B0509930023089342464B464046494620
S21400031019F09EFCCDE90C0142464B4600204FF0FA
S214000320804119F093FC804689460022634BDDE944
S2140003300A0119F06DFF0022614B19F089FC024694
S2140003400B46DDE90A0119F063FF00225D4B19F048
S2140003507FFC02460B46DDE90A0119F059FF02460A
S2140003600B464046494619F073FC02460B46DDE94B
S2140003700C0119F04DFF0022534B19F069FCDDE922
S214000380082319F01BFE8046894649EC188BDDE9E8
S21400039006231AF0A3F840B1013E0022484B40461F
S2140003A0494619F035FF41EC180B06F16303C62BDE
S2140003B03FD80427209B13F4006F44D036A3D3E91C
S2140003C00023DDE90689404649461AF07DF80028F4
S2140003D03FD033A3D3E90023404649461AF060F8DD
S2140003E0002836D01E9BB34225DD9E1B731E1E932F
S2140003F023E0209B04931F9B03931E9B02939DED7B
S2140004001C7B8DED007B2B465A462146504600F05D
S214000410CFF811B0BDEC028BBDE8F08F9FED227BCC
S2140004208DED067B1C9B06931D9B03F100430793F3
S214000430FAE60527BEE700231E93209B43F480635D
S214000440209300273E461F9B9F423FD2A3EB070800
S2140004503EE01E9B002BF6D00F9B002BF3D01E9B7E
S214000460013B1E93EFE700BFFB799F501344D33F39
S214000470B3C8608B288AC63F61436F63A787D23FA5
S21400048071A379094F930A401655B5BBB16B02406C
S214000490EF39FAFE422EE63F2D431CEBE2361A3FBA
S2140004A00000000080842E410000000000000000D4
S2140004B0FFFFEF7F0000F83F0000E03F00002C4009
S2140004C000002440000018400000F03F4FF00008F5
S2140004D0209B13F0020902D00FB14FF000083EB186
S2140004E053EC182BDDE9060119F092FECDE9060162
S2140004F000220023DDE91C0119F0D2FF00283DD1BF
S214000500209B23F400630493CDF80C801E9B02937B
S2140005109DED067B8DED007B2B465A4621465046C8
S21400052000F046F8002F3FF474AF209B13F0200F26
S2140005302CD04FF0450C00F101082B460246214610
S2140005406046D04786EAE672A2EBE672052305937C
S214000550013F0497002303930A230293F30F0193AA
S21400056000922B464246214650461DF0F4F9B9F15A
S214000570000F3FF44EAF02461F9F10E0DDE9060174
S214000580024601F10043CDE90623B9E74FF0650CBA
S214000590D1E7561C2B4621462020D0473246A2EBF8
S2140005A00B03BB42F5D3104633E700BF0000000044
S2140005B02DE9F04F2DED028B95B007900A919246EB
S2140005C09B46DDE92089229D42464B4640464946E9
S2140005D019F05CFF002840D04FF0FF326FF4801314
S2140005E04046494619F05CFF002845D14FF0FF32DF
S2140005F09F4B4046494619F071FF00284BD198A3FF
S214000600D3E900234046494619F068FF00285AD12E
S21400061095A3D3E900234046494619F041FF002838
S21400062051D1002200234046494619F039FF0028E0
S21400063057D100230B93249B13F4806F5CD00024C7
S2140006401F2C5BD8092D59D904F150036B44302276
S21400065003F8202C013D0134F2E7249B0393239BEF
S214000660029303230193834B00935B4652460A99F9
S21400067007981DF096F82CE1249B0393239B029386
S214000680042301937C4B00935B4652460A990798D5
S2140006901DF087F81DE1249B13F004030FD0774A62
S2140006A07BB104232499039123990291019300922C
S2140006B05B4652460A9907981DF073F809E1704A9E
S2140006C0EEE70323EEE7249B0493239B0393029514
S2140006D0CDE900895B4652460A990798FFF770FDF8
S2140006E0F7E042464B460020002119F0AFFA80465C
S2140006F0894601230B939EE70625A0E74046494618
S21400070019F0F6FE064619F0EFFB02460B46404689
S214000710494619F09BFA5B4B03EBC50393ED008B40
S21400072053EC182B19F04AFC02460B46CDE9082379
S21400073019F006FF074619F0C7FB02460B46DDE92F
S214000740080119F083FA02460B46CDE90823002279
S2140007504D4B19F0C3FE50B30137384619F0B4FBC1
S21400076002460B4651EC180B19F0A4FE08B10136F0
S214000770002755BB304619F0B7FB02460B464046ED
S214000780494619F063FA0746884600223E4B19F0A0
S21400079087FE38B100223C4B3846414619F09EFE93
S2140007A0002842D016F0010F3FD001363DE000226F
S2140007B0354BDDE9080119F073FE0028D9D117B1D1
S2140007C017F0010FD5D00137D3E71F2C17D8013DFE
S2140007D02E4BA3FB0723DB08194603EB8303A7EB8B
S2140007E04303621C303304F150000DEB000404F8A0
S2140007F0203C092F02D90F461446E6E714461F2C64
S2140008000AD86B1E45B104F150026A44302102F842
S214000810201C1D460134F2E71F2C06D804F15003B5
S2140008206B442E2203F8202C01341F2C33D8184A90
S21400083082FB0632F317C3EBA2031A4603EB8303CD
S214000840A6EB4303611C303304F150000DEB0004AB
S21400085004F8203C1646EAB10C46E6E7AFF3008003
S2140008600000000065CDCD410000000065CDCDC183
S214000870FFFFEF7F3CE2020040E2020030E20200AF
S21400088038E2020048E202000000E03FCDCCCCCCCB
S214000890676666660C46249B03F00303012B1DD097
S2140008A01F2C09D80B9B002B35D004F150036B444A
S2140008B02D2203F8202C0134249B0393239B0293C0
S2140008C001940CAB00935B4652460A9907981CF0BD
S2140008D068FF15B0BDEC028BBDE8F08F239BB3B16B
S2140008E00B9B1BB9249B13F00C0F12D0239B013BD0
S2140008F02393194606E004F150036B44302203F8B4
S214000900202C01348C42CBD21F2CF4D9C8E7239973
S214000910F8E72399F6E7249B13F0040F07D004F1B9
S21400092050036B442B2203F8202C0134C4E7249B8D
S21400093013F0080FC0D004F150036B44202203F8D4
S214000940202C0134B8E700BF0348044B834202D092
S214000950034B03B118477047280E0020280E0020CE
S214000960000000000548064B1B1AD90F01EBA30137
S214000970491002D0034B03B118477047280E0020D9
S214000980280E00200000000010B5064C237843B95E
S214000990FFF7DAFF044B13B10448AFF300800123DE
S2140009A0237010BD785E002000000000A41A03002B
S2140009B008B5054B1BB105490548AFF30080BDE8F7
S2140009C00840FFF7CFBF00BF00000000F81000206F
S2140009D0A41A0300A3F5803A704700BF174B002BFC
S2140009E008BF134B9D46FFF7F5FF00218B460F46C9
S2140009F01348144A121A1EF052FF0E4B002B00D05A
S214000A0098470D4B002B00D098470020002104008B
S214000A100D000D48002802D00C48AFF300801AF0F5
S214000A20B1FA200029001BF02DF819F071FF00BF65
S214000A300000080000000000000000000008002081
S214000A40280E0020E05E00200000000000000000ED
S214000A5000B585B0094B1868094B1860094B0A4A5F
S214000A6013600A4A01920A4A12680292039301A985
S214000A701BF0DAFC05B05DF804FB00BF1C08002084
S214000A80884500201008002084450020B48102001C
S214000A902408002008B5024B18681BF0DDFC08BDD2
S214000AA01C08002038B50DF0DFFF0446064D2B6805
S214000AB0D3F8B0020DF0CCFF28681BF0EAFC204605
S214000AC00DF0C6FF38BD00BF1C080020044B1B6895
S214000AD0834202D0034B186870470148704700BF36
S214000AE0F01800201019002008B50948094B1860B6
S214000AF0094B1B6803600A23C360084B4361084B1D
S214000B008360084B4360002303761CF0E4F908BDBD
S214000B10F0180020101900201C080020F0130020F8
S214000B20C8810200D481020038B501F077FB0121AC
S214000B300D4800F03FFF01221146002001F0B2FAF6
S214000B400A4C0225C4F8805001221146002001F00C
S214000B50A9FAC4F8845001221146002001F0A2FA36
S214000B60C4F88850002038BD30253E0000400E40B6
S214000B7008B5164B01225A6402F02AFC024668B9F0
S214000B80134B4AF6E851C3F89011D3F8981141F088
S214000B900401C3F898110021C3F89011012A0DD959
S214000BA00C4A136A23F4441343F488131362A2F521
S214000BB08042136843F48073136008BD044AD2F879
S214000BC0643143F40053C2F86431E9E700000E4094
S214000BD000300E4000400E40012900D9704708B58D
S214000BE0034B1B68186808B1436A984708BD00BFE6
S214000BF02008002030B599B0274D11ACAC46BCE8B3
S214000C000F000FC49CE8070084E8070000240B943C
S214000C100C940D940E940F941094204B0B93204B31
S214000C200C9301228DF8372002238DF839300323E8
S214000C308DF83B301E238DF83F308DF8403009ABE1
S214000C401C3595E8030083E803000DF10C0C0394B3
S214000C50049405940694079408948CE803000C23E7
S214000C608DF814300D238DF815300E4B0693202387
S214000C7007938DF820200C4B00930BAB11AA61460E
S214000C800A480EF0A7F8054621464FF4E1301AF060
S214000C90D9FF284619B030BDE481020000000140AB
S214000CA0004204001419002034190020881900207E
S214000CB008B5034903480EF08DFBFFF79BFF08BD00
S214000CC028080020AC19002008B502481CF064FB78
S214000CD008BD00BF8819002008B502481CF05CFB60
S214000CE008BD00BF8819002008B5024B1A6A1868AC
S214000CF0904708BD8819002010B58AB000230693D7
S214000D00079308930993254B0693254906A80FF0E9
S214000D10BFFF244B186030B10023059305A91DF0D2
S214000D209FFA08B1FEE7FEE71E4C1F4A1F4B1968E4
S214000D30206810F089FA002120681BF032FB00B111
S214000D40FEE71B49174B186810F012FB00B1FEE7D0
S214000D50184A40F23F23CDE900234FF0FF324FF010
S214000D60FF33104908681DF018F800B1FEE7124B73
S214000D701B88ADF81030ADF80C3004A9094B186884
S214000D801CF0E8FF00B1FEE703A9064B18681CF04C
S214000D90F9FF00B1FEE70AB010BD00BFC5BB0100F9
S214000DA0A9BB010030080020B1BB010000080020EC
S214000DB007001100EFFFF3FF0882020082B0054B28
S214000DC0019302AB03EB800050F8043C186802B0B5
S214000DD0704700BF3008002008B50121034800F026
S214000DE0E9FD1AF060FE00F075F808BD00350A004F
S214000DF008B50121014800F0DDFD08BD00350A00F8
S214000E002DE9F04180460F4601F1090500263446DB
S214000E1004E05B21082000F01FFA0134AC4233D214
S214000E20052C1BD801A353F824F000BF130E0000B6
S214000E30450E0000790E00004D0E0000510E000019
S214000E40550E0000FBB20433D9B2E3E78021E1E798
S214000E500021DFE7731C3146DEB2DBE7BB1DA34291
S214000E600CD0FB1DA3420BD007F10803A34209D008
S214000E70A31F18F80310CDE7D121CBE75A21C9E705
S214000E805A21C7E75D21C5E70020BDE8F08100BF15
S214000E9000B583B000220092019202218DF8001066
S214000EA005481AF0B9FE019008216846FFF7A8FF2A
S214000EB003B05DF804FB00BF006A1800014B102267
S214000EC0DA60704700A00044014B1022DA607047D9
S214000ED000A0004670B588B00DF1040C374C0FCC5E
S214000EE0ACE80F0094E807008CE8070001213448BE
S214000EF000F060FD334E0121304600F05BFD012519
S214000F008DF81250304B0393304C01A920461AF04E
S214000F10C2FF2B4604220621022002F06DF80023B1
S214000F202A460721022002F067F82B4604220821F1
S214000F30022002F061F82B4604221146002002F03F
S214000F405BF8234BA3670B2363674FF448700FF0DF
S214000F5021F8FFF7B3FF14200FF01CF8FFF7B4FFDB
S214000F6023200FF017F8FFF7A9FFB92120461AF043
S214000F70DCFFFFF7A9FF00231A460621022002F035
S214000F803BF800231A460721022002F035F82B46CC
S214000F9000220821022002F02FF82B46002204210E
S214000FA0104602F029F8204602F060FA0021A167F8
S214000FB06167304600F0FEFC08B070BD0C8202008F
S214000FC000350A000052040000127A0000040140B6
S214000FD00B0B000B08B500F087F8124A0AE0106801
S214000FE0516850F8230041F82300013391688B4282
S214000FF0F5D30C320C4B9A4201D20023F6E70B4A8B
S21400100008E01168002041F82300013351688B4244
S214001010F7D30832064B9A4201D20023F6E7FFF7D1
S214001020DDFC00BFAC1A0300B81A0300B81A0300B0
S214001030B81A03000048704700F04902114BD3F875
S214001040943003F00703023B032B0DD8DFE803F0D0
S214001050050F02080C4B18680BE00C4B186808E0EC
S2140010600B4B1868400804E0094B186801E04FF481
S2140010700040044BD3F80031C3F304230133B0FB24
S214001080F3F0704700400E403C0800204008002067
S2140010903408002008B5FFF7D1FF054BD3F8083118
S2140010A0C3F308230133B0FBF3F0024B186008BD0E
S2140010B000400E4038080020014B1868704700BFFB
S2140010C04008002008B5064B1860064BD3F894304D
S2140010D003F00703022B00D008BDFFF7DBFFFBE79A
S2140010E04008002000400E40044B054A9A60D3F8A2
S2140010F0882042F47002C3F88820704700ED00E0B4
S21400110000000000014B1868704700BF3C08002034
S214001110F0B18446F1B110B409E004F120000FE00C
S2140011202033C01A18D1BCB10CF1010C01319CF867
S21400113000400B4B1B5D03F00303012BEDD0204654
S2140011400B78074AD25C02F00302012AE9D1E7E7EE
S21400115001207047012070475DF8044B704700BFC0
S214001160331903000346064A10680344054A9342AF
S21400117002D8034A136070474FF0FF30704700BF35
S214001180440800200000042008B50121294800F08A
S21400119011FC012304220221052001F02DFF00206E
S2140011A001F0C8FE0121244BC3F810180A4604209B
S2140011B000F078FF214800F0BBFD214BD3F8F0206B
S2140011C042F00102C3F8F020D3F8FC2042F080720F
S2140011D0C3F8FC20A3F55D431A4A1A6000F5D52033
S2140011E000F2FC40C008184BA3FB0030800A013810
S2140011F0164B18610222C3F8F0204FF48072C3F831
S21400120004234FF06043124AC3F8B02F114AC3F8C4
S214001210802ED3F8002E42F48072C3F8002EFF22F0
S21400122083F82020D3F8002E22F48072C3F8002E14
S214001230002008BD00350A000080144206000E009B
S21400124000ED00E0FF03004017916502000004E097
S21400125055CEACC5090001004FF06043D3F8803E80
S21400126013F0010F01D1112070470E4AD2F8FC305E
S21400127043F08073C2F8FC304FF06043D3F8002E82
S2140012804FF0010C0CFA00FC42EA0C02C3F8002EE8
S21400129053F82030002BE8D04FF0604303F82010BE
S2140012A00020704700ED00E0F0B585B00C4694468F
S2140012B09DF83410664A1278002A00F0BD80054674
S2140012C0BCF1070F00F2BA800A9A002A00F0B88034
S2140012D00B9A002A00F0B6800E9AB2F5006F00F363
S2140012E0B38001285BD05B4A02EB0C12127B002A0B
S2140012F000F0AC8000220092019202920392564ABD
S21400130002EB4C1E002C4FD14FEA4C160020905199
S214001310CEF80400CEF80800CEF80C009EF80200C6
S21400132040F010008EF802009EF8030040F03000F7
S2140013308EF8030021B9C1B241F003018EF8031004
S21400134000930E9B013B444A4FEA4C1002EB4C11B3
S214001350165A63F30E1616520A9B8B600B9B4B6055
S214001360CB789DF83C2062F38303CB70012D36D0FA
S214001370109B002B56D0374A4FEA0C1102EB0C1389
S21400138010985050119A5A6000249C605D73724603
S2140013906946604601F0CCFE204605B0F0BD0C9ACA
S2140013A0002AA0D12D48F8E72B4F4FEA4C1607EB42
S2140013B04C120020B85150609060D060907840F099
S2140013C010009070D07840F00300D0700029B7D19C
S2140013D007EB4C12C1B241F03001D170B0E70E46B7
S2140013E00A7B42F001020A73D2B242F002020A738A
S2140013F0CA68042161F39F02F26006F1100796E8BE
S2140014000F0087E80F00F2696FF0030161F39F0297
S214001410F2610C9B7361012CAAD10B9AB2610C9AF3
S2140014207260A5E7002DA6D10B4B03EB4C139A7800
S2140014306FF304129A709EE70948AEE70748ACE7D8
S2140014400648AAE70548A8E70448A6E70548A4E72B
S214001450795E0020B41A0020B4190020018000F044
S214001460028000F0078000F0134B1B78FBB110B52C
S2140014700446F0B11AF08EFC0023072B13D80F4A4F
S21400148002EB0312127B0AB10133F6E723600B4A24
S214001490190102EB031301241C73002454501AF0A4
S2140014A07FFC204602E01AF07BFC054810BD05488C
S2140014B070470548FAE700BF795E0020B41A00209E
S2140014C0048000F0028000F0018000F038B51AF0C9
S2140014D061FC04460023072B06DC0C4A02EB0312D1
S2140014E0127B12B90133F6E7002222B120461AF029
S2140014F057FC074838BD01F0CFFD0025054B1D7091
S21400150020461AF04DFC2846F4E700BFB41A002027
S214001510058000F0795E00200F4B1B78BBB110B53C
S2140015200446072815D81AF035FC0C4B03EB0413B9
S2140015301B7B1BB91AF034FC09480BE0074B03EB86
S214001540041300241C731AF02BFC204602E0054806
S2140015507047054810BD00BF795E0020B41A002011
S214001560068000F0028000F0018000F000B583B035
S214001570144B1B68019300238DF804301AF00AFC04
S214001580114B1B7833B9104B01221A701AF008FC65
S214001590002309E01AF004FC0C480FE00C4A02EBAA
S2140015A00312002111730133072BF7DD04238DF896
S2140015B007300DEB030001F091FD002003B05DF84D
S2140015C004FB00BF28820200795E0020038000F042
S2140015D0B41A002008B50A4B1B785BB107280BD855
S2140015E0084B03EB00131B7B43B1002101F06CFD9D
S2140015F0002008BD0448FCE70448FAE70448F8E77A
S214001600795E0020B41A0020028000F0018000F00D
S214001610078000F008B50A4B1B785BB107280BD88B
S214001620084B03EB00131B7B43B1012101F04CFD7B
S214001630002008BD0448FCE70448FAE70448F8E739
S214001640795E0020B41A0020028000F0018000F0CD
S214001650078000F008B50A4B1B7853B107280AD854
S214001660084B03EB00131B7B3BB101F0B5FD0020DC
S21400167008BD0548FCE70548FAE70548F8E700BF57
S214001680795E0020B41A0020028000F0018000F08D
S214001690078000F0104B1B78ABB1072815D8B1B106
S2140016A00E4B03EB00131B7B9BB10D4B1B6E0122F5
S2140016B0824013EA020003D001230B70002070471B
S2140016C000230B7070470748704707487047064866
S2140016D070470648704700BF795E0020B41A0020A5
S2140016E000200E40028000F0018000F0078000F02D
S2140016F00C4B1B7873B110B50C4607280CD869B193
S214001700094B03EB00131B7B53B101F079FD2070EE
S214001710002010BD054870470548FAE70448F8E77A
S2140017200448F6E7795E0020B41A0020028000F034
S214001730018000F0078000F0F8B5194B1F6EDB6ED5
S2140017401F4002D40125002402E0FEE701346D00AC
S214001750072C24D83D42F9D0114B9D662301114A2F
S214001760D358002BF2D002EB0416B1680131B160F9
S21400177072682046984780F00100C0B2737B012B48
S214001780E4D10028E2D0084B03EB44131A7B6FF336
S21400179041021A731A7F6FF341021A77D6E7F8BD33
S2140017A000200E40B41A0020B419002010B50446DC
S2140017B002E0202007E09047DCB194FAA4F000286D
S2140017C0F7D0B0FA80F00123834024EA0304094BE3
S2140017D003EB00135A68002AEED0064B03EB001307
S2140017E01B7B002BE7D0034B03EB00139968904755
S2140017F0E2E710BD341B002008B5122000F00CFEF6
S21400180028B1084B4FF48022C3F880211A600A20C2
S21400181000F002FE28B1034B4FF48062C3F880212B
S2140018201A6008BD00E100E038B505460C461AF01F
S214001830B1FA044B03EB05135C6000221A731AF02E
S214001840AFFA38BD341B002008B5064BD3F8280481
S214001850D3F81C24104000F05530C3F82404FFF7DA
S214001860A5FF08BD00A0004008B5064BD3F8280425
S214001870D3F81C24104000F0AA30C3F82404FFF765
S21400188095FF08BD00A00040074BDB6B13F0400F30
S21400189004D1064BD3F8C830002BFAD1024B586857
S2140018A0C0F30140704700BF00300E400000C64342
S2140018B00C4B984205D90C4B984210D801210A4689
S2140018C001E000210A46094B1A64094AD2F80031A1
S2140018D023F0807343EA0163C2F8003170470221A7
S2140018E00122F0E70048E8010090D0030000C8435A
S2140018F000400E40014B1868704700BF48080020A3
S214001900114B5B68002300E00133042B0CD80F4A10
S21400191002EBC30292F804C0CAB29445F4D10B4A53
S21400192052F833208242EFD3052B0BD0074A02EB46
S214001930C3035979044A536823F0407343EA0163AA
S214001940536070470321F5E700000E402C8202002A
S21400195008B5FFF773FB044BD3F80031C3F3042339
S21400196003FB000008BD00BF00400E4010B5084B4A
S2140019701C6CA4B241F671321A64FFF75BFB0021BF
S214001980FFF7BEFF14B1024B00221A6410BD00BF61
S21400199000000E4010B5064B1C6CA4B241F6713226
S2140019A01A64FFF7ADFF14B1014B00221A6410BD94
S2140019B000000E4010B4C0F30323013B092B21D8CE
S2140019C0DFE803F00508202030232620292D0024F8
S2140019D0164A01E00024164AC0F3043054B1134BF3
S2140019E0D3F8443113F0010F04D1104BD3F8403133
S2140019F01C42FAD102F1424303F5801300EBC30008
S214001A00800001605DF8044B70470124094AE3E753
S214001A101024094AE0E74FF48034084ADCE7002443
S214001A20074AD9E70024074AD6E700BF00400E4021
S214001A30C0400E40E0400E40E8400E40F0400E40F1
S214001A4050410E40B0400E40C0F30313013B092B3B
S214001A506BD8DFE803F0050B111B6A6A2127415F8C
S214001A60334BD3F80001C0F304207047304BD3F853
S214001A701401C0F3042070472D4BD3F80031C3F394
S214001A80006301330120984001387047284BD3F893
S214001A900C01C0F308207047254BD3F80801C0F3AB
S214001AA008207047234B984204D0234B98420AD014
S214001AB0002070471E4BD3F8203103F00F0301209F
S214001AC09840013870471A4BD3F82031C3F30113FE
S214001AD00120984001387047184B984207D003F50C
S214001AE0B01303F5805398420AD000207047104B7D
S214001AF0D3F82831C3F3011301209840013870470A
S214001B000B4BD3F82831C3F301230433012098404C
S214001B10013870470A4B984201D000207047044BAA
S214001B20D3F8300100F0030070470020704700BF74
S214001B3000400E408006160080162E0090171A00F1
S214001B40A009140000F00F000138072865D8DFE868
S214001B5000F0041B2A643E4D64553B4BD3F894308A
S214001B6003F00703023B052B0CD8DFE803F005580B
S214001B7003070B0902207047042070470B207047AC
S214001B800C207047052070472F4BD3F8803003F0A9
S214001B900703022B45D0042B45D0012B01D0012092
S214001BA0704703207047284BD3F8843003F00703B0
S214001BB0013B032B09D8DFE803F0023806040320B4
S214001BC070470A20704706207047012070471E4B5A
S214001BD0D3F8883003F00703022B28D0042B28D034
S214001BE0012B01D00120704703207047164B1B6F56
S214001BF013F001031FD003B309207047124BD3F82C
S214001C005C3103F03003202B19D0302B19D0102B69
S214001C1001D001207047072070470020704703203E
S214001C207047022070470A20704702207047022043
S214001C3070470A207047072070470120704704202D
S214001C4070470820704700BF00400E4010B504469D
S214001C50FFF778FF1B4B9C4212D01B4B9C4215D0C3
S214001C601A4B9C4206D00138032828D8DFE800F03B
S214001C7014171D1A164BD3F8800000F00700F2E781
S214001C80134BD3F8840000F00700ECE7104BD3F8B2
S214001C90880000F00700E6E719F0E7FF10BDFFF741
S214001CA031FAFBE719F0E4FFF8E7FFF7C7F9084B4E
S214001CB0D3F80031C3F300630133D840EEE70020C9
S214001CC0ECE700BF030020000500240002001E0011
S214001CD000400E4008B50748FFF734FF072804D039
S214001CE0092805D1FFF7AAF903E0FFF703FE00E095
S214001CF0002008BD06000E0008B10020704710B591
S214001D0004460A48FFF71EFF072805D0082809D012
S214001D10042804D0204610BDFFF7ECFDFBE7FFF7D4
S214001D20CBF9F8E7FFF714FEF5E700BFB80032007E
S214001D3038B500F47813B3F5B01F00F0938005466D
S214001D403BD8B3F5402F00F0828010D9B3F5801F42
S214001D5000F0AA80B3F5A01F27D15748FFF776FFFB
S214001D60564BD3F8303103F00303D8401CE0B3F5EC
S214001D70802F61D005D9B3F5202F14D1FFF75EF977
S214001D8012E0002B55D0B3F5003F0AD1FFF756F905
S214001D904A4BD3F80831C3F308230133B0FBF3F002
S214001DA002E0002000E0002038BDB3F5602F02D12D
S214001DB0FFF790FFF8E70020F6E7B3F5381F5BD093
S214001DC00ED9B3F5481F72D0B3F5781F21D1FFF7AF
S214001DD035F90446284619F0D1FFB4FBF0F0E3E7E6
S214001DE0B3F5001F52D006D9B3F5101F0FD13248F5
S214001DF0FFF72CFFD8E7B3F5D01F4BD0B3F5F01F95
S214001E0003D12F48FFF722FFCEE70020CCE70020C3
S214001E10CAE7B3F5401F0AD12A48FFF717FF274B3A
S214001E20D3F82831C3F301230433D840BCE700209D
S214001E30BAE7FFF703F9B7E7FFF700F91F4BD3F848
S214001E400C31C3F308230133B0FBF3F0ACE7FFF724
S214001E50F5F81A4BD3F81431C3F304230133B0FB5F
S214001E60F3F0A1E71648FFF7F1FE144BD3F8203144
S214001E7003F00F03D84097E71148FFF7E7FE0F4B34
S214001E80D3F82031C3F30113D8408DE70D48FFF790
S214001E90DDFE89E70B48FFF7D9FE084BD3F828315B
S214001EA0C3F30113D8407FE7FFF724FD7CE700204B
S214001EB0FFF722FF78E700BF0500240000400E4031
S214001EC002001E000300200010B5FFF74FFD084B70
S214001ED007225A67FFF7B2F8FFF7EAFCFFF7DAF8CF
S214001EE00446FFF7D1FC01462046FFF753FD10BD20
S214001EF000400E40014B1868704700BF34080020B1
S214001F00014B1880704700BFDA0D0020014B188087
S214001F10704700BFD80D002004281ED8DFE800F068
S214001F20180312080D000E4B186AC0F3080070471D
S214001F300B4B186900F07F007047094B986900F05A
S214001F407F007047064BD3F89C00C0F30A0070472A
S214001F50034B986B00F07F0070470020704700BF6F
S214001F6000400E4038B50C46042813D8DFE800F0D1
S214001F7043032F132100C1F30804274BD3F8683816
S214001F80002BFAD1254A136A23F4FF7323F00103CA
S214001F902343136238BD01F07F041F4BD3F860382B
S214001FA0002BFAD11D4A136923F07F0323431361E4
S214001FB0F0E701F07F04184BD3F86438002BFAD111
S214001FC0164A936923F07F0323439361E2E7134D98
S214001FD0D5F890306B6A23F0300343F010036B6241
S214001FE0C1F3C31019F0C4FE2A6B0D4B13402343F4
S214001FF003432B63CEE74F2928BF4F24064BD3F865
S2140020007438002BFAD1054A936B23F07F03E4B2B1
S2140020101C439463BEE700BF0020C84300400E4048
S21400202000F8FF0F134B5B6A13F0300F09D020291E
S21400203014D0302915D009B10F4A04E04FF44002FD
S21400204001E04FF440020B4BD3F8903032EA030322
S214002050F9D112F4800F07D1012070474FF4000227
S214002060F1E74FF44002EEE7024BD3F8A000C0F3CE
S2140020708020704700400E40FF33E107022801D061
S2140020800120704710B529B1054B4FF48064C3F8A2
S214002090A84059660AB9012010BDFFF7C3FFFBE749
S2140020A000400E4070B5042800F28580DFE800F09E
S2140020B0484250033C00022301250024AC46002978
S2140020C067D002284AD000213B4B1D663B4B234479
S2140020D09B001B68002BF9D0002A6CD0374C644458
S2140020E0A4002368002BF9D0022864D1002962D00E
S2140020F0314B5B6A13F0010F46D001222021FFF717
S214002100BDFF0220FFF708FF06460122002102203D
S214002110FFF7C8FF31460220FFF724FF264B1D6657
S2140021202368002BFCD046E02023102504244FF023
S214002130050CC4E78023402506244FF0070CBEE7B5
S2140021404FF400734FF4807508244FF0090CB6E77F
S2140021500823042502244FF0030CB0E7164B5B6AF5
S21400216013F0300F0ED1164BDB6B134B5B6A13F07C
S214002170010FA9D0104E736A23F0300343F010030A
S2140021807362A1E700219FE700210220FFF74AFFC4
S214002190B7E709490B66084BD3F890100123A34014
S2140021A01942F8D13AB1044BD3F89020012303FA30
S2140021B00CF31A42F7D170BD00400E408004F210B6
S2140021C000300E4010B50446A8B1012818D0FFF71D
S2140021D0CDFBDCB9104B04225A67FEF72FFFFFF742
S2140021E067FBFEF757FF0446FFF74EFB0146204607
S2140021F0FFF7D0FB10BD01221146FFF753FFE6E7BD
S214002200012211461046FFF74DFFE0E7012CE4D10E
S214002210014B03225A67E0E700400E4038B5FEF750
S2140022204BFF0446002100F035FC1648FFF740FB44
S214002230012211460220FFF735FFFFF797FB4CB14E
S214002240114BDB6B13F0400F04D1104BD3F8C830A2
S214002250002BFAD10E4B02225A67FEF7EFFEFFF76D
S21400226027FBFEF717FF0546FFF70EFB014628463D
S214002270FFF790FB04B138BD0121002000F00AFCF6
S214002280F9E700BF0148E80100300E400000C643F1
S21400229000400E4038B5FFF72DFE1B4B984205D97F
S2140022A0044620B1002100F0F5FB00E000241748AA
S2140022B0FFF7FEFA012211460320FFF7F3FEFFF7B1
S2140022C055FB4CB1124BDB6B13F0400F04D1114B96
S2140022D0D3F8C830002BFAD10F4B01225A67FEF70D
S2140022E0ADFEFFF7E5FAFEF7D5FE0546FFF7CCFA9A
S2140022F001462846FFF74EFB04B138BD01210020F9
S21400230000F0C8FBF9E700BF002D31010148E801E5
S21400231000300E400000C64300400E4010B50122BB
S21400232011460320FFF7BEFEFFF720FB084B0522F1
S2140023305A67FEF783FEFFF7BBFAFEF7ABFE0446CE
S214002340FFF7A2FA01462046FFF724FB10BD00BFA8
S21400235000400E4070B504461120FFF7F3FB012243
S21400236000210220FFF79EFE237C022B2AD00022AB
S214002370154E736A23F00103134373622278134BDE
S214002380C3F8A024A288637A43EAC223F362356BBB
S21400239005F07F65E38845EAC325A37A1D43207AC6
S2140023A045EAC01519F0E4FC05433563627BA37B60
S2140023B01B0143EA0233E27B1343227B43EA0243D8
S2140023C0736370BD0122D3E700400E400000C8438F
S2140023D038B505461120FFF7B5FB0D4A916B0D4C3D
S2140023E00C4029780C436B7844EAC324AB7844EA63
S2140023F00364EB7844EA0324936BA34200D138BD10
S214002400012200210846FFF74DFE014B9C63F6E7CC
S21400241000400E4080E4FFF84209064B53F8223095
S21400242000F01F0023FA00F080F0010000F0010029
S214002430704700BF00E100E0074BDB6B13F0400F76
S21400244004D1064BD3F8C830002BFAD1024B58689B
S214002450C0F30140704700BF00300E400000C64386
S214002460114BDB6B13F0400F1DD10F4BDB6B13F0E2
S214002470400F04D10D4BD3F8C830002BFAD10A4BCD
S2140024801A68C2F301225B68C3F301439A4205D976
S214002490054A136843F0100313607047024A136836
S2140024A023F010031360704700300E400000C64350
S2140024B0074B1B6813F0100F05D0064B1B69C3F3C0
S2140024C00443082B00D07047034B044A1A60FAE70F
S2140024D000300E4000400E4034080020C0EA2101C3
S2140024E01A48C26CC2F30322194B1B8803F1280159
S2140024F003EB51032833013202EB8201B3FBF1F305
S214002500013B072B28BF0723C16C21F0EE6141EA8F
S214002510036343F48013C3640E4BB3F90030002BFF
S21400252013DB9BB203F1280103EB51032833510858
S21400253001EB4202B3FBF2F3072B28BF0723026D21
S21400254022F0700242EA03130365704700300E4023
S2140025504C5E0020485E0020024B1880024B19801B
S214002560704700BF4C5E0020485E002010B1012876
S21400257004D07047034B044A9A657047014B034AE0
S2140025809A65704700300E4077402057372110B7C5
S2140025901A4BD3F83032032929D8DFE801F00212AB
S2140025A01518DBB24AB91B0333F4704121D1144825
S2140025B0C16E21F470411943C166012A09D0012079
S2140025C07047C3F30723EDE7C3F30743EAE71B0EA1
S2140025D0E8E71B0333F470420DD10949D1F8EC202B
S2140025E022F470421343C1F8EC30012070470020FB
S2140025F07047002070470020704700BF0081E00F42
S21400260000300E401B02A2B101221343B3F5007F37
S2140026104DD022D8B3F5807F42D00CD940F20112BB
S214002620934215D1294BD3F824321A0EC3F307432D
S21400263010E00022E9E763B3012B06D1234BD3F861
S2140026402432C3F30722DBB204E00022134601E083
S2140026500022134603600A607047B3F5407F2DD012
S21400266040F20132934206D1184BD3F828321A0EA4
S214002670C3F30743EEE740F20122934206D1134B21
S214002680D3F82832C3F30722DBB2E3E7002213466F
S214002690E0E70E4BD3F81C32C3F30722DBB2D9E7D0
S2140026A00A4BD3F81C321A0EC3F30743D2E7074B84
S2140026B0D3F82032C3F30722DBB2CBE7034BD3F8C1
S2140026C020321A0EC3F30743C4E700BF0081E00FB1
S2140026D038B5002850D04B4BDB6B13F0400F07D1BA
S2140026E0494B1A78C2F1020210239340454A1361FF
S2140026F0464AD2F8804104F0010445F60E03C2F8BB
S2140027008031434B1B6803F0010103F010000143C6
S21400271003F04000084303F00401014303F4807310
S2140027200B431366374BDB6B13F0400F04D1394B6A
S214002730D3F8C830002BFAD1324B1B6813F0100FB9
S2140027400DD0324BD3F8403113F0807FF9D1324BA5
S2140027501A682E4B1A61314B1B78052B2BD02F4B4A
S2140027601B78023B0A2B32D8DFE803F02E3F4331BA
S2140027703131313131464900244BD3F89020244B77
S2140027801A601120FFF7DEF9244B18701D4BDB6B27
S21400279013F0400F04D11F4BD3F8C830002BFAD1EA
S2140027A0184B5B68C3F30143174A1370174B1A693B
S2140027B0194B1A6018E01A4B1D68FFF73DFE0146DC
S2140027C02846FFF7E7F8CAE70020FFF7FBFC104BA8
S2140027D01B6813F0010F02D10C4B02221A661CB1C3
S2140027E00A4B0022C3F8802138BD0120FFF7EAFC1F
S2140027F0EDE7FFF713FDEAE7FFF790FDE7E7FFF7E2
S21400280063FBE4E700300E407A5E002000400E4096
S214002810381D00200000C643341D00207B5E0020CB
S21400282034080020074A136823F44073417843EACB
S214002830012313604378022B00D07047024B5B6A7B
S214002840FBE700BF00300E4000400E4038B504469F
S214002850F8B9FFF705FE184A136943F0040313613D
S21400286019F0A1FA19F0A0FA144B154AC3F824245B
S21400287003F559231B6813F0100F0ED130BF19F063
S21400288094FA0CF065FF8CB10120FFF721FF84B1AC
S21400289038BD0020FFF71CFFDBE719F074FA054689
S2140028A01DF0DAFA284619F072FAE8E7FFF700FE9C
S2140028B0EDE7FEF7EFFBEBE700ED00E000A00040E1
S2140028C00000FFFF38B5044650BBFFF7C9FD1E4B9E
S2140028D0D3F8802145F60E01C3F880114FF420711D
S2140028E0196612F0010F02D00022C3F88021174AA1
S2140028F0136943F004031361154B164AC3F82424E6
S21400290019F051FA144B1B6813F0100F0CD130BF9E
S2140029100CF01EFF8CB10120FFF7DAFE84B138BD43
S2140029200020FFF7D5FED0E719F02DFA05461DF07A
S21400293093FA284619F02BFAEAE7FFF7B9FDEDE718
S214002940FEF7A8FBEBE700BF00400E4000ED00E0FE
S21400295000A000400000FFFF00300E40134B9A69B5
S21400296022F03F020378D3B104234178C9B1022193
S2140029700B438178B9B108210B43C178012900D0F7
S21400298000210B4301790B431343084A93611368F4
S21400299023F44033417943EA014313607047002330
S2140029A0E3E70021E4E70021E6E700BF00300E4041
S2140029B008B5104B9C6924F4403444F400349D69F7
S2140029C045F440354AF6E8529A6019F0F9F919F0DC
S2140029D0F8F9094B094AC3F82424002303E0054A02
S2140029E0946195610133032BF9DD024B9C6130BF86
S2140029F0FEE700BF00300E4000A000400000FFFFD2
S214002A0008B5034B0122C3F80023FFF7D1FF00BF30
S214002A100000C64308B5034B0022C3F80023FFF7A7
S214002A20C7FF00BF0000C643174BDB6B13F0400F19
S214002A3029D170B504460D46FFF7FEFCA04218D01B
S214002A40124BD3F80031FEF7F9FA0646022C11D0E5
S214002A50C4F10202102393400B4A136145B1D36BB5
S214002A6013F0400F04D10A4BD3F8C830002BFAD12C
S214002A7024B170BD0221FEF78DFFE9E70021304644
S214002A80FEF788FFF5E7704700300E4000400E4026
S214002A900000C64338B5114BDB6B13F0400F0BD16B
S214002AA00C4650B10E4B1B7813B10E4B98420FD903
S214002AB021460020FFF7B8FF38BD0B4BD3F8005176
S214002AC0C5F304250135FEF7B9FA05FB00F0E9E782
S214002AD021460220FFF7A8FFEEE700BF00300E40B9
S214002AE03C1D0020002D310100400E4008B5027844
S214002AF0034B1A7001210020FFF7CCFF08BD00BF72
S214002B003C1D002010B42C4B5A6B4AF6E851596312
S214002B10294B9B6F13F0010FFAD1274B1B6C13F058
S214002B20030303D025490124C1F8B44AD9B281422F
S214002B3021D0032B00D01BB9431EDBB2012B21D9B9
S214002B401D4B9B6F13F0010FFAD11B490B6C23F042
S214002B50030303430B64184B9B6F13F0010FFAD16A
S214002B60003818BF0120154BC3F8B40A012A1FD03D
S214002B705DF8044B70470028FAD1104B0022C3F8CA
S214002B80B42AF5E70C4B4FF40021D9620A4B9B6F31
S214002B9013F0010FFAD108490B6C23F0030343F03E
S214002BA001030B64044B5B6A13F4002FFAD0C7E7EB
S214002BB0014B00225A63DBE700300E400000C6439C
S214002BC02DE9F04F8DB000910192002309930A93EE
S214002BD00B93069307930893039304930593654A10
S214002BE01288ADF808208DF80A30A0F5E163B3F539
S214002BF0966F00F2AE800646B0F5E16F8CBF4FF0E0
S214002C0001094FF000096DD94FF4966A4FF4E1645C
S214002C10B6F5E16F6BD9584BD3F8183208931A0EF5
S214002C200592C3F307430893544DEF6CC7F301773F
S214002C308DF808703B464A4603A906A8FFF7E2FC53
S214002C40D5F8EC30C3F301288DF8098043464A4690
S214002C5004A907A8FFF7D6FC321B089B0599C91ADA
S214002C6002FB01F1B1FBFAF10B9119440B91DDF86F
S214002C700CB0DDF818C0ABEB0C0502FB05F5B5FB98
S214002C80FAF5099565440995DDF810E00798AEEB6E
S214002C90000404FB02F2B2FBFAF20A9284180A94C9
S214002CA0059A8A4259D38B4259D8A64559D3A04291
S214002CB059D8AB4559D3AC4559D8019B73B12F4B66
S214002CC0DB6D23F4FE4323F0020343EA0123B6F54B
S214002CD0E16F16D902221343284AD365009B93B9A5
S214002CE0012037E04FF4167A4FF4966490E7224BB3
S214002CF0D3F818320893C3F307220592DBB2089381
S214002D0092E70022E7E7002239464846FFF740FCF4
S214002D1000B3012241464846FFF73AFCD0B1A5422F
S214002D2038BF25460995E72D28BFE7250995134B9B
S214002D305B6E23F4FF7323F0010343EA4503B6F505
S214002D40E16F04D9012213430C4A536602E00022C5
S214002D50F9E700200DB0BDE8F08F0020FAE700206C
S214002D60F8E70020F6E70020F4E70020F2E700206E
S214002D70F0E700BF548202000081E00F00300E40F2
S214002D8008B5214B1A6FDB6C13F0010F09D012F057
S214002D90060F06D013281FD9143813281ED8082368
S214002DA023E0194BDB6C13F0010F09D112F0060F6C
S214002DB006D1092814D90A38092813D8082314E09C
S214002DC0114BDB6C13F001030FD012F0060F0BD182
S214002DD0272817D8082308E0042306E0102304E079
S214002DE0042302E0102300E00023013B1A0342EA1A
S214002DF003220549CB6C23F47F431343CB64FFF7D0
S214002E006FFB08BD1023F0E700300E4008B5074BF7
S214002E10D3F88039064A136F23F00703034313677A
S214002E20044B1888FFF7ACFF08BD00BF0000C64380
S214002E3000300E404A5E002008B5084AD36E43F0C4
S214002E408073D366064BD3F880391BB10420FFF796
S214002E50DDFF08BD0020FFF7D9FFFAE700300E407F
S214002E600000C64338B5304B02229A639B6B03F0D2
S214002E700F03934254D10446B0F90C10C3884A2B72
S214002E8009D9B3F5FA7F41D340F6C312934240D82E
S214002E904FF0005200E00022234BDB6C23F040533F
S214002EA023F00103002937DB01210A4313431E4A9E
S214002EB0D364D2F8EC3043F44073C2F8EC30A28806
S214002EC01A4B1A80FFF7B8FFB4F90C102089FFF7E9
S214002ED043FBA088FFF754FFA07BFFF747FB0122C8
S214002EE011466088FFF76CFE0546D0B10E4AD36BDC
S214002EF043F48063D3636078FFF704FEA37A202B45
S214002F000CD000220A4BC3F894270AE04FF08052F8
S214002F10C2E74FF04052BFE70021C6E70122F1E7C3
S214002F200025284638BD00BF00300E404A5E00200F
S214002F300000C643044AD2F8443423F00303034394
S214002F40C2F84434704700BF00A00040F8B50D46F4
S214002F5014461E46072A2AD8930000FA03F20F21C9
S214002F6099401D4818F02EFF0027072C2AD8A100EC
S214002F7005F003028A40032303FA01F1174818F00C
S214002F8021FF174A224492001660164B23449B00EA
S214002F909DF818201A600123A340134AC2F824346F
S214002FA0124B23449B009DF81C201A60F8BDA2F12A
S214002FB00807BB0000FA03F20F2199400C4818F0EE
S214002FC001FFD2E7BF0005F00302BA400321B94073
S214002FD0084818F0F7FED4E700A4004008A4004014
S214002FE080208510A020851000A00040402185107C
S214002FF004A400400CA40040F8B504460D461E4646
S21400300017463AB1FBB100EB400109010122AA4084
S2140030101D4B5A50072D1ED8A90004EB44031B0174
S21400302007FA01F20F2000FA01F11848184418F0C8
S214003030C9FE3FB9FEB104EB440424010122AA40B4
S214003040114B1A51F8BD00EB400109010122AA40BC
S2140030500F4B5A50DEE7A5F108039B0004EB440C27
S2140030604FEA0C1C07FA03F20F2199400948604406
S21400307018F0A8FEDDE704EB440424010122AA4070
S214003080034B1A51DEE700BF0CA0004604A0004028
S2140030900CA0004408A0004008B5094B4FF400728D
S2140030A0C3F88020BFF34F8FBFF36F8F054B00210F
S2140030B0D96619624FF4AA40FEF77CFC08BD00BF33
S2140030C000E100E000200E4081F00101024B0344C5
S2140030D09B001960704700BFA001F11010B50446B0
S2140030E001214FF4AA40FEF765FC23786178A278A8
S2140030F042EA012242EA03620B4B1A6000221A627D
S214003100DA625A634FF00042DA664FF0FF329A6690
S214003110064A4FF40071C2F88011E3785B01DBB217
S21400312082F80933116010BD00200E4000E100E077
S21400313070B50C46C3B201259D40254EB5660B689A
S21400314000EB400106EB0111C1F88030637BC1F84B
S214003150883094F80AC0E37A1B0543EA0C4394F8D7
S2140031600CC043EA4C53C1F8843022F00302C1F885
S214003170982018F00FFEF36E2B43F366237A13B1F4
S214003180736B2B437363637A1BB1114AD36A2B4369
S214003190D3620F4B1B68227922B1D243120262F42B
S2140031A07F42134062790AB143EA0223A2791AB138
S2140031B0D24362F0FF021340E27902B11343044A9D
S2140031C01360044B9D62D56318F0EAFD70BD00BF26
S2140031D000200E4000200E4410B5C0B201248440EA
S2140031E018F0D8FD044AD36E23EA0403D366034BD3
S2140031F01C6218F0D5FD10BD00200E4000200E44C5
S21400320010B5C0B20124844018F0C4FD084B1B6AF8
S214003210234205D1064B9B6A9C4306D0002400E05F
S214003220002418F0BDFD204610BD0124F9E700BFBC
S21400323000200E401430044B53F8200020F0F80015
S2140032404004400C704700BF00600E4001F4FE4191
S21400325002F00702114341EA03511430014B43F8D0
S2140032602010704700600E40014B01229A607047A4
S21400327000500E4010B4184B5C68002318460BE054
S214003280B2F5803F21D0154A52F83320224202D0B0
S214003290214200D110430133082B19D80F4A02EB04
S2140032A0C30251680E4AD2F8E82112F0040FEAD1A0
S2140032B00A4A52F83320B2F5006F06D0E0D8B2F5CD
S2140032C0007F02D0B2F5806FDDD141F48071DAE77D
S2140032D05DF8044B704700BF00500E405882020055
S2140032E00040E00F4A790B7891F801C043EA8C035E
S2140032F091F802C043EA8C1391F803C043EA0C131A
S21400330091F804C043EACC2343EA02338A7943EABD
S214003310424304300001014A135070470020044025
S214003320014B1860704700BF00008442037813B357
S214003330012342780AB3042213438278FAB110229A
S2140033401343C278EAB120221343027943EA0223E8
S214003350427943EA02338279AAB14FF4004213431A
S214003360C27943EA0243027A7AB14FF40032134339
S214003370074A136070470023DBE70022DCE70022E1
S214003380DEE70022E0E70022E9E70022EFE700BFE1
S214003390002004400D4AD2F8E4309B0003F03C03C2
S2140033A0D2F8E010C1F381110B438370D2F8E030FD
S2140033B003F03F034370D2F8E83003F0F003D2F88E
S2140033C0EC20C2F3031213430370704700FF0FE0B4
S2140033D0024BD3F8FC00000E704700BF0081E00FE0
S2140033E070B5054616461C460846D1B1402C20D07E
S2140033F01BD804B3202C13D1082306FB03F2530872
S21400340003EB4013B3FBF2F3203B0C4A02EAC30380
S2140034102A6822F060022A602A6814432C606B61D6
S21400342070BD0748FEF784FCE0E7602CF8D1042363
S214003430E3E70623E1E71023DFE700BFF8FF7F009E
S2140034404041050038B5054614460B4631B1013BF0
S2140034506400B3FBF4F31B026B6138BD0248FEF751
S21400346067FC0346F3E700BF4041050040F6AA6349
S214003470C3600023036041F205024260836043613B
S214003480C364134A8264036643678367C367114B4A
S21400349098420BD003F58063984207D003F580630B
S2140034A0984203D003F58063984201D10023036558
S2140034B00023836503F1804303F58233984203D0EB
S2140034C003F50063984201D10023C365704700BF2F
S2140034D0F9FF01000000014010B5044618F053FC47
S2140034E0084B1B7853B9B4F5A05F09D8054B0122E9
S2140034F01A70054C18F04BFC204610BD0024F9E766
S2140035000024F7E77C5E0020401D0020184B1B6857
S2140035100BB10120704710B5044641F27430FFF736
S214003520DBFF0346124A1060C8B100F1680100F5DF
S2140035308052C2F8EC120021C2F8F01200F5945046
S2140035400830C2F8F4020120C2F8F802C2F8FC12F1
S214003550C2F8881203F59453C2F89C3210BDA368D3
S214003560044A862118680CF0B5FE0020F6E700BF76
S21400357040310020A08202000C2A0AD80C2A60D80B
S214003580DFE802F014175F1B20255F5F2A30363C09
S2140035904100FF2A08D1002302283AD0032849D048
S2140035A0002840D00120704701207047294B1B6837
S2140035B0F2E7284B1B684C33EEE7264B1B6803F6F6
S2140035C06803E9E7234B1B6803F50763E4E7214B31
S2140035D01B6803F50863DFE71E4B1B6803F595536E
S2140035E00C33D9E71B4B1B6803F598530433D3E71A
S2140035F0184B1B6803F598530933CDE7154B1B682A
S21400360003F59B53C8E7134B1B6803F59B530C331A
S214003610C2E7B1F5007F16D20E4A12681A3142F898
S21400362021300020704712290FD80A4A126842F843
S2140036302130704759B9074A1268C2F86838002026
S2140036407047012070470120704701207047012015
S214003650704700BF4031002038B504461AF03CFAE7
S214003660012802D00225284638BD002006F060FA60
S21400367005460028F7D120461AF0DBFB084B1968F0
S214003680084A01F597510C3120460DF0DDFD002269
S214003690054B1A60032120461AF022FAE3E700BF22
S2140036A040310020B1BB01001C45002000B50C28AD
S2140036B06FD8DFE800F00712181E252C333A6E424A
S2140036C04A525900354800684FF04C0E01EB020C88
S2140036D0F44560D80144104653E0304800684C304A
S2140036E04FF01A0EF2E72D48006868304FF4006E6F
S2140036F0ECE72A48006800F668004FF0080EE5E799
S2140037002648006800F507604FF0100EDEE72348F5
S214003710006800F508604FF4206ED7E71F48006881
S21400372000F594504FF0080ED0E71C48006800F5EE
S214003730945008304FF0240EC8E71848006800F58B
S214003740985004304FF0050EC0E71448006800F5A6
S214003750985009304FF0560EB8E71048006800F54C
S2140037609B504FF00C0EB1E70C48006800F59B50DC
S2140037700C304FF0050EA9E713F8012B01F8012BCA
S214003780604600F1FF3C5FFA8CFC0028F4D15DF83F
S21400379004FB0120FBE70120F9E700BF40310020D1
S2140037A0F0B585B004468268C368023352F8233009
S2140037B01D78FFF7ABFE002839D06368E6689B1BD0
S2140037C0EA1C93420BD10A2D10D8A36853F8262082
S2140037D01078721C53F82230198800231BE0A36867
S2140037E0174A802118680CF075FD20E0A368154A7A
S2140037F0812118680CF06EFD19E0DA1C3244A768C7
S21400380057F8222092F800C003F110026A4402F82A
S2140038100CCC0133DBB2AB42EFD301AB2A46FFF749
S21400382045FF30B9A368084918680CF0FBFC05B0E2
S214003830F0BDA368054A822118680CF04BFDF6E738
S214003840C0820200F4820200408302002483020049
S21400385010B50446FFF75AFE50B16268E368D21A04
S214003860032A06D0A368114A832118680CF032FD9B
S21400387010BDA26852F82300591C52F821100233DA
S21400388052F823301A7809880078FFF775FE28B9B1
S214003890A368074918680CF0C5FCE9E7A368054A61
S2140038A0842118680CF016FDE2E700BF588302007A
S2140038B0408302007883020010B50446FFF726FE18
S2140038C000B910BD084B1868FFF7C6FE28B9A368F4
S2140038D0064918680CF0A6FCF3E7A368044A85219D
S2140038E018680CF0F7FCECE7243800204083020050
S2140038F094830200F0B599B00446836819680120E5
S21400390009F098FD002800F089800DF1440C574D11
S2140039100FCDACE80F0095E807008CE807000025FF
S214003920069501238DF81C304FF42873ADF81E3031
S21400393002238DF820308DF821308DF822308DF856
S21400394023300DF1240C0DF1440EBEE80F00ACE858
S2140039500F009EE807008CE807000B238DF8403028
S2140039608DF841508DF842508DF84350A768E568B1
S21400397057F8256004223E4930461BF066FF0028B3
S21400398039D101238DF820308DF82230A168013519
S21400399051F825301B880B930993E3689A1C51F85D
S2140039A0222012880C920A3A0A92DA1C51F8222037
S2140039B01288ADF81E206268D21A042A0ADD043383
S2140039C051F823301B78003B18BF0123294A137097
S2140039D08DF84330082006F0ABF8C8B906A9264B88
S2140039E018680DF0B9FE0146D0B1A368234A1868DE
S2140039F00CF070FC12E00222214930461BF025FF35
S214003A000028C3D01F4A202138680CF063FC05E06C
S214003A10A3681D4A222118680CF05CFC19B0F0BDA2
S214003A20154B1A68194B1A60A3681D689DF822008A
S214003A3009F05CFC04469DF8200009F057FC0B9B3F
S214003A400C9ABDF81E109DF8436066B1104E0496A1
S214003A50039102920193009023460E4A0E4928468F
S214003A600CF0E0FBDAE70D4EF1E700BFB88A020083
S214003A70D48302007D5E0020243800201C840200CF
S214003A8060020200DC830200FC8302004431002056
S214003A90C48302004C84020054840200CC830200DB
S214003AA010B5836818680CF05BFB002408E0084B30
S214003AB053F83420214607480CF0D4FB0134E4B216
S214003AC0082CF4D90022214602480CF0E7FB10BD72
S214003AD0708A0200CC84020038B5044683681968F0
S214003AE0012009F0A7FC00B938BD082006F020F830
S214003AF00546002848D16368E2689B1A002B07DD5C
S214003B00A06850F822100D78012B01DD012D42D857
S214003B10012B08DDA168501C51F82010097811B15E
S214003B2045F00205EDB2022B08DDA168901C51F8A5
S214003B302010097811B145F00405EDB2032B0FDD16
S214003B40A068D31C50F823301B784BB145F008050D
S214003B50EDB2082D06D91B4A012100680CF0BAFB0D
S214003B60082D1ED8184B03EBC5035B68CBB1174A6C
S214003B70106898470546D8B1A3681868FDB1144A7E
S214003B8014490CF04FFBAFE7A368134A22211868CC
S214003B900CF0A0FBA8E7114A222100680CF09AFB63
S214003BA0A2E7A3680E4A012118680CF093FB9BE776
S214003BB00C4B01221A700B2007F0C0FDDCE70A4A06
S214003BC0DEE700BF24850200708A02002438002049
S214003BD0D484020080850200FC830200E084020098
S214003BE060850200EC0D00204C84020038B50446C7
S214003BF083681968012009F01DFC00B938BD08204B
S214003C0005F096FF68B9154B18681AF033FD05469F
S214003C1070B1A3681868FDB1114A12490CF002FB96
S214003C20ECE7A368104A222118680CF053FBE5E77E
S214003C300E4B02221A70802007F080FD0C4B1B886A
S214003C40102BE6D10B4B1B780F2BE2D1094B182219
S214003C501A7070225A70DCE7074ADEE72438002024
S214003C60D484020080850200FC830200EC0D002054
S214003C70DC0D0020BC0800204C84020038B5044649
S214003C8083681968012009F0D5FB00B938BD082003
S214003C9005F04EFF68B9154B18681AF0EDFC05469E
S214003CA070B1A3681868FDB1114A12490CF0BAFA4F
S214003CB0ECE7A368104A222118680CF00BFBE5E736
S214003CC00E4B02221A70E02007F038FD0C4B1B88C2
S214003CD0102BE6D10B4B1B780F2BE2D1094B182289
S214003CE01A7070225A70DCE7074ADEE72438002094
S214003CF0D484020080850200FC830200EC0D0020C4
S214003D00DC0D0020BC0800204C8402002DE9F043A6
S214003D1085B004468268C36852F823100D78591C93
S214003D2052F8211091F80080991C52F821100F7853
S214003D30D91C52F821100E784168C91A04293ADDB8
S214003D40043352F8233093F80090B9F1000918BFF5
S214003D504FF00109002D31D12946B8F1000F01D0EE
S214003D6041F004010FB141F002010EB141F0010132
S214003D70B9F1000F01D041F020011A4B18681AF073
S214003D80DCFCE8B9A36818680DB3174AB8F1000F51
S214003D901FD0154BFFB11449FEB1134CB9F1000FFB
S214003DA01DD0114D02950194009110490CF03AFA7D
S214003DB005B0BDE8F0834FF00009CBE70821CCE75B
S214003DC0A3680B4A232118680CF084FAF0E7094A26
S214003DD0DCE7084BDEE70749DEE7064CDEE7054D85
S214003DE0E0E700BF243800204C840200B4850200BF
S214003DF08C850200D484020038B504468368C26805
S214003E0053F822301D78291E18BF01210A4B186866
S214003E101AF065FC38B9A36818685DB1074A084906
S214003E200CF000FA38BDA368064A242118680CF086
S214003E3051FAF7E7044AF2E7243800204C840200DF
S214003E402886020004860200D484020038B50446A0
S214003E508368C26853F822301D78291E18BF0121D6
S214003E600A4B18681AF02DFC38B9A36818685DB1BB
S214003E70074A08490CF0D6F938BDA368064A24213B
S214003E8018680CF027FAF7E7044AF2E7243800200F
S214003E904C840200608602003C860200D484020045
S214003EA010B504468068E36850F8232011886268DD
S214003EB0D21A012A11DD013350F823301A78084B44
S214003EC018681AF0ECFBA3681C6803F0CBF80246EF
S214003ED0044920460CF0A6F910BD0022EFE700BF0B
S214003EE0243800207486020010B504468068E36813
S214003EF050F8232011886268D21A012A11DD013396
S214003F0050F823301A78084B18681AF0CEFBA368CE
S214003F101C6803F0A7F80246044920460CF082F914
S214003F2010BD0022EFE700BF24380020888602007C
S214003F3010B582B0044600230BE0A168E2681A447C
S214003F4051F82220117803F108026A4402F8081C8E
S214003F500133072BF1DD6368E2689B1A082B14DD3A
S214003F60A368083253F822301A786946084B186856
S214003F701AF0A1FBA3681C6803F074F80246054912
S214003F8020460CF04FF902B010BD0022EDE700BF4E
S214003F9024380020A08602002DE9F0418AB00446AD
S214003FA001AD474E0FCE0FC50FCE0FC533682B6041
S214003FB000273E4638E0A06873180022114650F8E5
S214003FC0230017F03BF983B23DE0A0680B440022C3
S214003FD0114650F8230017F031F983B247E0A06885
S214003FE00B440022114650F8230017F027F98046AC
S214003FF08E4652E0EB00C3F1200CA3F1200028FA15
S21400400003F20EFA0CFC42EA0C022EFA00F002430F
S21400401028336B440B4403F8182C01310729E9DDDB
S2140040200336F6B20137FFB2022F38D8324663683D
S214004030E1685B1A9E4232DA012EBCD8A3680A44B5
S21400404053F822301B883D460AAA02EB470222F8A4
S214004050243C731CDBB26268E168521A93421EDA93
S214004060012BB2D8A2680B4452F823301B880AAA48
S21400407002EB450222F81E3CB31CDBB26268E16824
S214004080521A93420BDA012BA9D8A2680B4452F8B5
S2140040902330B3F800804FF0000E0021BEE701A9E0
S2140040A0084B18681AF0F9FAA3681C6802F0DAFFE1
S2140040B00246054920460CF0B5F80AB0BDE8F08186
S2140040C0D48A020024380020B886020008B5836827
S2140040D0C26853F82220126803490A600349186828
S2140040E00CF0A0F808BD00BF48310020D0860200C2
S2140040F030B583B004468368C26853F822301D6822
S2140041002A464FF0FF31154B18681AF0F6FAB8B980
S21400411005F00201C5F34003114A1370A36818683E
S21400412015F0010F13D00F4A99B10E4B15F0040F7E
S21400413011D00C4900910C490CF074F803B030BD56
S214004140A3680A4A1F2118680CF0C4F8F6E7084A64
S214004150EAE7074BEAE70649ECE700BF2438002009
S2140041607E5E0020C4830200F8860200E486020019
S214004170CC83020030B583B004468368C26853F827
S21400418022301D682A464FF0FF31164B18681AF089
S214004190C4FAB8B915F001031BD00221124A1170F7
S2140041A0A2681068BBB1114A15F0020F15D00F4B6C
S2140041B015F0040F13D00D4900910D490CF032F89C
S2140041C003B030BDA3680B4A1F2118680CF082F8B4
S2140041D0F6E70121E2E7084AE6E7074BE8E7064983
S2140041E0EAE700BF24380020EC0D0020C48302005C
S2140041F04887020034870200CC830200F8B50446E4
S2140042008268C36852F823100E78013352F82330C0
S2140042101D782F1E18BF0127311E18BF01210F4B16
S21400422018681AF098FA10B95EB10D4E00E00D4EFF
S21400423039460A4B18681AF09CFA20B95DB1084B4B
S21400424002E0094EF4E7074BA068324607490068CB
S2140042500BF0E8FFF8BD044BF6E700BF243800205B
S2140042604C84020080870200D48402008C870200FF
S21400427038B504468068E36850F82320117805298D
S2140042801CD80025AC4661B16268D21A022A1CDD31
S2140042905A1C50F822201578023350F8233093F831
S2140042A000C0C1B94A4B1B88013303F07F030122CB
S2140042B0002A00F087804FF0000C78E00B46454A55
S2140042C01F2100680CF006F87BE0434A1F210068B7
S2140042D00CF000F875E001290BD03D4B1A88043A23
S2140042E0C2F30A028B1E032B4ED8DFE803F01F2E04
S2140042F03849B5F1000E18BF4FF0010EBCF10002B0
S21400430018BF012285B10221314B1B88023B11FAEE
S21400431083F3C3F30A03D20242EA0E32134393FA3C
S214004320A3F31B0C0222C3E70421EDE705F01F05EB
S2140043300CF0030CD20142EAC54242EACC0305293E
S21400434024D093FAA3F30422B2E7003D18BF012558
S2140043500CF003035B0343EAC5331343EFE7B5F101
S214004360000E18BF4FF0010EBCF1000C18BF4FF046
S214004370010C4FEACC2C4CEA0E3C42EA0C03DEE77A
S214004380120602F0FE43DAE70023DAE704228FE79C
S2140043904FEACC0EFF2101FA0EF1194021FA0EF178
S2140043A00E4800F80C100CF1010C5FFA8CFC62450C
S2140043B0EED8A0680A4900680BF034FF204603F0E8
S2140043C0FDFE38BD074A1F2100680BF083FFF8E7A3
S2140043D0DC0D0020A4870200BC870200BC08002079
S2140043E0D8870200EC87020008B5C368436083687C
S2140043F0024A1F2118680BF06DFF08BD00880200F6
S21400440008B5C36843608368024A1F2118680BF02A
S21400441061FF08BD008802002DE9F04F9BB00446FE
S214004420BA4B1868002874D1B94B1E78002E00F0DD
S2140044304882B84B1F780BA9204619F03FFFBDF8FD
S2140044402E30BA1C934267D3192B0BD91923ADF81B
S2140044502E30BDF83030182B04D91923ADF8303083
S21400446000230E930BA910A817F071FD7B1CDBB27E
S21400447007F168026A4412F8285C2A4605F007012C
S21400448005294ED00237FFB268336B4413F8283C38
S21400449045EA0325019505F44050AB0A03F03803BE
S2140044A06A0A02F006021343C5F3801213439A4ABF
S2140044B032F813104FF6FF73994269D0B0F5005FDB
S2140044C06BD07B1CDBB207F168020DEB020717F816
S2140044D028ACB0F5005F67D0080B00F0E88101F06B
S2140044E00F02C1F303152A44C1F303210A4453FA09
S2140044F082F3DBB21844BDF82E20904200F3DC8134
S21400450068336B4413F8283CAA2B14BF00230123FE
S214004510E5E119F096FF87E7804A936A01339362D4
S214004520E1E115F0080F31D00237FFB268336B4473
S21400453013F8282C45EA0222930903F40273D109E2
S21400454001F010010B43510A01F020010B439108C2
S21400455001F4A0710B43910101F440610B43120278
S21400456002F44042134343F4005545F0050513F4A6
S2140045704C438FD0B3F5084F8CD0B3F50C4F89D091
S214004580B3F5484F86D085F0400583E71F46D3E74E
S214004590624A936A01339362A5E115F4807F90D056
S2140045A03B464FF0000A94E75D4AB2F84020ADF86B
S2140045B0082000228DF80A2001F00F098DF80890D7
S2140045C0184609EB0302BDF82EC062451BDCB9F1A4
S2140045D0000F0FD05A1C6830684410F8280C8DF86D
S2140045E009000233DBB21AA850FA82F212F8282C1D
S2140045F08DF80A20C1F303128DF814201A4494454E
S21400460006DB012216E0454A936A013393626AE1AB
S214004610424A936A0133936265E1581C68336B44DF
S21400462013F8287C02F168036B4403F8547C0132CB
S214004630D2B2C3B29DF814709742EED2C1F3032BE8
S2140046408DF80CB018460BEB030294451ADBBBF151
S214004650000F0FD05A1C6830684410F8280C8DF8EC
S2140046600D000233DBB21AA850FA82F212F8282C98
S2140046708DF80E20090B8DF8201019448C4506DBAA
S214004680012216E0254A936A013393622BE1234AFE
S214004690936A0133936226E1591C68336B4413F81E
S2140046A0280C02F168036B4403F8480C0132D2B2BE
S2140046B0CBB29DF820809045EED210AB0493194BF8
S2140046C01B78BBB905F4A072019B1B0903F4406379
S2140046D01A432B0103F440431A4342F4005343F0B9
S2140046E00203B8F1000F1FD09DF82110AA2907D0A9
S2140046F000261AE0002204A9204619F09BFDE1E7F7
S21400470042F4005343F012030FE000BF483100208C
S2140047107E5E0020EC0D0020DC880200400E0020AB
S214004720B88A02007F5E002000267E4A117801F1DA
S214004730010C5FFA8CFC049A53548A1CD2B24FEADE
S214004740132E049800F80CE015F4807F04D1033192
S214004750049800F802A0CAB2990A01F03801580A73
S21400476000F006000143C3F380130B436E4931F893
S21400477013C04FF6FF739C452AD01CF00F0F0ED0C7
S214004780BBF1000F29D0531CDBB29DF80D00049935
S21400479088540232D2B29DF80E000499C8541CF018
S2140047A0F00F3DD11CF4706F48D0B9F1000F39D12D
S2140047B0BBF1000F58D0531CDBB29DF80D000499D6
S2140047C088540232D2B29DF80E000499C85435E0DF
S2140047D0564A936A0133936285E0B9F1000F0CD014
S2140047E0531CDBB29DF80900049988540232D2B2F9
S2140047F09DF80A000499C854D1E74C4A936A0133DD
S214004800936270E0511C03F16800684410F8485C3D
S214004810049885540133DBB2CAB29845F2D2C1E798
S2140048200123FAE7531CDBB29DF80900049988546B
S2140048300232D2B29DF80A000499C854BCF5805FD3
S21400484017D2384B1B78022B22D0531C04990B70BE
S2140048500499204619F0A0FF18BB002E43D0334A17
S214004860136A013313623EE0304A936A013393625F
S21400487039E001239F42E4D3511C03F168006844E9
S21400488010F8545C049885540133DBB2CAB2F1E7E1
S214004890049B1821197092FAA2F3CB4004994B702E
S2140048A0D6E706B3214A536A013353621BE01F4A18
S2140048B0936A0133936216E01C4A936A013393624B
S2140048C011E017A9204619F064FF78B99DF8643006
S2140048D0032B10D09DF85C30AA2B12D00023144A6C
S2140048E012789A420FD11BB0BDE8F08F0F4A936A38
S2140048F001339362F7E79DF85C30AA2BEAD10123D7
S214004900EDE70123EBE7204619F041FF20B9074AFF
S214004910136A01331362E6E7044A536A01335362AB
S214004920E1E700BFEC0D0020DC880200400E00200E
S2140049307D5E002038B504468368C26853F822308E
S2140049401D782946084B186819F04FFF30B9A36840
S2140049502A46064918680BF065FC38BDA36804496A
S21400496018680BF05FFCF8E7243800204088020047
S2140049704C88020008B58368024918680BF052FCA0
S21400498008BD00BF6488020008B58368024918683D
S2140049900BF048FC08BD00BF8488020010B582B04A
S2140049A004468368C26853F822301B68019301A945
S2140049B0094B186819F04BF938B9A368019A0749EA
S2140049C018680BF02FFC02B010BD0146A368044A1D
S2140049D018680BF07FFCF6E724380020B088020049
S2140049E0C0880200F8B505467AB9002303700BE0CC
S2140049F0325D084928460CF0B9F805440134A74250
S214004A00F6DC002305F8013CF8BD0E4617460024E8
S214004A10F5E700BFFC8A020010B50446074B18688D
S214004A2019F0D5FCA3681B6828B1054A0549184645
S214004A300BF0F8FB10BD044AF8E700BF243800204E
S214004A404C840200048B0200D484020010B5044695
S214004A508368C26853F822301968003918BF0121EC
S214004A60044B186819F0AFFCE36863602046FFF754
S214004A70D3FF10BD243800202DE9F04184B08368B0
S214004A80184918680BF084FB002523E0164A0292AA
S214004A90164A019200912246294612480BF0A0FBC6
S214004AA00134032C15DC4FEA850804EB8501104F12
S214004AB07E19B2780F4B03EBC1010C48FFF792FF4B
S214004AC07B5DB1780C4A4244125D002ADED00B4A68
S214004AD0DDE70135012D01DC0024E2E704B0BDE886
S214004AE0F08100BF188B0200D48402004C310020F5
S214004AF07C3100208C310020843100204C84020060
S214004B0070B504464022002124481AF0C8FE244B03
S214004B1000221A605A60A668E56856F825301A68BA
S214004B20204B5A606068401B042802DC01380023D2
S214004B300FE00420FBE75A1C2A4456F8222003EB19
S214004B40D37192F800C0174A02EB610282F802C0E5
S214004B50013383420FDA13F0010FECD15A1C2A44BA
S214004B6056F8221003EBD372521091F800C00D498C
S214004B7001F802C0ECE70B490B4B186819F025FC4E
S214004B8028B9E36863602046FFF776FF70BDA36828
S214004B90064A302118680BF09DFBF7E78C310020A1
S214004BA0843100207C31002024380020548B020001
S214004BB008B58368024A342118680BF08BFB08BDE1
S214004BC0808B020070B584B004468668C06856F8CC
S214004BD020301978431C56F823301A7802EB8105EA
S214004BE001290AD8032A08D863681B1A0A2B0BDC8B
S214004BF00023029303939C461AE0204A3121306832
S214004C000BF068FB04B070BD1D4A322130680BF013
S214004C1061FBF7E70CF10203034456F8233093F8E0
S214004C2000E00CF110036B4403F808EC0CF1010CE7
S214004C3063681B1A023B6345ECDC124B03EB8103F3
S214004C409B5C009302AB1048006819F0B2FB68B991
S214004C500E4B03EBC50304AA12E9030083E8030026
S214004C60E36863602046FFF707FFCBE7A368084AC0
S214004C70332118680BF02EFBC4E700BFA88B020098
S214004C80D08B020084310020243800208C31002094
S214004C90F08B0200F0B585B004468268C36852F80F
S214004CA023100E78591C52F821100F78023352F850
S214004CB023301D78003D18BF01253B463246294665
S214004CC01248006819F07DFBB8B9114B03EB860358
S214004CD0DD55A36818680F4B9A5D33449B789DB1E9
S214004CE00D4903910D490291019300923B463246CD
S214004CF00B490BF097FA05B0F0BDA368094A3421BA
S214004D0018680BF0E7FAF6E70749EAE724380020C8
S214004D10843100207C3100204C8402004C3100207D
S214004D20188B0200108C0200D484020070B58CB080
S214004D3004460120384B1870A368196808F07AFBFF
S214004D4000283FD0A668E36856F82350042233496B
S214004D5028461AF07AFD002836D12F4B01221A7108
S214004D609A710023059306930793089309930A9371
S214004D700B93A268E368591C52F821100988079122
S214004D800591023352F823301B8808930A2B01D969
S214004D900A3B0693A268E368033352F823301B8865
S214004DA01D4E73801E4D05A928680CF0EFF831469D
S214004DB0286819F029FA0146B8B1A368194A186894
S214004DC00BF088FA0CB070BD0222174928461AF07C
S214004DD03CFD20B9104B02221A719A71C1E7134AA2
S214004DE0202130680BF076FAECE7A3681E680A4DBF
S214004DF0287908F07BFA0446A87908F077FA034683
S214004E006A880292089A0192079A009222460849F6
S214004E1030460BF007FAD5E7CC310020D4830200E9
S214004E2024380020348C020060020200DC8302007A
S214004E30648C0200F0B583B00646104F386819F04F
S214004E40F1F90546386819F005FA0446386819F08D
S214004E5005FA0146B368186855B1094A54B1094BBA
S214004E6051B10849009108490BF0DCF903B0F0BDD8
S214004E70064AF3E7064BF3E70549F3E72438002034
S214004E804C840200B88C0200CC8C0200D484020051
S214004E90C08C020010B584B00446104B1B88ADF8D9
S214004EA00C3000228DF80420ADF80620ADF808304E
S214004EB0ADF80A3001A90A4B186819F0A5F930B9FF
S214004EC0E36863602046FFF7B5FF04B010BD0146F7
S214004ED0A368044A18680BF0FDF9F1E7448D020058
S214004EE024380020008D020070B504468268C3682E
S214004EF052F823100978013352F823301E78094DF2
S214004F00003918BF0121286819F0A2F9311E18BF10
S214004F100121286819F0A0F9E36863602046FFF7CE
S214004F2089FF70BD2438002008B58168C36851F831
S214004F3023201278013351F823301B78003A18BF2B
S214004F4001220A480270003B18BF0123084803707C
S214004F50086832B1074A33B1064B07490BF062F9CD
S214004F6008BD064AF7E7054BF7E700BF9D5E002041
S214004F709C5E0020C4830200188D0200CC830200D1
S214004F8008B58268C36852F823301B78003B18BF08
S214004F90012305490B70106823B1044A04490BF03D
S214004FA041F908BD034AF9E77F5E00204C84020001
S214004FB0348D0200D484020010B50446074B1868EE
S214004FC019F035FCA3681B6828B1054A0549184640
S214004FD00BF028F910BD044AF8E700BF243800207B
S214004FE04C840200488D0200D484020010B50446AA
S214004FF08368C26853F822301B787BB1032004F024
S21400500097FD20B90A4B186819F000FC0AE0A3685F
S214005010084A222118680BF05DF908E0044B18686E
S21400502019F003FCE36863602046FFF7C5FF10BD78
S21400503024380020FC83020010B504464368C2688A
S2140050409B1A012B04D1836853F822301B786BB966
S214005050094B18680CF0F0FBA3681C6802F002F815
S2140050600246064920460BF0DDF810BD024B1868D4
S2140050700CF0DCFBF0E700BF24380020508D020067
S21400508010B504464368C2689B1A012B04D1836896
S21400509053F822301B786BB9094B18680CF0D8FB14
S2140050A0A3681C6801F0DEFF0246064920460BF0A6
S2140050B0B9F810BD024B18680CF0C4FBF0E700BF4F
S2140050C024380020508D020010B504460F4B186897
S2140050D019F0ADFB90B1A368E26853F82230197856
S2140050E00A4B186819F0A8FBA3681C6801F0BAFF01
S2140050F00246074920460BF095F810BDA368054AFE
S214005100312118680BF0E6F8F7E700BF24380020D6
S214005110508D02005C8D020010B504460C4B1868DA
S21400512019F085FB68B10A4B186819F08BFBA36869
S2140051301C6801F097FF0246064920460BF072F8FD
S21400514010BDA368044A312118680BF0C3F8F7E7CE
S21400515024380020508D02005C8D02002DE9F041BD
S21400516082B004462D4B186819F061FBB8B161682F
S214005170E068091A002919DDA36853F820301D7865
S214005180012915DDA368421C53F822301E68022947
S21400519010DDA368821C53F822301F680BE0A3685A
S2140051A01F4A312118680BF095F82BE02525E7E714
S2140051B01C4EECE71C4F03290BDDA368033053F8A5
S2140051C0203093F80080B8F1000818BF4FF00108AF
S2140051D001E04FF00008CDF800802B4632463946F5
S2140051E00E48006819F04DFB88B9A36818682A466F
S2140051F0B8F1000F09D00D4B0193009733460C49C8
S2140052000BF010F802B0BDE8F0810A4BF4E7A36893
S214005210094A322118680BF05DF8F3E724380020BD
S2140052205C8D0200D6BE898E55555500D48402008A
S214005230748D02004C840200BC8D020070B582B0F2
S21400524004468368C26853F822301D782B4B1868D2
S21400525019F0EDFA002830D0A5F12503DBB2022BB9
S21400526032D8002300932B46254A26492348006857
S21400527019F007FB00282ED1252D33D0262D35D04A
S214005280272D37D0A3682A461F4918680AF0CAFF98
S2140052901E4E1F4D0FCD30607160B260F36007CDBB
S2140052A030617161B2611B4B1C221A80E368636037
S2140052B0204602F083FF02B070BDA368164A312173
S2140052C018680BF007F8F6E7A368144A3021186848
S2140052D00BF000F8EFE7A368114A322118680AF0CD
S2140052E0F9FFE8E7002006F029FACBE70C2006F0E5
S2140052F025FAC7E7272006F021FAC3E7243800205E
S214005300D6BE898E55555500FC8D0200BC0800207F
S214005310148E0200DC0D00205C8D0200E08D020081
S214005320BC8D020010B58368C26853F822301B7823
S214005330003B18BF0123404A5370002B71D0002158
S214005340D17091804FF47A7494603C4CD4603C4C9D
S21400535014614FF0250CA2F806C0917011704168D8
S214005360C268891A012909DD846802F1010C54F823
S2140053702C4094F800C0304C84F803C0022906DDA7
S2140053808168941C51F824100C682B498C60416885
S214005390891A032906DD8168D41C51F824100C886C
S2140053A025498C804168891A042906DD8168141D08
S2140053B051F824100C882049CC804168891A0529A8
S2140053C006DD8168053251F8222011681A4A1161FB
S2140053D04268C168521A062A06DD8268063152F80B
S2140053E021201168144AD1604268C168521A072AFF
S2140053F00EDD846801F1070C54F82C4094F800C0C8
S214005400BCF1000C18BF4FF0010C0B4C84F802C026
S214005410082A06DD8268083152F821201178064AEB
S214005420117033B1074A8368074918680AF0FAFE14
S21400543010BD064AF7E700BFD43100205555550089
S214005440D6BE898E4C840200348E0200D4840200BC
S21400545008B58368024918680AF0E4FE08BD00BF74
S2140054606488020070B582B004468368196801201B
S21400547007F0E0FF002870D03A4B1A683A4B1A60E3
S2140054806268E3689A4201D0002322E0A368374AA4
S214005490122118680AF01EFF5FE0354A16213068B0
S2140054A00AF018FF59E005EB8501324800EB810051
S2140054B0CCF80400A068E168013A114450F82120B5
S2140054C011682D4A02EB0512916000211173013319
S2140054D0DBB26268E168501A1D4603F1010C4FEA20
S2140054E08C02B0EB8C0F26DBA66801EB830156F826
S2140054F021100868B0F5803FCFD21F4E290106EB79
S214005500051C7052A068E168D61E314450F8211080
S21400551009688CF8021001F07F010529C3D0A06845
S214005520E168961E314450F821100868124901EBD4
S21400553005114860BEE70C4EB37131460F4B186834
S21400554018F063FF0246A368186833683AB90C4A35
S21400555000922A460B490AF065FE02B070BD0A4A60
S214005560F6E700BFBC0C00204C080020488E020066
S214005570888E02000C3200205C3200202438002086
S214005580C4830200A88E0200CC83020030B583B02C
S214005590044683681968012007F04CFF28B3A0680A
S2140055A0E36850F823201278032A20D8013350F8F5
S2140055B023301B78114901EB021191F90E504B7301
S2140055C06168E068091A022909DDA168023051F80D
S2140055D0201091F90050094901EB02118D73A16862
S2140055E00868009506490AF01DFE03B030BD042386
S2140055F0044A162100680AF06DFEF6E75C320020C9
S214005600E88E0200D48E0200F0B585B004468368AA
S2140056101968012007F00EFF002830D0A068E36864
S21400562050F823201278032A2BD8013350F8233061
S2140056301B68174802EB820500EB850140F8253011
S214005640A568E068023055F8200005684D60A66839
S214005650E068033056F8200006688E60E068043084
S214005660A76857F820000768CF6000200861A16887
S214005670086802970196009506490AF0D3FD05B022
S214005680F0BD0423044A172100680AF023FEF6E75B
S2140056900C320020108F0200D48E020010B5044693
S2140056A083681968012007F0C5FEF0B1A068E368BA
S2140056B050F823201178003918BF01216268D21AE9
S2140056C0012A13DD013350F823301A78003A18BF48
S2140056D00122084B186818F09AFEA3681B6838B9B0
S2140056E0054A064918460AF09DFD10BD0022F0E75F
S2140056F0034AF6E724380020C4830200C88E02005E
S214005700CC83020010B584B004468368C26853F8A0
S21400571022301978124B186818F07BFE10F5007FBF
S21400572016D007EE900AF8EEE77A0223B5EE007A76
S21400573067EE877A17EE902A0A2101A80AF002FE81
S214005740A36801AA074918680AF06CFD04B010BDEA
S214005750A368054A082118680AF0BCFDF6E700BFF2
S2140057602438002000910200588F02002DE9F047EF
S2140057708CB0044683681968012007F05BFE002899
S21400578069D00023089309930A930B936168E36832
S214005790C91AA06850F823201268D5B202F07F0C10
S2140057A0BCF1050F5AD0032652B2002A58DB8E42AF
S2140057B058D85E1C50F8266036680896BCF1050F6F
S2140057C056D04FF0020E0EF1010703EB0E0850F80C
S2140057D02880D8F80080002A5BDB6FF07F0E4FF041
S2140057E000098F4274D131463E4A1660099B5360C9
S2140057F00A9B93600B9BD36000231361049305936D
S214005800069307938DF81050BCF1050F66D00591EE
S214005810CDF818808DF81D908DF81EE0324BC3F839
S214005820008004A9314B186818F0F5FD0346A268FD
S2140058301068002B54D12E4A9DF81D309DF91E107D
S21400584003910293069B0193059B00939DF81030ED
S21400585028490AF0E7FC0CB0BDE8F0870626A3E767
S2140058600136A4E7244A122100680AF033FDF2E765
S2140058709F1C50F827703F680997DF1C50F8277068
S2140058803F680A971F1D50F827703F680B97E6463B
S21400589099E70EF1020A1F4450F8272012685FFAB3
S2140058A082F912F0040F0FD0514507D90EF1030705
S2140058B0534450F8233093F900E092E70F4A13213F
