S02B00002F55736572732F6A65636C6F7574652F53696D706C696369747953747564696F2F73616E64626F781D
S315080000000008002073FD010877FD010877FD010847
S315080000107B1D020877FD010877FD010877FD0108B9
S3150800002077FD010877FD010877FD010877FD0108CE
S3150800003077FD010877FD010877FD010877FD0108BE
S3150800004077FD010877FD010877FD010877FD0108AE
S3150800005077FD010877FD010877FD010877FD01089E
S3150800006077FD010877FD010877FD0108891F01085A
S31508000070791F010877FD010877FD010877FD01085A
S3150800008077FD010877FD010877FD010877FD01086E
S3150800009077FD010877FD0108A140000877FD0108F2
S315080000A077FD010877FD0108A51500087D150008EC
S315080000B077FD010877FD010891850108098F010878
S315080000C0A13302089D3302081D860108B7330208CA
S315080000D0A5330208D98E0108A9330208BDFA01081A
S315080000E0498F010877FD010877FD010877FD0108AA
S315080000F077FD01089D11020877FD010877FD0108C3
S3150800010077FD010877FD010877FD010877FD0108ED
S3150800011077FD010877FD010877FD010877FD0108DD
S3150800012077FD010877FD010877FD010877FD0108CD
S3150800013077FD010877FD010877FD010877FD0108BD
S3150800014077FD010877FD010877FD010877FD0108AD
S3150800015077FD010877FD0108576D0208B5F7010814
S3150800016077FD010877FD01080DF4010841F401083F
S3110800017077FD010877FD010877FD0108FE
S315080001802DE9F04F2DED028B93B082460C4693462F
S315080001901D4657EC106B8DED080B32463B46304634
S315080001A0394612F0A1FB002800F00A814FF0FF3211
S315080001B0B14B3046394612F0BFFB002840F00081AB
S315080001C04FF0FF326FF480133046394612F096FB33
S315080001D0002840F0F58000220023DDE90867304654
S315080001E0394612F08BFB002840F0FD809DED087B18
S315080001F08DED067B209B13F48063119301D10623B2
S315080002001E93DDE906010246079BC3F30A50C3F3B2
S315080002101303904643F07F5949F44019A0F2FF3082
S3150800022012F090F882A3D3E9002312F0F5F882A31E
S31508000230D3E9002311F03AFF06460F4600228F4BFA
S315080002404046494611F030FF7DA3D3E9002312F05A
S31508000250E3F802460B463046394611F027FF12F0FE
S3150800026075FB064612F06EF88046894676A3D3E9F2
S31508000270002312F0D1F80022814B11F017FF12F07B
S3150800028065FB074672A3D3E900234046494612F0A8
S31508000290C3F880468946384612F054F86EA3D3E967
S315080002A0002312F0B9F802460B464046494611F0BB
S315080002B0FBFE8046894602460B4612F0ADF8CDE9AC
S315080002C00C0107F2FF3700210022CDE90A123B058F
S315080002D00B9300230A9342464B464046494611F083
S315080002E0E5FECDE90E0142464B4600204FF080411F
S315080002F011F0DAFE804689460022624BDDE90C01E0
S3150800030012F0B4F90022604B11F0D0FE02460B46FB
S31508000310DDE90C0112F0AAF900225C4B11F0C6FEC9
S3150800032002460B46DDE90C0112F0A0F902460B461F
S315080003304046494611F0BAFE02460B46DDE90E0173
S3150800034012F094F90022524B11F0B0FEDDE90A23AF
S3150800035012F062F88046894649EC188BDDE90623D7
S3150800036012F0EAFA40B1013E0022474B40464946A0
S3150800037012F07CF941EC180B06F16303C62B3BD847
S315080003800427209B13F4006F40D035A3D3E900233C
S31508000390DDE906894046494612F0C4FA00283BD0F2
S315080003A031A3D3E900234046494612F0A7FA0028AC
S315080003B032D01E9BB34221DD9E1B731E1E931FE087
S315080003C0209B02931F9B01931E9B00939DED080B98
S315080003D02B465A462146504600F0CAF813B0BDECE3
S315080003E0028BBDE8F08F9FED227B8DED067B06968E
S315080003F007F100430793FDE60527C2E700231E938E
S31508000400209B43F48063209300273E461F9B9F4210
S3150800041040D2A3EB07083FE01E9B002BF6D0119BAA
S31508000420002BF3D01E9B013B1E93EFE7AFF3008032
S31508000430FB799F501344D33FB3C8608B288AC63FC5
S3150800044061436F63A787D23F71A379094F930A4027
S315080004501655B5BBB16B0240EF39FAFE422EE63FA0
S315080004602D431CEBE2361A3F0000000080842E4123
S315080004700000000000000000FFFFEF7F0000F83FCB
S315080004800000E03F00002C40000024400000184017
S315080004900000F03F4FF00008209B13F0020902D03D
S315080004A00FB14FF000083EB153EC182BDDE90601F9
S315080004B012F0DCF8CDE9060100220023DDE9080187
S315080004C012F01CFA00283BD1209B23F40063029308
S315080004D0CDF804801E9B00939DED060B2B465A46CD
S315080004E02146504600F044F8002F3FF477AF209B92
S315080004F013F0200F2CD04FF0450C00F101082B46C5
S31508000500024621466046D04786EAE672A2EBE672C4
S3150800051005230593013F0497002303930A230293B7
S31508000520F30F019300922B4642462146504621F08E
S31508000530DBFDB9F1000F3FF451AF02461F9F10E0F3
S31508000540DDE90601024601F10043CDE90623BBE7D2
S315080005504FF0650CD1E7561C2B4621462020D04784
S315080005603246A2EB0B03BB42F5D3104636E700BF73
S315080005702DE9F04F2DED028B93B005900891924628
S315080005809B4659EC108B1E9D42464B4640464946B3
S3150800059012F0AAF9002840D04FF0FF326FF480130A
S315080005A04046494612F0AAF9002845D14FF0FF32D5
S315080005B0AB4B4046494612F0BFF900284BD1A4A3DD
S315080005C0D3E900234046494612F0B6F9002858D127
S315080005D0A1A3D3E900234046494612F08FF9002823
S315080005E04FD1002200234046494612F087F90028D9
S315080005F055D100230993209B13F4806F5AD0002409
S315080006001F2C59D8092D57D904F148036B443022B9
S3150800061003F8202C013D0134F2E7209B03931F9B2E
S315080006200293032301938F4B00935B465246089926
S31508000630059821F080FC05E1209B03931F9B0293FC
S3150800064004230193884B00935B4652460899059804
S3150800065021F071FCF6E0209B13F0040F0ED0834BBB
S315080006600422209903911F990291019200935B46F7
S3150800067052460899059821F05EFCE3E07C4B03227C
S31508000680EFE7209B02931F9B0193009549EC108B83
S315080006905B46524608990598FFF772FDD2E0424636
S315080006A04B460020002111F0FFFC804689460123B5
S315080006B00993A0E70625A2E74046494612F046F9FF
S315080006C0064611F03FFE02460B464046494611F0E3
S315080006D0EBFC684B03EBC50393ED008B53EC182B2F
S315080006E011F09AFE02460B46CDE9062312F056F99A
S315080006F0074611F017FE02460B46DDE9060111F022
S31508000700D3FC02460B46CDE9062300225A4B12F0CB
S3150800071013F908B30137384611F004FE02460B46B2
S3150800072051EC180B12F0F4F808B1013600270DBB8E
S31508000730304611F007FE02460B464046494611F080
S31508000740B3FC00224C4B12F0D9F8002842D116F01F
S31508000750010F3FD001363DE00022474BDDE9060197
S3150800076012F0CCF80028E2D117B117F0010FDED04D
S315080007700137DCE71F2C17D8013D404BA3FB0723A5
S31508000780DB08194603EB8303A7EB4303621C3033EC
S3150800079004F148000DEB000404F8203C092F02D9A7
S315080007A00F461446E6E714461F2C0AD86B1E45B1B9
S315080007B004F148026A44302102F8201C1D4601341F
S315080007C0F2E71F2C06D804F148036B442E2203F8DF
S315080007D0202C01341F2C17D8294A82FB0632F3171E
S315080007E0C3EBA2031A4603EB8303A6EB4303611C80
S315080007F0303304F148000DEB000404F8203C16469B
S315080008000AB10C46E6E70C46209B03F00303012BCE
S3150800081038D01F2C09D8099B002B50D004F1480367
S315080008206B442D2203F8202C0134209B03931F9B35
S31508000830029301940AAB00935B46524608990598C1
S3150800084021F079FB13B0BDEC028BBDE8F08F00BF39
S315080008500000000065CDCD410000000065CDCDC18A
S31508000860FFFFEF7F6470020868700208587002087C
S3150800087060700208983A03080000E03FCDCCCCCC63
S31508000880676666661F9BB3B1099B1BB9209B13F06D
S315080008900C0F12D01F9B013B1F93194606E004F16B
S315080008A048036B44302203F8202C01348C42B0D222
S315080008B01F2CF4D9ADE71F99F8E71F99F6E7209B97
S315080008C013F0040F07D004F148036B442B2203F8F6
S315080008D0202C0134A9E7209B13F0080FA5D004F1BA
S315080008E048036B44202203F8202C01349DE700BFFF
S315080008F038B508462DED028B154611F013FD1FA3DA
S31508000900D3E9002311F0B2FE02460B4643EC182B3E
S315080009100022002311F0FCFF044648BBB0EE480A4B
S31508000920F0EE680A00F03CF816A3D3E9002351EC70
S31508000930100B11F0BBFB02460B4614A1D1E90001CE
S3150800094011F094FE13A3D3E9002311F0ADFB0022A6
S31508000950094B11F061FD41EC100B1FF011F951EC38
S31508000960100B11F0F3FF28802046BDEC028B38BD32
S315080009702120FAE7AFF300800000204000000000C5
S31508000980006AF8409679D0187A2C2C4000000000AE
S315080009900068B04066666666661271400000000030
S315080009A038B555EC104B2DED028B00F045F8224674
S315080009B02B4620462946B0EE408AF0EE608A1FF0A4
S315080009C02DF998B9002200232046294611F0B4FFD4
S315080009D060B9002200232046294611F085FF60B140
S315080009E012F070FC22239FED0C8B0360B0EE480AD0
S315080009F0F0EE680ABDEC028B38BD12F063FC2122CA
S31508000A0003460748BDEC028B1A60BDE8384000F083
S31508000A100BB800BFAFF30080000000000000F0FF35
S31508000A20D06F0208000000009FED010B704700BF61
S31508000A30000000000000F87F51EC100BB1F5801F94
S31508000A402DE9F04F0C4687B07CDA21F000430246C8
S31508000A50034300F01A810029C0F261810022D64BB7
S31508000A6011F0DAFCD54B0C466FF035029C426DDC72
S31508000A702515D34BC4F31304A5F2FF3523441544B7
S31508000A80D04A03F480135A4005EB1355CD4B42EA7E
S31508000A900401002211F008FBA31C82468B46C3F30F
S31508000AA013030022022B5ADC002311F01DFF002835
S31508000AB040F0F68050465946ABA3D3E9002311F01F
S31508000AC0ABFC02460B460020BF4911F0EDFA06467C
S31508000AD00F4652465B465046594611F09DFC024663
S31508000AE00B463046394611F097FC06460F46002D50
S31508000AF000F00A81284611F025FC804689469CA309
S31508000B00D3E9002311F088FC04460D4640464946C1
S31508000B1099A3D3E9002311F07FFC02460B46304621
S31508000B20394611F0C1FA52465B4611F0BDFA024643
S31508000B300B462046294611F0B7FA41EC100B07B0D0
S31508000B40BDE8F08F9D4B00229C4291DD02460B4684
S31508000B5011F0ACFA41EC100B07B0BDE8F08F4FF07E
S31508000B608043DFF8708211F0A1FA02460B46504620
S31508000B705946A04411F07AFD06460F46284611F05C
S31508000B80E1FB32463B46CDE9040130463946CDE91C
S31508000B90026711F041FC02460B46CDE9002311F02D
S31508000BA03BFC06460F4676A3D3E9002311F034FC36
S31508000BB075A3D3E9002311F079FA32463B4611F0C2
S31508000BC02BFC73A3D3E9002311F070FA32463B4697
S31508000BD011F022FC70A3D3E9002311F067FADDE9CE
S31508000BE0002311F019FC6EA3D3E90023CDE9000117
S31508000BF03046394611F010FC6BA3D3E9002311F0F7
S31508000C0055FA32463B4611F007FC69A3D3E900239F
S31508000C1011F04CFA32463B4611F0FEFB0B460246F3
S31508000C20DDE9000111F042FA684B06460F461B1B28
S31508000C3043EA0803002B52DD0022634B504659460F
S31508000C4011F0EAFB52465B4611F0E6FB8046894600
S31508000C503046394642464B4611F028FADDE902236A
S31508000C6011F0DAFB06460F46002D62D102460B4606
S31508000C704046494611F018FA02460B465046594670
S31508000C8011F012FA41EC100B66E70022002300204F
S31508000C904F4911F0EBFC41EC100B07B0BDE8F08FA3
S31508000CA0002D00F09980284611F04CFB06460F46A9
S31508000CB02FA3D3E9002311F0AFFB04460D463046B7
S31508000CC039462DA3D3E9002311F0A6FB02460B46AD
S31508000CD02046294611F0EAF941EC100B3CE702469A
S31508000CE00B465046594611F0DFF9DDE9022311F0AB
S31508000CF093FB06460F463DB1DDE904891CA3D3E9FB
S31508000D00002340464946FDE632463B46504659468C
S31508000D1011F0CAF941EC100B07B0BDE8F08F0B468D
S31508000D2011F0C2F90022002311F0A0FC41EC100BCF
S31508000D3012E70FA3D3E90023DDE9040111F06CFBE8
S31508000D4004460D460CA3D3E90023DDE9040111F09E
S31508000D5063FB32463B4611F0A9F902460B4640466C
S31508000D604946DEE6AFF30080555555555555D53FEE
S31508000D700000E0FE422EE63F763C7935EF39EA3D43
S31508000D8044523EDF12F1C23FDE03CB966446C73FAC
S31508000D90599322942449D23F935555555555E53FC5
S31508000DA09FC678D0099AC33FAF788E1DC571CC3FD0
S31508000DB004FA97999999D93F00005043FFFFEF7FAE
S31508000DC0645F09000000F03F0000E03F51B80600EC
S31508000DD0000050C386EBF9FF9FED010BBCE600BF90
S31508000DE000000000000000000348044B834202D0C4
S31508000DF0034B03B118477047B0740020B074002045
S31508000E0000000000064B0749C91A891048BF01317E
S31508000E10491003D0044B0BB101481847704700BF6F
S31508000E20B0740020B07400200000000010B5064C15
S31508000E30237843B9FFF7D8FF044B13B10448AFF33F
S31508000E4000800123237010BD026800200000000006
S31508000E5050EF030808B5054B1BB105490548AFF324
S31508000E600080BDE80840FFF7CDBF00BF00000000C6
S31508000E70380B002050EF0308A3F5803A704700BFEF
S31508000E80174B002B08BF134B9D46FFF7F5FF0021B4
S31508000E908B460F461348144A121A21F0D0FD0E4B02
S31508000EA0002B00D098470D4B002B00D09847002008
S31508000EB0002104000D000D48002802D00C48AFF3AD
S31508000EC0008012F005FA2000290021F065FD11F0D6
S31508000ED095FF00BF000008000000000000000000A9
S31508000EE00008002000080020A0680020000000007C
S31508000EF00000000008B5034825F04FFC21F0DCFC93
S31508000F0008BD00BFF039030808B5024825F045FCBE
S31508000F1008BD00BFF03903082DE9F04180460F46A9
S31508000F2001F109050026344604E05B21082000F09B
S31508000F30E9F90134AC4233D2052C1BD801A353F886
S31508000F4024F000BF2B0F00085D0F0008910F000862
S31508000F50650F0008690F00086D0F0008FBB204331F
S31508000F60D9B2E3E78021E1E70021DFE7731C3146C8
S31508000F70DEB2DBE7BB1DA3420CD0FB1DA3420BD0A0
S31508000F8007F10803A34209D0A31F18F80310CDE7F9
S31508000F90D121CBE75A21C9E75A21C7E75D21C5E721
S31508000FA00020BDE8F08100BF10B582B00022009293
S31508000FB0019202218DF8001004481EF04CFE0190A3
S31508000FC008216846FFF7A8FF02B010BD006A18009E
S31508000FD0BFF34F8F0549CA6802F4E062044B134316
S31508000FE0CB60BFF34F8F00BFFDE700BF00ED00E009
S31508000FF00400FA05F0B18446F1B110B40DE02046BC
S315080010000B78104AD25C02F00302012A10D0C01AEB
S3150800101014D19CB10CF1010C01319CF80040094B2C
S315080010201B5D03F00303012BE9D104F12000E7E778
S315080010302033ECE701207047012070475DF8044B28
S31508001040704700BF02A3030808B50448044A121AE9
S31508001050921004491EF090FE08BD00BF80010008EA
S3150800106080010008A068002008B5154B83F30A889C
S3150800107000F030F8FFF7E8FF124A0AE010685168F6
S3150800108050F8230041F82300013391688B42F5D3C9
S315080010900C320D4B9A4201D20023F6E70B4A08E0C0
S315080010A01168002041F82300013351688B42F7D3B9
S315080010B00832074B9A4201D20023F6E7FFF7E0FE13
S315080010C00000002058EF030864EF030864EF0308E4
S315080010D064EF030870B5134B134A9A60D3F8882057
S315080010E042F47002C3F88820104A4FF48041916692
S315080010F00F4D05F500544FF0FF3222660D4A626621
S315080011000222C3F8D020BFF34F8FBFF36F8F0020A2
S3150800111003F06AF94FF44036E660002020F04FF8F5
S315080011202E6170BD00ED00E0000000080090005040
S31508001130008000447FFF7F0308B5064B1860064B06
S315080011401B6F03F00703032B00D008BD24F06EFACB
S31508001150FBE700BFAC6800200080005070B586B081
S315080011600546046823798DF80C3063798DF80D30BF
S315080011701B4825F012FB03AE0022012130461EF063
S3150800118098FE0DF10B0130461EF0A7FE9DF80B30B8
S3150800119083F001032370A379022B02D0002006B046
S315080011A070BD4FF0FF330593049300950D4B002255
S315080011B005A9304600F0A0F9059BB3F1FF3F07D01B
S315080011C00095084B012204A903A800F027F9E5E7D2
S315080011D00095044B042204A9304600F01FF9DDE708
S315080011E0F0390308A9FD010810B582B0002401945E
S315080011F03B4825F0D2FA8DF8004003238DF80130DC
S315080012000122042168461EF054FE364B0122C3F81B
S315080012104424A3F550334FF400225A66324BD3F8D0
S31508001220FC2012F0807206D01946D3F8FC3023F061
S315080012308073C1F8FC302D49D1F8803023F00303C0
S3150800124043F00203C1F8803032B1274AD2F8FC30A5
S3150800125043F08073C2F8FC3001A9052025F096FA00
S3150800126000283BD1204BD3F8F02042F00102C3F806
S31508001270F020D3F8FC2042F08072C3F8FC20A3F5D6
S315080012805D431B4A1A60019B03F5D52303F2FC4311
S31508001290DB08184AA2FB03239B0A013B164A136183
S315080012A00223C2F8F0304FF48073C2F804334FF0CB
S315080012B06043124AC3F8B02F114AC3F8802ED3F8F8
S315080012C0002E42F48072C3F8002EFF2283F82020F5
S315080012D0D3F8002E22F48072C3F8002E02B010BD97
S315080012E0F039030800D0035000ED00E000800050FC
S315080012F0FF03004017916502000004E055CEACC517
S31508001300090001004FF06043D3F8803E13F0010F47
S3150800131001D1112070470E4AD2F8FC3043F0807391
S31508001320C2F8FC304FF06043D3F8002E4FF0010CA2
S315080013300CFA00FC42EA0C02C3F8002E53F82030DF
S31508001340002BE8D04FF0604303F8201000207047C8
S3150800135000ED00E010B504460DE00123834024EAC1
S3150800136003040F2812D80D4B03EBC0031A6812B1F9
S315080013705968C0B290477CB1234600201F28ECD894
S3150800138013F0010FE9D101305B08F7E70246103880
S31508001390024B03EBC203E9E710BD00BF500B002068
S315080013A008B50D4825F0F9F91A2003F00BF828B905
S315080013B01B2003F007F840B9002008BD1A2003F0E7
S315080013C013F81A201FF0FBFEF2E71B2003F00CF8B7
S315080013D01B201FF0F4FEEFE7F039030850B103783D
S315080013E042780121914003EB43031B01024AD15085
S315080013F0002070472220704740D0035050B1037830
S3150800140042780121914003EB43031B01024AD15064
S31508001410002070472220704740E00350002843D040
S315080014202DE9F0410C4616461D46074600293DD0D3
S3150800143025F04CF980463B78FF2B1ED12368B3F183
S31508001440FF3F21D02168B1F1FF3F28D0184A42F862
S315080014503150236802EBC302069B53603B78FF2B8F
S3150800146005D0226801239340124AC2F82434404624
S3150800147025F027F90020BDE8F08132462168384674
S3150800148001F078FC2060D9E73B78FF2BDAD10A4BCC
S31508001490D3F8241478781FF052F82060D2E7404633
S315080014A025F00FF92D20E6E7222070472220E2E7F3
S315080014B0500B002000D0035000C003500F2815D849
S315080014C038B5044625F002F90123A340084AC2F8B4
S315080014D02034C2F82434074B002543F8345003EB74
S315080014E0C4035D6025F0EDF8284638BD2120704715
S315080014F000E00350500B0020002836D02DE9F041BB
S315080015000C4690461F46064689B325F0DFF8054681
S315080015103378FF2B1DD12268B2F1FF3F20D0154941
S31508001520103241F832702368103301EBC301069B71
S315080015304B603378FF2B06D0226810320123934084
S315080015400D4AC2F82434284625F0BBF80020BDE829
S31508001550F08142462168304601F0B2FC2060DAE7A5
S31508001560284625F0AEF82D20F1E7222070472220E4
S31508001570EDE700BF500B002000D0035008B5084B1C
S31508001580D3F82404D3F82024104000F0553020F076
S31508001590A04003F50053C3F82004FFF7DBFE08BD9F
S315080015A000C0035008B5084BD3F82404D3F8202408
S315080015B0104000F0AA3020F0204003F50053C3F88D
S315080015C02004FFF7C7FE08BD00C0035038B505461E
S315080015D00C46164BD3F8283103F00703013B052BBD
S315080015E020D8DFE803F003131B0F0B1723F0FEFFC9
S315080015F0052305B1286004B1236038BD23F0F6FF42
S315080016000623F6E724F032F80723F2E724F028F851
S315080016100323EEE724F024F80423EAE724F01CF871
S315080016200223E6E700231846E3E700BF00800050E0
S3150800163030B583B005460C4600230193154BD3F805
S31508001640203203F00703042B21D8DFE803F0030B4D
S3150800165011161B0001230DB1019A2A6004B12360FB
S3150800166003B030BD002101A8FFF7B0FF1123F2E750
S3150800167023F0FCFF01900723EDE725F02FF80190F2
S315080016800A23E8E724F046F801900923E3E7002354
S31508001690E1E700BF0080005038B505460C460F4B01
S315080016A0D3F8503203F00303022B12D0032B04D0D5
S315080016B0012B0AD00023184602E025F012F80B2366
S315080016C005B1286004B1236038BD25F007F80A2360
S315080016D0F6E724F01FF80923F2E700BF0080005060
S315080016E038B505460C460C4BD3F8903203F0030385
S315080016F0012B09D0022B0BD123F0B8FF072305B124
S31508001700286004B1236038BD23F0A6FF0223F6E75C
S3150800171000231846F3E700BF00800050024B4FF441
S3150800172080321A67704700BF0090005038B50546EA
S315080017300C460F4BD3F8803003F00303022B0BD073
S31508001740032B0DD0012B0FD123F056FF0D2305B126
S31508001750286004B1236038BD23F088FF0723F6E725
S3150800176023F044FF0623F2E700231846EFE700BFFD
S315080017700080005038B505460C46104BD3F80001DA
S3150800178000F00300032815D8DFE800F002080C1063
S31508001790012305B1286004B1236038BD23F060FF3A
S315080017A00323F6E723F0B6FF0923F2E724F094FFB4
S315080017B00823EEE700231846EBE700BF0080005039
S315080017C038B505460C46174BD3F8200100F007003C
S315080017D0062823D8DFE800F0040A0E16121A1E009F
S315080017E0012305B1286004B1236038BD23F0FEFE4D
S315080017F00523F6E723F034FF0323F2E723F036FF49
S315080018000723EEE723F028FF0223EAE723F0EEFE9C
S315080018100623E6E723F024FF0423E2E7002318461D
S31508001820DFE700BF0080005038B505460C46104B70
S31508001830D3F8400100F00300032815D8DFE800F0CC
S3150800184002080C10012305B1286004B1236038BDD5
S3150800185024F044FF0A23F6E723F05CFF0923F2E7A6
S3150800186024F03FFF0B23EEE700231846EBE700BF03
S315080018700080005030B583B005460C46002301931E
S31508001880144BD3F8603203F00703013B032B1FD830
S31508001890DFE803F0020E1914002101A8FFF790FFF4
S315080018A00F230DB1019A2A6004B1236003B030BD3D
S315080018B0002101A8FFF7B8FF1023F2E723F0D6FEB0
S315080018C001900723EDE723F0C7FE01900223E8E71E
S315080018D00023E6E70080005030B583B005460C4685
S315080018E0002301930C4BD3F8703203F00303012B4A
S315080018F003D0022B0DD1142304E0002101A8FFF721
S3150800190093FF10230DB1019A2A6004B1236003B036
S3150800191030BD0023F6E700BF0080005038B5054605
S315080019200C46104BD3F8600100F00300032815D8C5
S31508001930DFE800F002080C10012305B1286004B1A5
S31508001940236038BD24F0CAFE0A23F6E723F0E2FE38
S315080019500923F2E724F0C5FE0B23EEE70023184619
S31508001960EBE700BF0080005070B582B006460D4612
S3150800197000230193104BD3F8804104F00304022C92
S3150800198014D0032C0DD0012C14D1002101A8FFF787
S3150800199017FF0F240EB1019B336005B12C6002B00E
S315080019A070BD23F063FE01900724F3E723F054FE8D
S315080019B00190EFE70024EDE70080005038B50546B2
S315080019C00C46104BD3F8400200F00300032815D844
S315080019D0DFE800F002080C10012305B1286004B105
S315080019E0236038BD24F07AFE0A23F6E723F092FE38
S315080019F00923F2E724F075FE0B23EEE700231846C9
S31508001A00EBE700BF0080005038B505460C46134B7F
S31508001A10D3F8000200F0070004281BD8DFE800F01E
S31508001A2003090D111500012305B1286004B12360CF
S31508001A3038BD24F053FE0A23F6E723F06BFE09238C
S31508001A40F2E724F04EFE0B23EEE723F0EFFD800AC3
S31508001A500E23E9E700231846E6E700BF008000509A
S31508001A6038B505460C46134BD3F8080200F00700B4
S31508001A7004281BD8DFE800F003090D11150001231F
S31508001A8005B1286004B1236038BD24F027FE0A2377
S31508001A90F6E723F03FFE0923F2E724F022FE0B23A4
S31508001AA0EEE723F0C3FD800A0E23E9E70023184674
S31508001AB0E6E700BF00800050B0F5207F21D00FD8A0
S31508001AC0B0F5007F17D021D810B1B0F5C07F05D189
S31508001AD00F4B186FC0F30330013070470020FBE747
S31508001AE0B0F5607F05D10A4BD3F88000C0F301102A
S31508001AF0F2E70020F0E7064BD3F89000C0F3046045
S31508001B00EAE7034B186FC0F38020E5E70020E3E718
S31508001B100080005038B505460C46174B4FF4803206
S31508001B209A660020FFF7C8FF05FB00F0134BDA6939
S31508001B3002F4803241F67131D9635B6823F44013AD
S31508001B406CB90F49884207D800210B430B494B60F3
S31508001B500AB10022CA6338BD4FF48011F5E7002C9C
S31508001B6007DD0849884201D80021EEE74FF48011C5
S31508001B70EBE74FF44011E8E70090005000000350EF
S31508001B80005A6202002D3101430905D0012B0DD000
S31508001B90022B0DD0002200E0002200F01F0049B100
S31508001BA002F580520123834013607047034AF4E725
S31508001BB0034AF2E702F50052F4E700BF64800050DA
S31508001BC06880005008B580201EF0DBF9034B984268
S31508001BD003D8034B4FF480321A6708BD005A6202D5
S31508001BE000A0005000B583B000230193B0F5607FD4
S31508001BF000F0B98041D8802837D82428C0F0B780AB
S31508001C0024385C2800F2B380DFE800F0686868686A
S31508001C1068B160B19E55B1B1B1B1B1B1B1B1B1B1AF
S31508001C20B19EB1B1B1A3BAB1B1B1B1B1B1B1B1B1AE
S31508001C30B1B1B1B1BF68B1B1B176B1B1C4C9B582FC
S31508001C4082B1B1B1B1B1B1B1B1B1B1B1B1B1B1B1A5
S31508001C50B1B1B1B1B1B1B1B1B1B1B1B1B1B1B1B166
S31508001C60B1B1B1B1B1B1B1B18700B0F5807F7ED164
S31508001C7001A900201EF060F979E0B0F5086F6DD073
S31508001C800CD9B0F5286F00F08A802CD9B0F5306FE2
S31508001C9037D101A90020FFF723FD68E0B0F5C06F32
S31508001CA052D00DD9B0F5E06F6AD0B0F5F06F50D0CC
S31508001CB0B0F5D06F5BD101A90020FFF7A5FE56E06D
S31508001CC0B0F5A06F57D0B0F5B06F04D101A90020C8
S31508001CD0FFF74AFE4BE0B0F5806F48D101A9002016
S31508001CE0FFF76EFD43E0B0F5186F4ED0B0F5206FE4
S31508001CF050D0B0F5106F3AD101A90020FFF7B0FE19
S31508001D0035E034D3B0F5386F1ED0B0F5406F2ED11C
S31508001D1001A90020FFF75AFC29E0234B1B6F03F0AB
S31508001D200703013B032B22D8DFE803F00B02050863
S31508001D30052301931BE00323019318E0082301936D
S31508001D4015E00223019312E001A90020FFF76CFDBC
S31508001D500DE001A90020FFF7E1FD08E001A9002038
S31508001D60FFF708FD03E001A90020FFF7DFFC019853
S31508001D7003B05DF804FB01A90020FFF759FCF6E75C
S31508001D8001A90020FFF71AFEF1E701A90020FFF7D5
S31508001D9083FCECE701A90020FFF76CFDE7E701A942
S31508001DA00020FFF799FDE2E700800050044B4FF44E
S31508001DB080125A66034B4FF480329A62704700BF0E
S31508001DC0009000500050005A38B504468020FFF7AE
S31508001DD009FF032800F0B580604B4FF480125A665D
S31508001DE05F4B45F60E02C3F8802003F580524FF08C
S31508001DF0A061916203F500534FF480329A62584B02
S31508001E009B6D13F4803FFAD1554B9B6D13F0804FB1
S31508001E10FAD1226863681B0543EA0263227B43EA18
S31508001E200243627B43EA0233A27B43EA8213E27BE4
S31508001E3013434B4D2B61AB6903F00043226943EA18
S31508001E408263626943EA0263227E43EA0243627E50
S31508001E5043EA0223A27E1343AB614FF400624FF4B8
S31508001E60406140481EF05AF82B6A23F00F03E269D6
S31508001E70002A46D111460B43E17E43EA81031A4301
S31508001E80374B1A62E369002B3DD1354A916A364BC6
S31508001E900B4094F8201043EA411394F8211043EAC2
S31508001EA0011394F8241043EAC10343F48033936280
S31508001EB02B4B9A6D2D4B9343FAD1294A02F5805143
S31508001EC04FF080738B62136923F47003A06843EAAA
S31508001ED0005313614FF000438B6194F822301BB90D
S31508001EE0234B4FF080729A6294F8233013BB204B31
S31508001EF04FF480329A621A4B9B6D13F0804FFAD1D9
S31508001F0018E00821B7E7022B1CD0154A916A164B30
S31508001F100B4094F8201043EA411394F8221043EA40
S31508001F20016394F8241043EAC10394F8231043EAA2
S31508001F300143936294F825301BB1094B0D4AC3F847
S31508001F40802038BD064B00221A619A614FF4085268
S31508001F504FF47F4108481DF0E1FFD6E70090005096
S31508001F600040005A3840005AC7FFFEFE0300010031
S31508001F700060005AF1A7FFFF3440005A70B5124BB3
S31508001F809E6A9B6D13F4803F03D0104B4FF480324A
S31508001F909A620D4D05F580534FF080719962AC69D0
S31508001FA0C4F3072432460A481DF0B8FFAB6D13F494
S31508001FB0803F01D1204670BD32464FF48031044837
S31508001FC01DF0ACFFF6E700BF0040005A0050005A6B
S31508001FD02840005A014B1870704700BF82740020D1
S31508001FE0014B93F9000070478274002070B51C4BB2
S31508001FF09E6AFF2832D804469B6D13F4803F03D0AF
S31508002000184B4FF480329A62164B4FF080729A62E0
S31508002010FFF7E6FF001903D4FF2802DDFF2000E0E2
S3150800202000200F4DAB696FF3172343EA00432402E0
S31508002030A4B22343AB6132464FF080710A481DF0C3
S315080020406DFFA86D10F4803000D170BD32464FF494
S31508002050803105481DF062FF0020F6E72120F4E7ED
S315080020600040005A0050005A2840005A08B5164B3E
S315080020709A6A03F580534FF480319962124B9B6D2F
S3150800208003F00303032BF9D1104B4FF080719962CB
S315080020900D4B996D0E4B8B43FAD10C4B01211965EB
S315080020A0094B9B6D13F0020FFAD1074B9B6D13F08A
S315080020B0020FFAD0044B9B6D13F0020FFAD00549B4
S315080020C005481DF02BFF08BD0040005A0050005A75
S315080020D003000100000001012840005A10B44378AB
S315080020E04F2B28BF4F231A461C4B4FF40001596645
S315080020F003F5B8334FF4D151596203F580510224E0
S315080021004C6003F5005301215960154B1B6913F404
S31508002110803FFAD1037842EA0323114A53614168A2
S3150800212083681B0143EA0123017B43EA4103417BA0
S315080021300B439360817BC37B1B0143EA4113017CFC
S3150800214043EA4103417C0B435360837C1BB113462E
S315080021506FF4D1525A625DF8044B704700900050F4
S3150800216000000250014B1880704700BF2E740020F3
S31508002170014B1880704700BF2C74002010B50C4620
S31508002180B0F5207F5BD02BD8B0F5007F4CD026D891
S3150800219010B1B0F5C07F22D11DF0ECFE1EF0D7F8C5
S315080021A0FFF7BCFA2A4A136F23F47043611E43EA09
S315080021B00133136723F03AFA264BD3F8843013F029
S315080021C0100FF9D1234BD3F88410C1F38111C1F153
S315080021D002011EF0B1F800F055F8FFF7F3FC10BD48
S315080021E0B0F5607FFBD11C4BD3F8FC2012F080724F
S315080021F006D01946D3F8FC3023F08073C1F8FC30BA
S315080022001348D0F8803023F03003611E43EA0113E7
S31508002210C0F88030002AE2D00F4AD2F8FC3043F0EA
S315080022208073C2F8FC30DAE7094AD2F8903023F016
S31508002230F853013943EA0163C2F89030CFE7044AFC
S31508002240136F23F48063013943EA81231367C6E7D2
S31508002250008000500040005000ED00E008B5012164
S31508002260022000F0AFF84FF42070FFF725FC044B6E
S3150800227018701DF07FFE1EF06AF8FFF74FFA08BDCA
S315080022800368002008B54FF4C0701DF07AFE054BB0
S31508002290984205D902214FF42070FFF76FFF08BD59
S315080022A00121F8E780F0FA0210B5044623F0BEF9DA
S315080022B00F4BD3F8843013F0100FF9D10C4BD3F829
S315080022C08410C1F38111C1F102011EF035F8012114
S315080022D0002000F0BDF824B1FFF7D4FFFFF772FC29
S315080022E010BD044B19784FF42070FFF747FFF5E748
S315080022F00040005003680020044A536F23F44073DB
S31508002300417843EA01235367704700BF00400050F5
S3150800231010B504460F4A136943F00403136123F00A
S31508002320C3FE1EF01BF80C4B5B6E13F0806F03D0D8
S315080023300A4B0B4AC3F82024BFF34F8FBFF36F8FA6
S3150800234030BF1EF00CF803F0F9F904B110BD23F004
S315080023506DF9FBE700ED00E00080005000E0035057
S315080023600000FF0F10B504460D4A136943F0040335
S3150800237013610C4B5B6E13F0806F03D00A4B0B4A4C
S31508002380C3F8202423F090FEBFF34F8FBFF36F8F5F
S3150800239030BF03F0D3F904B110BD23F047F9FBE7CA
S315080023A000ED00E00080005000E003500000FF0F41
S315080023B0034AD36E23F0300301790B43D366704783
S315080023C000400050F8B50446204BD3F8843013F08B
S315080023D0100FF9D11D4BD3F88430C3F381139C42F7
S315080023E02DD023F009F90646012C11D024F065F901
S315080023F00546164F07F500534FF000725A662046F9
S315080024001DF0B0FF621E4FF4806393403B6706E001
S3150800241001211DF091FFE9E70C4BD3F884300B4BF3
S315080024205B6E13F0007F05D1084BD3F8843013F0A8
S31508002430200FF1D0284624F03BF9022C00D0F8BD35
S31508002440002130461DF078FFF9E700BF0040005034
S3150800245010B50C46034650B1094A127812B1094A1A
S31508002460934208D921460220FFF7ACFF10BD23F09E
S31508002470C3F80346F0E721460120FFF7A3FFF5E777
S31508002480500C0020005A620208B50278034B1A70F5
S3150800249001210020FFF7DCFF08BD00BF500C00201B
S315080024A038B52F4B4FF000425A6603F50B235C6C88
S315080024B004F001044AF6CD321A64E8B9294B5B6B7D
S315080024C013F00103FAD1274A556815F0010539D0EA
S315080024D002F50052012151601A462249096B11F092
S315080024E0010F04D120498A4201D80132F5E71E4975
S315080024F08A422FD81D4625E000231A4A126B12F08D
S31508002500080F04D0184A934201D80133F5E7164A52
S31508002510934221D8134B03F500522021916203F50B
S31508002520805301225A60002300E001330D4A926A63
S3150800253012F0200F02D10C4A9342F6D90A4A934266
S315080025400CD8002514B1074B084A1A6417F0E4FDA5
S31508002550284638BD0725F5E70725F3E70725F1E7F8
S3150800256000900050004009503F420F003254FFFFD0
S3150800257010B51A4B4FF000425A6603F50B235C6CF4
S3150800258004F001044AF6CD321A6443785B0043F03E
S315080025900103134AD363134B5B6B13F00B0FFAD18A
S315080025A0104A536823F4F873817843EA0113536099
S315080025B0C178437943EA012393600179837943EA31
S315080025C0012313610078FFF76BFF14B1054B064A28
S315080025D01A6417F0A1FD012010BD00BF009000503D
S315080025E000400050004009503254FFFF10B50F2834
S315080025F000D90F20124B5C6E03F580534FF0004252
S315080026005A6603F50B235A6C02F001024AF6CD31DD
S3150800261019640C4B5B6B13F0800FFAD109490B6AEE
S3150800262023F00F0303430B620AB1074A0A64002C1E
S3150800263003DB064B4FF000425A6617F06DFD10BDDE
S3150800264000800050004009503254FFFF00A000509F
S3150800265010B5134B5C6E03F580534FF000425A6673
S3150800266003F50B235A6C02F001024AF6CD311964C0
S315080026700C4B5B6B13F0800FFAD10A490B6A23F4F3
S31508002680F85343EA00230B620AB1074A0A64002C8E
S3150800269003DB064B4FF000425A6617F03DFD10BDAE
S315080026A000800050004009503254FFFF00A000503F
S315080026B0084B98420AD0084B984209D003F5804344
S315080026C0984201D00020704758207047562070471E
S315080026D0572070470000015B00000A5010B50446F9
S315080026E01DF041FE202323610023E360A36041F22D
S315080026F002026261A3614FF4A0226262E36123626F
S31508002700A362E3626363236504F500520149D16459
S31508002710236310BDFF3F0D03F8B50446154608466A
S31508002720E1B1A36813F0010F34D06668B0FBF5F089
S31508002730451E16F001062BD0636D13F0280FFBD14A
S31508002740A36C13F0030F0FD1A36C13F0010F1BD169
S31508002750A36C13F0020F19D1002706E02046FFF7F5
S31508002760A7FF1DF00EFCDCE7052720461DF0FBFD44
S31508002770236923F07F4343EA056323619EB3394601
S3150800278020461DF00FFE2EE00927EEE70627ECE7A8
S315080027900027EDE76368A36803F0E003402B0BD03E
S315080027A005D9602B0CD0802B1DD1012309E02BB154
S315080027B0202B18D1082304E0062302E0102300E0AA
S315080027C00423400105FB03F3B0FBF3F02038064A67
S315080027D002EAC002636D13F0010FFBD12263636D39
S315080027E013F0010FFBD1F8BDF8FF7F0070B5044662
S315080027F00D461646436823B1636DC3F30B03002BDE
S31508002800FAD12046FFF76AFF636923F44C5323F095
S315080028100F036A7B1343EA8913432A8A13436361C6
S31508002820A36823F0804323F0E2032A7B13432A7E1E
S3150800283013436A691343A360AB681BB9A36843F0E3
S315080028400043A360EA69002A70D0A168694B0B406F
S31508002850117A43EA8153917A43EA4143918801F414
S31508002860C0410B43517843EA8103517B43EAC103D4
S31508002870917B43EA0113927843EA8223A360E268D4
S315080028805D4B1340EA6911690B4351690B43917912
S3150800289043EA8123D27943EA4223E360EB691B7852
S315080028A0012B01D0032B03D1E36843F00403E36053
S315080028B0EB691B78023BDBB2012B51D94F4B9C428B
S315080028C06BD04F4B9C426AD003F580439C4262D042
S315080028D04FF0FF3303F593735B0103F1A04303F550
S315080028E0703302225A60EB695A7A04F580539A6269
S315080028F0EB695B7A1BB1E36843F40063E360EB6959
S31508002900DB7A63B1E36843F40043E3603B4B9C42E4
S3150800291047D03B4B9C424BD03A4B9C424FD0636AC4
S3150800292023F00303EA69D27B134363623EB196F848
S315080029302030002B4AD004F5805301221A6204F590
S31508002940805301225A60AA68002A4ED12978204667
S315080029501DF028FDA36CDB4313F4405FFAD170BD6C
S31508002960264B9C4213D0264B9C4212D003F580433B
S315080029709C420AD04FF0FF33A6335B0103F1A04314
S3150800298003F5703302225A60ADE70223F4E7002309
S31508002990F2E70123F0E702239CE700239AE70123E5
S315080029A098E7EB691B7B03F00F03174A5366B0E7FA
S315080029B0EB691B7B03F00F03134A1367ACE7EB695C
S315080029C01B7B03F00F03104AD367A8E7E36923F0DC
S315080029D0090396F82220134396F82120134343F05F
S315080029E0010304F58052D361A9E769682046FFF719
S315080029F093FEABE7E39BBDFFFFF9F0870000015BA1
S31508002A0000000A5000400A50009003502DE9F84390
S31508002A100D4614461E469DF820809DF82470072A08
S31508002A2029D8930000FA03F20321994021481DF0A2
S31508002A30F0FC4FF00009072C29D8A10005F0030285
S31508002A408A40032303FA01F11B481DF0E2FC5EB33A
S31508002A501A4A0123A3401360B8F1000F26D0184A7A
S31508002A6013600122A2401749C1F8202407B3164A69
S31508002A701360BDE8F883A2F108094FEA890300FA52
S31508002A8003F20321994011481DF0C3FCD3E74FEA2E
S31508002A90890905F0030202FA09F2032101FA09F18C
S31508002AA00B481DF0B6FCD2E70A4AD2E70A4AD7E72E
S31508002AB00A4ADDE700C4035008C4035010D4035083
S31508002AC014D4035000E0035024D4035004C4035024
S31508002AD00CC4035010E4035014E4035024E40350D8
S31508002AE0F8B504460D461E4617463AB1FBB1012213
S31508002AF08A4000EB400109011D4B5A50072D1ED88C
S31508002B00A90004EB44031B0107FA01F20F2000FA9F
S31508002B1001F1184818441DF07CFC3FB9FEB10122AA
S31508002B20AA4004EB44042401114B1A51F8BD0122B2
S31508002B308A4000EB400109010F4B5A50DEE7A5F128
S31508002B4008039B0004EB440C4FEA0C1C07FA03F23B
S31508002B500F219940094860441DF05BFCDDE701221E
S31508002B60AA4004EB44042401034B1A51DEE700BFD4
S31508002B7040D0035034C0035040E003503CC00350DB
S31508002B8041B90630084B53F8200020F0F8004004FD
S31508002B90400C70471230044B53F8200020F0F80020
S31508002BA04004400C704700BF0080035070B50446CF
S31508002BB0C2F3062602F0070241B942EA062242F4A7
S31508002BC040220634094B43F8242070BD114630468E
S31508002BD01DF05BFC054630461DF029FC45EA00253C
S31508002BE01234024B43F82450EFE700BF008003502D
S31508002BF010B40C4681B90E4942EA034241F8202036
S31508002C0064B90C49D1F84836012282401343C1F809
S31508002C1048365DF8044B70470749EDE70549D1F892
S31508002C2048360C30012282401343C1F84836F0E793
S31508002C304CC6035000C003507CC6035010B4084C61
S31508002C40063054F8203023F0706323F4702343EAE7
S31508002C50024343EA016344F820305DF8044B7047A9
S31508002C6000800350054B1868B0F1FF3F04D1044BB0
S31508002C70D3F89400014B1860704700BFB068002075
S31508002C8000400050094B4FF480325A6603F5E6239C
S31508002C909B69C3F3461203F00F010A434280C3F34C
S31508002CA003424270C3F30333037070470090005029
S31508002CB02DE9F04104460D461646077890F801803E
S31508002CC0274BD3F8103308461DF02AFC45B126B326
S31508002CD0012202FA08F207EB47073F01214BDA51B6
S31508002CE06378072B22D822789B0002EB4202170151
S31508002CF000FA03F20F2199401B4838441DF002FCE4
S31508002D004DB916B3237862780121914003EB43034A
S31508002D101B01144AD150BDE8F081012202FA08F2DB
S31508002D2007EB47073F01114BDA51D9E72278083BF1
S31508002D309B0002EB4202170100FA03F20F219940A9
S31508002D400B4838441DF0DEFBDAE723786278012168
S31508002D50914003EB43031B01044AD150DBE700BF54
S31508002D6000C0035040D0035034C0035040E0035025
S31508002D703CC003502DE9F84305460C46164690F824
S31508002D8000804078324BD3F81033B1F1FF3F35D08D
S31508002D90002C30DB072C38DC4FEA8409032707FAB6
S31508002DA009F708FA09F239462A481DF0ABFB6A7892
S31508002DB002F0030202FA09F2394627481DF0A2FB7F
S31508002DC016F0010F02D116F0040F34D00123A340E8
S31508002DD0224AC2F8103416F0020F02D116F0040F78
S31508002DE02FD00123A3401D4AC2F814340123A3405F
S31508002DF01B4AC2F820342046BDE8F883144BD3F8A2
S31508002E0024141DF09CFB0446C2E7A4F10807BF0082
S31508002E104FF0030909FA07F908FA07F24946114873
S31508002E201DF070FB6A7802F00302BA4049460E4864
S31508002E301DF068FBC4E70123A340094AC2F8103411
S31508002E40C9E70123A340064AC2F81434CEE700BFF7
S31508002E5000C0035000C4035008C4035000D00350F8
S31508002E6000E0035004C403500CC40350114BD3F8BC
S31508002E70302422EA0002C3F83024D3F83024014073
S31508002E800A43C3F83024D3F82C240243C3F82C246D
S31508002E90A3F56033DB6E03F03003202B06D0064A19
S31508002EA0D36E23F0300343F01003D366034BC3F805
S31508002EB02004704700C003500040005000E0035053
S31508002EC070B505460C461646134BD3F810331DF05D
S31508002ED04EFBB4F1FF3F09D0B0F1FF3F17D0844253
S31508002EE017D1B4F1FF3F03D1204670BD0446F3E77E
S31508002EF086F0010203212846FFF7DAFE04F11003E3
S31508002F0006FA03F101209840FFF7B0FFECE7044604
S31508002F10EAE74FF0FF34E7E700C00350074B9B682A
S31508002F2013F0020FFAD1054B5B6813F0020FF5D1C7
S31508002F30024BDB69002BF1D1704700BF00800A50B5
S31508002F40074B5B68064B5B6813F0010F03D0044B15
S31508002F50DB69002BF6D1024B02221A61704700BFCB
S31508002F6000800A5008B5FFF7D9FF034B03F58051D7
S31508002F7001224A601A6108BD00800A5008B5054B4F
S31508002F805B68012B00D008BDFFF7DAFF024B012270
S31508002F905A60F8E700800A5000A00A5010B50446A7
S31508002FA0FFF7BCFF084B5B68012B05D0237843B1BC
S31508002FB00122054BDA6010BDFFF7E0FFFFF7AEFF11
S31508002FC0F4E70022F5E700BF00800A5038B5054649
S31508002FD00C4622F0A5FBDDB92378D3B1012362683C
S31508002FE012B1127843EAC2036278A2B102221343ED
S31508002FF0A26812B1127843EA8213E2786AB104220F
S315080030001343226912B1127843EA4223044A9364AD
S3150800301038BD0023E3E70022E9E70022F0E700BF16
S3150800302000800A502D2824D8DFE800F01723232330
S315080030302323232323232323232323232323232352
S31508003040232323232323232321231B23232523234A
S3150800305023231D232323231F2319084870470848C1
S315080030607047084870470848704708487047084836
S315080030707047084870470848704700BFD06F020875
S31508003080406E0208546E02087C6E0208946E0208AE
S31508003090B46E0208CC6E0208186E020810B5044613
S315080030A04FF4397200211FF0CAFC8023C4F88C3013
S315080030B0054BC4F88430012384F8883004F19C0059
S315080030C01CF0F0FD10BD00BFDC6E020810B5D0F88C
S315080030D0A040B4FA84FC4FEA5C1CB1FA81FE4FEAC0
S315080030E05E1EF44506D0C0F8A010C0F8A43012B190
S315080030F0C0F8842010BD014AFAE700BFDC6E02085A
S3150800310010B503460846D3F8A0202AB1D3F8A41070
S3150800311090470024204610BD18461DF07BFD044646
S315080031200028F7D0FFF77EFF0146024A02481DF045
S315080031300DFFEFE7E4800208C46F0208F8B590F8BF
S31508003140806016B100263046F8BD05461DF0B4FA73
S315080031500028F8D1012385F8803095F8883023B9FE
S31508003160002385F8B432374614E0002385F8883002
S31508003170D5F8841024481DF0E9FEF1E71DF0CAFED3
S3150800318011E028461DF095FA2146284600F0F4FB82
S3150800319006468EB9D5F8B802B0F1FF3FEED04FF02B
S315080031A0FF33C5F8B832B0F1FF3F04D010F0FF0482
S315080031B0E7D10127EDE70127AEB9D5F89420D5F870
S315080031C08C30013B9A4219DB95F8E032B3B91C20E2
S315080031D0FFF728FF01460D4A0D481DF0B7FE0123EB
S315080031E085F8E0320AE028461DF068FA002385F8DB
S315080031F0E032012385F8883085F8B432002385F853
S3150800320080303E469FE700BF08A00208E480020817
S31508003210C46F0208F8B506460D4617460B78302BDC
S315080032200DD04FF0000C15F80C30002B4AD0364C58
S31508003230E35C13F0040F65D00CF1010CF3E74B784F
S31508003240782B04D0582B0CD04FF0000CEBE7022259
S31508003250AB5C43B12C49CB5C13F0440F50D0013220
S31508003260F6E70222F4E7724206F0030302F00302CD
S3150800327058BF5342032B16D128461FF029FC0238A3
S31508003280013608D4B310B0EBA60F06D09842ACBFEF
S315080032900020012037E00336F4E7A87837288CBFEA
S315080032A0002001202FE028461FF012FC831E32461C
S315080032B0002E05DBB3EBA20FD4BF0120002022E0CD
S315080032C0F21CF7E70A220021284610F0B3F8024656
S315080032D00C46202E10D027B1084302D0013A61F1DE
S315080032E000040123B340013B1340002C08BF93425E
S315080032F00CBF0120002006E0B1FA81F0400902E087
S31508003300002000E00020F8BD02A3030803787B2B09
S315080033101CD14FF0000C0122835C7D2B0ED00E4988
S31508003320C95C11F0440F03D00CF1010C0132F3E72C
S31508003330202B01D0002070470132EDE71044437876
S3150800334033B91CF0010F05D10120704700207047E2
S31508003350002070470020704702A30308212816D8CA
S3150800336021283AD8DFE800F0113B191B1D1F21233D
S3150800337039393939393939392527292B2D2F313317
S315080033803939393939393939353718487047FE28BE
S3150800339027D0FF2827D11648704716487047164881
S315080033A070471648704716487047164870471648BB
S315080033B070471648704716487047164870471648AB
S315080033C0704716487047164870471648704716489B
S315080033D0704716487047164870471648704716488B
S315080033E07047164870471348704700BF986F020821
S315080033F0946F0208F06E0208F86E0208006F020861
S31508003400086F0208106F0208186F02081C6F02087E
S31508003410286F0208346F0208406F0208486F0208D6
S31508003420546F0208606F02086C6F0208746F020816
S31508003430806F0208E06E0208E86E02088C6F0208C8
S3150800344070B506460D461FF043FB044630461DF090
S315080034507DFD03E003481DF079FD0134AC42F9D344
S3150800346070BD00BFA06F02082DE9F84F0446002181
S315080034703248FFF7E5FF14212068FFF7E1FF63688C
S3150800348058681DF063FD2E481DF060FD63681A7BC1
S31508003490FD2A51D803F10C09D3F808A050461FF0AD
S315080034A017FB80464FF0FF34002510E02B201DF057
S315080034B041FD36E01DF03EFD01341AF804001F28D0
S315080034C001D04445F6DB1E481DF040FD0135AB46EC
S315080034D019F80560FF2E2FD03046FFF73FFF074645
S315080034E0B8F1000F00DD0134202EEFD0134E002175
S315080034F03046FFF7A5FF14213046FFF7A1FF114814
S315080035001DF024FD104938461FF0C3FA00B90F4FC5
S3150800351039460F481DF01AFDCB449BF80130202B85
S31508003520C4D00C481DF012FDB8F1000FCBDD1AF817
S3150800353004301F2BC7D0C0E7BDE8F88FD06F02084C
S31508003540E4800208A86F0208806F0208A46F0208C8
S3150800355008A00208AC6F02082DE9F04F9FB081461B
S31508003560069107921C460393289F1FF0B1FA8046DE
S31508003570002323603B600AAA09A948461DF00FFDEF
S31508003580002840F0C3800A981FF0A2FA2060D9F8F4
S315080035909C5000231C4605939A460495AEE03B686A
S315080035A001333B60013419F80430202BF7D000248E
S315080035B02AE0013428E0099B013B534550D00E68A8
S315080035C03C6802981FF084FA044401343C6001E028
S315080035D001333B603B6819F80320002AF8D00AF14A
S315080035E0010A019C10E0059B013305932A46DDF884
S315080035F01CB05946069D28461CF0A8FB464A594663
S3150800360028461CF0A3FB013404EB440B4FEA8B035A
S3150800361006EB8B0BF258002A35D0099A524532DB55
S315080036209BF80820002AC4D1D9F894203968521A80
S3150800363003990A601EA901EB8A0151F8500C029001
S31508003640F55829461FF010FA01900028DBD12846C4
S315080036501FF03EFA0090DBF804100A7BFE2AAAD077
S31508003660D9F8943038681B1A009883420EDC0698FD
S315080036701FF02EFA009B03447B2BB4D9274A0799DF
S3150800368006981CF063FB4B4642462CE0FE2ABAD14C
S31508003690099B013B5345B6D10E680094CDF808A0A6
S315080036A0019C059DDDF818A0DDF81CB004EB440369
S315080036B056F823205AB1594650461CF047FB164A7D
S315080036C0594650461CF042FB01350134EEE7009C92
S315080036D0DDF808A00595C7F800800023039A136053
S315080036E0D1E70133013A002A05DD19780029F8D116
S315080036F020211970F5E7049B1B680493049B3BB1D2
S31508003700049B9E68002E7FF44EAFF4E700230593D2
S3150800371005981FB0BDE8F08FA06F0208B06F0208C9
S315080037202DE9F04786B004460F4616461D46DDF8D5
S315080037303890DDF83C8000238DF817302B6089F827
S31508003740003088F800302B6852F8231016481DF010
S31508003750DBF940B92B6801332B604FF0010AD4F826
S315080037609C40002003E04FF0000AF8E7246894B173
S31508003770A0680028FAD0CDF80C80CDF808900195FD
S3150800378000963B460DF1170200211DF0C1F99DF880
S315080037901730002BEAD0BAF1000F02D0012388F8BF
S315080037A0003006B0BDE8F087B86F020870B5ADF511
S315080037B0447D0446A4AD80263246002128461FF0E3
S315080037C03EF9A3AB0093A2AB324629462046FFF743
S315080037D0C3FE012804D0012840DC0DF5447D70BDE8
S315080037E02E4628461FF074F90546A299431AA39A4D
S315080037F00A442244314404E011F8010B02F8010B93
S31508003800013B002BF8DC00231370D4F890600AE023
S31508003810D4F8901020461DF0D3FAD4F8903001332E
S31508003820C4F890300136A29AA39B1344B342EFDC46
S31508003830D4F89430AD1A2B44C4F89430D4F89030A8
S315080038402B44C4F89030A4AC144404E014F8010BDB
S315080038501DF070FB013D002DF8DCBEE7802200213B
S3150800386002A81FF0ECF84FF40072002122A81FF0FE
S31508003870E6F80125002300E0013303F544726A44A3
S3150800388012F8802C3AB1202AF6D15A1C22A941F8FE
S3150800389025200135F0E722AA42F82530A4A81FF012
S315080038A017F9002115E0013222AB53F82230834282
S315080038B009D00B4403F544736B4413F8803C634505
S315080038C0F1D0002300E0012363B102AB03F801C085
S315080038D001318D4209DB01F544736B4413F880CC42
S315080038E00022E1E702AB00225A54D4F890500AE0CD
S315080038F0D4F8901020461DF063FAD4F890300133BE
S31508003900C4F890300135A29BAB42F1DC2346184A35
S31508003910A4A918481DF01AFB02AD28461FF0D8F8CE
S31508003920A29AA39B1344E1181544821A0EE015F8CF
S31508003930013B01F8013BD4F890300133C4F89030CC
S31508003940D4F894300133C4F89430013A002AEEDCF6
S3150800395000230B70A29C02AD2544041B04E015F855
S31508003960010B1DF0E7FA013C002CF8DC35E700BF37
S31508003970DC6E0208C06F02082DE9F04104460D46C8
S31508003980D0F89070D0F8946090F89830012B0AD04F
S31508003990012B0ED9022B00F0BC80032B00F0C88047
S315080039A00020BDE8F0810A29F2D1002084F89800A9
S315080039B0F7E71B2D26D00D2D29D0002384F8983043
S315080039C0082D28D07F2D60D00D2D7ED00A2D7CD0D5
S315080039D0092D00F08780D4F88C30013BB34240F3C0
S315080039E0DA80B742C0F28380E5550137C4F8907093
S315080039F0D4F894300133C4F8943028461DF09AFA66
S31508003A000020CEE7022384F898300020C9E7012376
S31508003A1084F89830D6E79F4203DDB7420AD0B7420A
S31508003A2016DB002F00F0B580C4F89070C4F89460D7
S31508003A300020B6E708201DF07DFA20201DF07AFA4E
S31508003A4008201DF077FA013F0023E355013EEBE716
S31508003A5007F1FF3808201DF06DFA04EB0805A6EB00
S31508003A600802E11928461EF0D1FF0023A35529466E
S31508003A704B481DF06BFA013E354602E01DF0A5F9EC
S31508003A80013D4545FADC4746CEE7002E01DDB74243
S31508003A9001DB002085E7E519791CF21B214428463D
S31508003AA01EF0B4FF0023A35529463E481DF04EFAE2
S31508003AB003E008201DF03EFA013EBE42F9DCD4F8C8
S31508003AC09430013BC4F89430E3E70D201DF032FA38
S31508003AD00A201DF02FFA0023C4F89030C4F8943059
S31508003AE001205EE72046FFF761FE002059E7781CB3
S31508003AF004EB0708F21B414620441EF087FF4046A8
S31508003B001DF024FA02E01DF060F9013EBE42FADA21
S31508003B106AE75B2D04D1032384F89830002040E738
S31508003B20002384F8983029462046FFF725FF38E712
S31508003B30002384F89830413D032D2ED8DFE805F0A0
S31508003B4002080F1E012120461DF094F9002028E7DF
S31508003B504FF0FF3120461DF08DF9002021E7B742CE
S31508003B6001DB00201DE7394620461DF029F9D4F867
S31508003B7090300133C4F89030002012E7002F01DCA2
S31508003B8000200EE7013FC4F890701DF01EF90020D2
S31508003B9007E7002005E7002003E7002001E700BF4C
S31508003BA0CC6F0208D46F020808B5024802F0ECFB95
S31508003BB008BD00BFD86F020838B505460C468968A7
S31508003BC01DF090FA40B900231A4619462068FFF7F7
S31508003BD07DFA0023637638BD294620461DF08BFA08
S31508003BE00028F8D1014802F0CFFBF4E7DC6F0208A1
S31508003BF008B500680EF062F801491DF064FA08BDC0
S31508003C00A93B000808B500680EF058F8837E03B192
S31508003C1008BD012343760346426802490068FFF758
S31508003C2055FAF5E7B93B000810B50EF047F8044613
S31508003C30807E50B1E1692369994207D3E069236917
S31508003C4098422CBF00200120A07610BD034A2046CA
S31508003C501DF029FAE3690133E361EFE7ED10020885
S31508003C6000B583B0094B93E803000090ADF8041043
S31508003C70090C8DF806106846FEF77AFC0920FEF74F
S31508003C80B5FC002003B05DF804FB00BF9C390308AF
S31508003C9010B58AB0EC461B4C0FCCACE80F000FCC25
S31508003CA0ACE80F0094E803008CE80300164BD3F841
S31508003CB04C3113F4002F07D0144B1C884FF6FF73B2
S31508003CC09C4205D1642403E00F4BD3F85041E4B27B
S31508003CD08DF81940FEF784F9241803D4FF2C02DD69
S31508003CE0FF2400E000248DF818400948FDF724FA5F
S31508003CF06846FEF769F83220FEF73AFA00200AB05D
S31508003D0010BD00BFA43903080080E00F0001E00FD2
S31508003D10C017530210B586B00DF1040C124C0FCC27
S31508003D20ACE80F002368CCF80030104BD3F84C31C0
S31508003D3013F4802F07D04FF07E6393F89C30FF2B47
S31508003D4006D1232304E0094BD3F8503103F4FE03CC
S31508003D508DF8053001A8FEF7C1F93220FEF702FA00
S31508003D60002006B010BD00BFCC3903080080E00F64
S31508003D702DE9F84304460D46A1B12B7D1F2B00F211
S31508003D808F8022F0A3FC0646464B1B68183B13F1AE
S31508003D90180F20D0A3420CD01A68AA420ED09B69ED
S31508003DA0183BF4E700F078F905460028E5D12D27F9
S31508003DB009E0304622F085FC122704E034B130468B
S31508003DC022F07FFC23273846BDE8F883304622F0E8
S31508003DD078FC1227F7E7344BD3F80080BCB1B8F16A
S31508003DE0000F24D04FF0000904F11003002204212B
S31508003DF0287D01F051FA074610B3B9F1000F1BD11F
S31508003E00294BC3F80080304622F05BFCDBE71A46F4
S31508003E1000211C2001F036FA074620B9224B1C68FF
S31508003E204FF00109E0E7304622F04BFCCBE71E4B8A
S31508003E301C604FF00009D7E7204622F095FEDFE721
S31508003E4004F1140300220421287D01F025FA07460F
S31508003E50A8B9002363602373A360214641F8185B61
S31508003E6010481BF022FF284600F0F2F808212173BB
S31508003E7028461DF085F9304622F023FCA3E7206981
S31508003E8022F072FEB9F1000F06D1074BC3F8008085
S31508003E90304622F016FC96E7204622F065FEF4E747
S31508003EA00F2790E7640C0020600C002020B1034A1D
S31508003EB0126802600020704722207047600C0020BC
S31508003EC02DE9F84F0E469346044600286CD022F09A
S31508003ED0FDFB27683A7D4FF0010C0CFA02FC0CF149
S31508003EE0FF3C61686FEA01082CEA010393FAA3F321
S31508003EF0002B5CD0B3FA83F39A425AD916F0040F12
S31508003F0007D04FF0010E0EFA03FE3D6915EA0E0FB3
S31508003F1053D016F0080F06D0D7F80CE001279F40BB
S31508003F201EEA070F4DD016B116F0020F31D0277BC7
S31508003F30BA422ED0A2EB070E5FFA8EFE0EF1FF3EB6
S31508003F405FFA8EFE9E4524D34FF0010909FA07F958
S31508003F5009F1FF39A2EB070A09FA0AF916F0020F66
S31508003F600AD04FB108EA090696FAA6F66EB3B6FA6B
S31508003F7086F6B24200D9334673450AD22CEA090CB2
S31508003F8018EA0C0823D0B8FA88F8C8F11F085FFAAF
S31508003F9088F301229A40114361608BF8003022F0C1
S31508003FA090FB0020BDE8F88F0A4B1C688FE720239A
S31508003FB0A2E722F086FB1A20F4E722F082FB1A20F9
S31508003FC0F0E722F07EFB1A20ECE72026D1E74FF037
S31508003FD02008DAE7600C002070B50C460546B0B13B
S31508003FE02B681B7DA34215D922F070FB6B68012252
S31508003FF0A24023EA02036B602B69002643F824607B
S315080040006B6943F8246022F05CFB304670BD024BB6
S315080040101D68E5E72120F9E7600C002070B50C461D
S315080040201546064660B133681B7DA3420BD922F0BC
S315080040304DFB336943F8245022F043FB002070BD42
S31508004040024B1E68EFE72120F9E700BF600C00204D
S3150800405010B582B00468806822F09FFB0D4822F0F4
S315080040609CFB162000F0C0F916201DF0A8F81E23A8
S315080040708DF8043000238DF805308DF8063001A937
S3150800408020461CF0B2FA04F580540123636002B09E
S3150800409010BD00BFE839030800487047F83903081F
S315080040A038B5134A536D116D0B4002F5005213656E
S315080040B09DB2002B18DA0E48C168C1F3042101230A
S315080040C08B400C4A42F8213021F0A2FB0EE0B5FAEB
S315080040D085F4C4F11F04E4B22146054821F098FB93
S315080040E00123A34025EA0305002DF0D138BD00BF02
S315080040F000000450680C002010B501F057FB044678
S3150800410008B1204610BD01F0E5FB22F07FF94FF417
S31508004110167303FB00F000F5742000F23F200B4BEA
S31508004120A3FB0030800C0A4B186000230BE0084AFA
S315080041301068084941F82300106807490A680244CC
S315080041400A600133DBB2092BF1D9DAE783DE1B43B8
S31508004150BC0C0020900C00208C0C002008B5044BE9
S3150800416001221A7022F0A5FD024B186008BD00BF97
S3150800417005680020880C002010B522F047F904468F
S3150800418022F0AFFA844200D810BD22F09EFD002826
S31508004190FAD0034A1060034B01221A70F4E700BFF5
S315080041A0880C002005680020274B1B7803B9704748
S315080041B070B522F07EFD254B1B68C01A244B18608B
S315080041C01B68002B3AD0224B1B68214C236022F037
S315080041D01DF94FF4167303FB00F000F5742000F286
S315080041E03F201C4BA3FB003023682368B3EB904F9A
S315080041F026D819480378194C54F82320144D2968F1
S31508004200511A174E3268521A3260296844F8231038
S3150800421009321449A1FB0242D208134C2260013329
S31508004220DBB20370A1FB0312D20802EB8202A3EBF6
S3150800423042030370044B00221A7070BD0123C4E7C1
S31508004240014B00221A70F8E705680020880C002048
S31508004250B80C002083DE1B4306680020900C002063
S315080042608C0C0020CDCCCCCCBC0C0020014B1868A3
S31508004270704700BFBC0C0020F8B503212D201CF0A8
S31508004280A2FF0F4B4FF480125A660E4C04F50055E8
S315080042900D4F6F6704266E672F672E672D2000F077
S315080042A0A3F82D201CF08BFF04F580535F675E672B
S315080042B04FF00072AA624FF480529A62F8BD00BFAE
S315080042C0009000500040005A010000A000E050B1E4
S315080042D0054B9B6D13F0050FF9D0044B1B78002B8B
S315080042E0F5D10120704770470040005A0768002042
S315080042F010B5184B1C6F14F0040111D003F50052C9
S315080043001167082191629B6D13F0010F13D001F01C
S3150800431065F901F043F9012022F0BEF822F0D9FC34
S3150800432014F001030AD114F0005301D00A4A1367A6
S31508004330002C0ADB10BDFFF71FFFE8E7064A1367E4
S31508004340FFF732FF01F02AF9EDE704F00044024BCB
S315080043501C67EFE70040005A0060005A002808DB97
S315080043600901C9B200F1604000F5614080F8001308
S31508004370704700F00F000901C9B2014B1954704784
S3150800438014ED00E0002807DB00F01F0240090123B6
S315080043909340024A42F82030704700BF00E100E02F
S315080043A000280CDB00F01F0240090123934020304F
S315080043B0034A42F82030BFF34F8FBFF36F8F704721
S315080043C000E100E04211074B53F8223000F01F00CD
S315080043D023FA00F0C0F3000080F0010000F00100AD
S315080043E0704700BF00E100E0002808DB00F01F026C
S315080043F04009012393406030014A42F82030704753
S3150800440000E100E010B522F061F90B4B1B783BB9CF
S31508004410094B01221A7022F054F96FF0040408E0DF
S3150800442022F04FF907E0052120461CF0CCFE0134A6
S3150800443064B24E2CF7DD10BD0868002010B504469E
S3150800444022F044F9024B1C6022F03BF9002010BD13
S31508004450C00C002010B522F039F9034B1C6822F075
S3150800446030F9204610BD00BFC00C002038B50C46F8
S315080044701546014640B12B462246064801F0D4FFB0
S31508004480002805DD002038BDFFF7E4FF0146F2E706
S315080044903720F8E74F120208F0B585B004469DF8B4
S315080044A028700B9E4148007800286ED0072C6FD8DC
S315080044B0002A6FD0002B6FD0002E6FDBB6F5006F89
S315080044C06ED83B4800EB0410007B00286AD0002019
S315080044D000900190029003904FEA441CDFF8D4E064
S315080044E00EEB44154EF80C006860A860E860A878E2
S315080044F040F01000A870E87840F00300E8701FB993
S31508004500EF7847F03007EF7009680091711E294F60
S31508004510660107EB441037F806C061F30E1C27F84E
S3150800452006C082604360C3789DF8302062F3830337
S31508004530C3700D9B23B31E49230101EB04120D988A
S31508004540C8500E9B5360002393601B4B53F82420DE
S31508004550E1B21A4B1868FFF761FD194E2B466A46F9
S31508004560214630461CF054F8214630461CF094F893
S315080045700F2C19D80123A340124A5365002005E0E1
S31508004580827822F010028270D5E7112005B0F0BDBE
S315080045902120FBE72120F9E72120F7E72120F5E78D
S315080045A02120F3E72520F1E70020EFE7096800203E
S315080045B0C80D0020C80C0020383A0308C40C002097
S315080045C0000004500010045038B5104B1B78BBB1DE
S315080045D00446B8B10020206021461CF0CBFD0546F4
S315080045E090B922F073F82368094A190102EB0313FC
S315080045F001241C730023535022F063F8284638BD63
S315080046001125FBE72125F9E71A25F7E709680020B0
S31508004610C80D002010B522F059F80023072B06D83C
S31508004620094A02EB0312127B12B90133F6E700229C
S315080046301AB122F046F8042010BD0024034B1C7062
S3150800464022F03FF82046F7E7C80D00200968002049
S315080046500D4B1B789BB110B50446072811D8C1B27B
S315080046600A4B1868FFF7B8FC22F030F8084B03EB42
S31508004670041300241C7322F024F8204610BD1120D0
S3150800468070472120FAE700BF09680020C40C002003
S31508004690C80D002008B522F019F8104B1B7833B95D
S315080046A00E4B01221A7022F00CF8002309E022F0C2
S315080046B008F8122011E00A4A02EB031200211173CE
S315080046C00133072BF7D9074822F067F8064822F086
S315080046D064F80648FFF7EAFB002008BD09680020D1
S315080046E0C80D0020EC390308E8390308C40C00207B
S315080046F038B504461A48007858B3072C2BD81948F9
S3150800470000EB0410007B40B3164D200105EB041C9A
S315080047102B50049BCCF804300023CCF80830134601
S315080047200A46214610481BF073FF0F2C03DC0123B1
S31508004730A3400E4A53650E4B53F82420E1B20D4BA5
S315080047401868FFF76BFC214607481BF0A5FF0020F9
S3150800475038BD1120FCE72120FAE72520F8E700BF3D
S3150800476009680020C80D00200000045000100450FD
S31508004770383A0308C40C00200A4B1B7863B1072893
S315080047800CD8094B03EB00131B7B4BB10123834069
S31508004790064A13640020704711207047212070478D
S315080047A02520704709680020C80D00200010045015
S315080047B00A4B1B7863B107280CD8094B03EB001387
S315080047C01B7B4BB101238340064A136400207047C4
S315080047D0112070472120704725207047096800205E
S315080047E0C80D00200020045010B5012905D902295A
S315080047F017D1164B1C68B83C17E0144B1C68B83C1C
S315080048000CE0D4F8A80021F0C8FFD4F8A43005219C
S3150800481018681BF0C7FDD4F8B840B83C14F1B80FB7
S31508004820EFD110BDD4F8B840B83C14F1B80FF8D0A1
S3150800483094F89730002BF5D194F89530002BF1D1E8
S31508004840D4F8A80021F0AEFFECE700BF480E002020
S3150800485038B50446D0F8A4301D68AB6C13F0400F89
S31508004860FBD000231A4694F8AD1094F8AC00FEF776
S3150800487037F900231A4694F8AF1094F8AE00FEF7FD
S315080048802FF994F8B43013F0010F1CD194F8B43012
S3150800489013F0020F20D105F5005301221A650422F0
S315080048A01A65002128461BF07DFDD4F8A80021F0E2
S315080048B079FF104D04F1B80128461BF00AFA2B6857
S315080048C09BB1002038BD00231A4694F8B11094F81D
S315080048D0B000FEF705F9D9E700231A4694F8B31095
S315080048E094F8B200FEF7FCF8D5E7034800F086FD19
S315080048F0E7E700BF480E00204C0E002010B50379EC
S31508004900012B03D0022B12D1582400E05724012191
S315080049102046FDF739F90B4AD2F8283123F0070368
S3150800492043F00103C2F82831562C02D010BD562494
S31508004930EDE7D2F8203223F0070343F00103C2F86B
S315080049402032F3E70080005010B50379012B03D01D
S31508004950022B0DD1582400E0572401212046FDF7EB
S3150800496013F901213620FDF70FF9562C02D010BD98
S315080049705624F2E7044AD2F8203223F0070343F01C
S315080049800303C2F82032F2E7008000502DE9F04117
S315080049908EB007460E4614461D461368D3F80080A7
S315080049A091F83130FBB10DF1180CDFF868E2BEE87A
S315080049B00F00ACE80F009EE80F008CE80F002046B9
S315080049C0FFF79CFF0023009301930293039304933C
S315080049D00593A3680893237B012B14D0022B41D19E
S315080049E04FF4407311E00DF1180CDFF82CE2BEE825
S315080049F00F00ACE80F009EE80F008CE80F00204679
S31508004A00FFF7A2FFDEE74FF40073ADF82630607BB0
S31508004A101CF03CFCADF82800CDF834D001238DF805
S31508004A200630A37B022B04D0032B02D0012B00D027
S31508004A3000238DF80030B36B6C4A1A60B36B6C4A6E
S31508004A405A60B36B6B4A9A60B36B6B4ADA6032464C
S31508004A502946384600F0D8FA074628B138460EB037
S31508004A60BDE8F0810023D0E72369C5F8A830237E86
S31508004A7085F8AF30E37D85F8AE30A37D85F8AD3097
S31508004A80637D85F8AC30A37E85F8B130637E85F802
S31508004A90B030237F85F8B330E37E85F8B2302368DB
S31508004AA0C5F8A430554821F078FE01230422A17DDB
S31508004AB0607DFEF715F801230222217EE07DFEF7D0
S31508004AC00FF8002385F8B430206921F066FE96F8C1
S31508004AD03130002B65D006A940461BF08EFC95F8B0
S31508004AE0B43043F0040385F8B430227D444B2632B3
S31508004AF003EB421214215160617DA07D227D41EABB
S31508004B00004103EB4212C2F8DC14E27D207E217DCF
S31508004B1042EA004203EB4113C3F8D424A37B012BDA
S31508004B2044D0032B42D0A37B023BDBB2012B4AD9EC
S31508004B3095F8B43013F0010F0CD0627EA17E237D68
S31508004B4042EA01425B0103F1A04303F5703341F2E7
S31508004B50CC415A5095F8B43013F0010F10D0237D8C
S31508004B60274AA63302EB431302215960E37E207FCE
S31508004B70217D43EA004302EB411241F2D0415350F2
S31508004B80204B1B6863B305F1B8011E481BF08DF86E
S31508004B9008F500531C4ADA64052140461BF002FC5E
S31508004BA05CE706A940461BF02EFC9EE795F8B43054
S31508004BB043F0010385F8B43000230222A17E607E0B
S31508004BC0FDF78EFFAFE795F8B43043F0020385F89A
S31508004BD0B43000230422217FE07EFDF781FFA7E79A
S31508004BE00A490B4800F0FAFBCDE700BFB5120208E8
S31508004BF0ED120208CF12020851480008F0390308DE
S31508004C0000C00350480E0020FF3F0D03B468002083
S31508004C104C0E0020583A0308783A030830B583B09A
S31508004C20007D104B00EB400203EB0212D56E00EB41
S31508004C30400203EB02131C6F0DF1070120F052FE30
S31508004C409DF807304BB904F00204074B9D4201D08A
S31508004C50002003E024B1002000E0012003B030BDAD
S31508004C600120FBE7000004500A680020037D0E4A75
S31508004C7003EB430102EB0111C96E03EB430302EB9D
S31508004C800312136F03F00203084A914201D0002071
S31508004C9070470BB900207047036A006D984214BF2D
S31508004CA000200120704700BF000004500A68002059
S31508004CB038B5047D2046FFF75FFD04EB44031B016E
S31508004CC003F1A04303F58023DB6E044DED1A18BFEC
S31508004CD001252046FFF76CFD284638BD0A680020E6
S31508004CE070B582B00546446994F8953013B194F8C6
S31508004CF098306BBB2B69591EEE68606F04F17C0215
S31508004D000023E36753609360D360B4F87C3061F3A3
S31508004D100E13A4F87C3094F87E3043F0100384F820
S31508004D207E3094F87F3043F0300384F87F30C4F83F
S31508004D308060C4F88400012384F88C3094F87800E5
S31508004D400095094B04F16401FFF7D2FC02B070BD6F
S31508004D50002384F89530012021F020FE236E9B68FD
S31508004D60012120469847C5E771170208F0B585B0B6
S31508004D70044600F13806002585637560B560F56060
S31508004D8090F83A3043F0100380F83A3090F83B3008
S31508004D9043F0030380F83B30494FC7630764007D3F
S31508004DA0FFF7EAFCA5637560B560F56094F83A30DC
S31508004DB043F0100384F83A3094F83B3043F0030389
S31508004DC084F83B30E7632764207D00EB40031B0132
S31508004DD003F1A04303F58023DB6EBB4218D00DF127
S31508004DE00F0120F07FFD9DF80F30A3B194F84430F1
S31508004DF023F0020384F844300094324B32462146AD
S31508004E00207DFFF775FC207DFFF7D2FC05B0F0BDCD
S31508004E10FFF7CEFCFAE720461CF0D7FA054602A9AA
S31508004E20207D20F081FD029B591E276904F1180395
S31508004E300022A261E26122626262208B61F30E1097
S31508004E402083A17E41F01001A176E17E41F00301A5
S31508004E50E176E7612562217D1B4801EB410500EB00
S31508004E6005152F6FC7F3400794F824C067F3410C64
S31508004E7084F824C0A77E62F30417A7762F6F5FFA1B
S31508004E808CF567F3000584F8245001EB410100EB2B
S31508004E900110016F8910606A61F39F00606294F8DF
S31508004EA0441041F0020184F84410C9B262F30001CB
S31508004EB084F844109B10626C63F39F0262649BE75C
S31508004EC00A680020D915020800000450F0B587B01A
S31508004ED004460E46007DFFF74FFC2046FFF79EFE70
S31508004EE0074620461CF071FA0546236D83424AD2CE
S31508004EF0A26C934216D0238DC3F30A12324462F38E
S31508004F000E132385236D1E442665A26CE36C134499
S31508004F109E426BD0236DAB426AD0207DFFF748FCDA
S31508004F2007B0F0BD701ED4F810C004F128030021A4
S31508004F30A162E16221636163278D60F30E172785FD
S31508004F4094F82A0040F0100084F82A0094F82B0000
S31508004F5040F0030084F82B00C4F82CC0226394F8B0
S31508004F602A2061F3041284F82A2023F00302237D01
S31508004F7042F0020203EB43031B0103F1A04303F5CE
S31508004F8080231A67BEE7A7B9237D1D4803EB4302B2
S31508004F9000EB0212516EC1F30A113144526E6FF3DF
S31508004FA00E1242EA011203EB430300EB03104266BA
S31508004FB0A8E70494134B0393002302930196012355
S31508004FC00093236902462146207D1CF04DF9237D76
S31508004FD00B4A03EB430102EB0111496E21F48011E0
S31508004FE003EB430302EB031251668BE7226591E755
S31508004FF0012384F854302046FFF7B8FE8DE700BF3A
S3150800500000000450D915020870B588B006460C464B
S315080050101546A422002120461DF011FDA446AE46E1
S31508005020BEE80F00ACE80F00DEF80030CCF8003020
S3150800503004F1640C05F1140EBEE80F00ACE80F008D
S31508005040DEF80030CCF80030AB6AA364EA6AE264A2
S31508005050236595F8302084F8992095F8332084F84C
S315080050609A20C4F89C30012384F8A03084F8543080
S31508005070AB6B236695F8343084F8943095F8313064
S3150800508084F898303460444B7360444BB360444BA7
S31508005090F360444B7361444BB361444B3361FFF790
S315080050A0F9FA08B112286ED107A8FFF78DFA002879
S315080050B06BD19DF81C30237507A8FFF785FA0028E1
S315080050C05CD19DF81C3084F87830394B7362012323
S315080050D084F8A130374AF261374A3262002284F8EE
S315080050E0962084F8953095F8321020461CF048F939
S315080050F0AB6B93F91100FFF777F9AB6B93F91100D6
S315080051001CF05DF8207DFFF737FB002840D1E36CE3
S3150800511004942A4A039200220292019301230093DF
S315080051202369A26C2146207D1CF09EF890BB237D46
S3150800513003EB43031B0103F1A04303F5802342F26B
S3150800514064024FF480119950AB6B93F91000FFF786
S315080051504BF9AB6B93F910001CF031F804F1900091
S315080051601AF0A0FD3046FFF769F92046FFF7FEFD65
S31508005170207DFFF71DFB48B1102007E0207DFFF7D3
S3150800518067FA102002E0102000E0102008B070BD79
S315080051901020FBE71020F9E77F150208931502088F
S315080051A039170208751302087B130208B517020897
S315080051B01714020881130208C5130208D915020834
S315080051C038B505682C7D2046FFF7D6FA04EB44036C
S315080051D01B0103F1A04303F58023DA6E114B9A42B3
S315080051E003D02046FFF7E4FA38BD2846FFF716FD38
S315080051F070B121F06BFA0122A2400B4B03F5005166
S315080052004A6503F580539A625A6321F05AFAE8E729
S315080052102846FFF72BFD0028E3D10123A340024AC5
S315080052209364DEE70A680020000004500C4B1B78E4
S315080052309BB900B583B000F045F8684600F03AF827
S31508005240084B0222019900981CF05BFD10B9044B2B
S3150800525001221A7003B05DF804FB1220704700BFE4
S315080052600B680020540E002000B583B00093134647
S315080052700A46014602481CF046FB03B05DF804FBEB
S31508005280540E002008B513460A46014601481CF08C
S3150800529048FC08BD540E002000B583B000931346A1
S315080052A00A46014602481CF047FC03B05DF804FBB9
S315080052B0540E0020024A1168016052684260704725
S315080052C07C0E0020034A04491160044B5B1A5360A4
S315080052D0704700BF7C0E0020B07400200000042038
S315080052E0BFF34F8F0549CA6802F4E062044B1343C3
S315080052F0CB60BFF34F8F00BFFDE700BF00ED00E0B6
S315080053000400FA05BFF35F8F074B5A6A22F480320E
S315080053105A62D3F8942022F00102C3F89420BFF30E
S315080053204F8FBFF36F8F704700ED00E070B5FFF742
S31508005330E9FFA022002121481CF003FD204B21494A
S315080053408B4206D021F01F02203AB2F1005F0FD33C
S3150800535000E01D4A1D4D286842F001021C4CC4F8A5
S3150800536098001C4EC4F89C60C4F8A0200130286040
S315080053708B4210D01F3323F01F0343F00303134857
S3150800538002681349C1F89820C1F89C30124BC1F83D
S31508005390A03001320260BFF35F8F0D4B0522C3F8C0
S315080053A094205A6A42F480325A62BFF34F8FBFF391
S315080053B06F8FBFF34F8FBFF36F8F70BD90ED00E017
S315080053C0A0680020A068002000000420840E0020A9
S315080053D000ED00E003000020E1FF032038B5044695
S315080053E0416021F06AF90546214603481AF05DFC3A
S315080053F0284621F05DF938BD880E002038B50546E7
S3150800540021F05BF90446294603481AF062FC204657
S3150800541021F04EF938BD00BF880E002008B50248B5
S315080054201AF040FC08BD00BF880E0020134B5B6EC7
S3150800543013F4005F09D0124B9B6813F0100F04D0C9
S315080054400F4B5B6813F0010F10D10C4B9B6E13F4D6
S31508005450003F0DD00B4B9B6813F0100F0AD0094B79
S315080054605B6813F0010F07D10020704701207047D1
S3150800547000207047002070470120704700800050C8
S315080054800040005B0080005B08B521F00FF9FFF7CC
S31508005490CDFF174BDC6E24F0030444F00204DD6EE6
S315080054A045F003054AF6E8521A66FCF7D7FE114A94
S315080054B0136F23F0070343F0010313670120FCF77A
S315080054C0F3FE0020FCF7ECFF1CF067FC002304E069
S315080054D0074AD466D5660133DBB2032BF8D9044BE9
S315080054E0DC66BFF34F8FBFF36F8F30BFFEE700BF99
