S01E00007261696C5F736F635F7261696C746573745F34313632412E73333756
S21400000000080020ED0F000081BF010081BF010045
S2140000104FD8010081BF010081BF010081BF0100F0
S21400002081BF010081BF010081BF010081BF0100C7
S21400003081BF010081BF010081BF010081BF0100B7
S21400004081BF01008969010081BF010081BF0100F5
S214000050B9610100A7F00100A3F00100A969010041
S2140000609BF0010069180000D119000081BF010053
S214000070D90C0000C90C000081BF010081BF01003F
S21400008081BF010081BF0100F119000081BF01009E
S21400009081BF010081BF010081BF010081BF010057
S2140000A081BF010081BF010081BF010081BF010047
S2140000B0DD6901009FF001003D020100196A0100A0
S2140000C081BF01000547010081BF010081BF01001B
S2140000D081BF010081BF010081BF010081BF010017
S2140000E081BF010081BF010081BF010081BF010007
S2140000F081BF010081BF010081BF010081BF0100F7
S21400010081BF010081BF010081BF01000000000027
S214000110013800D0FCE77047000000000000000037
S21400012001F0FF01102A2BDB10F0070F08D010F8A3
S214000130013B013A8B422DD010F0070F42B3F6D1A7
S214000140F0B441EA012141EA014122F007047FF0C0
S21400015000070023F0E80256083C85EA010586EA17
S214000160010685FA47F5A3FA87F586FA47F6A5FA53
S21400017087F68EB9EED1F0BC01F0FF0102F007025F
S21400018032B110F8013B013A83EA010313B1F8D10A
S2140001900020704701387047002D06BF35460338EB
S2140001A0073815F0010F07D1013015F4807F02BF24
S2140001B0013015F4C03F0130F0BC0138704700BF75
S2140001C02DE9F04F2DED028B91B082460C469346FA
S2140001D01D46DDE91C23104619461AF0E1FA0028F0
S2140001E000F007814FF0FF32B14BDDE91C011AF039
S2140001F0FFFA002840F0FD804FF0FF326FF48013C6
S214000200DDE91C011AF0D6FA002840F0F280002240
S2140002100023DDE91C011AF0CDFA002840F0FE802C
S2140002209DED1C7B8DED067B209B13F480630F9366
S21400023001D106231E93DDE906010246C1F30A50EA
S214000240C1F31303904643F07F5949F44019A0F2D6
S214000250FF3019F0D3FF84A3D3E900231AF038F84F
S21400026083A3D3E9002319F07DFE06460F4600223D
S214000270904B4046494619F073FE7FA3D3E900230E
S2140002801AF026F802460B463046394619F06AFE42
S2140002901AF0B8FA064619F0B1FF8046894678A3E8
S2140002A0D3E900231AF014F80022834B19F05AFE03
S2140002B01AF0A8FA074674A3D3E900234046494635
S2140002C01AF006F880468946384619F097FF70A35C
S2140002D0D3E9002319F0FCFF02460B464046494688
S2140002E019F03EFE8046894602460B4619F0F0FF9E
S2140002F0CDE90A0107F2FF3700210022CDE90812F6
S2140003003B0509930023089342464B464046494620
S21400031019F028FECDE90C0142464B4600204FF06E
S214000320804119F01DFE804689460022634BDDE9B8
S2140003300A011AF0F7F80022614B19F013FE024684
S2140003400B46DDE90A011AF0EDF800225D4B19F0C4
S21400035009FE02460B46DDE90A011AF0E3F80246FA
S2140003600B464046494619F0FDFD02460B46DDE9C0
S2140003700C011AF0D7F80022534B19F0F3FDDDE913
S214000380082319F0A5FF8046894649EC188BDDE95D
S21400039006231AF02DFA40B1013E0022484B404693
S2140003A049461AF0BFF841EC180B06F16303C62B5A
S2140003B03FD80427209B13F4006F44D036A3D3E91C
S2140003C00023DDE90689404649461AF007FA002868
S2140003D03FD033A3D3E90023404649461AF0EAF952
S2140003E0002836D01E9BB34225DD9E1B731E1E932F
S2140003F023E0209B04931F9B03931E9B02939DED7B
S2140004001C7B8DED007B2B465A462146504600F05D
S214000410CFF811B0BDEC028BBDE8F08F9FED227BCC
S2140004208DED067B1C9B06931D9B03F100430793F3
S214000430FAE60527BEE700231E93209B43F480635D
S214000440209300273E461F9B9F423FD2A3EB070800
S2140004503EE01E9B002BF6D00F9B002BF3D01E9B7E
S214000460013B1E93EFE700BFFB799F501344D33F39
S214000470B3C8608B288AC63F61436F63A787D23FA5
S21400048071A379094F930A401655B5BBB16B02406C
S214000490EF39FAFE422EE63F2D431CEBE2361A3FBA
S2140004A00000000080842E410000000000000000D4
S2140004B0FFFFEF7F0000F83F0000E03F00002C4009
S2140004C000002440000018400000F03F4FF00008F5
S2140004D0209B13F0020902D00FB14FF000083EB186
S2140004E053EC182BDDE906011AF01CF8CDE90601DD
S2140004F000220023DDE91C011AF05CF900283DD13A
S214000500209B23F400630493CDF80C801E9B02937B
S2140005109DED067B8DED007B2B465A4621465046C8
S21400052000F046F8002F3FF474AF209B13F0200F26
S2140005302CD04FF0450C00F101082B460246214610
S2140005406046D04786EAE672A2EBE672052305937C
S214000550013F0497002303930A230293F30F0193AA
S21400056000922B464246214650461DF0C9FBB9F183
S214000570000F3FF44EAF02461F9F10E0DDE9060174
S214000580024601F10043CDE90623B9E74FF0650CBA
S214000590D1E7561C2B4621462020D0473246A2EBF8
S2140005A00B03BB42F5D3104633E700BF0000000044
S2140005B02DE9F04F2DED028B95B007900A919246EB
S2140005C09B46DDE92089229D42464B4640464946E9
S2140005D01AF0E6F8002840D04FF0FF326FF4801390
S2140005E0404649461AF0E6F8002845D14FF0FF325B
S2140005F09F4B404649461AF0FBF800284BD198A37B
S214000600D3E90023404649461AF0F2F800285AD1AA
S21400061095A3D3E90023404649461AF0CBF80028B4
S21400062051D100220023404649461AF0C3F800285C
S21400063057D100230B93249B13F4806F5CD00024C7
S2140006401F2C5BD8092D59D904F150036B44302276
S21400065003F8202C013D0134F2E7249B0393239BEF
S214000660029303230193834B00935B4652460A99F9
S21400067007981DF06BFA2CE1249B0393239B0293AF
S214000680042301937C4B00935B4652460A990798D5
S2140006901DF05CFA1DE1249B13F004030FD0774A8B
S2140006A07BB104232499039123990291019300922C
S2140006B05B4652460A9907981DF048FA09E1704AC7
S2140006C0EEE70323EEE7249B0493239B0393029514
S2140006D0CDE900895B4652460A990798FFF770FDF8
S2140006E0F7E042464B460020002119F039FC8046D0
S2140006F0894601230B939EE70625A0E74046494618
S2140007001AF080F8064619F079FD02460B46404678
S214000710494619F025FC5B4B03EBC50393ED008BB4
S21400072053EC182B19F0D4FD02460B46CDE90823EE
S2140007301AF090F8074619F051FD02460B46DDE91F
S214000740080119F00DFC02460B46CDE908230022ED
S2140007504D4B1AF04DF850B30137384619F03EFDB0
S21400076002460B4651EC180B1AF02EF808B101366B
S214000770002755BB304619F041FD02460B46404661
S214000780494619F0EDFB0746884600223E4B1AF014
S21400079011F838B100223C4B384641461AF028F88A
S2140007A0002842D016F0010F3FD001363DE000226F
S2140007B0354BDDE9080119F0FDFF0028D9D117B146
S2140007C017F0010FD5D00137D3E71F2C17D8013DFE
S2140007D02E4BA3FB0723DB08194603EB8303A7EB8B
S2140007E04303621C303304F150000DEB000404F8A0
S2140007F0203C092F02D90F461446E6E714461F2C64
S2140008000AD86B1E45B104F150026A44302102F842
S214000810201C1D460134F2E71F2C06D804F15003B5
S2140008206B442E2203F8202C01341F2C33D8184A90
S21400083082FB0632F317C3EBA2031A4603EB8303CD
S214000840A6EB4303611C303304F150000DEB0004AB
S21400085004F8203C1646EAB10C46E6E7AFF3008003
S2140008600000000065CDCD410000000065CDCDC183
S214000870FFFFEF7F1CE6020020E6020010E6020003
S21400088018E6020028E602000000E03FCDCCCCCC03
S214000890676666660C46249B03F00303012B1DD097
S2140008A01F2C09D80B9B002B35D004F150036B444A
S2140008B02D2203F8202C0134249B0393239B0293C0
S2140008C001940CAB00935B4652460A9907981DF0BC
S2140008D03DF915B0BDEC028BBDE8F08F239BB3B19C
S2140008E00B9B1BB9249B13F00C0F12D0239B013BD0
S2140008F02393194606E004F150036B44302203F8B4
S214000900202C01348C42CBD21F2CF4D9C8E7239973
S214000910F8E72399F6E7249B13F0040F07D004F1B9
S21400092050036B442B2203F8202C0134C4E7249B8D
S21400093013F0080FC0D004F150036B44202203F8D4
S214000940202C0134B8E700BF0348044B834202D092
S214000950034B03B118477047440E0020440E002096
S214000960000000000548064B1B1AD90F01EBA30137
S214000970491002D0034B03B118477047440E0020BD
S214000980440E00200000000010B5064C237843B942
S214000990FFF7DAFF044B13B10448AFF300800123DE
S2140009A0237010BDA45E002000000000841E03001B
S2140009B008B5054B1BB105490548AFF30080BDE8F7
S2140009C00840FFF7CFBF00BF00000000181100204E
S2140009D0841E0300A3F5803A704700BF174B002B18
S2140009E008BF134B9D46FFF7F5FF00218B460F46C9
S2140009F01348144A121A1FF027F90E4B002B00D08A
S214000A0098470D4B002B00D098470020002104008B
S214000A100D000D48002802D00C48AFF300801AF0F5
S214000A203BFC200029001BF0B7F91AF0FBF800BFCA
S214000A300000080000000000000000000008002081
S214000A40440E00200C5F00200000000000000000A4
S214000A5000B585B0094B1868094B1860094B0A4A5F
S214000A6013600A4A01920A4A12680292039301A985
S214000A701BF0AFFE05B05DF804FB00BF1C080020AD
S214000A80B445002010080020B04500205485020020
S214000A902408002008B5024B18681BF0B2FE08BDFB
S214000AA01C08002038B50EF069F90446064D2B6880
S214000AB0D3F8B0020EF056F928681BF0BFFE2046A9
S214000AC00EF050F938BD00BF1C080020044B1B6810
S214000AD0834202D0034B186870470148704700BF36
S214000AE0101900203019002008B50948094B186075
S214000AF0094B1B6803600A23C360084B4361084B1D
S214000B008360084B4360002303761CF0B9FB08BDE6
S214000B1010190020301900201C0800201014002096
S214000B20688502007485020038B501F03BFC01219F
S214000B300D4801F003F801221146002001F076FB73
S214000B400A4C0225C4F8805001221146002001F00C
S214000B506DFBC4F8845001221146002001F066FBAC
S214000B60C4F88850002038BD30253E0000400E40B6
S214000B7008B5164B01225A6402F0EEFC024668B92C
S214000B80134B4AF6E851C3F89011D3F8981141F088
S214000B900401C3F898110021C3F89011012A0DD959
S214000BA00C4A136A23F4441343F488131362A2F521
S214000BB08042136843F48073136008BD044AD2F879
S214000BC0643143F40053C2F86431E9E700000E4094
S214000BD000300E4000400E40012900D9704708B58D
S214000BE0034B1B68186808B1436A984708BD00BFE6
S214000BF02008002030B599B0274D11ACAC46BCE8B3
S214000C000F000FC49CE8070084E8070000240B943C
S214000C100C940D940E940F941094204B0B93204B31
S214000C200C9301228DF8372002238DF839300323E8
S214000C308DF83B301E238DF83F308DF8403009ABE1
S214000C401C3595E8030083E803000DF10C0C0394B3
S214000C50049405940694079408948CE803000C23E7
S214000C608DF814300D238DF815300E4B0693202387
S214000C7007938DF820200C4B00930BAB11AA61460E
S214000C800A480EF031FA054621464FF4E1301BF0D3
S214000C9065F9284619B030BD848502000000014081
S214000CA0004204003419002054190020A81900201E
S214000CB008B5034903480EF017FDFFF79BFF08BD74
S214000CC028080020CC19002008B502481CF039FD81
S214000CD008BD00BFA819002008B502481CF031FD69
S214000CE008BD00BFA819002008B5024B1A6A18688C
S214000CF0904708BDA819002010B58AB000230693B7
S214000D00079308930993254B0693254906A810F0E8
S214000D1049F9244B186030B10023059305A91DF04E
S214000D2074FC08B1FEE7FEE71E4C1F4A1F4B19680D
S214000D30206810F013FC002120681BF007FD00B1AE
S214000D40FEE71B49174B186810F09CFC00B1FEE745
S214000D50184A40F23F23CDE900234FF0FF324FF010
S214000D60FF33104908681DF0EDF900B1FEE7124B9D
S214000D701B88ADF81030ADF80C3004A9094B186884
S214000D801DF0BDF900B1FEE703A9064B18681DF07B
S214000D90CEF900B1FEE70AB010BD00BFDDBE01000F
S214000DA0C1BE010030080020C9BE010000080020B6
S214000DB007001100EFFFF3FFA885020082B0054B85
S214000DC0019302AB03EB800050F8043C186802B0B5
S214000DD0704700BF3008002008B503481BF022F912
S214000DE002481BF01FF908BDC4850200AC8502004E
S214000DF008B50121034800F0A1FE1AF0DEFF00F05E
S214000E0075F808BD00350A0008B50121014800F054
S214000E1095FE08BD00350A002DE9F04180460F46D4
S214000E2001F109050026344604E05B21082000F0A5
S214000E30ABFA0134AC4233D2052C1BD801A353F8CD
S214000E4024F000BF2B0E00005D0E0000910E000087
S214000E50650E0000690E00006D0E0000FBB2043344
S214000E60D9B2E3E78021E1E70021DFE7731C3146D2
S214000E70DEB2DBE7BB1DA3420CD0FB1DA3420BD0AA
S214000E8007F10803A34209D0A31F18F80310CDE703
S214000E90D121CBE75A21C9E75A21C7E75D21C5E72B
S214000EA00020BDE8F08100BF00B583B000220092AC
S214000EB0019202218DF8001005481BF039F80190C8
S214000EC008216846FFF7A8FF03B05DF804FB00BFE3
S214000ED0006A1800014B1022DA60704700A0004438
S214000EE0014B1022DA60704700A0004670B588B04B
S214000EF00DF1040C374C0FCCACE80F0094E807005B
S214000F008CE807000121344800F018FE334E01211A
S214000F10304600F013FE01258DF81250304B039337
S214000F20304C01A920461BF078F92B4604220621F6
S214000F30022002F025F900232A460721022002F0AB
S214000F401FF92B4604220821022002F019F92B462D
S214000F5004221146002002F013F9234BA3670B234B
S214000F6063674FF448700FF09FF9FFF7B3FF142044
S214000F700FF09AF9FFF7B4FF23200FF095F9FFF76B
S214000F80A9FFB92120461BF092F9FFF7A9FF00231D
S214000F901A460621022002F0F3F800231A4607211B
S214000FA0022002F0EDF82B4600220821022002F073
S214000FB0E7F82B4600220421104602F0E1F820460E
S214000FC002F018FB0021A1676167304600F0B6FD0D
S214000FD008B070BDDC85020000350A00005204002F
S214000FE000127A00000401400B0B000B08B500F05D
S214000FF087F8124A0AE01068516850F8230041F852
S2140010002300013391688B42F5D30C320C4B9A4285
S21400101001D20023F6E70B4A08E01168002041F8E9
S2140010202300013351688B42F7D30832064B9A42AD
S21400103001D20023F6E7FFF7D1FC00BF8C1E0300A9
S214001040981E0300981E0300981E03000048704771
S21400105000F04902114BD3F8943003F00703023B2B
S214001060032B0DD8DFE803F0050F02080C4B1868B9
S2140010700BE00C4B186808E00B4B1868400804E0BF
S214001080094B186801E04FF40040044BD3F80031D8
S214001090C3F304230133B0FBF3F0704700400E4067
S2140010A054080020580800204C08002008B5FFF718
S2140010B0D1FF054BD3F80831C3F308230133B0FB47
S2140010C0F3F0024B186008BD00400E4050080020A8
S2140010D0014B1868704700BF5808002008B5064B3B
S2140010E01860064BD3F8943003F00703022B00D0A9
S2140010F008BDFFF7DBFFFBE75808002000400E4066
S214001100044B054A9A60D3F8882042F47002C3F86C
S2140011108820704700ED00E000000000014B1868D2
S214001120704700BF54080020F0B18446F1B110B4F7
S21400113009E004F120000FE02033C01A18D1BCB13A
S2140011400CF1010C01319CF800400B4B1B5D03F0C9
S2140011500303012BEDD020460B78074AD25C02F041
S2140011600302012AE9D1E7E7012070470120704712
S2140011705DF8044B704700BF131D03000346064A84
S21400118010680344054A934202D8034A1360704726
S2140011904FF0FF30704700BF5C08002000000420BE
S2140011A00B681A78022A00D1704710B508461A79DB
S2140011B0597902EB42021201064C144401EBC402B8
S2140011C092001268B2FA82F252091A700AF046F9D0
S2140011D010BD00BF1CA0100230B583B005460468E1
S2140011E00121174800F0AAFC00230122617920792A
S2140011F001F0C6FF2379627903EB43031B01114913
S214001200194402EBC1039B001B68B3FA83F35B0926
S2140012102370A379022B02D0002003B030BD00F06B
S21400122083FB2A460849607900F0A6FB02466179EE
S214001230207901230193009301F04CFFECE700BFF7
S21400124000350A001CA01002A111000002681378E5
S214001250022B15D01379517903EB43031B01154874
S214001260184401EBC0039B0019680B1E18BF01232E
S2140012709079012805D018B9B1FA81F149091170A1
S21400128070475188490089B20B4343F47F4343F0CB
S214001290C0034FF6E0718B4205D04FF6DF718B42EC
S2140012A004D05380704701211170FAE700211170B5
S2140012B0F7E700BF1CA0100208B50121294800F07E
S2140012C03DFC012304220221052001F059FF0020E5
S2140012D001F0F4FE0121244BC3F810180A4604203E
S2140012E000F0A4FF214800F0E7FD214BD3F8F020E2
S2140012F042F00102C3F8F020D3F8FC2042F08072DE
S214001300C3F8FC20A3F55D431A4A1A6000F5D52001
S21400131000F2FC40C008184BA3FB0030800A0138DE
S214001320164B18610222C3F8F0204FF48072C3F8FF
S21400133004234FF06043124AC3F8B02F114AC3F893
S214001340802ED3F8002E42F48072C3F8002EFF22BF
S21400135083F82020D3F8002E22F48072C3F8002EE3
S214001360002008BD00350A000080144206000E006A
S21400137000ED00E0FF03004017916502000004E066
S21400138055CEACC5090001004FF06043D3F8803E4F
S21400139013F0010F01D1112070470E4AD2F8FC302D
S2140013A043F08073C2F8FC304FF06043D3F8002E51
S2140013B04FF0010C0CFA00FC42EA0C02C3F8002EB7
S2140013C053F82030002BE8D04FF0604303F820108D
S2140013D00020704700ED00E0F0B585B00C4694465E
S2140013E09DF83410664A1278002A00F0BD80054643
S2140013F0BCF1070F00F2BA800A9A002A00F0B88003
S2140014000B9A002A00F0B6800E9AB2F5006F00F331
S214001410B38001285BD05B4A02EB0C12127B002AD9
S21400142000F0AC8000220092019202920392564A8B
S21400143002EB4C1E002C4FD14FEA4C160020905168
S214001440CEF80400CEF80800CEF80C009EF8020095
S21400145040F010008EF802009EF8030040F03000C6
S2140014608EF8030021B9C1B241F003018EF80310D3
S21400147000930E9B013B444A4FEA4C1002EB4C1182
S214001480165A63F30E1616520A9B8B600B9B4B6024
S214001490CB789DF83C2062F38303CB70012D36D0C9
S2140014A0109B002B56D0374A4FEA0C1102EB0C1358
S2140014B010985050119A5A6000249C605D737246D2
S2140014C06946604601F0F8FE204605B0F0BD0C9A6D
S2140014D0002AA0D12D48F8E72B4F4FEA4C1607EB11
S2140014E04C120020B85150609060D060907840F068
S2140014F010009070D07840F00300D0700029B7D16B
S21400150007EB4C12C1B241F03001D170B0E70E4685
S2140015100A7B42F001020A73D2B242F002020A7358
S214001520CA68042161F39F02F26006F1100796E88C
S2140015300F0087E80F00F2696FF0030161F39F0266
S214001540F2610C9B7361012CAAD10B9AB2610C9AC2
S2140015507260A5E7002DA6D10B4B03EB4C139A78CF
S2140015606FF304129A709EE70948AEE70748ACE7A7
S2140015700648AAE70548A8E70448A6E70548A4E7FA
S214001580A55E0020D41A0020D4190020018000F0A7
S214001590028000F0078000F0134B1B78FBB110B5FB
S2140015A00446F0B11AF0B8FD0023072B13D80F4AF3
S2140015B002EB0312127B0AB10133F6E723600B4AF3
S2140015C0190102EB031301241C73002454501AF073
S2140015D0A9FD204602E01AF0A5FD054810BD054805
S2140015E070470548FAE700BFA55E0020D41A002021
S2140015F0048000F0028000F0018000F038B51AF098
S2140016008BFD04460023072B06DC0C4A02EB031274
S214001610127B12B90133F6E7002222B120461AF0F7
S21400162081FD074838BD01F0FBFD0025054B1D7008
S21400163020461AF077FD2846F4E700BFD41A0020AB
S214001640058000F0A55E00200F4B1B78BBB110B5DF
S2140016500446072815D81AF05FFD0C4B03EB04135D
S2140016601B7B1BB91AF05EFD09480BE0074B03EB2A
S214001670041300241C731AF055FD204602E00548AA
S2140016807047054810BD00BFA55E0020D41A002094
S214001690068000F0028000F0018000F000B583B004
S2140016A0144B1B68019300238DF804301AF034FDA8
S2140016B0114B1B7833B9104B01221A701AF032FD09
S2140016C0002309E01AF02EFD0C480FE00C4A02EB4E
S2140016D00312002111730133072BF7DD04238DF865
S2140016E007300DEB030001F0BDFD002003B05DF8F0
S2140016F004FB00BFF8850200A55E0020038000F012
S214001700D41A002008B50A4B1B785BB107280BD803
S214001710084B03EB00131B7B43B1002101F098FD3F
S214001720002008BD0448FCE70448FAE70448F8E748
S214001730A55E0020D41A0020028000F0018000F090
S214001740078000F008B50A4B1B785BB107280BD85A
S214001750084B03EB00131B7B43B1012101F078FD1E
S214001760002008BD0448FCE70448FAE70448F8E708
S214001770A55E0020D41A0020028000F0018000F050
S214001780078000F008B50A4B1B7853B107280AD823
S214001790084B03EB00131B7B3BB101F0E1FD00207F
S2140017A008BD0548FCE70548FAE70548F8E700BF26
S2140017B0A55E0020D41A0020028000F0018000F010
S2140017C0078000F0104B1B78ABB1072815D8B1B1D5
S2140017D00E4B03EB00131B7B9BB10D4B1B6E0122C4
S2140017E0824013EA020003D001230B7000207047EA
S2140017F000230B7070470748704707487047064835
S21400180070470648704700BFA55E0020D41A002027
S21400181000200E40028000F0018000F0078000F0FB
S2140018200C4B1B7873B110B50C4607280CD869B161
S214001830094B03EB00131B7B53B101F0A5FD207091
S214001840002010BD054870470548FAE70448F8E749
S2140018500448F6E7A55E0020D41A0020028000F0B7
S214001860018000F0078000F0F8B5194B1F6EDB6EA4
S2140018701F4002D40125002402E0FEE701346D007B
S214001880072C24D83D42F9D0114B9D662301114AFE
S214001890D358002BF2D002EB0416B1680131B160C8
S2140018A072682046984780F00100C0B2737B012B17
S2140018B0E4D10028E2D0084B03EB44131A7B6FF305
S2140018C041021A731A7F6FF341021A77D6E7F8BD02
S2140018D000200E40D41A0020D419002010B504466B
S2140018E002E0202007E09047DCB194FAA4F000283C
S2140018F0F7D0B0FA80F00123834024EA0304094BB2
S21400190003EB00135A68002AEED0064B03EB0013D5
S2140019101B7B002BE7D0034B03EB00139968904723
S214001920E2E710BD541B002008B5122000F038FE78
S21400193028B1084B4FF48022C3F880211A600A2091
S21400194000F02EFE28B1034B4FF48062C3F88021CE
S2140019501A6008BD00E100E038B505460C461AF0EE
S214001960DBFB044B03EB05135C6000221A731AF0D2
S214001970D9FB38BD541B0020F8B505460F46164661
S2140019801AF0CAFB05F0FC0C0F4BD3F82814002302
S214001990032B0BD85C1904F00304644421FA04F208
S2140019A012F0010F03D00133DBB2F1E7FF24FF2C66
S2140019B006D0064B03EB04135F609E6001221A7389
S2140019C01AF0B0FB2046F8BD00A00040541B0020D3
S2140019D008B5064BD3F82804D3F81C24104000F0B2
S2140019E05530C3F82404FFF779FF08BD00A0004077
S2140019F008B5064BD3F82804D3F81C24104000F092
S214001A00AA30C3F82404FFF769FF08BD00A0004011
S214001A10074BDB6B13F0400F04D1064BD3F8C830EE
S214001A20002BFAD1024B5868C0F30140704700BF44
S214001A3000300E400000C6430C4B984205D90C4BB4
S214001A40984210D801210A4601E000210A46094BB7
S214001A501A64094AD2F8003123F0807343EA01631E
S214001A60C2F80031704702210122F0E70048E80181
S214001A700090D0030000C84300400E40014B186899
S214001A80704700BF60080020114B5B68002300E031
S214001A900133042B0CD80F4A02EBC30292F804C0A1
S214001AA0CAB29445F4D10B4A52F833208242EFD39F
S214001AB0052B0BD0074A02EBC3035979044A536837
S214001AC023F0407343EA0163536070470321F5E750
S214001AD000000E40FC85020008B5FFF7BBFA044B79
S214001AE0D3F80031C3F3042303FB000008BD00BF96
S214001AF000400E4010B5084B1C6CA4B241F6713283
S214001B001A64FFF7A3FA0021FFF7BEFF14B1024BD9
S214001B1000221A6410BD00BF00000E4010B5064B30
S214001B201C6CA4B241F671321A64FFF7ADFF14B113
S214001B30014B00221A6410BD00000E4010B4C0F322
S214001B400323013B092B21D8DFE803F005082020FA
S214001B5030232620292D0024164A01E00024164AA8
S214001B60C0F3043054B1134BD3F8443113F0010FD3
S214001B7004D1104BD3F840311C42FAD102F1424353
S214001B8003F5801300EBC300800001605DF8044B92
S214001B9070470124094AE3E71024094AE0E74FF4B6
S214001BA08034084ADCE70024074AD9E70024074ABD
S214001BB0D6E700BF00400E40C0400E40E0400E405A
S214001BC0E8400E40F0400E4050410E40B0400E40FF
S214001BD0C0F30313013B092B6BD8DFE803F0050BBA
S214001BE0111B6A6A2127415F334BD3F80001C0F30B
S214001BF004207047304BD3F81401C0F3042070471C
S214001C002D4BD3F80031C3F3006301330120984015
S214001C1001387047284BD3F80C01C0F308207047F2
S214001C20254BD3F80801C0F308207047234B984291
S214001C3004D0234B98420AD0002070471E4BD3F89E
S214001C40203103F00F0301209840013870471A4BEB
S214001C50D3F82031C3F301130120984001387047B0
S214001C60184B984207D003F5B01303F580539842FB
S214001C700AD000207047104BD3F82831C3F3011365
S214001C8001209840013870470B4BD3F82831C3F336
S214001C900123043301209840013870470A4B9842CC
S214001CA001D000207047044BD3F8300100F0030049
S214001CB070470020704700BF00400E4080061600A8
S214001CC080162E0090171A00A009140000F00F00CE
S214001CD00138072865D8DFE800F0041B2A643E4D6B
S214001CE064553B4BD3F8943003F00703023B052BB7
S214001CF00CD8DFE803F0055803070B0902207047ED
S214001D00042070470B2070470C2070470520704752
S214001D102F4BD3F8803003F00703022B45D0042B5B
S214001D2045D0012B01D00120704703207047284B77
S214001D30D3F8843003F00703013B032B09D8DFE810
S214001D4003F002380604032070470A207047062076
S214001D507047012070471E4BD3F8883003F0070306
S214001D60022B28D0042B28D0012B01D0012070474D
S214001D7003207047164B1B6F13F001031FD003B3ED
S214001D8009207047124BD3F85C3103F03003202B48
S214001D9019D0302B19D0102B01D001207047072006
S214001DA070470020704703207047022070470A20C3
S214001DB0704702207047022070470A2070470720AD
S214001DC0704701207047042070470820704700BF06
S214001DD000400E4010B50446FFF778FF1B4B9C42B0
S214001DE012D01B4B9C4215D01A4B9C4206D0013891
S214001DF0032828D8DFE800F014171D1A164BD3F86E
S214001E00800000F00700F2E7134BD3F8840000F0E0
S214001E100700ECE7104BD3F8880000F00700E6E771
S214001E201AF0AFF810BDFFF779F9FBE71AF0ACF837
S214001E30F8E7FFF70FF9084BD3F80031C3F3006358
S214001E400133D840EEE70020ECE700BF0300200097
S214001E500500240002001E0000400E4008B507489A
S214001E60FFF734FF072804D0092805D1FFF7F2F85A
S214001E7003E0FFF703FE00E0002008BD06000E00AA
S214001E8008B10020704710B504460A48FFF71EFF49
S214001E90072805D0082809D0042804D0204610BDFD
S214001EA0FFF7ECFDFBE7FFF713F9F8E7FFF714FE83
S214001EB0F5E700BFB800320038B500F47813B3F584
S214001EC0B01F00F0938005463BD8B3F5402F00F0D6
S214001ED0828010D9B3F5801F00F0AA80B3F5A01F4A
S214001EE027D15748FFF776FF564BD3F8303103F02B
S214001EF00303D8401CE0B3F5802F61D005D9B3F5B5
S214001F00202F14D1FFF7A6F812E0002B55D0B3F51A
S214001F10003F0AD1FFF79EF84A4BD3F80831C3F3C7
S214001F2008230133B0FBF3F002E0002000E00020BD
S214001F3038BDB3F5602F02D1FFF790FFF8E7002019
S214001F40F6E7B3F5381F5BD00ED9B3F5481F72D04D
S214001F50B3F5781F21D1FFF77DF8044628461AF01E
S214001F60CFF8B4FBF0F0E3E7B3F5001F52D006D984
S214001F70B3F5101F0FD13248FFF72CFFD8E7B3F5A3
S214001F80D01F4BD0B3F5F01F03D12F48FFF722FF29
S214001F90CEE70020CCE70020CAE7B3F5401F0AD101
S214001FA02A48FFF717FF274BD3F82831C3F301233E
S214001FB00433D840BCE70020BAE7FFF74BF8B7E792
S214001FC0FFF748F81F4BD3F80C31C3F3082301334F
S214001FD0B0FBF3F0ACE7FFF73DF81A4BD3F814313B
S214001FE0C3F304230133B0FBF3F0A1E71648FFF771
S214001FF0F1FE144BD3F8203103F00F03D84097E7D7
S2140020001148FFF7E7FE0F4BD3F82031C3F3011357
S214002010D8408DE70D48FFF7DDFE89E70B48FFF750
S214002020D9FE084BD3F82831C3F30113D8407FE715
S214002030FFF724FD7CE70020FFF722FF78E700BFCC
S2140020400500240000400E4002001E000300200091
S21400205010B5FFF74FFD084B07225A67FEF7FAFF49
S214002060FFF7EAFCFFF722F80446FFF7D1FC01462B
S2140020702046FFF753FD10BD00400E40014B186888
S214002080704700BF4C080020014B1880704700BF07
S214002090F20D0020014B1880704700BFF00D0020A5
S2140020A004281ED8DFE800F0180312080D000E4BB7
S2140020B0186AC0F3080070470B4B186900F07F00E1
S2140020C07047094B986900F07F007047064BD3F8BD
S2140020D09C00C0F30A007047034B986B00F07F002B
S2140020E070470020704700BF00400E4038B50C46D1
S2140020F0042813D8DFE800F043032F132100C1F3B0
S2140021000804274BD3F86838002BFAD1254A136AFF
S21400211023F4FF7323F001032343136238BD01F059
S2140021207F041F4BD3F86038002BFAD11D4A136981
S21400213023F07F0323431361F0E701F07F04184B7D
S214002140D3F86438002BFAD1164A936923F07F033C
S21400215023439361E2E7134DD5F890306B6A23F082
S214002160300343F010036B62C1F3C31019F0C2FFD3
S2140021702A6B0D4B1340234303432B63CEE74F29B3
S21400218028BF4F24064BD3F87438002BFAD1054AE3
S214002190936B23F07F03E4B21C439463BEE700BF57
S2140021A00020C84300400E4000F8FF0F134B5B6A48
S2140021B013F0300F09D0202914D0302915D009B1DA
S2140021C00F4A04E04FF4400201E04FF440020B4B8C
S2140021D0D3F8903032EA0303F9D112F4800F07D116
S2140021E0012070474FF40002F1E74FF44002EEE79B
S2140021F0024BD3F8A000C0F38020704700400E408A
S214002200FF33E107022801D00120704710B529B13D
S214002210054B4FF48064C3F8A84059660AB90120FC
S21400222010BDFFF7C3FFFBE700400E4070B5042863
S21400223000F28580DFE800F0484250033C000223AD
S21400224001250024AC46002967D002284AD0002188
S2140022503B4B1D663B4B23449B001B68002BF9D071
S214002260002A6CD0374C6444A4002368002BF9D0B5
S214002270022864D1002962D0314B5B6A13F0010F4B
S21400228046D001222021FFF7BDFF0220FFF708FFFE
S2140022900646012200210220FFF7C8FF3146022031
S2140022A0FFF724FF264B1D662368002BFCD046E074
S2140022B02023102504244FF0050CC4E78023402576
S2140022C006244FF0070CBEE74FF400734FF48075FA
S2140022D008244FF0090CB6E70823042502244FF023
S2140022E0030CB0E7164B5B6A13F0300F0ED1164B9B
S2140022F0DB6B134B5B6A13F0010FA9D0104E736AA9
S21400230023F0300343F010037362A1E700219FE738
S21400231000210220FFF74AFFB7E709490B66084B82
S214002320D3F890100123A3401942F8D13AB1044BD8
S214002330D3F89020012303FA0CF31A42F7D170BDAC
S21400234000400E408004F21000300E4010B50446E7
S214002350A8B1012818D0FFF7CDFBDCB9104B04223A
S2140023605A67FEF777FEFFF767FBFEF79FFE044609
S214002370FFF74EFB01462046FFF7D0FB10BD0122BB
S2140023801146FFF753FFE6E7012211461046FFF716
S2140023904DFFE0E7012CE4D1014B03225A67E0E74A
S2140023A000400E4038B5FEF793FE0446002100F0CC
S2140023B035FC1648FFF740FB012211460220FFF7C6
S2140023C035FFFFF797FB4CB1114BDB6B13F0400F5B
S2140023D004D1104BD3F8C830002BFAD10E4B022292
S2140023E05A67FEF737FEFFF727FBFEF75FFE054648
S2140023F0FFF70EFB01462846FFF790FB04B138BDF9
S2140024000121002000F00AFCF9E700BF0148E801BE
S21400241000300E400000C64300400E4038B5FFF7BF
S2140024202DFE1B4B984205D9044620B1002100F032
S214002430F5FB00E000241748FFF7FEFA01221146DC
S2140024400320FFF7F3FEFFF755FB4CB1124BDB6B97
S21400245013F0400F04D1114BD3F8C830002BFAD13B
S2140024600F4B01225A67FEF7F5FDFFF7E5FAFEF778
S2140024701DFE0546FFF7CCFA01462846FFF74EFB41
S21400248004B138BD0121002000F0C8FBF9E700BF09
S214002490002D31010148E80100300E400000C6431F
S2140024A000400E4010B5012211460320FFF7BEFE85
S2140024B0FFF720FB084B05225A67FEF7CBFDFFF718
S2140024C0BBFAFEF7F3FD0446FFF7A2FA01462046E4
S2140024D0FFF724FB10BD00BF00400E4070B5044659
S2140024E01120FFF7F3FB012200210220FFF79EFEDA
S2140024F0237C022B2AD00022154E736A23F0010398
S214002500134373622278134BC3F8A024A288637A1D
S21400251043EAC223F362356B05F07F65E38845EA3C
S214002520C325A37A1D43207A45EAC01519F0E2FDBB
S21400253005433563627BA37B1B0143EA0233E27BE0
S2140025401343227B43EA0243736370BD0122D3E741
S21400255000400E400000C84338B505461120FFF77E
S214002560B5FB0D4A916B0D4C0C4029780C436B78EB
S21400257044EAC324AB7844EA0364EB7844EA0324D1
S214002580936BA34200D138BD012200210846FFF715
S2140025904DFE014B9C63F6E700400E4080E4FFF8DA
S2140025A04209064B53F8223000F01F0023FA00F0D1
S2140025B080F0010000F00100704700BF00E100E07D
S2140025C0074BDB6B13F0400F04D1064BD3F8C83033
S2140025D0002BFAD1024B5868C0F30140704700BF89
S2140025E000300E400000C643114BDB6B13F0400F6B
S2140025F01DD10F4BDB6B13F0400F04D10D4BD3F8FE
S214002600C830002BFAD10A4B1A68C2F301225B6865
S214002610C3F301439A4205D9054A136843F01003F1
S21400262013607047024A136823F010031360704764
S21400263000300E400000C643074B1B6813F0100F17
S21400264005D0064B1B69C3F30443082B00D0704724
S214002650034B044A1A60FAE700300E4000400E4072
S2140026604C080020C0EA21011A48C26CC2F30322BB
S214002670194B1B8803F1280103EB51032833013261
S21400268002EB8201B3FBF1F3013B072B28BF0723C4
S214002690C16C21F0EE6141EA036343F48013C36426
S2140026A00E4BB3F90030002B13DB9BB203F128016D
S2140026B003EB51032833510801EB4202B3FBF2F35C
S2140026C0072B28BF0723026D22F0700242EA03138D
S2140026D00365704700300E40785E0020745E002070
S2140026E0024B1880024B1980704700BF785E0020AE
S2140026F0745E002010B1012804D07047034B044AD2
S2140027009A657047014B034A9A65704700300E4041
S21400271077402057372110B71A4BD3F830320329A9
S21400272029D8DFE801F002121518DBB24AB91B03FC
S21400273033F4704121D11448C16E21F4704119431D
S214002740C166012A09D001207047C3F30723EDE7CD
S214002750C3F30743EAE71B0EE8E71B0333F47042B4
S2140027600DD10949D1F8EC2022F470421343C1F888
S214002770EC30012070470020704700207047002092
S214002780704700BF0081E00F00300E401B02A2B170
S21400279001221343B3F5007F4DD022D8B3F5807FD6
S2140027A042D00CD940F20112934215D1294BD3F8EE
S2140027B024321A0EC3F3074310E00022E9E763B39E
S2140027C0012B06D1234BD3F82432C3F30722DBB206
S2140027D004E00022134601E00022134603600A606C
S2140027E07047B3F5407F2DD040F20132934206D1B8
S2140027F0184BD3F828321A0EC3F30743EEE740F21D
S2140028000122934206D1134BD3F82832C3F3072292
S214002810DBB2E3E700221346E0E70E4BD3F81C32A8
S214002820C3F30722DBB2D9E70A4BD3F81C321A0EE1
S214002830C3F30743D2E7074BD3F82032C3F307228C
S214002840DBB2CBE7034BD3F820321A0EC3F30743B1
S214002850C4E700BF0081E00F38B5002850D04B4BCE
S214002860DB6B13F0400F07D1494B1A78C2F1020216
S21400287010239340454A1361464AD2F8804104F03B
S214002880010445F60E03C2F88031434B1B6803F083
S214002890010103F01000014303F04000084303F079
S2140028A00401014303F480730B431366374BDB6B61
S2140028B013F0400F04D1394BD3F8C830002BFAD1AF
S2140028C0324B1B6813F0100F0DD0324BD3F840314B
S2140028D013F0807FF9D1324B1A682E4B1A61314BB8
S2140028E01B78052B2BD02F4B1B78023B0A2B32D89C
S2140028F0DFE803F02E3F43313131313131464900B4
S214002900244BD3F89020244B1A601120FFF7DEF9F1
S214002910244B18701D4BDB6B13F0400F04D11F4B7C
S214002920D3F8C830002BFAD1184B5B68C3F30143C9
S214002930174A1370174B1A69194B1A6018E01A4B8E
S2140029401D68FFF73DFE01462846FFF7E7F8CAE791
S2140029500020FFF7FBFC104B1B6813F0010F02D1A1
S2140029600C4B02221A661CB10A4B0022C3F88021C7
S21400297038BD0120FFF7EAFCEDE7FFF713FDEAE7B5
S214002980FFF790FDE7E7FFF763FBE4E700300E4054
S214002990A65E002000400E40581D00200000C643E2
S2140029A0541D0020A75E00204C080020074A13682C
S2140029B023F44073417843EA012313604378022BE3
S2140029C000D07047024B5B6AFBE700BF00300E404A
S2140029D000400E4038B50446F8B9FFF705FE184A21
S2140029E0136943F00403136119F09FFB19F09EFB73
S2140029F0144B154AC3F8242403F559231B6813F017
S214002A00100F0ED130BF19F092FB0DF02BF88CB1E1
S214002A100120FFF721FF84B138BD0020FFF71CFF1F
S214002A20DBE719F072FB05461DF0E6FB284619F0B9
S214002A3070FBE8E7FFF700FEEDE7FEF737FBEBE796
S214002A4000ED00E000A000400000FFFF38B504469F
S214002A5050BBFFF7C9FD1E4BD3F8802145F60E018B
S214002A60C3F880114FF42071196612F0010F02D0DE
S214002A700022C3F88021174A136943F00403136148
S214002A80154B164AC3F8242419F04FFB144B1B6849
S214002A9013F0100F0CD130BF0CF0E4FF8CB1012006
S214002AA0FFF7DAFE84B138BD0020FFF7D5FED0E789
S214002AB019F02BFB05461DF09FFB284619F029FB55
S214002AC0EAE7FFF7B9FDEDE7FEF7F0FAEBE700BF40
S214002AD000400E4000ED00E000A000400000FFFFB8
S214002AE000300E40134B9A6922F03F020378D3B1B0
S214002AF004234178C9B102210B438178B9B108217A
S214002B000B43C178012900D000210B4301790B4308
S214002B101343084A9361136823F44033417943EA28
S214002B200143136070470023E3E70021E4E7002138
S214002B30E6E700BF00300E4008B5104B9C6924F451
S214002B40403444F400349D6945F440354AF6E85272
S214002B509A6019F0F7FA19F0F6FA094B094AC3F821
S214002B602424002303E0054A946195610133032B76
S214002B70F9DD024B9C6130BFFEE700BF00300E401F
S214002B8000A000400000FFFF08B5034B0122C3F879
S214002B900023FFF7D1FF00BF0000C64308B5034B74
S214002BA00022C3F80023FFF7C7FF00BF0000C6439C
S214002BB0174BDB6B13F0400F29D170B504460D465A
S214002BC0FFF7FEFCA04218D0124BD3F80031FEF7F8
S214002BD041FA0646022C11D0C4F10202102393409B
S214002BE00B4A136145B1D36B13F0400F04D10A4B67
S214002BF0D3F8C830002BFAD124B170BD0221FEF7FD
S214002C008DFFE9E700213046FEF788FFF5E77047BD
S214002C1000300E4000400E400000C64338B5114B51
S214002C20DB6B13F0400F0BD10C4650B10E4B1B78EC
S214002C3013B10E4B98420FD921460020FFF7B8FF7C
S214002C4038BD0B4BD3F80051C5F304250135FEF70C
S214002C5001FA05FB00F0E9E721460220FFF7A8FF8E
S214002C60EEE700BF00300E405C1D0020002D310155
S214002C7000400E4008B50278034B1A700121002070
S214002C80FFF7CCFF08BD00BF5C1D002010B42C4B26
S214002C905A6B4AF6E8515963294B9B6F13F0010FA4
S214002CA0FAD1274B1B6C13F0030303D025490124EC
S214002CB0C1F8B44AD9B2814221D0032B00D01BB947
S214002CC0431EDBB2012B21D91D4B9B6F13F0010F66
S214002CD0FAD11B490B6C23F0030303430B64184B18
S214002CE09B6F13F0010FFAD1003818BF0120154B67
S214002CF0C3F8B40A012A1FD05DF8044B70470028B9
S214002D00FAD1104B0022C3F8B42AF5E70C4B4FF467
S214002D100021D9620A4B9B6F13F0010FFAD10849C4
S214002D200B6C23F0030343F001030B64044B5B6A54
S214002D3013F4002FFAD0C7E7014B00225A63DBE7F3
S214002D4000300E400000C6432DE9F04F8DB00091D4
S214002D500192002309930A930B9306930793089313
S214002D60039304930593654A1288ADF808208DF8FE
S214002D700A30A0F5E163B3F5966F00F2AE80064622
S214002D80B0F5E16F8CBF4FF001094FF000096DD927
S214002D904FF4966A4FF4E164B6F5E16F6BD9584B81
S214002DA0D3F8183208931A0E0592C3F30743089314
S214002DB0544DEF6CC7F301778DF808703B464A46D2
S214002DC003A906A8FFF7E2FCD5F8EC30C3F3012808
S214002DD08DF8098043464A4604A907A8FFF7D6FCA3
S214002DE0321B089B0599C91A02FB01F1B1FBFAF1E7
S214002DF00B9119440B91DDF80CB0DDF818C0ABEB65
S214002E000C0502FB05F5B5FBFAF509956544099531
S214002E10DDF810E00798AEEB000404FB02F2B2FB0C
S214002E20FAF20A9284180A94059A8A4259D38B4277
S214002E3059D8A64559D3A04259D8AB4559D3AC4525
S214002E4059D8019B73B12F4BDB6D23F4FE4323F05F
S214002E50020343EA0123B6F5E16F16D902221343B3
S214002E60284AD365009B93B9012037E04FF4167AC1
S214002E704FF4966490E7224BD3F818320893C3F3C6
S214002E8007220592DBB2089392E70022E7E70022CA
S214002E9039464846FFF740FC00B301224146484603
S214002EA0FFF73AFCD0B1A54238BF25460995E72D75
S214002EB028BFE7250995134B5B6E23F4FF7323F0B9
S214002EC0010343EA4503B6F5E16F04D90122134333
S214002ED00C4A536602E00022F9E700200DB0BDE878
S214002EE0F08F0020FAE70020F8E70020F6E7002041
S214002EF0F4E70020F2E70020F0E700BF2486020097
S214002F000081E00F00300E4008B5214B1A6FDB6CD5
S214002F1013F0010F09D012F0060F06D013281FD9A0
S214002F20143813281ED8082323E0194BDB6C13F043
S214002F30010F09D112F0060F06D1092814D90A3854
S214002F40092813D8082314E0114BDB6C13F0010397
S214002F500FD012F0060F0BD1272817D8082308E049
S214002F60042306E0102304E0042302E0102300E01C
S214002F700023013B1A0342EA03220549CB6C23F4E3
S214002F807F431343CB64FFF76FFB08BD1023F0E7C6
S214002F9000300E4008B5074BD3F88039064A136F49
S214002FA023F0070303431367044B1888FFF7ACFFAF
S214002FB008BD00BF0000C64300300E40765E00200D
S214002FC008B5084AD36E43F08073D366064BD3F831
S214002FD080391BB10420FFF7DDFF08BD0020FFF796
S214002FE0D9FFFAE700300E400000C64338B5304B34
S214002FF002229A639B6B03F00F03934254D104465C
S214003000B0F90C10C3884A2B09D9B3F5FA7F41D31F
S21400301040F6C312934240D84FF0005200E0002220
S214003020234BDB6C23F0405323F00103002937DBEE
S21400303001210A4313431E4AD364D2F8EC3043F40A
S2140030404073C2F8EC30A2881A4B1A80FFF7B8FF1C
S214003050B4F90C102089FFF743FBA088FFF754FF54
S214003060A07BFFF747FB012211466088FFF76CFE46
S2140030700546D0B10E4AD36B43F48063D3636078C1
S214003080FFF704FEA37A202B0CD000220A4BC3F8CD
S21400309094270AE04FF08052C2E74FF04052BFE755
S2140030A00021C6E70122F1E70025284638BD00BF0B
S2140030B000300E40765E00200000C643044AD2F878
S2140030C0443423F003030343C2F84434704700BF7C
S2140030D000A00040F8B50D4614461E46072A2AD81A
S2140030E0930000FA03F20F2199401D4819F02CF8BE
S2140030F00027072C2AD8A10005F003028A400323E4
S21400310003FA01F1174819F01FF8174A22449200F3
S2140031101660164B23449B009DF818201A60012366
S214003120A340134AC2F82434124B23449B009DF854
S2140031301C201A60F8BDA2F10807BB0000FA03F2D3
S2140031400F2199400C4818F0FFFFD2E7BF0005F0AA
S2140031500302BA400321B940084818F0F5FFD4E747
S21400316000A4004008A4004080208510A020851000
S21400317000A000404021851004A400400CA400409C
S214003180F8B504460D461E4617463AB1FBB100EBAD
S214003190400109010122AA401D4B5A50072D1ED896
S2140031A0A90004EB44031B0107FA01F20F2000FA02
S2140031B001F11848184418F0C7FF3FB9FEB104EBF8
S2140031C0440424010122AA40114B1A51F8BD00EB19
S2140031D0400109010122AA400F4B5A50DEE7A5F133
S2140031E008039B0004EB440C4FEA0C1C07FA03F29E
S2140031F00F2199400948604418F0A6FFDDE704EB6C
S214003200440424010122AA40034B1A51DEE700BF02
S2140032100CA0004604A000400CA0004408A00040FB
S21400322008B5094B4FF40072C3F88020BFF34F8FE8
S214003230BFF36F8F054B0021D96619624FF4AA4081
S214003240FEF77CFC08BD00BF00E100E000200E4059
S21400325081F00101024B03449B001960704700BFD8
S214003260A001F11010B5044601214FF4AA40FEF764
S21400327065FC23786178A27842EA012242EA03627A
S2140032800B4B1A6000221A62DA625A634FF0004251
S214003290DA664FF0FF329A66064A4FF40071C2F8BB
S2140032A08011E3785B01DBB282F80933116010BD50
S2140032B000200E4000E100E070B50C46C3B20125C8
S2140032C09D40254EB5660B6800EB400106EB0111EC
S2140032D0C1F88030637BC1F8883094F80AC0E37A7E
S2140032E01B0543EA0C4394F80CC043EA4C53C1F860
S2140032F0843022F00302C1F8982018F00DFFF36E18
S2140033002B43F366237A13B1736B2B437363637A91
S2140033101BB1114AD36A2B43D3620F4B1B68227929
S21400332022B1D243120262F47F42134062790AB19C
S21400333043EA0223A2791AB1D24362F0FF02134095
S214003340E27902B11343044A1360044B9D62D563CD
S21400335018F0E8FE70BD00BF00200E4000200E44AE
S21400336010B5C0B20124844018F0D6FE044AD36ECD
S21400337023EA0403D366034B1C6218F0D3FE10BD89
S21400338000200E4000200E4410B5C0B20124844038
S21400339018F0C2FE084B1B6A234205D1064B9B6AF7
S2140033A09C4306D0002400E0002418F0BBFE204614
S2140033B010BD0124F9E700BF00200E401430044B76
S2140033C053F8200020F0F8004004400C704700BF7F
S2140033D000600E4001F4FE4102F00702114341EA8C
S2140033E003511430014B43F82010704700600E4024
S2140033F0014B01229A60704700500E4010B4184BE3
S2140034005C68002318460BE0B2F5803F21D0154AD1
S21400341052F83320224202D0214200D11043013319
S214003420082B19D80F4A02EBC30251680E4AD2F88D
S214003430E82112F0040FEAD10A4A52F83320B2F516
S214003440006F06D0E0D8B2F5007F02D0B2F5806FEC
S214003450DDD141F48071DAE75DF8044B704700BFB8
S21400346000500E40288602000040E00F4A790B7894
S21400347091F801C043EA8C0391F802C043EA8C132A
S21400348091F803C043EA0C1391F804C043EACC2336
S21400349043EA02338A7943EA424304300001014A90
S2140034A01350704700200440014B1860704700BF5F
S2140034B000008442037813B3012342780AB304223F
S2140034C013438278FAB110221343C278EAB120225D
S2140034D01343027943EA0223427943EA02338279AC
S2140034E0AAB14FF400421343C27943EA0243027A78
S2140034F07AB14FF400321343074A13607047002333
S214003500DBE70022DCE70022DEE70022E0E700221D
S214003510E9E70022EFE700BF002004400D4AD2F89A
S214003520E4309B0003F03C03D2F8E010C1F38111B5
S2140035300B438370D2F8E03003F03F034370D2F8B9
S214003540E83003F0F003D2F8EC20C2F30312134382
S2140035500370704700FF0FE0024BD3F8FC00000E2C
S214003560704700BF0081E00F70B5054616461C4642
S2140035700846D1B1402C20D01BD804B3202C13D140
S214003580082306FB03F2530803EB4013B3FBF2F3E6
S214003590203B0C4A02EAC3032A6822F060022A6033
S2140035A02A6814432C606B6170BD0748FEF784FCE4
S2140035B0E0E7602CF8D10423E3E70623E1E71023D5
S2140035C0DFE700BFF8FF7F004041050038B505463D
S2140035D014460B4631B1013B6400B3FBF4F31B0207
S2140035E06B6138BD0248FEF767FC0346F3E700BF91
S2140035F04041050040F6AA63C3600023036041F221
S2140036000502426083604361C364134A82640366B2
S21400361043678367C367114B98420BD003F58063FB
S214003620984207D003F58063984203D003F5806381
S214003630984201D1002303650023836503F180438C
S21400364003F58233984203D003F50063984201D114
S2140036500023C365704700BFF9FF0100000001406A
S21400366010B5044618F051FD084B1B7853B9B4F555
S214003670A05F09D8054B01221A70054C18F049FDC9
S214003680204610BD0024F9E70024F7E7A85E0020D6
S214003690601D0020184B1B680BB10120704710B549
S2140036A0044641F27430FFF7DBFF0346124A10600F
S2140036B0C8B100F1680100F58052C2F8EC12002192
S2140036C0C2F8F01200F594500830C2F8F402012057
S2140036D0C2F8F802C2F8FC12C2F8881203F5945336
S2140036E0C2F89C3210BDA368044A862118680CF004
S2140036F07BFF0020F6E700BF6031002070860200E6
S2140037000C2A0AD80C2A60D8DFE802F014175F1BD0
S21400371020255F5F2A30363C4100FF2A08D100236F
S21400372002283AD0032849D0002840D0012070470C
S21400373001207047294B1B68F2E7284B1B684C3367
S214003740EEE7264B1B6803F66803E9E7234B1B6886
S21400375003F50763E4E7214B1B6803F50863DFE71F
S2140037601E4B1B6803F595530C33D9E71B4B1B68A0
S21400377003F598530433D3E7184B1B6803F59853A7
S2140037800933CDE7154B1B6803F59B53C8E7134B6E
S2140037901B6803F59B530C33C2E7B1F5007F16D2C6
S2140037A00E4A12681A3142F821300020704712295A
S2140037B00FD80A4A126842F82130704759B9074AAA
S2140037C01268C2F868380020704701207047012050
S2140037D07047012070470120704700BF603100200D
S2140037E038B504461AF04DFB012802D002252846BB
S2140037F038BD002006F060FA05460028F7D12046BE
S2140038001AF0ECFC084B1968084A01F597510C3180
S21400381020460DF0A3FE0022054B1A600321204629
S2140038201AF033FBE3E700BF60310020C9BE010099
S2140038304845002000B50C286FD8DFE800F00712D6
S214003840181E252C333A6E424A52590035480068F5
S2140038504FF04C0E01EB020CF44560D801441046C4
S21400386053E0304800684C304FF01A0EF2E72D480F
S214003870006868304FF4006EECE72A48006800F6EF
S21400388068004FF0080EE5E72648006800F5076078
S2140038904FF0100EDEE72348006800F508604FF48E
S2140038A0206ED7E71F48006800F594504FF0080ECA
S2140038B0D0E71C48006800F5945008304FF0240EFE
S2140038C0C8E71848006800F5985004304FF0050E19
S2140038D0C0E71448006800F5985009304FF0560EBF
S2140038E0B8E71048006800F59B504FF00C0EB1E7A3
S2140038F00C48006800F59B500C304FF0050EA9E709
S21400390013F8012B01F8012B604600F1FF3C5FFA2B
S2140039108CFC0028F4D15DF804FB0120FBE70120B5
S214003920F9E700BF60310020F0B585B00446826834
S214003930C368023352F823301D78FFF7ABFE002829
S21400394039D06368E6689B1BEA1C93420BD10A2DAC
S21400395010D8A36853F826201078721C53F822302B
S214003960198800231BE0A368174A802118680CF00A
S2140039703BFE20E0A368154A812118680CF034FE4F
S21400398019E0DA1C3244A76857F8222092F800C0E3
S21400399003F110026A4402F80CCC0133DBB2AB42EE
S2140039A0EFD301AB2A46FFF745FF30B9A3680849B5
S2140039B018680CF0C1FD05B0F0BDA368054A822169
S2140039C018680CF011FEF6E790860200C486020026
S2140039D010870200F486020010B50446FFF75AFE70
S2140039E050B16268E368D21A032A06D0A368114A67
S2140039F0832118680CF0F8FD10BDA26852F8230069
S214003A00591C52F82110023352F823301A780988CC
S214003A100078FFF775FE28B9A368074918680CF008
S214003A208BFDE9E7A368054A842118680CF0DCFDE5
S214003A30E2E700BF288702001087020048870200DE
S214003A4010B50446FFF726FE00B910BD084B1868EF
S214003A50FFF7C6FE28B9A368064918680CF06CFD87
S214003A60F3E7A368044A852118680CF0BDFDECE76F
S214003A70503800201087020064870200F0B599B025
S214003A80044683681968012009F05EFE002800F0ED
S214003A9089800DF1440C574D0FCDACE80F0095E82A
S214003AA007008CE807000025069501238DF81C30DA
S214003AB04FF42873ADF81E3002238DF820308DF8B1
S214003AC021308DF822308DF823300DF1240C0DF1C5
S214003AD0440EBEE80F00ACE80F009EE807008CE836
S214003AE007000B238DF840308DF841508DF842507A
S214003AF08DF84350A768E56857F8256004223E49CC
S214003B0030461CF077F8002839D101238DF8203094
S214003B108DF82230A168013551F825301B880B93AB
S214003B200993E3689A1C51F8222012880C920A3AEC
S214003B300A92DA1C51F822201288ADF81E2062681C
S214003B40D21A042A0ADD043351F823301B78003BCE
S214003B5018BF0123294A13708DF84330082006F059
S214003B60ABF8C8B906A9264B18680DF07FFF0146CA
S214003B70D0B1A368234A18680CF036FD12E0022282
S214003B80214930461CF036F80028C3D01F4A2021B1
S214003B9038680CF029FD05E0A3681D4A2221186844
S214003BA00CF022FD19B0F0BD154B1A68194B1A60BF
S214003BB0A3681D689DF8220009F022FD04469DF8C2
S214003BC0200009F01DFD0B9B0C9ABDF81E109DF8F9
S214003BD0436066B1104E04960391029201930090E2
S214003BE023460E4A0E4928460CF0A6FCDAE70D4E90
S214003BF0F1E700BF888E0200A4870200A95E0020BD
S214003C0050380020EC87020000060200AC87020055
S214003C10CC87020064310020948702001C880200D2
S214003C20248802009C87020010B5836818680CF090
S214003C3021FC002408E0084B53F8342021460748AE
S214003C400CF09AFC0134E4B2082CF4D90022214688
S214003C5002480CF0ADFC10BD408E02009C880200AD
S214003C6038B5044683681968012009F06DFD00B96F
S214003C7038BD082006F020F80546002848D16368BD
S214003C80E2689B1A002B07DDA06850F822100D781A
S214003C90012B01DD012D42D8012B08DDA168501C47
S214003CA051F82010097811B145F00205EDB2022B4B
S214003CB008DDA168901C51F82010097811B145F074
S214003CC00405EDB2032B0FDDA068D31C50F823309B
S214003CD01B784BB145F00805EDB2082D06D91B4AF6
S214003CE0012100680CF080FC082D1ED8184B03EB51
S214003CF0C5035B68CBB1174A106898470546D8B12C
S214003D00A3681868FDB1144A14490CF015FCAFE717
S214003D10A368134A222118680CF066FCA8E7114A2B
S214003D20222100680CF060FCA2E7A3680E4A01217D
S214003D3018680CF059FC9BE70C4B01221A700B20FC
S214003D4007F086FEDCE70A4ADEE700BFF4880200DA
S214003D50408E020050380020A488020050890200DD
S214003D60CC870200B088020030890200040E0020D2
S214003D701C88020038B5044683681968012009F0DB
S214003D80E3FC00B938BD082005F096FF68B9154B6E
S214003D9018681AF044FE054670B1A3681868FDB1AD
S214003DA0114A12490CF0C8FBECE7A368104A22211E
S214003DB018680CF019FCE5E70E4B02221A708020FA
S214003DC007F046FE0C4B1B88102BE6D10B4B1B78DE
S214003DD00F2BE2D1094B18221A7070225A70DCE7BA
S214003DE0074ADEE750380020A48802005089020007
S214003DF0CC870200040E0020F40D0020D40800201A
S214003E001C88020038B5044683681968012009F04A
S214003E109BFC00B938BD082005F04EFF68B9154B6D
S214003E2018681AF0FEFD054670B1A3681868FDB163
S214003E30114A12490CF080FBECE7A368104A2221D5
S214003E4018680CF0D1FBE5E70E4B02221A70E02052
S214003E5007F0FEFD0C4B1B88102BE6D10B4B1B7896
S214003E600F2BE2D1094B18221A7070225A70DCE729
S214003E70074ADEE750380020A48802005089020076
S214003E80CC870200040E0020F40D0020D408002089
S214003E901C8802002DE9F04385B004468268C3689A
S214003EA052F823100D78591C52F8211091F8008012
S214003EB0991C52F821100F78D91C52F821100E7850
S214003EC04168C91A04293ADD043352F8233093F8BE
S214003ED00090B9F1000918BF4FF00109002D31D14B
S214003EE02946B8F1000F01D041F004010FB141F0AE
S214003EF002010EB141F00101B9F1000F01D041F00D
S214003F0020011A4B18681AF0EDFDE8B9A368186886
S214003F100DB3174AB8F1000F1FD0154BFFB1144967
S214003F20FEB1134CB9F1000F1DD0114D029501944E
S214003F30009110490CF000FB05B0BDE8F0834FF08F
S214003F400009CBE70821CCE7A3680B4A23211868B1
S214003F500CF04AFBF0E7094ADCE7084BDEE70749C6
S214003F60DEE7064CDEE7054DE0E700BF50380020F0
S214003F701C880200848902005C890200A488020072
S214003F8038B504468368C26853F822301D78291E67
S214003F9018BF01210A4B18681AF076FD38B9A368D5
S214003FA018685DB1074A08490CF0C6FA38BDA36820
S214003FB0064A242118680CF017FBF7E7044AF2E7D4
S214003FC0503800201C880200F8890200D4890200BC
S214003FD0A488020038B504468368C26853F82230C5
S214003FE01D78291E18BF01210A4B18681AF03EFDDD
S214003FF038B9A36818685DB1074A08490CF09CFAFE
S21400400038BDA368064A242118680CF0EDFAF7E7D5
S214004010044AF2E7503800201C880200308A02006A
S2140040200C8A0200A488020010B504468068E36883
S21400403050F8232011886268D21A012A11DD013354
S21400404050F823301A78084B18681AF0FDFCA3685D
S2140040501C6803F0CBF80246044920460CF06CFAC4
S21400406010BD0022EFE700BF50380020448A02004F
S21400407010B504468068E36850F82320118862680B
S214004080D21A012A11DD013350F823301A78084B72
S21400409018681AF0DFFCA3681C6803F0A7F802464D
S2140040A0044920460CF048FA10BD0022EFE700BF96
S2140040B050380020588A020010B582B0044600230B
S2140040C00BE0A168E2681A4451F82220117803F147
S2140040D008026A4402F8081C0133072BF1DD636806
S2140040E0E2689B1A082B14DDA368083253F82230C6
S2140040F01A786946084B18681AF0B2FCA3681C6860
S21400410003F074F80246054920460CF015FA02B092
S21400411010BD0022EDE700BF50380020708A020074
S2140041202DE9F0418AB0044601AD474E0FCE0FC5CB
S2140041300FCE0FC533682B6000273E4638E0A068D8
S21400414073180022114650F8230017F001FA83B2C4
S2140041503DE0A0680B440022114650F8230017F0FB
S214004160F7F983B247E0A0680B440022114650F8E6
S214004170230017F0EDF980468E4652E0EB00C3F1BF
S214004180200CA3F1200028FA03F20EFA0CFC42EAF7
S2140041900C022EFA00F0024328336B440B4403F85B
S2140041A0182C01310729E9DD0336F6B20137FFB2D4
S2140041B0022F38D832466368E1685B1A9E4232DACC
S2140041C0012EBCD8A3680A4453F822301B883D460B
S2140041D00AAA02EB470222F8243C731CDBB2626890
S2140041E0E168521A93421EDA012BB2D8A2680B4439
S2140041F052F823301B880AAA02EB450222F81E3C1E
S214004200B31CDBB26268E168521A93420BDA012BE8
S214004210A9D8A2680B4452F82330B3F800804FF0B8
S214004220000E0021BEE701A9084B18681AF00AFC28
S214004230A3681C6802F0DAFF0246054920460CF027
S2140042407BF90AB0BDE8F081A48E02005038002049
S214004250888A020008B58368C26853F8222012686C
S21400426003490A60034918680CF066F908BD00BFE8
S21400427068310020A08A020030B583B00446836807
S214004280C26853F822301D682A464FF0FF31154B9E
S21400429018681AF007FCB8B905F00201C5F3400328
S2140042A0114A1370A368186815F0010F13D00F4A4F
S2140042B099B10E4B15F0040F11D00C4900910C4922
S2140042C00CF03AF903B030BDA3680A4A1F211868FB
S2140042D00CF08AF9F6E7084AEAE7074BEAE70649E8
S2140042E0ECE700BF50380020AA5E0020948702004A
S2140042F0C88A0200B48A02009C87020030B583B0E8
S21400430004468368C26853F822301D682A464FF078
S214004310FF31164B18681AF0D5FBB8B915F0010333
S2140043201BD00221124A1170A2681068BBB1114A54
S21400433015F0020F15D00F4B15F0040F13D00D49D2
S21400434000910D490CF0F8F803B030BDA3680B4A95
S2140043501F2118680CF048F9F6E70121E2E7084A41
S214004360E6E7074BE8E70649EAE700BF50380020D3
S214004370040E002094870200188B0200048B0200B3
S2140043809C870200F8B504468268C36852F823107A
S2140043900E78013352F823301D782F1E18BF0127E0
S2140043A0311E18BF01210F4B18681AF0A9FB10B96F
S2140043B05EB10D4E00E00D4E39460A4B18681AF0F5
S2140043C0ADFB20B95DB1084B02E0094EF4E7074BA0
S2140043D0A0683246074900680CF0AEF8F8BD044BFA
S2140043E0F6E700BF503800201C880200508B020001
S2140043F0A48802005C8B020038B504468068E36837
S21400440050F82320117805291CD80025AC4661B148
S2140044106268D21A022A1CDD5A1C50F8222015782F
S214004420023350F8233093F800C0C1B94A4B1B88BA
S214004430013303F07F030122002A00F087804FF04B
S214004440000C78E00B46454A1F2100680CF0CCF8BB
S2140044507BE0434A1F2100680CF0C6F875E001298E
S2140044600BD03D4B1A88043AC2F30A028B1E032B6C
S2140044704ED8DFE803F01F2E3849B5F1000E18BFFE
S2140044804FF0010EBCF1000218BF012285B10221D7
S214004490314B1B88023B11FA83F3C3F30A03D202A3
S2140044A042EA0E32134393FAA3F31B0C0222C3E72D
S2140044B00421EDE705F01F050CF0030CD20142EADB
S2140044C0C54242EACC03052924D093FAA3F304227A
S2140044D0B2E7003D18BF01250CF003035B0343EA77
S2140044E0C5331343EFE7B5F1000E18BF4FF0010ECA
S2140044F0BCF1000C18BF4FF0010C4FEACC2C4CEA74
S2140045000E3C42EA0C03DEE7120602F0FE43DAE750
S2140045100023DAE704228FE74FEACC0EFF2101FAE8
S2140045200EF1194021FA0EF10E4800F80C100CF1AD
S214004530010C5FFA8CFC6245EED8A0680A49006858
S2140045400BF0FAFF204603F0FDFE38BD074A1F2198
S21400455000680CF049F8F8E7F40D0020748B0200B0
S2140045608C8B0200D4080020A88B0200BC8B0200B3
S21400457008B5C36843608368024A1F2118680CF0B8
S21400458033F808BDD08B020008B5C3684360836863
S214004590024A1F2118680CF027F808BDD08B0200CD
S2140045A02DE9F04F9BB00446BA4B1868002874D12A
S2140045B0B94B1E78002E00F04882B84B1F780BA926
S2140045C020461AF050F8BDF82E30BA1C934267D336
S2140045D0192B0BD91923ADF82E30BDF83030182B17
S2140045E004D91923ADF8303000230E930BA910A878
S2140045F017F06FFE7B1CDBB207F168026A4412F804
S214004600285C2A4605F0070105294ED00237FFB27E
S21400461068336B4413F8283C45EA0325019505F4F6
S2140046204050AB0A03F038036A0A02F0060213434E
S214004630C5F3801213439A4A32F813104FF6FF73ED
S214004640994269D0B0F5005F6BD07B1CDBB207F1F6
S21400465068020DEB020717F828ACB0F5005F67D0CC
S214004660080B00F0E88101F00F02C1F303152A449D
S214004670C1F303210A4453FA82F3DBB21844BDF8AF
S2140046802E20904200F3DC8168336B4413F8283CFC
S214004690AA2B14BF00230123E5E11AF0A7F887E749
S2140046A0804A936A01339362E1E115F0080F31D036
S2140046B00237FFB268336B4413F8282C45EA02220F
S2140046C0930903F40273D10901F010010B43510A58
S2140046D001F020010B43910801F4A0710B439101F6
S2140046E001F440610B43120202F44042134343F4C8
S2140046F0005545F0050513F44C438FD0B3F5084F2D
S2140047008CD0B3F50C4F89D0B3F5484F86D085F0E2
S214004710400583E71F46D3E7624A936A01339362F4
S214004720A5E115F4807F90D03B464FF0000A94E751
S2140047305D4AB2F84020ADF8082000228DF80A2025
S21400474001F00F098DF80890184609EB0302BDF832
S2140047502EC062451BDCB9F1000F0FD05A1C683022
S214004760684410F8280C8DF809000233DBB21AA84A
S21400477050FA82F212F8282C8DF80A20C1F30312A0
S2140047808DF814201A44944506DB012216E0454AAB
S214004790936A013393626AE1424A936A01339362F1
S2140047A065E1581C68336B4413F8287C02F16803F3
S2140047B06B4403F8547C0132D2B2C3B29DF8147035
S2140047C09742EED2C1F3032B8DF80CB018460BEBD4
S2140047D0030294451ADBBBF1000F0FD05A1C683059
S2140047E0684410F8280C8DF80D000233DBB21AA8C6
S2140047F050FA82F212F8282C8DF80E20090B8DF84C
S214004800201019448C4506DB012216E0254A936ADF
S214004810013393622BE1234A936A0133936226E1C4
S214004820591C68336B4413F8280C02F168036B4478
S21400483003F8480C0132D2B2CBB29DF820809045E6
S214004840EED210AB0493194B1B78BBB905F4A072DB
S214004850019B1B0903F440631A432B0103F44043F6
S2140048601A4342F4005343F00203B8F1000F1FD07E
S2140048709DF82110AA2907D000261AE0002204A9D4
S214004880204619F0ACFEE1E742F4005343F0120371
S2140048900FE000BF68310020AA5E0020040E002052
S2140048A0AC8C0200600E0020888E0200AB5E0020FA
S2140048B000267E4A117801F1010C5FFA8CFC049AFE
S2140048C053548A1CD2B24FEA132E049800F80CE018
S2140048D015F4807F04D10331049800F802A0CAB210
S2140048E0990A01F03801580A00F006000143C3F3A4
S2140048F080130B436E4931F813C04FF6FF739C4587
S2140049002AD01CF00F0F0ED0BBF1000F29D0531C7D
S214004910DBB29DF80D00049988540232D2B29DF89D
S2140049200E000499C8541CF0F00F3DD11CF4706FB3
S21400493048D0B9F1000F39D1BBF1000F58D0531C45
S214004940DBB29DF80D00049988540232D2B29DF86D
S2140049500E000499C85435E0564A936A01339362B0
S21400496085E0B9F1000F0CD0531CDBB29DF80900AE
S214004970049988540232D2B29DF80A000499C854A9
S214004980D1E74C4A936A0133936270E0511C03F1FD
S2140049906800684410F8485C049885540133DBB21C
S2140049A0CAB29845F2D2C1E70123FAE7531CDBB23C
S2140049B09DF80900049988540232D2B29DF80A0084
S2140049C00499C854BCF5805F17D2384B1B78022B6D
S2140049D022D0531C04990B70049920461AF0B1F8A3
S2140049E018BB002E43D0334A136A013313623EE0ED
S2140049F0304A936A0133936239E001239F42E4D33D
S214004A00511C03F16800684410F8545C04988554FF
S214004A100133DBB2CAB2F1E7049B1821197092FA8F
S214004A20A2F3CB4004994B70D6E706B3214A536AEB
S214004A30013353621BE01F4A936A0133936216E008
S214004A401C4A936A0133936211E017A920461AF0B4
S214004A5075F878B99DF86430032B10D09DF85C305B
S214004A60AA2B12D00023144A12789A420FD11BB0F8
S214004A70BDE8F08F0F4A936A01339362F7E79DF81B
S214004A805C30AA2BEAD10123EDE70123EBE72046B1
S214004A901AF052F820B9074A136A01331362E6E7A0
S214004AA0044A536A01335362E1E700BF040E002054
S214004AB0AC8C0200600E0020A95E002038B50446CB
S214004AC08368C26853F822301D782946084B186858
S214004AD01AF060F830B9A3682A46064918680BF041
S214004AE02BFD38BDA368044918680BF025FDF8E7D0
S214004AF050380020108C02001C8C020008B5836819
S214004B00024918680BF018FD08BD00BF348C02007F
S214004B1008B58368024918680BF00EFD08BD00BF93
S214004B20548C020010B582B004468368C26853F8FD
S214004B3022301B68019301A9094B186819F05CFA2A
S214004B4038B9A368019A074918680BF0F5FC02B05B
S214004B5010BD0146A368044A18680BF045FDF6E749
S214004B6050380020808C0200908C0200F8B5054674
S214004B707AB9002303700BE0325D084928460CF032
S214004B807FF905440134A742F6DC002305F8013C12
S214004B90F8BD0E4617460024F5E700BFCC8E02008F
S214004BA010B50446074B186819F0E6FDA3681B68A5
S214004BB028B1054A054918460BF0BEFC10BD044A4C
S214004BC0F8E700BF503800201C880200D48E020090
S214004BD0A488020010B504468368C26853F82230E1
S214004BE01968003918BF0121044B186819F0C0FD78
S214004BF0E36863602046FFF7D3FF10BD50380020FF
S214004C002DE9F04184B08368184918680BF04AFC17
S214004C10002523E0164A0292164A01920091224687
S214004C20294612480BF066FC0134032C15DC4FEACB
S214004C30850804EB8501104F7E19B2780F4B03EB05
S214004C40C1010C48FFF792FF7B5DB1780C4A4244E5
S214004C50125D002ADED00B4ADDE70135012D01DCAE
S214004C600024E2E704B0BDE8F08100BFE88E020051
S214004C70A48802006C3100209C310020AC3100205A
S214004C80A43100201C88020070B504464022002192
S214004C9024481AF0D9FF244B00221A605A60A668EE
S214004CA0E56856F825301A68204B5A606068401B45
S214004CB0042802DC013800230FE00420FBE75A1C1E
S214004CC02A4456F8222003EBD37192F800C0174A04
S214004CD002EB610282F802C0013383420FDA13F05E
S214004CE0010FECD15A1C2A4456F8221003EBD3725B
S214004CF0521091F800C00D4901F802C0ECE70B49CC
S214004D000B4B186819F036FD28B9E3686360204637
S214004D10FFF776FF70BDA368064A302118680BF0CF
S214004D2063FCF7E7AC310020A43100209C31002062
S214004D3050380020248F020008B58368024A3421C8
S214004D4018680BF051FC08BD508F020070B584B097
S214004D5004468668C06856F820301978431C56F812
S214004D6023301A7802EB810501290AD8032A08D8CD
S214004D7063681B1A0A2B0BDC0023029303939C46E2
S214004D801AE0204A312130680BF02EFC04B070BDCA
S214004D901D4A322130680BF027FCF7E70CF10203BE
S214004DA0034456F8233093F800E00CF110036B44EC
S214004DB003F808EC0CF1010C63681B1A023B634510
S214004DC0ECDC124B03EB81039B5C009302AB1048B8
S214004DD0006819F0C3FC68B90E4B03EBC50304AAC0
S214004DE012E9030083E80300E36863602046FFF7E8
S214004DF007FFCBE7A368084A332118680BF0F4FBDB
S214004E00C4E700BF788F0200A08F0200A431002004
S214004E1050380020AC310020C08F0200F0B585B0BD
S214004E2004468268C36852F823100E78591C52F85C
S214004E3021100F78023352F823301D78003D18BF3A
S214004E4001253B46324629461248006819F08EFC7A
S214004E50B8B9114B03EB8603DD55A36818680F4BF2
S214004E609A5D33449B789DB10D4903910D4902919B
S214004E70019300923B4632460B490BF05DFB05B0B2
S214004E80F0BDA368094A342118680BF0ADFBF6E7BD
S214004E900749EAE750380020A43100209C31002062
S214004EA01C8802006C310020E88E0200E08F0200B1
S214004EB0A488020070B58CB004460120384B1870E8
S214004EC0A368196808F040FC00283FD0A668E3688D
S214004ED056F823500422334928461AF08BFE002841
S214004EE036D12F4B01221A719A710023059306932F
S214004EF00793089309930A930B93A268E368591CD7
S214004F0052F82110098807910591023352F8233090
S214004F101B8808930A2B01D90A3B0693A268E3680C
S214004F20033352F823301B881D4E73801E4D05A98F
S214004F3028680CF0B5F93146286819F03AFB0146A6
S214004F40B8B1A368194A18680BF04EFB0CB070BDD8
S214004F500222174928461AF04DFE20B9104B0222AD
S214004F601A719A71C1E7134A202130680BF03CFB96
S214004F70ECE7A3681E680A4D287908F041FB044652
S214004F80A87908F03DFB03466A880292089A0192C7
S214004F90079A00922246084930460BF0CDFAD5E72C
S214004FA0EC310020A4870200503800200490020054
S214004FB000060200AC87020034900200F0B583B011
S214004FC00646104F386819F002FB0546386819F097
S214004FD016FB0446386819F016FB0146B3681868D5
S214004FE055B1094A54B1094B51B1084900910849D5
S214004FF00BF0A2FA03B0F0BD064AF3E7064BF3E760
S2140050000549F3E7503800201C880200889002000B
S2140050109C900200A48802009090020010B584B014
S2140050200446104B1B88ADF80C3000228DF8042087
S214005030ADF80620ADF80830ADF80A3001A90A4BE5
S214005040186819F0B6FA30B9E36863602046FFF7CF
S214005050B5FF04B010BD0146A368044A18680BF0FB
S214005060C3FAF1E71491020050380020D0900200F5
S21400507070B504468268C36852F823100978013375
S21400508052F823301E78094D003918BF01212868D0
S21400509019F0B3FA311E18BF0121286819F0B1FAC9
S2140050A0E36863602046FFF789FF70BD5038002034
S2140050B008B58168C36851F823201278013351F887
S2140050C023301B78003A18BF01220A480270003BC2
S2140050D018BF012308480370086832B1074A33B185
S2140050E0064B07490BF028FA08BD064AF7E7054BBA
S2140050F0F7E700BFC95E0020C85E00209487020064
S214005100E89002009C87020008B58268C36852F8DF
S21400511023301B78003B18BF012305490B7010682D
S21400512023B1044A04490BF007FA08BD034AF9E71D
S214005130AB5E00201C88020004910200A4880200D6
S21400514010B50446074B186819F046FDA3681B689F
S21400515028B1054A054918460BF0EEF910BD044A79
S214005160F8E700BF503800201C88020018910200A3
S214005170A488020010B504468368C26853F822303B
S2140051801B787BB1032004F097FD20B90A4B186802
S21400519019F011FD0AE0A368084A222118680BF0EE
S2140051A023FA08E0044B186819F014FDE3686360FE
S2140051B02046FFF7C5FF10BD50380020CC87020000
S2140051C010B504464368C2689B1A012B04D1836855
S2140051D053F822301B786BB9094B18680CF0B6FCF4
S2140051E0A3681C6802F002F80246064920460BF047
S2140051F0A3F910BD024B18680CF0A2FCF0E700BF44
S214005200503800202091020010B504464368C2685A
S2140052109B1A012B04D1836853F822301B786BB994
S214005220094B18680CF09EFCA3681C6801F0DEFFB2
S2140052300246064920460BF07FF910BD024B18685F
S2140052400CF08AFCF0E700BF5038002020910200E6
S21400525010B504460F4B186819F0BEFC90B1A36851
S214005260E26853F8223019780A4B186819F0B9FC2E
S214005270A3681C6801F0BAFF0246074920460BF0F7
S2140052805BF910BDA368054A312118680BF0ACF92C
S214005290F7E700BF50380020209102002C91020052
S2140052A010B504460C4B186819F096FC68B10A4B0A
S2140052B0186819F09CFCA3681C6801F097FF02466A
S2140052C0064920460BF038F910BDA368044A312180
S2140052D018680BF089F9F7E7503800202091020093
S2140052E02C9102002DE9F04182B004462D4B18683F
S2140052F019F072FCB8B16168E068091A002919DD76
S214005300A36853F820301D78012915DDA368421CD8
S21400531053F822301E68022910DDA368821C53F859
S21400532022301F680BE0A3681F4A312118680BF073
S2140053305BF92BE02525E7E71C4EECE71C4F03291D
S2140053400BDDA368033053F8203093F80080B8F1E3
S214005350000818BF4FF0010801E04FF00008CDF834
S21400536000802B46324639460E48006819F05EFC2F
S21400537088B9A36818682A46B8F1000F09D00D4B03
S2140053800193009733460C490BF0D6F802B0BDE8FF
S214005390F0810A4BF4E7A368094A322118680BF03B
S2140053A023F9F3E7503800202C910200D6BE898EF0
S2140053B055555500A4880200449102001C8802003E
S2140053C08C91020070B582B004468368C26853F8B8
S2140053D022301D782B4B186819F0FEFB002830D0C1
S2140053E0A5F12503DBB2022B32D8002300932B460F
S2140053F0254A26492348006819F018FC00282ED1B3
S214005400252D33D0262D35D0272D37D0A3682A4614
S2140054101F4918680BF090F81E4E1F4D0FCD3060D8
S2140054207160B260F36007CD30617161B2611B4B91
S2140054301C221A80E3686360204602F083FF02B0F5
S21400544070BDA368164A312118680BF0CDF8F6E750
S214005450A368144A302118680BF0C6F8EFE7A36873
S214005460114A322118680BF0BFF8E8E7002006F072
S214005470EFFACBE70C2006F0EBFAC7E7272006F09A
S214005480E7FAC3E750380020D6BE898E555555003A
S214005490CC910200D4080020E4910200F40D002014
S2140054A02C910200B09102008C91020010B5836826
S2140054B0C26853F822301B78003B18BF0123404ACD
S2140054C05370002B71D00021D17091804FF47A7404
S2140054D094603C4CD4603C4C14614FF0250CA2F810
S2140054E006C0917011704168C268891A012909DDE9
S2140054F0846802F1010C54F82C4094F800C0304C3B
S21400550084F803C0022906DD8168941C51F8241033
S2140055100C682B498C604168891A032906DD81686E
S214005520D41C51F824100C8825498C804168891AAF
S214005530042906DD8168141D51F824100C882049C2
S214005540CC804168891A052906DD8168053251F844
S214005550222011681A4A11614268C168521A062A46
S21400556006DD8268063152F821201168144AD1609F
S2140055704268C168521A072A0EDD846801F1070CDA
S21400558054F82C4094F800C0BCF1000C18BF4FF043
S214005590010C0B4C84F802C0082A06DD826808312C
S2140055A052F821201178064A117033B1074A8368F1
S2140055B0074918680AF0C0FF10BD064AF7E700BFA3
S2140055C0F431002055555500D6BE898E1C88020041
S2140055D004920200A488020008B58368024918688D
S2140055E00AF0AAFF08BD00BF348C020070B582B076
S2140055F0044683681968012008F0A6F8002870D0D1
S2140056003A4B1A683A4B1A606268E3689A4201D0CD
S214005610002322E0A368374A122118680AF0E4FF44
S2140056205FE0354A162130680AF0DEFF59E005EBE8
S2140056308501324800EB8100CCF80400A068E168E0
S214005640013A114450F8212011682D4A02EB051248
S2140056509160002111730133DBB26268E168501A71
S2140056601D4603F1010C4FEA8C02B0EB8C0F26DBD3
S214005670A66801EB830156F821100868B0F5803F54
S214005680CFD21F4E290106EB051C7052A068E168B8
S214005690D61E314450F8211009688CF8021001F02B
S2140056A07F010529C3D0A068E168961E314450F8F2
S2140056B021100868124901EB05114860BEE70C4E40
S2140056C0B37131460F4B186819F074F80246A36898
S2140056D0186833683AB90C4A00922A460B490AF011
S2140056E02BFF02B070BD0A4AF6E700BFD40C0020BC
S2140056F06408002018920200589202002C32002003
S2140057007C320020503800209487020078920200F5
S2140057109C87020030B583B0044683681968012070
S21400572008F012F828B3A068E36850F8232012782F
S214005730032A20D8013350F823301B78114901EB97
S214005740021191F90E504B736168E068091A02293C
S21400575009DDA168023051F8201091F9005009497E
S21400576001EB02118D73A1680868009506490AF0DE
S214005770E3FE03B030BD0423044A162100680AF095
S21400578033FFF6E77C320020B8920200A4920200B3
S214005790F0B585B0044683681968012007F0D4FF89
S2140057A0002830D0A068E36850F823201278032A37
S2140057B02BD8013350F823301B68174802EB8205BC
S2140057C000EB850140F82530A568E068023055F802
S2140057D0200005684D60A668E068033056F8200093
S2140057E006688E60E0680430A76857F820000768EF
S2140057F0CF6000200861A1680868029701960095AE
S21400580006490AF099FE05B0F0BD0423044A1721A4
S21400581000680AF0E9FEF6E72C320020E09202006B
S214005820A492020010B5044683681968012007F0A8
S2140058308BFFF0B1A068E36850F823201178003998
S21400584018BF01216268D21A012A13DD013350F80D
S21400585023301A78003A18BF0122084B186818F04F
S214005860ABFFA3681B6838B9054A064918460AF014
S21400587063FE10BD0022F0E7034AF6E7503800202A
S21400588094870200989202009C87020010B584B0AC
S21400589004468368C26853F822301978124B186899
S2140058A018F08CFF10F5007F16D007EE900AF8EE81
S2140058B0E77A0223B5EE007A67EE877A17EE902A2B
