S02B00002F55736572732F6A65726F6D652F53696D706C696369747953747564696F2F76365F776F726B737034
S3150800000000080020990F0008D9FC0108D9FC01084E
S315080000106B1E0208D9FC0108D9FC0108D9FC0108A5
S31508000020D9FC0108D9FC0108D9FC0108D9FC01084A
S31508000030D9FC0108D9FC0108D9FC0108D9FC01083A
S31508000040D9FC0108D9FC0108D9FC0108D9FC01082A
S31508000050D9FC0108D9FC0108D9FC0108D9FC01081A
S31508000060D9FC0108D9FC0108D9FC0108A11E010820
S31508000070911E0108D9FC0108D9FC0108D9FC010820
S31508000080D9FC0108D9FC0108D9FC0108D9FC0108EA
S31508000090D9FC0108D9FC0108311A0008D9FC010865
S315080000A0D9FC0108D9FC010809160008E115000861
S315080000B0D9FC0108D9FC010869840108AD8D01083D
S315080000C0C9350208C5350208F9840108DF35020872
S315080000D0CD3502087D8D0108D1350208ED8D010860
S315080000E0D18E0108D9FC0108D9FC0108D9FC010800
S315080000F0D9FC010859110208D9FC0108D9FC0108E4
S31508000100D9FC0108D9FC0108D9FC0108D9FC010869
S31508000110D9FC0108D9FC0108D9FC0108D9FC010859
S31508000120D9FC0108D9FC0108D9FC0108D9FC010849
S31508000130D9FC0108D9FC0108D9FC0108D9FC010839
S31508000140D9FC0108D9FC0108D9FC0108D9FC010829
S31508000150D9FC0108D9FC0108436C02084DF90108CD
S31508000160D9FC0108D9FC0108955602089B560208D5
S31108000170D9FC0108D9FC0108D9FC0108DB
S315080001802DE9F04F2DED028B93B082460C4693462F
S315080001901D4657EC106B8DED080B32463B46304634
S315080001A0394612F02DFB002800F009814FF0FF3286
S315080001B0B14B3046394612F04BFB002840F0FF8021
S315080001C04FF0FF326FF480133046394612F022FBA7
S315080001D0002840F0F48000220023DDE90867304655
S315080001E0394612F017FB002840F0FC809DED087B8D
S315080001F08DED067B209B13F48063119301D10623B2
S315080002001E93DDE906010246C1F30A50C1F3130342
S31508000210904643F07F5949F44019A0F2FF3012F096
S315080002201DF883A3D3E9002312F082F882A3D3E949
S31508000230002311F0C7FE06460F4600228F4B4046A4
S31508000240494611F0BDFE7EA3D3E9002312F070F8EB
S3150800025002460B463046394611F0B4FE12F002FB50
S31508000260064611F0FBFF8046894677A3D3E90023AB
S3150800027012F05EF80022824B11F0A4FE12F0F2FA98
S31508000280074673A3D3E900234046494612F050F8BF
S3150800029080468946384611F0E1FF6FA3D3E900236B
S315080002A012F046F802460B464046494611F088FECB
S315080002B08046894602460B4612F03AF8CDE90C010B
S315080002C007F2FF3700210022CDE90A123B050B93FE
S315080002D000230A9342464B464046494611F072FEB1
S315080002E0CDE90E0142464B4600204FF0804111F001
S315080002F067FE804689460022624BDDE90C0112F052
S3150800030041F90022604B11F05DFE02460B46DDE91D
S315080003100C0112F037F900225C4B11F053FE02462D
S315080003200B46DDE90C0112F02DF902460B46404654
S31508000330494611F047FE02460B46DDE90E0112F06A
S3150800034021F90022524B11F03DFEDDE90A2311F096
S31508000350EFFF8046894649EC188BDDE9062312F043
S3150800036077FA40B1013E0022474B4046494612F013
S3150800037009F941EC180B06F16303C62B3BD8042791
S31508000380209B13F4006F40D035A3D3E90023DDE9A1
S3150800039006894046494612F051FA00283BD032A356
S315080003A0D3E900234046494612F034FA002832D0F1
S315080003B01E9BB34221DD9E1B731E1E931FE0209BCE
S315080003C002931F9B01931E9B00939DED080B2B46E2
S315080003D05A462146504600F0CBF813B0BDEC028BC6
S315080003E0BDE8F08F9FED227B8DED067B069607F123
S315080003F000430793FEE60527C2E700231E93209BCA
S3150800040043F48063209300273E461F9B9F4241D2B8
S31508000410A3EB070840E01E9B002BF6D0119B002B90
S31508000420F3D01E9B013B1E93EFE700BFAFF300809E
S31508000430FB799F501344D33FB3C8608B288AC63FC5
S3150800044061436F63A787D23F71A379094F930A4027
S315080004501655B5BBB16B0240EF39FAFE422EE63FA0
S315080004602D431CEBE2361A3F0000000080842E4123
S315080004700000000000000000FFFFEF7F0000F83FCB
S315080004800000E03F00002C40000024400000184017
S315080004900000F03F4FF00008209B13F0020902D03D
S315080004A00FB14FF000083EB153EC182BDDE90601F9
S315080004B012F068F8CDE9060100220023DDE90801FB
S315080004C012F0A8F900283BD1209B23F4006302937D
S315080004D0CDF804801E9B00939DED060B2B465A46CD
S315080004E02146504600F044F8002F3FF476AF209B93
S315080004F013F0200F2CD04FF0450C00F101082B46C5
S31508000500024621466046D04786EAE672A2EBE672C4
S3150800051005230593013F0497002303930A230293B7
S31508000520F30F019300922B4642462146504621F08E
S3150800053054FEB9F1000F3FF450AF02461F9F10E07A
S31508000540DDE90601024601F10043CDE90623BBE7D2
S315080005504FF0650CD1E7561C2B4621462020D04784
S315080005603246A2EB0B03BB42F5D3104635E700BF74
S315080005702DE9F04F2DED028B93B005900891924628
S315080005809B4659EC108B1E9D42464B4640464946B3
S3150800059012F036F9002840D04FF0FF326FF480137E
S315080005A04046494612F036F9002845D14FF0FF3249
S315080005B0B14B4046494612F04BF900284BD1AAA345
S315080005C0D3E900234046494612F042F900285AD199
S315080005D0A7A3D3E900234046494612F01BF9002891
S315080005E051D1002200234046494612F013F900284B
S315080005F057D100230993209B13F4806F5CD0002405
S315080006001F2C5BD8092D59D904F148036B443022B5
S3150800061003F8202C013D0134F2E7209B03931F9B2E
S31508000620029303230193954B00935B465246089920
S31508000630059821F0F8FC10E1209B03931F9B029379
S31508000640042301938E4B00935B46524608990598FE
S3150800065021F0E9FC01E1209B13F004030FD0894A3D
S315080006607BB10423209903911F990291019300926B
S315080006705B4652460899059821F0D5FCEDE0824A7A
S31508000680EEE70323EEE7209B02931F9B0193009559
S3150800069049EC108B5B46524608990598FFF770FDA2
S315080006A0DBE042464B460020002111F089FC8046DB
S315080006B08946012309939EE70625A0E74046494651
S315080006C012F0D0F8064611F0C9FD02460B46404620
S315080006D0494611F075FC6D4B03EBC50393ED008B92
S315080006E053EC182B11F024FE02460B46CDE90623DF
S315080006F012F0E0F8074611F0A1FD02460B46DDE9C7
S31508000700060111F05DFC02460B46CDE906230022E0
S315080007105F4B12F09DF850B30137384611F08EFD45
S3150800072002460B4651EC180B12F07EF808B101365A
S31508000730002755BB304611F091FD02460B46404650
S31508000740494611F03DFC804689460022504B12F07E
S3150800075061F838B100224E4B4046494612F078F807
S31508000760002842D016F0010F3FD001363DE00022A6
S31508000770474BDDE9060112F04DF80028D9D117B12B
S3150800078017F0010FD5D00137D3E71F2C17D8013D35
S31508000790404BA3FB0723DB08194603EB8303A7EBB0
S315080007A04303621C303304F148000DEB000404F8DF
S315080007B0203C092F02D90F461446E6E714461F2C9B
S315080007C00AD86B1E45B104F148026A44302102F882
S315080007D0201C1D460134F2E71F2C06D804F14803F5
S315080007E06B442E2203F8202C01341F2C17D82A4AD2
S315080007F082FB0632F317C3EBA2031A4603EB830305
S31508000800A6EB4303611C303304F148000DEB0004EA
S3150800081004F8203C16460AB10C46E6E70C46209B2F
S3150800082003F00303012B39D01F2C09D8099B002B91
S3150800083051D004F148036B442D2203F8202C0134CF
S31508000840209B03931F9B029301940AAB00935B467C
S3150800085052460899059821F0E6FB13B0BDEC028BC9
S31508000860BDE8F08FAFF300800000000065CDCD41F4
S315080008700000000065CDCDC1FFFFEF7F24700208A0
S3150800088028700208187002082070020830700208E2
S315080008900000E03FCDCCCCCC676666661F9BB3B143
S315080008A0099B1BB9209B13F00C0F12D01F9B013B11
S315080008B01F93194606E004F148036B44302203F8F7
S315080008C0202C01348C42AFD21F2CF4D9ACE71F99E7
S315080008D0F8E71F99F6E7209B13F0040F07D004F1F9
S315080008E048036B442B2203F8202C0134A8E7209BED
S315080008F013F0080FA4D004F148036B44202203F830
S31508000900202C01349CE700BF38B508462DED028B34
S31508000910154611F093FC1FA3D3E9002311F032FE0C
S3150800092002460B4643EC182B0022002311F07CFFED
S31508000930044648BBB0EE480AF0EE680A00F03CF8F8
S3150800094016A3D3E9002351EC100B11F03BFB02462A
S315080009500B4614A1D1E9000111F014FE13A3D3E943
S31508000960002311F02DFB0022094B11F0E1FC41ECAC
S31508000970100B1FF04BF951EC100B11F073FF288088
S315080009802046BDEC028B38BD2120FAE7AFF3008084
S315080009900000204000000000006AF8409679D01850
S315080009A07A2C2C40000000000068B0406666666637
S315080009B0661271400000000038B555EC104B2DED5D
S315080009C0028B00F045F822462B4620462946B0EE13
S315080009D0408AF0EE608A1FF067F998B90022002372
S315080009E02046294611F034FF60B90022002320462C
S315080009F0294611F005FF60B112F0CAFB22239FEDCC
S31508000A000C8B0360B0EE480AF0EE680ABDEC028B68
S31508000A1038BD12F0BDFB212203460748BDEC028B08
S31508000A201A60BDE8384000F00BB800BFAFF300808D
S31508000A30000000000000F0FFD46E0208000000006D
S31508000A409FED010B704700BF000000000000F87F13
S31508000A5053EC102BB3F5801F2DE9F04F1C4687B0D9
S31508000A6058DA23F000411046114300F0F780002BB6
S31508000A701946C0F234810022D94B11F059FC0C46B4
S31508000A800B46D84902466FF035008C4246DC2515E0
S31508000A90D549C4F31304A5F2FF3521440544D348C8
S31508000AA001F48011484005EB115540EA040310464D
S31508000AB000221946CD4B11F083FAA31C82468B46B9
S31508000AC0C3F31303022B32DC0022002311F098FE35
S31508000AD0002800F0CE80002D00F09281284611F003
S31508000AE0BDFB06460F46AAA3D3E9002311F020FC56
S31508000AF004460D4630463946A7A3D3E9002311F02C
S31508000B0017FC02460B462046294611F05BFA41ECD3
S31508000B10100B09E0B34900208C42B8DD104619468F
S31508000B2011F050FA41EC100B07B0BDE8F08F002227
S31508000B304FF0804311F046FA02460B465046594696
S31508000B40DFF8B88211F01EFD06460F46284611F05A
S31508000B5085FB32463B46A044CDE90401304639467A
S31508000B60CDE9026711F0E4FB02460B46CDE9002306
S31508000B7011F0DEFB06460F4689A3D3E9002311F0E0
S31508000B80D7FB89A3D3E9002311F01CFA32463B466A
S31508000B9011F0CEFB86A3D3E9002311F013FA3246EF
S31508000BA03B4611F0C5FB84A3D3E9002311F00AFAEA
S31508000BB0DDE9002311F0BCFB81A3D3E90023CDE9CD
S31508000BC000013046394611F0B3FB7FA3D3E9002371
S31508000BD011F0F8F932463B4611F0AAFB7CA3D3E99B
S31508000BE0002311F0EFF932463B4611F0A1FB0B4604
S31508000BF00246DDE9000111F0E5F97D4B06460F4690
S31508000C001B1B43EA0803002B5BDD0022794B504689
S31508000C10594611F08DFB52465B4611F089FB80461A
S31508000C208946002D64D142464B463046394611F076
S31508000C30C9F9DDE9022311F07BFB02460B46404663
S31508000C40494611F0BDF902460B465046594611F081
S31508000C50B7F941EC100B07B0BDE8F08F002200236E
S31508000C600020654911F08EFC41EC100B07B0BDE879
S31508000C70F08F59A3D3E900235046594611F058FB83
S31508000C8002460B4600205B4911F09AF906460F46C4
S31508000C9052465B465046594611F04AFB02460B46F9
S31508000CA03046394611F044FB06460F46002D56D10C
S31508000CB002460B465046594611F082F941EC100B94
S31508000CC032E7002D40F09F8002460B4650465946B3
S31508000CD011F076F9DDE9022311F02AFBB3E711F0EA
S31508000CE06FF90022002311F04DFC41EC100B1BE7B5
S31508000CF027A3D3E90023DDE9040111F019FB4246D5
S31508000D004B4604460D463046394611F05BF9DDE997
S31508000D10022311F00DFB06460F461FA3D3E9002355
S31508000D20DDE9040111F004FB02460B46304639465C
S31508000D3011F048F902460B464046494611F040F97B
S31508000D4052465B4611F03CF902460B4620462946B8
S31508000D5011F036F941EC100B07B0BDE8F08F2846C4
S31508000D6011F07CFA8046894609A3D3E9002311F0DD
S31508000D70DFFA04460D464046494607A3D3E9002351
S31508000D8011F0D6FA02460B4630463946D6E700BF7A
S31508000D900000E0FE422EE63F763C7935EF39EA3D23
S31508000DA044523EDF12F1C23FDE03CB966446C73F8C
S31508000DB0599322942449D23F935555555555E53FA5
S31508000DC09FC678D0099AC33FAF788E1DC571CC3FB0
S31508000DD004FA97999999D93F555555555555D53F7B
S31508000DE000005043FFFFEF7F645F09000000F03FFB
S31508000DF051B806000000E03F000050C386EBF9FF3B
S31508000E009FED0D0B90E6DDE904890DA3D3E90023D8
S31508000E104046494611F08CFA32463B4604460D4692
S31508000E205046594611F0CCF8DDE9022311F080FA54
S31508000E3006460F469FE700BF0000000000000000BE
S31508000E400000E0FE422EE63F0348044B834202D0F0
S31508000E50034B03B1184770479C7200209C72002010
S31508000E6000000000064B0749C91A891048BF01311E
S31508000E70491003D0044B0BB101481847704700BF0F
S31508000E809C7200209C7200200000000010B5064CE1
S31508000E90237843B9FFF7D8FF044B13B10448AFF3DF
S31508000EA000800123237010BDEA65002000000000C1
S31508000EB084ED030808B5054B1BB105490548AFF392
S31508000EC00080BDE80840FFF7CDBF00BF0000000066
S31508000ED0400B002084ED0308A3F5803A704700BF55
S31508000EE0174B002B08BF134B9D46FFF7F5FF002154
S31508000EF08B460F461348144A121A21F01BFE0E4B56
S31508000F00002B00D098470D4B002B00D098470020A7
S31508000F10002104000D000D48002802D00C48AFF34C
S31508000F20008012F03BF92000290021F090FD11F015
S31508000F30C1FE00BF0000080000000000000000001D
S31508000F40000800200008002080660020000000003D
S31508000F500000000008B5034825F0A7FC21F009FDAC
S31508000F6008BD00BF606F020808B5024825F09DFC61
S31508000F7008BD00BF606F020808B50448044A121A83
S31508000F80921004491EF0A9FE08BD00BF80010008A2
S31508000F90800100088066002008B5154B83F30A888F
S31508000FA000F030F8FFF7E8FF124A0AE010685168C7
S31508000FB050F8230041F82300013391688B42F5D39A
S31508000FC00C320D4B9A4201D20023F6E70B4A08E091
S31508000FD01168002041F82300013351688B42F7D38A
S31508000FE00832074B9A4201D20023F6E7FFF778FF4B
S31508000FF0000000208CED030898ED030898ED03081F
S3150800100098ED030870B5134B134A9A60D3F88820F5
S3150800101042F47002C3F88820104A4FF48041916662
S315080010200F4D05F500544FF0FF3222660D4A6266F1
S315080010300222C3F8D020BFF34F8FBFF36F8F002073
S3150800104003F06CFB4FF44036E660002020F095F87C
S315080010502E6170BD00ED00E0000000080090005011
S31508001060008000447FFF7F0308B5064B1860064BD7
S315080010701B6F03F00703032B00D008BD24F0CCFB3D
S31508001080FBE700BF8C66002000800050F0B1844664
S31508001090F1B110B409E004F120000FE02033C01AC2
S315080010A018D1BCB10CF1010C01319CF800400B4B76
S315080010B01B5D03F00303012BEDD020460B78074A8E
S315080010C0D25C02F00302012AE9D1E7E70120704762
S315080010D0012070475DF8044B704700BFBD650308E3
S315080010E02DE9F04180460F4601F1090500263446F0
S315080010F004E05B21082000F037F90134AC4233D212
S31508001100052C1BD801A353F824F000BFF3100008E0
S3150800111025110008591100082D1100083111000881
S3150800112035110008FBB20433D9B2E3E78021E1E7C1
S315080011300021DFE7731C3146DEB2DBE7BB1DA342A5
S315080011400CD0FB1DA3420BD007F10803A34209D01C
S31508001150A31F18F80310CDE7D121CBE75A21C9E719
S315080011605A21C7E75D21C5E70020BDE8F08100BF29
S3150800117000B583B000220092019202218DF800107A
S3150800118005481EF020FE019008216846FFF7A8FFD3
S3150800119003B05DF804FB00BF006A1800BFF34F8F69
S315080011A00549CA6802F4E062044B1343CB60BFF3F7
S315080011B04F8F00BFFDE700BF00ED00E00400FA0511
S315080011C030B587B00546046823798DF80C30637905
S315080011D08DF80D301B4825F068FB0022012103A875
S315080011E01EF0ACFE0DF10B0103A81EF0BBFE9DF828
S315080011F00B3083F001032370A379022B02D0002061
S3150800120007B030BD4FF0FF330593049300950E4B9E
S31508001210002205A903A800F0A1F9059BB3F1FF3F39
S3150800122007D00095084B012204A903A800F028F965
S31508001230E5E70095044B042204A903A800F020F969
S31508001240DDE700BF606F020833FE010810B582B003
S31508001250002401943B4825F028FB8DF80040032321
S315080012608DF801300122042168461EF067FE364BD0
S315080012700122C3F84424A3F550334FF400225A66DA
S31508001280324BD3F8FC2012F0807206D01946D3F8F8
S31508001290FC3023F08073C1F8FC302D49D1F880303A
S315080012A023F0030343F00203C1F8803032B1274A22
S315080012B0D2F8FC3043F08073C2F8FC3001A905204F
S315080012C025F0ECFA00283BD1204BD3F8F02042F069
S315080012D00102C3F8F020D3F8FC2042F08072C3F86C
S315080012E0FC20A3F55D431B4A1A60019B03F5D52331
S315080012F003F2FC43DB08184AA2FB03239B0A013BC3
S31508001300164A13610223C2F8F0304FF48073C2F80C
S3150800131004334FF06043124AC3F8B02F114AC3F89A
S31508001320802ED3F8002E42F48072C3F8002EFF22D6
S3150800133083F82020D3F8002E22F48072C3F8002EFA
S3150800134002B010BD606F020800D0035000ED00E047
S3150800135000800050FF03004017916502000004E07A
S3150800136055CEACC5090001004FF06043D3F8803E66
S3150800137013F0010F01D1112070470E4AD2F8FC3044
S3150800138043F08073C2F8FC304FF06043D3F8002E68
S315080013904FF0010C0CFA00FC42EA0C02C3F8002ECE
S315080013A053F82030002BE8D04FF0604303F82010A4
S315080013B00020704700ED00E010B504460DE001235B
S315080013C0834024EA03040F2812D80D4B03EBC0030D
S315080013D01A6812B15968C0B290477CB123460020FA
S315080013E01F28ECD813F0010FE9D101305B08F7E7A5
S315080013F0421E1038024B03EBC203E9E710BD00BFDB
S31508001400580B002008B50D4825F04FFA1A2003F0AE
S3150800141075F928B91B2003F071F940B9002008BDF9
S315080014201A2003F07BF91A201FF0A7FEF2E71B200B
S3150800143003F074F91B201FF0A0FEEFE7606F0208A7
S3150800144050B1037842780121914003EB43031B0115
S31508001450024AD150002070472220704740D00350DE
S3150800146050B1037842780121914003EB43031B01F5
S31508001470024AD150002070472220704740E00350AE
S31508001480002843D02DE9F0410C4616461D4607466E
S3150800149000293DD025F0E0F980463B78FF2B1ED188
S315080014A02368B3F1FF3F21D02168B1F1FF3F28D06F
S315080014B0184A42F83150236802EBC302069B536070
S315080014C03B78FF2B05D0226801239340124AC2F8C5
S315080014D02434404625F0BBF90020BDE8F0813246A9
S315080014E02168384601F0A4FF2060D9E73B78FF2B36
S315080014F0DAD10A4BD3F8241478781FF073F82060F1
S31508001500D2E7404625F0A3F92D20E6E722207047CA
S315080015102220E2E7580B002000D0035000C00350F9
S315080015200F2815D838B5044625F096F90123A340A7
S31508001530084AC2F82034C2F82434074B002543F879
S31508001540345003EBC4035D6025F081F9284638BDA5
S315080015502120704700E00350580B0020002836D0A1
S315080015602DE9F0410C4690461F46064689B325F0FC
S3150800157073F905463378FF2B1DD12268B2F1FF3F78
S3150800158020D015490F3241F8327023680F3301EB2A
S31508001590C301069B4B603378FF2B06D022681032B6
S315080015A0012393400D4AC2F82434284625F04FF902
S315080015B00020BDE8F08142462168304601F0D8FF98
S315080015C02060DAE7284625F042F92D20F1E72220A7
S315080015D070472220EDE700BF580B002000D00350CB
S315080015E008B5084BD3F82404D3F82024104000F09B
S315080015F0553020F0A04003F50053C3F82004FFF748
S31508001600DBFE08BD00C0035008B5084BD3F8240418
S31508001610D3F82024104000F0AA3020F0204003F52B
S315080016200053C3F82004FFF7C7FE08BD00C00350E7
S31508001630F0B585B00C4694469DF83410664A127883
S31508001640002A00F0BD800546BCF1070F00F2BA80FB
S315080016500A9A002A00F0B8800B9A002A00F0B68091
S315080016600E9AB2F5006F00F3B38001285BD05B4A8F
S3150800167002EB0C12127B002A00F0AC8000220092CA
S31508001680019202920392564A02EB4C1E002C4FD14D
S315080016904FEA4C1600209051CEF80400CEF8080008
S315080016A0CEF80C009EF8020040F010008EF80200FA
S315080016B09EF8030040F030008EF8030021B9C1B24D
S315080016C041F003018EF8031000930E9B013B444A38
S315080016D04FEA4C1002EB4C11165A63F30E161652CB
S315080016E00A9B8B600B9B4B60CB789DF83C2062F382
S315080016F08303CB70012D36D0109B002B56D0374A6A
S315080017004FEA0C1102EB0C1310985050119A5A60BC
S3150800171000249C605D7372466946604601F0F4FCDD
S31508001720204605B0F0BD0C9A002AA0D12D48F8E74E
S315080017302B4F4FEA4C1607EB4C120020B85150605D
S315080017409060D060907840F010009070D07840F0AB
S315080017500300D0700029B7D107EB4C12C1B241F093
S315080017603001D170B0E70E460A7B42F001020A73D7
S31508001770D2B242F002020A73CA68042161F39F02D8
S31508001780F26006F1100796E80F0087E80F00F26985
S315080017906FF0030161F39F02F2610C9B7361012CE8
S315080017A0AAD10B9AB2610C9A7260A5E7002DA6D150
S315080017B00B4B03EB4C139A786FF304129A709EE75F
S315080017C00948AEE70748ACE70648AAE70548A8E788
S315080017D00448A6E70548A4E7EB650020480D002065
S315080017E0480C0020018000F0028000F0078000F01D
S315080017F0134B1B78FBB110B50446F0B125F02CF855
S315080018000023072B13D80F4A02EB0312127B0AB1E7
S315080018100133F6E723600B4A190102EB031301248F
S315080018201C730024545025F012F8204602E025F0D7
S315080018300EF8054810BD054870470548FAE700BF89
S31508001840EB650020480D0020048000F0028000F0BF
S31508001850018000F038B524F0FFFF04460023072B6B
S3150800186006DC0C4A02EB0312127B12B90133F6E7C7
S31508001870002222B1204624F0EAFF074838BD01F0CD
S31508001880EFFB0025054B1D70204624F0E0FF284697
S31508001890F4E700BF480D0020058000F0EB65002046
S315080018A00F4B1B78BBB110B50446072815D824F092
S315080018B0D3FF0C4B03EB04131B7B1BB924F0C7FFA8
S315080018C009480BE0074B03EB041300241C7324F0B0
S315080018D0BEFF204602E005487047054810BD00BF18
S315080018E0EB650020480D0020068000F0028000F01D
S315080018F0018000F000B583B0134B1B6801930023E9
S315080019008DF8043024F0A8FF104B1B7833B90F4B21
S3150800191001221A7024F09BFF002309E024F097FFA8
S315080019200B480EE00B4A02EB031200211173013338
S31508001930072BF7DD08238DF8073001A801F0B4FB63
S31508001940002003B05DF804FB186D0208EB65002063
S31508001950038000F0480D002010B5104C2478BCB167
S31508001960072817DC0E4C04EB0014247BA4B10C4C9E
S315080019704FEA001E04EB001C44F80E30029BCCF81C
S3150800198004300024CCF8084001F0BEFB204610BD08
S315080019900448FCE70448FAE70448F8E7EB65002042
S315080019A0480D0020028000F0018000F0078000F05A
S315080019B008B50A4B1B785BB107280BD8084B03EB15
S315080019C000131B7B43B1002101F060FB002008BD1A
S315080019D00448FCE70448FAE70448F8E7EB65002002
S315080019E0480D0020028000F0018000F0078000F01A
S315080019F008B50A4B1B785BB107280BD8084B03EBD5
S31508001A0000131B7B43B1012101F040FB002008BDF8
S31508001A100448FCE70448FAE70448F8E7EB650020C1
S31508001A20480D0020028000F0018000F0078000F0D9
S31508001A30F8B5194B1F6D5B6D1F4002D401250024B4
S31508001A4002E0FEE701346D00072C24D83D42F9D0A8
S31508001A50124B1D652301124AD358002BF2D002EB14
S31508001A600416B1680131B16072682046984780F063
S31508001A700100C0B2737B012BE4D10028E2D0094BE8
S31508001A8003EB44131A7B6FF341021A731A7F6FF341
S31508001A9041021A77D6E7F8BD00000450002004502A
S31508001AA0480D0020480C002038B505460C46164B54
S31508001AB0D3F8283103F00703013B052B20D8DFE8CC
S31508001AC003F003131B0F0B1723F086FE052305B13E
S31508001AD0286004B1236038BD23F07EFE0623F6E7AE
S31508001AE023F0BAFE0723F2E723F0B0FE0323EEE75E
S31508001AF023F0ACFE0423EAE723F0A4FE0223E6E77C
S31508001B0000231846E3E700BF0080005030B583B0D5
S31508001B1005460C4600230193154BD3F8203203F0F3
S31508001B200703042B21D8DFE803F0030B11161B006B
S31508001B3001230DB1019A2A6004B1236003B030BDB8
S31508001B40002101A8FFF7B0FF1123F2E723F084FE76
S31508001B5001900723EDE724F069FE01900A23E8E7E0
S31508001B6023F0D0FE01900923E3E70023E1E700BF55
S31508001B700080005038B505460C460F4BD3F8503256
S31508001B8003F00303022B12D0032B08D0012B0AD033
S31508001B900023184605B1286004B1236038BD24F037
S31508001BA048FE0B23F6E724F041FE0A23F2E723F06A
S31508001BB0A9FE0923EEE700BF0080005038B50546A8
S31508001BC00C460C4BD3F8903203F00303012B05D0D7
S31508001BD0022B07D123F040FE072305E023F032FE4F
S31508001BE0022301E00023184605B1286004B12360EA
S31508001BF038BD00BF00800050024B4FF480321A6790
S31508001C00704700BF0090005038B505460C460F4B8C
S31508001C10D3F8803003F00303022B0ED0032B10D029
S31508001C20012B06D00023184605B1286004B12360AD
S31508001C3038BD23F0D7FD0D23F6E723F00DFE072365
S31508001C40F2E723F0C9FD0623EEE700BF0080005047
S31508001C5038B505460C46104BD3F8000100F00300D2
S31508001C60032815D8DFE800F002080C10012305B197
S31508001C70286004B1236038BD23F0E8FD0323F6E7A6
S31508001C8023F040FE0923F2E724F0CEFD0823EEE711
S31508001C9000231846EBE700BF0080005038B505461C
S31508001CA00C46174BD3F8200100F00700062823D866
S31508001CB0DFE800F0040A0E16121A1E00012305B109
S31508001CC0286004B1236038BD23F086FD0523F6E7B6
S31508001CD023F0BCFD0323F2E723F0BEFD0723EEE75E
S31508001CE023F0B0FD0223EAE723F076FD0623E6E7B4
S31508001CF023F0ACFD0423E2E700231846DFE700BF24
S31508001D000080005038B505460C46104BD3F8400104
S31508001D1000F00300032815D8DFE800F002080C10CD
S31508001D20012305B1286004B1236038BD24F07EFD87
S31508001D300A23F6E723F0E6FD0923F2E724F079FD06
S31508001D400B23EEE700231846EBE700BF00800050A0
S31508001D5030B583B005460C4600230193144BD3F8DF
S31508001D60603203F00703013B032B1FD8DFE803F0BB
S31508001D70020E1914002101A8FFF790FF0F230DB1D9
S31508001D80019A2A6004B1236003B030BD002101A87E
S31508001D90FFF7B8FF1023F2E723F05EFD0190072353
S31508001DA0EDE723F04FFD01900223E8E70023E6E77D
S31508001DB00080005030B583B005460C4600230193D9
S31508001DC00C4BD3F8703203F00303012B09D0022B16
S31508001DD00DD114230DB1019A2A6004B1236003B012
S31508001DE030BD002101A8FFF78DFF1023F2E700237D
S31508001DF0F0E700BF0080005038B505460C46104B8A
S31508001E00D3F8600100F00300032815D8DFE800F0D6
S31508001E1002080C10012305B1286004B1236038BDFF
S31508001E2024F004FD0A23F6E723F06CFD0923F2E704
S31508001E3024F0FFFC0B23EEE700231846EBE700BF70
S31508001E400080005070B582B006460D460023019307
S31508001E50104BD3F8804104F00304022C16D0032C4F
S31508001E600FD0012C07D000240EB1019B336005B1B9
S31508001E702C6002B070BD002101A8FFF70FFF0F24E8
S31508001E80F2E723F0E9FC01900724EDE723F0DAFCFA
S31508001E900190E9E70080005038B505460C46104B1E
S31508001EA0D3F8400200F00300032815D8DFE800F055
S31508001EB002080C10012305B1286004B1236038BD5F
S31508001EC024F0B4FC0A23F6E723F01CFD0923F2E705
S31508001ED024F0AFFC0B23EEE700231846EBE700BF20
S31508001EE00080005038B505460C46134BD3F800025F
S31508001EF000F0070004281BD8DFE800F003090D11DD
S31508001F001500012305B1286004B1236038BD24F00B
S31508001F108DFC0A23F6E723F0F5FC0923F2E724F003
S31508001F2088FC0B23EEE723F077FC800A0E23E9E70B
S31508001F3000231846E6E700BF0080005038B505467E
S31508001F400C46134BD3F8080200F0070004281BD8E8
S31508001F50DFE800F003090D111500012305B128601B
S31508001F6004B1236038BD24F061FC0A23F6E723F0A8
S31508001F70C9FC0923F2E724F05CFC0B23EEE723F007
S31508001F804BFC800A0E23E9E700231846E6E700BF64
S31508001F9000800050B0F5207F20D00ED8B0F5007F25
S31508001FA016D020D810B1B0F5C07F04D10F4B186FEA
S31508001FB0C0F3033018E0002016E0B0F5607F05D1C5
S31508001FC00A4BD3F88000C0F301100DE000200BE0A7
S31508001FD0064BD3F89000C0F3046005E0034B186F76
S31508001FE0C0F3802000E000200130704700800050D8
S31508001FF038B505460C46174B4FF480329A660020D2
S31508002000FFF7C8FF05FB00F0134BDA6902F48032CC
S3150800201041F67131D9635B6823F440136CB90F49F3
S31508002020884207D800210B430B494B600AB10022AE
S31508002030CA6338BD4FF48011F5E7002C07DD08495F
S31508002040884201D80021EEE74FF48011EBE74FF400
S315080020504011E8E70090005000000350005A620261
S31508002060002D3101430905D0012B0DD0022B0DD0CF
S31508002070002200E0002200F01F0049B102F580525C
S315080020800123834013607047034AF4E7034AF2E7E3
S3150800209002F50052F4E700BF6480005068800050E3
S315080020A008B580201DF0CDFF034B984203D8034B9B
S315080020B04FF480321A6708BD005A620200A0005029
S315080020C000B583B000230193B0F5607F00F0BF80B0
S315080020D03FD8802835D8242865D324385C2862D888
S315080020E0DFE800F06868686868615D61AB70616127
S315080020F0616161616161616161AB61616152BF6129
S31508002100616161616161616161616161C468616147
S31508002110618361617BC9BA8F8F6161616161616148
S315080021206161616161616161616161616161616191
S315080021306161616161616161616161616161616181
S315080021409400B0F5807F2ED101A900201DF054FF20
S3150800215029E0B0F5086F75D00CD9B0F5286F00F0F6
S315080021608A8034D9B0F5306F44D101A90020FFF731
S3150800217025FD18E0B0F5C06F5FD00AD9B0F5E06F5D
S315080021806FD0B0F5F06F1AD101A90020FFF734FE21
S3150800219009E0B0F5A06F5FD0B0F5B06F07D101A91F
S315080021A00020FFF74FFE019803B05DF804FBB0F579
S315080021B0806FF8D101A90020FFF770FDF3E7B0F5AD
S315080021C0D06FF0D101A90020FFF78CFEEBE7B0F540
S315080021D0186F4BD0B0F5206F04D101A90020FFF786
S315080021E0B7FDE0E7B0F5106FDDD101A90020FFF7D4
S315080021F0A5FED8E7D7D3B0F5386F1ED0B0F5406F37
S31508002200D1D101A90020FFF74FFCCCE71C4B1B6F6F
S3150800221003F00703013B032BC5D8DFE803F00B02E5
S31508002220050805230193BEE703230193BBE70823AB
S315080022300193B8E702230193B5E701A90020FFF748
S3150800224061FDB0E701A90020FFF702FDABE701A990
S315080022500020FFF7D9FCA6E701A90020FFF756FCE6
S31508002260A1E701A90020FFF717FE9CE701A90020B6
S31508002270FFF780FC97E701A90020FFF79BFD92E78F
S3150800228000800050044B4FF480125A66034B4FF4FB
S3150800229080329A62704700BF009000500050005A82
S315080022A038B504468020FFF70BFF032800F0B580F9
S315080022B0604B4FF480125A665F4B45F60E02C3F820
S315080022C0802003F580524FF0A061916203F5005318
S315080022D04FF480329A62584B9B6D13F4803FFAD1C3
S315080022E0554B9B6D13F0804FFAD1226863681B0526
S315080022F043EA0263227B43EA0243627B43EA0233F0
S31508002300A27B43EA8213E27B13434B4D2B61AB69F5
S3150800231003F00043226943EA8263626943EA02637F
S31508002320227E43EA0243627E43EA0223A27E1343E5
S31508002330AB614FF400624FF4406140481DF04EFE19
S315080023402B6A23F00F03E269002A46D111460B4394
S31508002350E17E43EA81031A43374B1A62E369002B8D
S315080023603DD1354A916A364B0B4094F8201043EA22
S31508002370411394F8211043EA011394F8241043EA10
S31508002380C10343F4803393622B4B9A6D2D4B9343D1
S31508002390FAD1294A02F580514FF080738B6213698E
S315080023A023F47003A06843EA005313614FF0004317
S315080023B08B6194F822301BB9234B4FF080729A62D6
S315080023C094F8233013BB204B4FF480329A621A4B91
S315080023D09B6D13F0804FFAD118E00821B7E7022B5E
S315080023E01CD0154A916A164B0B4094F8201043EA04
S315080023F0411394F8221043EA016394F8241043EA3F
S31508002400C10394F8231043EA0143936294F82530F4
S315080024101BB1094B0D4AC3F8802038BD064B002274
S315080024201A619A614FF408524FF47F4108481DF02B
S31508002430D5FDD6E7009000500040005A3840005AB3
S31508002440C7FFFEFE030001000060005AF1A7FFFF68
S315080024503440005A70B5124B9E6A9B6D13F4803F48
S3150800246003D0104B4FF480329A620D4D05F5805318
S315080024704FF080719962AC69C4F3072432460A4862
S315080024801DF0ACFDAB6D13F4803F01D1204670BD45
S3150800249032464FF4803104481DF0A0FDF6E700BF30
S315080024A00040005A0050005A2840005A014B187044
S315080024B0704700BF6E720020014B93F90000704709
S315080024C06E72002070B51D4B9E6AFF2834D80446EC
S315080024D09B6D13F4803F03D0194B4FF480329A62F8
S315080024E0174B4FF080729A62FFF7E6FF001903D484
S315080024F0FF2802DDFF2000E00020104DAB6923F421
S315080025007F0323F47F4343EA00432402A4B2234310
S31508002510AB6132464FF080710A481DF05FFDA86D29
S3150800252010F4803000D170BD32464FF48031054832
S315080025301DF054FD0020F6E72120F4E70040005A7C
S315080025400050005A2840005A08B5164B9A6A03F5F7
S3150800255080534FF480319962124B9B6D03F003034D
S31508002560032BF9D1104B4FF0807199620D4B996D81
S315080025700E4B8B43FAD10C4B01211965094B9B6D08
S3150800258013F0020FFAD1074B9B6D13F0020FFAD026
S31508002590044B9B6D13F0020FFAD0054905481DF050
S315080025A01DFD08BD0040005A0050005A03000100F6
S315080025B0000001012840005A10B443784F2B28BF69
S315080025C04F231A461C4B4FF40001596603F5B833DE
S315080025D04FF4D151596203F5805102244C6003F53A
S315080025E0005301215960154B1B6913F4803FFAD13A
S315080025F0037842EA0323114A5361416883681B0141
S3150800260043EA0123017B43EA4103417B0B43936081
S31508002610817BC37B1B0143EA4113017C43EA4103E7
S31508002620417C0B435360837C1BB113466FF4D15234
S315080026305A625DF8044B7047009000500000025043
S31508002640014B1880704700BF1A720020014B188092
S31508002650704700BF18720020B0F5207F5DD02DD8D6
S31508002660B0F5007F4ED061D810B1B0F5C07F24D147
S3150800267010B54C1E1DF0DEFC1DF0CBFEFFF7BCFAB4
S315080026802B4A136F23F4704343EA0433136723F08A
S31508002690C3F8284BD3F8843013F0100FF9D1254B23
S315080026A0D3F88410C1F38111C1F102011DF0A6FE11
S315080026B000F058F8FFF7F4FC10BD7047B0F5607FDE
S315080026C01FD11D4BD3F8FC2012F0807206D0184695
S315080026D0D3F8FC3023F08073C0F8FC300139144875
S315080026E0D0F8803023F0300343EA0113C0F8803075
S315080026F0E2B1114AD2F8FC3043F08073C2F8FC30DC
S315080027007047704701390A4AD2F8903023F0F853D7
S3150800271043EA0163C2F8903070470139044A136FDF
S3150800272023F4806343EA812313677047704700BF29
S31508002730008000500040005000ED00E008B501217F
S31508002740022000F0AFF84FF42070FFF723FC044B8B
S3150800275018701DF06FFC1DF05CFEFFF74DFA08BD02
S31508002760EC65002008B54FF4C0701DF06AFC054BF7
S31508002770984205D902214FF42070FFF76DFF08BD76
S315080027800121F8E780F0FA0210B5044623F044F870
S315080027900F4BD3F8843013F0100FF9D10C4BD3F844
S315080027A08410C1F38111C1F102011DF027FE012138
S315080027B0002000F0BDF824B1FFF7D4FFFFF770FC46
S315080027C010BD044B19784FF42070FFF745FFF5E765
S315080027D000400050EC650020044A536F23F4407310
S315080027E0417843EA01235367704700BF0040005011
S315080027F010B504460F4A136943F00403136123F026
S3150800280011FD1DF00DFE0C4B5B6E13F0806F03D0AF
S315080028100A4B0B4AC3F82024BFF34F8FBFF36F8FC1
S3150800282030BF1DF0FEFD02F04BFF04B110BD22F0D3
S31508002830F3FFFBE700ED00E00080005000E00350E6
S315080028400000FF0F10B504460D4A136943F0040350
S3150800285013610C4B5B6E13F0806F03D00A4B0B4A67
S31508002860C3F8202423F0DEFCBFF34F8FBFF36F8F2E
S3150800287030BF02F025FF04B110BD22F0CDFFFBE703
S3150800288000ED00E00080005000E003500000FF0F5C
S31508002890034AD36E23F0300301790B43D36670479E
S315080028A000400050F8B50446204BD3F8843013F0A6
S315080028B0100FF9D11D4BD3F88430C3F381139C4212
S315080028C02DD022F08FFF0646012C11D023F0BBFF36
S315080028D00546164F07F500534FF000725A66204614
S315080028E01DF0A2FD621E4FF4806393403B6706E02D
S315080028F001211DF083FDE9E70C4BD3F884300B4B1F
S315080029005B6E13F0007F05D1084BD3F8843013F0C3
S31508002910200FF1D0284623F091FF022C00D0F8BDF5
S31508002920002130461DF06AFDF9E700BF004000505F
S3150800293010B50C46034650B1094A127812B1094A35
S31508002940934208D921460220FFF7ACFF10BD22F0BA
S3150800295049FF0346F0E721460120FFF7A3FFF5E705
S31508002960C80D0020005A620208B50278034B1A7097
S3150800297001210020FFF7DCFF08BD00BFC80D0020BD
S3150800298038B52F4B4FF000425A6603F50B235C6CA3
S3150800299004F001044AF6CD321A64E8B9294B5B6B98
S315080029A013F00103FAD1274A556815F0010539D005
S315080029B002F50052012151601A462249096B11F0AD
S315080029C0010F04D120498A4201D80132F5E71E4990
S315080029D08A422FD81D4625E000231A4A126B12F0A8
S315080029E0080F04D0184A934201D80133F5E7164A6E
S315080029F0934221D8134B03F500522021916203F527
S31508002A00805301225A60002300E001330D4A926A7E
S31508002A1012F0200F02D10C4A9342F6D90A4A934281
S31508002A200CD8002514B1074B084A1A6417F04CFB5A
S31508002A30284638BD0725F5E70725F3E70725F1E713
S31508002A4000900050004009503F420F003254FFFFEB
S31508002A5010B51A4B4FF000425A6603F50B235C6C0F
S31508002A6004F001044AF6CD321A6443785B0043F059
S31508002A700103134AD363134B5B6B13F00B0FFAD1A5
S31508002A80104A536823F4F873817843EA01135360B4
S31508002A90C178437943EA012393600179837943EA4C
S31508002AA0012313610078FFF76BFF14B1054B064A43
S31508002AB01A6417F009FB012010BD00BF00900050F2
S31508002AC000400050004009503254FFFF10B50F284F
S31508002AD000D90F20124B5C6E03F580534FF000426D
S31508002AE05A6603F50B235A6C02F001024AF6CD31F9
S31508002AF019640C4B5B6B13F0800FFAD109490B6A0A
S31508002B0023F00F0303430B620AB1074A0A64002C39
S31508002B1003DB064B4FF000425A6617F0D5FA10BD94
S31508002B2000800050004009503254FFFF00A00050BA
S31508002B3010B5134B5C6E03F580534FF000425A668E
S31508002B4003F50B235A6C02F001024AF6CD311964DB
S31508002B500C4B5B6B13F0800FFAD10A490B6A23F40E
S31508002B60F85343EA00230B620AB1074A0A64002CA9
S31508002B7003DB064B4FF000425A6617F0A5FA10BD64
S31508002B8000800050004009503254FFFF00A000505A
S31508002B90084B98420AD0084B984209D003F580435F
S31508002BA0984201D000207047582070475620704739
S31508002BB0572070470000015B00000A5010B5044614
S31508002BC01DF033FC202323610023E360A36041F258
S31508002BD002026261A3614FF4A0226262E36123628A
S31508002BE0A362E3626363236504F500520149D16475
S31508002BF0236310BDFF3F0D03F8B504461546084686
S31508002C00E1B1A36813F0010F34D06668B0FBF5F0A4
S31508002C10451E16F001062BD0636D13F0280FFBD165
S31508002C20A36C13F0030F0FD1A36C13F0010F1BD184
S31508002C30A36C13F0020F19D1002706E02046FFF710
S31508002C40A7FF1DF0FEF9DCE7052720461DF0EDFB82
S31508002C50236923F07F4343EA0563236146B3394674
S31508002C6020461DF001FC23E00927EEE70627ECE7DE
S31508002C700027EDE76368A36803F0E003402B1DD047
S31508002C8017D9602B1ED0802B12D10123400105FBDA
S31508002C9003F3B0FBF3F020380B4A02EAC002636D77
S31508002CA013F0010FFBD12263636D13F0010FFBD103
S31508002CB0F8BD2BB1202BFBD10823E7E70623E5E770
S31508002CC01023E3E70423E1E7F8FF7F0070B5044625
S31508002CD00D461646436823B1636DC3F30B03002BF9
S31508002CE0FAD12046FFF76AFF636923F44C5323F0B1
S31508002CF00F036A7B1343EA8913432A8A13436361E2
S31508002D00A36823F0804323F0E2032A7B13432A7E39
S31508002D1013436A691343A360AB681BB9A36843F0FE
S31508002D200043A360EA69002A70D0A168694B0B408A
S31508002D30117A43EA8153917A43EA4143918801F42F
S31508002D40C0410B43517843EA8103517B43EAC103EF
S31508002D50917B43EA0113927843EA8223A360E268EF
S31508002D605D4B1340EA6911690B4351690B4391792D
S31508002D7043EA8123D27943EA4223E360EB691B786D
S31508002D80012B01D0032B03D1E36843F00403E3606E
S31508002D90EB691B78023BDBB2012B51D94F4B9C42A6
S31508002DA06BD04F4B9C426AD003F580439C4262D05D
S31508002DB04FF0FF3303F593735B0103F1A04303F56B
S31508002DC0703302225A60EB695A7A04F580539A6284
S31508002DD0EB695B7A1BB1E36843F40063E360EB6974
S31508002DE0DB7A63B1E36843F40043E3603B4B9C4200
S31508002DF047D03B4B9C424BD03A4B9C424FD0636AE0
S31508002E0023F00303EA69D27B134363623EB196F863
S31508002E102030002B4AD004F5805301221A6204F5AB
S31508002E20805301225A60AA68002A4ED12978204682
S31508002E301DF01AFBA36CDB4313F4405FFAD170BD97
S31508002E40264B9C4213D0264B9C4212D003F5804356
S31508002E509C420AD04FF0FF33A6335B0103F1A0432F
S31508002E6003F5703302225A60ADE70223F4E7002324
S31508002E70F2E70123F0E702239CE700239AE7012300
S31508002E8098E7EB691B7B03F00F03174A5366B0E715
S31508002E90EB691B7B03F00F03134A1367ACE7EB6977
S31508002EA01B7B03F00F03104AD367A8E7E36923F0F7
S31508002EB0090396F82220134396F82120134343F07A
S31508002EC0010304F58052D361A9E769682046FFF734
S31508002ED093FEABE7E39BBDFFFFF9F0870000015BBC
S31508002EE000000A5000400A50009003502DE9F843AC
S31508002EF00D4614461E469DF820809DF82470072A24
S31508002F0029D8930000FA03F20321994021481DF0BD
S31508002F10E2FA4FF00009072C29D8A10005F00302B0
S31508002F208A40032303FA01F11B481DF0D4FA5EB365
S31508002F301A4A0123A3401360B8F1000F26D0184A95
S31508002F4013600122A2401749C1F8202407B3164A84
S31508002F501360BDE8F883A2F108094FEA890300FA6D
S31508002F6003F20321994011481DF0B5FAD3E74FEA59
S31508002F70890905F0030202FA09F2032101FA09F1A7
S31508002F800B481DF0A8FAD2E70A4AD2E70A4AD7E759
S31508002F900A4ADDE700C4035008C4035010D403509E
S31508002FA014D4035000E0035024D4035004C403503F
S31508002FB00CC4035010E4035014E4035024E40350F3
S31508002FC0F8B504460D461E4617463AB1FBB101222E
S31508002FD08A4000EB400109011D4B5A50072D1ED8A7
S31508002FE0A90004EB44031B0107FA01F20F2000FABB
S31508002FF001F1184818441DF06EFA3FB9FEB10122D6
S31508003000AA4004EB44042401114B1A51F8BD0122CD
S315080030108A4000EB400109010F4B5A50DEE7A5F143
S3150800302008039B0004EB440C4FEA0C1C07FA03F256
S315080030300F219940094860441DF04DFADDE7012249
S31508003040AA4004EB44042401034B1A51DEE700BFEF
S3150800305040D0035034C0035040E003503CC00350F6
S3150800306010B516201EF085F8074B00245C65FF2274
S315080030709A625C6021462020FEF7F4FF2146212053
S31508003080FEF7F0FF10BD00BF0000045029B9044A3E
S31508003090012303FA00F010607047024AF8E700BF00
S315080030A0401004504020045010B504460121202049
S315080030B0FEF7D8FF01212120FEF7D4FF114B01228C
S315080030C05A60227812069A606178A27842EA01422A
S315080030D09A61FF229A6200229A631A644FF00042AC
S315080030E05A6503F500534FF0FF321A65162001F0B2
S315080030F015FBE17816201EF044F816201EF03DF860
S3150800310010BD00BF0000045070B50C46C3B20125BF
S315080031109D40214901F500531D65830003F1A04335
S3150800312003F5882326685E60637B00EB400C01EBA1
S315080031300C1CCCF8603094F80AE0E37A1B0543EAE5
S315080031400E4394F80CE043EA4E53CCF85C3022F078
S315080031500302CCF8702023F07FFB104B5D65237AC1
S315080031600BB10E4B1D64637A0BB10C4B9D6323792F
S31508003170A27942EA0342084B03F500518A6194F8A2
S3150800318005C0E27942EA0C4203F58054A2614D6318
S315080031909D6423F05CFB70BD0000045000100450D1
S315080031A010B5C0B20124844023F056FB044B5A6D77
S315080031B022EA04025A659C6223F049FB10BD00BF4F
S315080031C00000045010B5C0B20124844023F044FB2B
S315080031D0084BDB6A234205D1064B5B6B9C4306D042
S315080031E0002400E0002423F032FB204610BD012411
S315080031F0F9E700BF0000045070B50446C3B20125C4
S315080032009D4023F029FB084B5E6B04EB440403EB5B
S3150800321004135C6E23F01BFB354203D1C4F30A107A
S31508003220013070BD0020FCE70000045041B90630AB
S31508003230084B53F8200020F0F8004004400C704773
S315080032401230044B53F8200020F0F8004004400CDC
S31508003250704700BF0080035070B50446C2F30626C7
S3150800326002F0070241B942EA062242F44022063435
S31508003270094B43F8242070BD114630461DF067F906
S31508003280054630461DF035F945EA00251234024B4D
S3150800329043F82450EFE700BF0080035010B40C46F3
S315080032A081B90E4942EA034241F8202064B90C4923
S315080032B0D1F84836012282401343C1F848365DF8F2
S315080032C0044B70470749EDE70549D1F848360C30F5
S315080032D0012282401343C1F84836F0E74CC6035032
S315080032E000C003507CC6035010B4084C063054F88E
S315080032F0203023F0706323F4702343EA024343EA41
S31508003300016344F820305DF8044B70470080035091
S31508003310054B1868B0F1FF3F04D1044BD3F894006D
S31508003320014B1860704700BF9066002000400050AF
S31508003330094B4FF480325A6603F5E6239B69C3F3BB
S31508003340461203F00F010A434280C3F30342427058
S31508003350C3F30333037070470090005070B50446FA
S315080033600D461646037841782C4AD2F810236A1E71
S315080033700E2A09D8DFE802F00A0A0A0A0A0A0A0A1D
S315080033800A0A0A0A0A0A0A00002200E02A463DB189
S3150800339016B30120884003EB43031B012049C8509C
S315080033A06178072920D82378890003EB43031B019A
S315080033B08A400F2000FA01F11A4818441DF004F952
S315080033C04DB906B3237862780121914003EB430394
S315080033D01B01134AD15070BD0120884003EB4303FB
S315080033E01B011149C850DBE723780839890003EB2C
S315080033F043031B018A400F2000FA01F10B481844C9
S315080034001DF0E2F8DCE7237862780121914003EBAE
S3150800341043031B01044AD150DDE700BF00C0035037
S3150800342040D0035034C0035040E003503CC0035022
S315080034302DE9F84305460C46164690F80080407874
S315080034402F4BD3F81033B1F1FF3F2FD0002C2ADBD6
S31508003450072C32DC4FEA8409032707FA09F708FA2A
S3150800346009F2394627481DF0AFF86A7802F00302D8
S3150800347002FA09F2394624481DF0A6F816F0050F97
S3150800348031D00123A340214AC2F8103416F0060FA2
S315080034902FD00123A3401D4AC2F814340123A340A8
S315080034A01B4AC2F820342046BDE8F883144BD3F8EB
S315080034B024141DF097F80446C8E7A4F10807BF00CE
S315080034C04FF0030909FA07F908FA07F249461148BD
S315080034D01DF07AF86A7802F00302BA4049460E48A7
S315080034E01DF072F8CAE70123A340094AC2F810344E
S315080034F0CCE70123A340064AC2F81434CEE700BF3E
S3150800350000C0035000C4035008C4035000D0035041
S3150800351000E0035004C403500CC40350114BD3F805
S31508003520302422EA0002C3F83024D3F830240140BC
S315080035300A43C3F83024D3F82C240243C3F82C24B6
S31508003540A3F56033DB6E03F03003202B06D0064A62
S31508003550D36E23F0300343F01003D366034BC3F84E
S315080035602004704700C003500040005000E003509C
S3150800357070B505460C461646134BD3F810331DF0A6
S3150800358049F8B4F1FF3F09D0B0F1FF3F17D08442A4
S3150800359017D1B4F1FF3F03D1204670BD0446F3E7C7
S315080035A086F0010203212846FFF7D8FE04F110032E
S315080035B006FA03F101209840FFF7B0FFECE704464E
S315080035C0EAE74FF0FF34E7E700C00350074B9B6874
S315080035D013F0020FFAD1054B5B6813F0020FF5D111
S315080035E0024BDB69002BF1D1704700BF00800A50FF
S315080035F0074B5B68064B5B6813F0010F03D0044B5F
S31508003600DB69002BF6D1024B02221A61704700BF14
S3150800361000800A5008B5FFF7D9FF034B03F5805120
S3150800362001224A601A6108BD00800A5008B5054B98
S315080036305B68012B00D008BDFFF7DAFF024B0122B9
S315080036405A60F8E700800A5000A00A5010B50446F0
S31508003650FFF7BCFF084B5B68012B05D0237843B105
S315080036600122054BDA6010BDFFF7E0FFFFF7AEFF5A
S31508003670F4E70022F5E700BF00800A5038B5054692
S315080036800C4622F0ADF9DDB92378D3B1012362687F
S3150800369012B1127843EAC2036278A2B10222134336
S315080036A0A26812B1127843EA8213E2786AB1042258
S315080036B01343226912B1127843EA4223044A9364F7
S315080036C038BD0023E3E70022E9E70022F0E700BF60
S315080036D000800A502D2824D8DFE800F0172323237A
S315080036E0232323232323232323232323232323239C
S315080036F0232323232323232321231B232325232394
S3150800370023231D232323231F23190848704708480A
S31508003710704708487047084870470848704708487F
S315080037207047084870470848704700BFD46E0208BB
S31508003730446D0208586D0208806D0208986D0208EB
S31508003740B86D0208D06D02081C6D020810B5044653
S315080037504FF4387200211FF0EDF98023C4F88C303D
S31508003760054BC4F88430012384F8883004F19C00A2
S315080037701CF0BDFA10BD00BFE06D020810B4D0F809
S31508003780A040B4FA84FC4FEA5C1C0C46B1FA81F1FD
S3150800379049098C4506D0C0F8A040C0F8A43022B12B
S315080037A0C0F884205DF8044B7047014AF8E700BF6B
S315080037B0E06D020810B503460846D3F8A0202AB1E2
S315080037C0D3F8A41090470024204610BD18461DF0D3
S315080037D012FA04460028F7D0FFF77CFF0146024A92
S315080037E002481DF0A0FBEFE704820208C86E020833
S315080037F02DE9F04190F880601EB100263046BDE8FC
S31508003800F08105461CF048FF0028F7D1012385F80A
S31508003810803095F8883023B9002385F8B432B0464D
S315080038201BE0002385F88830D5F8841023481DF05E
S315080038307AFBF1E71DF05BFB044617E028461CF00F
S3150800384028FF3946284600F0F1FB064601E04FF00E
S315080038500108B4F1FF3F12D08EB9D5F8B842B4F1D9
S31508003860FF3FE7D04FF0FF33C5F8B832B4F1FF3F5A
S31508003870EDD014F0FF07E1D14FF00108E9E75EB992
S31508003880D5F89420D5F88C30013B9A420DDA0023FE
S3150800389085F880304646B1E728461CF0FFFE01232E
S315080038A085F8883085F8B432F1E71C20FFF712FF57
S315080038B00146034A03481DF036FBE8E75CA1020807
S315080038C004820208C86E0208F8B506460D46174671
S315080038D00B78302B0DD04FF0000C15F80C30002B60
S315080038E04AD0364CE35C13F0040F65D00CF1010C9A
S315080038F0F3E74B78782B04D0582B0CD04FF0000CFC
S31508003900EBE70222AB5C43B12C49CB5C13F0440FC6
S3150800391050D00132F6E70222F4E7724206F00303BA
S3150800392002F0030258BF5342032B16D128461FF054
S3150800393019F90238013608D4B310B0EBA60F06D031
S315080039409842ACBF0020012037E00336F4E7A87898
S3150800395037288CBF002001202FE028461FF002F9E7
S31508003960831E3246002E05DBB3EBA20FD4BF01201F
S31508003970002022E0F21CF7E70A22002128460FF071
S31508003980C5FC02460C46202E10D027B1084302D0AB
S31508003990013A61F100040123B340013B1340002CB6
S315080039A008BF93420CBF0120002006E0B1FA81F05F
S315080039B0400902E0002000E00020F8BDBD650308CC
S315080039C003787B2B1CD14FF0000C0122835C7D2BE6
S315080039D00ED00E49C95C11F0440F03D00CF1010C4E
S315080039E00132F3E7202B01D0002070470132EDE7C2
S315080039F01044437833B91CF0010F05D101207047F4
S31508003A00002070470020704700207047BD650308F6
S31508003A10212816D821283AD8DFE800F0113B191BCF
S31508003A201D1F212339393939393939392527292BA0
S31508003A302D2F313339393939393939393537184824
S31508003A407047FE2827D0FF2827D116487047164802
S31508003A507047164870471648704716487047164804
S31508003A6070471648704716487047164870471648F4
S31508003A7070471648704716487047164870471648E4
S31508003A8070471648704716487047164870471648D4
S31508003A90704716487047164870471348704700BF66
S31508003AA09C6E0208986E0208F46D0208FC6D020806
S31508003AB0046E02080C6E0208146E02081C6E0208D8
S31508003AC0206E02082C6E0208386E0208446E020840
S31508003AD04C6E0208586E0208646E0208706E020880
S31508003AE0786E0208846E0208E46D0208EC6D02081E
S31508003AF0906E020870B506460D461FF033F8044668
S31508003B0030461DF010FA03E003481DF00CFA0134A4
S31508003B10AC42F9D370BD00BFA46E02082DE9F84F78
S31508003B20044600213248FFF7E5FF14212068FFF715
S31508003B30E1FF636858681DF0F6F92E481DF0F3F9A1
S31508003B4063681A7BFD2A51D803F10C09D3F808A03B
S31508003B5050461FF007F880464FF0FF34002510E066
S31508003B602B201DF0D4F936E01DF0D1F901341AF8EE
S31508003B7004001F2801D04445F6DB1E481DF0D3F982
S31508003B800135AB4619F80560FF2E2FD03046FFF7F2
S31508003B903FFF0746B8F1000F00DD0134202EEFD0B5
S31508003BA0134E00213046FFF7A5FF14213046FFF7D4
S31508003BB0A1FF11481DF0B7F9104938461EF0DAFF83
S31508003BC000B90F4F39460F481DF0ADF9CB449BF8A5
S31508003BD00130202BC4D00C481DF0A5F9B8F1000F10
S31508003BE0CBDD1AF804301F2BC7D0C0E7BDE8F88F25
S31508003BF0D46E020804820208AC6E0208846E0208BB
S31508003C00A86E02085CA10208B06E02082DE9F04F02
S31508003C109FB08146069107921C460393289E1EF084
S31508003C20A1FF80460023236033600AAA09A94846F3
S31508003C301DF0A2F9002840F0C4800A981EF092FFF1
S31508003C402060D9F89C5000231C4605939A46049593
S31508003C50A7E000242AE0013428E0099B013B5345EC
S31508003C6051D00F68346802981EF07CFF0444013472
S31508003C70346001E001333360336819F80320002A01
S31508003C80F8D00AF1010A019C10E0059B013305935F
S31508003C902A46DDF81CB05946069D28461CF07BF8D6
S31508003CA04B4A594628461CF076F8013404EB44037F
S31508003CB007EB830B57F82330002B37D0099B534566
S31508003CC034DB9BF80830002BC5D1D9F8942033682B
S31508003CD0D21A039B1A601EAB03EB8A0353F8503CB7
S31508003CE00293DBF80050294618461EF0E7FE0190BD
S31508003CF00028DAD128461EF035FF0090DBF80410BC
S31508003D000A7BFE2AA9D0D9F8943030681B1A009885
S31508003D1083420EDC06981EF025FF009B03447B2B8E
S31508003D20B3D92C4A079906981CF035F84B464246F3
S31508003D302CE0FE2AB9D1099B013B5345B5D10F6842
S31508003D400094CDF808A0019C059DDDF818A0DDF8C3
S31508003D501CB004EB440357F823205AB15946504681
S31508003D601CF019F81A4A594650461CF014F8013541
S31508003D700134EEE7009CDDF808A00595C6F800803A
S31508003D800023039A1360D1E70133013A002A05DDBF
S31508003D9019780029F8D120211970F5E7049B1B68CA
S31508003DA00493049B7BB1049B9F68002FF6D019F8F7
S31508003DB00430202B7FF44DAF336801333360013470
S31508003DC0F5E70023059305981FB0BDE8F08F00BFFF
S31508003DD0A46E0208B46E02082DE9F04786B00446C0
S31508003DE00F4616461D46DDF83890DDF83C80002360
S31508003DF08DF817302B6089F8003088F800302B686A
S31508003E0052F8231016481CF070FE40B92B6801338F
S31508003E102B604FF0010AD4F89C40002003E04FF0D5
S31508003E20000AF8E7246894B1A0680028FAD0CDF80B
S31508003E300C80CDF80890019500963B460DF11702C7
S31508003E4000211CF056FE9DF81730002BEAD0BAF177
S31508003E50000F02D0012388F8003006B0BDE8F087CD
S31508003E60BC6E020870B5ADF5447D04460021A491E8
S31508003E707C22A5A81EF05EFEA3AB0093A2AB80220F
S31508003E80A4A92046FFF7C2FE012804D0012840DC79
S31508003E900DF5447D70BDA4A81EF064FE0546A299E2
S31508003EA0431AA39A0A442244A4A8014404E011F838
S31508003EB0010B02F8010B013B002BF8DC0023137001
S31508003EC0D4F890600AE0D4F8901020461CF065FFFC
S31508003ED0D4F890300133C4F890300136A29AA39BE7
S31508003EE01344B342EFDCD4F89430AD1A2B44C4F82B
S31508003EF09430D4F890302B44C4F89030A4AB9C1876
S31508003F0004E014F8010B1DF002F8013D002DF8DC61
S31508003F10BEE78022002102A81EF00CFE4FF40072B4
S31508003F20002122A81EF006FE0125002300E0013329
S31508003F3003F544726A4412F8802C3AB1202AF6D165
S31508003F405A1C22A941F825200135F0E722AA42F891
S31508003F502530A4A81EF006FE002115E0013222AB8A
S31508003F6053F82230834209D00B4403F544736B445B
S31508003F7013F8803C6345F1D0002300E0012363B1C8
S31508003F8002AB03F801C001318D4209DB01F5447328
S31508003F906B4413F880CC0022E1E702AB00225A54A6
S31508003FA0D4F890500AE0D4F8901020461CF0F5FE9C
S31508003FB0D4F890300133C4F890300135A29BAB4257
S31508003FC0F1DC2346174AA4A917481CF0ACFF02A83F
S31508003FD01EF0C8FDA29AA39B1344E11802AB9D18D4
S31508003FE0821A0EE015F8013B01F8013BD4F890302F
S31508003FF00133C4F89030D4F894300133C4F89430BF
S31508004000013A002AEEDC00230B70A29C02AB1D19B4
S31508004010041B04E015F8010B1CF079FF013C002C89
S31508004020F8DC35E7E06D0208C46E02082DE9F041B8
S3150800403004460D46D0F89070D0F8946090F8983001
S31508004040012B0AD0012B0ED9022B00F0BC80032BC2
S3150800405000F0C8800020BDE8F0810A29F2D10020CE
S3150800406084F89800F7E71B2D26D00D2D29D00023BC
S3150800407084F89830082D28D07F2D60D00D2D7ED05D
S315080040800A2D7CD0092D00F08780D4F88C30013BAE
S31508004090B34240F3DA80B742C0F28380E555013770
S315080040A0C4F89070D4F894300133C4F89430284694
S315080040B01CF02DFF0020CEE7022384F8983000205C
S315080040C0C9E7012384F89830D6E79F4203DDB74253
S315080040D00AD0B74216DB002F00F0B580C4F89070FE
S315080040E0C4F894600020B6E708201CF010FF2020D2
S315080040F01CF00DFF08201CF00AFF013F0023E355C2
S31508004100013EEBE707F1FF3808201CF000FF04EB3F
S315080041100805A6EB0802E11928461EF0F1FC002363
S31508004120A35529464B481CF0FEFE013E354602E0E3
S315080041301CF038FE013D4545FADC4746CEE7002E21
S3150800414001DDB74201DB002085E7E519791CF21B82
S31508004150214428461EF0D4FC0023A35529463E4890
S315080041601CF0E1FE03E008201CF0D1FE013EBE4231
S31508004170F9DCD4F89430013BC4F89430E3E70D2019
S315080041801CF0C5FE0A201CF0C2FE0023C4F89030BD
S31508004190C4F8943001205EE72046FFF763FE00204E
S315080041A059E7781C04EB0708F21B414620441EF029
S315080041B0A7FC40461CF0B7FE02E01CF0F3FD013EEA
S315080041C0BE42FADA6AE75B2D04D1032384F89830F5
S315080041D0002040E7002384F8983029462046FFF758
S315080041E025FF38E7002384F89830413D032D2ED863
S315080041F0DFE805F002080F1E012120461CF027FE05
S31508004200002028E74FF0FF3120461CF020FE002052
S3150800421021E7B74201DB00201DE7394620461CF09E
S31508004220BCFDD4F890300133C4F89030002012E772
S31508004230002F01DC00200EE7013FC4F890701CF047
S31508004240B1FD002007E7002005E7002003E700206E
S3150800425001E700BFD06E0208D86E020808B502480A
S3150800426002F048F808BD00BFDC6E020838B50546FE
S315080042700C4689681CF024FF40B900231A461946E3
S315080042802068FFF77BFA0023637638BD2946204667
S315080042901CF01FFF0028F8D1014802F02BF8F4E7BC
S315080042A0E06E020808B500680DF0BCFC01491CF078
S315080042B0F8FE08BD5D42000808B500680DF0B2FCBE
S315080042C0837E03B108BD012343760346426802494B
S315080042D00068FFF753FAF5E76D42000810B50DF0D0
S315080042E0A1FC0446807E50B1E1692369994207D34F
S315080042F0E069236998422CBF00200120A07610BDF2
S31508004300034A20461CF0BDFEE3690133E361EFE78B
S31508004310C910020800B583B0094B93E80300009062
S31508004320ADF80410090C8DF806106846FEF790FBE8
S315080043300920FEF7CBFB002003B05DF804FB00BFA5
S31508004340146F020810B58AB0EC461B4C0FCCACE8CB
S315080043500F000FCCACE80F0094E803008CE80300CC
S31508004360164BD3F84C3113F4002F07D0144B1C8886
S315080043704FF6FF739C4205D1642403E00F4BD3F834
S315080043805041E4B28DF81940FEF796F8241803D484
S31508004390FF2C02DDFF2400E000248DF818400948B0
S315080043A0FCF762FE6846FDF77BFF3220FEF74EF902
S315080043B000200AB010BD00BF1C6F02080080E00F85
S315080043C00001E00FC017530210B586B00DF1040CBA
S315080043D0124C0FCCACE80F002368CCF80030104B19
S315080043E0D3F84C3113F4802F07D04FF07E6393F83F
S315080043F09C30FF2B06D1232304E0094BD3F8503118
S3150800440003F4FE038DF8053001A8FEF7D5F832202F
S31508004410FEF716F9002006B010BD00BF446F02086B
S315080044200080E00F10B501F083F9044608B1204674
S3150800443010BD01F011FA22F0A7F84FF4167303FB2A
S3150800444000F000F5742000F23F200B4BA3FB003070
S31508004450800C0A4B186000230BE0084A10680849CC
S3150800446041F82300106807490A6802440A600133C4
S31508004470DBB2092BF1D9DAE783DE1B43080E0020ED
S31508004480DC0D0020D80D002008B5044B01221A7057
S3150800449022F085FB024B186008BD00BFED650020C1
S315080044A0D40D002010B522F06FF8044622F0C1F9A9
S315080044B0844200D810BD22F07EFB0028FAD0034AB9
S315080044C01060034B01221A70F4E700BFD40D0020D8
S315080044D0ED650020274B1B7803B9704770B522F0AD
S315080044E05EFB254B1B68C01A244B18601B68002B03
S315080044F03AD0224B1B68214C236022F045F84FF432
S31508004500167303FB00F000F5742000F23F201C4BE5
S31508004510A3FB003023682368B3EB904F26D81948CD
S315080045200378194C54F82320144D2968511A174E4C
S315080045303268521A3260296844F82310093214493D
S31508004540A1FB0242D208134C22600133DBB203708E
S31508004550A1FB0312D20802EB8202A3EB420303700B
S31508004560044B00221A7070BD0123C4E7014B0022D8
S315080045701A70F8E7ED650020D40D0020040E00201F
S3150800458083DE1B43EE650020DC0D0020D80D0020DD
S31508004590CDCCCCCC080E0020014B1868704700BF64
S315080045A0080E0020F8B503212D201CF0EAFD0F4B5C
S315080045B04FF480125A660E4C04F500550D4F6F677E
S315080045C004266E672F672E672D2000F0A7F82D208A
S315080045D01CF0D3FD04F580535F675E674FF00072E9
S315080045E0AA624FF480529A62F8BD00BF009000504C
S315080045F00040005A010000A0024603E000231846C6
S3150800460063B95AB1064B9B6D13F0050FF6D0054BEF
S315080046101B780BB10023F2E70123F0E7704700BFD0
S315080046200040005AEF65002010B5184B1C6F14F0B7
S31508004630040111D003F500521167082191629B6DA0
S3150800464013F0010F13D000F089FF00F067FF012077
S3150800465021F0E0FF22F0B3FA14F001030AD114F0B6
S31508004660005301D00A4A1367002C0ADB10BDFFF776
S3150800467019FFE8E7064A1367FFF72CFF00F04EFF1D
S31508004680EDE704F00044024B1C67EFE70040005AD0
S315080046900060005A002808DB0901C9B200F1604031
S315080046A000F5614080F80013704700F00F0009011B
S315080046B0C9B2014B1954704714ED00E0002807DB16
S315080046C000F01F02400901239340024A42F82030B5
S315080046D0704700BF00E100E000280CDB00F01F0275
S315080046E04009012393402030034A42F82030BFF3A3
S315080046F04F8FBFF36F8F704700E100E04211064B02
S3150800470053F8223000F01F0023FA00F080F0010071
S3150800471000F00100704700BF00E100E0002808DB58
S3150800472000F01F024009012393406030014A42F815
S315080047302030704700E100E010B522F08DF80B4BF1
S315080047401B783BB9094B01221A7022F080F86FF0EA
S31508004750040408E022F07BF807E0052120461CF057
S3150800476010FD013464B24E2CF7DD10BDF065002053
S3150800477010B5044622F070F8024B1C6022F067F868
S31508004780002010BD0C0E002010B522F065F8034B72
S315080047901C6822F05CF8204610BD00BF0C0E0020F5
S315080047A038B50C461546014640B12B462246064802
S315080047B001F0F0FD002805DD002038BDFFF7E4FF15
S315080047C00146F2E73720F8E70B12020810B501296F
S315080047D005D9022917D1164B1C68B83C17E0144BAB
S315080047E01C68B83C0CE0D4F8A80022F05EF8D4F8AF
S315080047F0A430052118681BF037FED4F8B840B83C39
S3150800480014F1B80FEFD110BDD4F8B840B83C14F184
S31508004810B80FF8D094F89730002BF5D194F8953066
S31508004820002BF1D1D4F8A80022F044F8ECE700BF39
S31508004830100E002038B50446D0F8A4301D68AB6CBD
S3150800484013F0400FFBD000231A4694F8AD1094F8E5
S31508004850AC00FEF7B5FB00231A4694F8AF1094F89F
S31508004860AE00FEF7ADFB94F8B43013F0010F1CD17F
S3150800487094F8B43013F0020F20D105F50053012245
S315080048801A6504221A65002128461BF0EDFDD4F8A6
S31508004890A80022F00FF8104D04F1B80128461BF0C5
S315080048A03DFA2B689BB1002038BD00231A4694F8C0
S315080048B0B11094F8B000FEF783FBD9E700231A4637
S315080048C094F8B31094F8B200FEF77AFBD5E70348DC
S315080048D000F054FDE7E700BF100E0020140E00207C
S315080048E010B50379012B12D0022B12D158240121BD
S315080048F02046FDF7B7FB0C4AD2F8283123F0070308
S3150800490043F00103C2F82831562C04D010BD5724B1
S31508004910EDE75624EBE7D2F8203223F0070343F0FD
S315080049200103C2F82032F1E70080005010B5037980
S31508004930012B0DD0022B0DD1582401212046FDF75D
S3150800494091FB01213620FDF78DFB562C04D010BDB6
S315080049505724F2E75624F0E7044AD2F8203223F027
S31508004960070343F00303C2F82032F0E70080005043
S315080049702DE9F0418EB007460E4614461D461368CB
S31508004980D3F8008091F83130002B4BD00DF1180C7C
S31508004990DFF864E2BEE80F00ACE80F009EE80F00FF
S315080049A08CE80F002046FFF79BFF00230093019336
S315080049B00293039304930593A3680893237B012B1F
S315080049C040D0022B41D14FF44073ADF82630607BBE
S315080049D01CF028FCADF82800CDF834D001238DF85A
S315080049E00630A37B022B04D0032B02D0012B00D068
S315080049F000238DF80030B36B754A1A60B36B754A9D
S31508004A005A60B36B744A9A60B36B744ADA6032467A
S31508004A102946384600F0DCFA0746C0B138460EB0DB
S31508004A20BDE8F0810DF1180CDFF8D0E1BEE80F0003
S31508004A30ACE80F009EE80F008CE80F002046FFF751
S31508004A4075FFB2E74FF40073BFE70023BDE723699C
S31508004A50C5F8A830237E85F8AF30E37D85F8AE30FB
S31508004A60A37D85F8AD30637D85F8AC30A37E85F8E7
S31508004A70B130637E85F8B030237F85F8B330E37EA6
S31508004A8085F8B2302368C5F8A430554821F00DFFE3
S31508004A9001230422A17D607DFEF792FA01230222FA
S31508004AA0217EE07DFEF78CFA002385F8B430206974
S31508004AB021F0FBFE96F83130002B65D006A940465A
S31508004AC01BF0FDFC95F8B43043F0040385F8B430C8
S31508004AD0227D444B263203EB421214215160617D3C
S31508004AE0A07D227D41EA004103EB4212C2F8DC14A4
S31508004AF0E27D207E217D42EA004203EB4113C3F8A2
S31508004B00D424A37B012B44D0032B42D0A37B023BA6
S31508004B10DBB2012B4AD995F8B43013F0010F0CD04B
S31508004B20627EA17E237D42EA01425B0103F1A04336
S31508004B3003F5703341F2CC415A5095F8B43013F06E
S31508004B40010F10D0237D274AA63302EB4313022117
S31508004B505960E37E207F217D43EA004302EB411240
S31508004B6041F2D0415350204B1B6863B305F1B8019D
S31508004B701D481BF0BFF808F500531C4ADA640521E6
S31508004B8040461BF071FC49E706A940461BF09DFC10
S31508004B909EE795F8B43043F0010385F8B430002356
S31508004BA00222A17E607EFEF70BFAAFE795F8B430D5
S31508004BB043F0020385F8B43000230422217FE07E07
S31508004BC0FEF7FEF9A7E70A490A4800F0C7FBCDE752
S31508004BD04D120208851202086712020835480008B5
S31508004BE0606F020800C00350100E0020FF3F0D033F
S31508004BF094660020140E0020906F0208B06F020819
S31508004C0030B583B0007D104B00EB400203EB021277
S31508004C10D56E00EB400203EB02131C6F0DF1070182
S31508004C2020F096FE9DF807304BB904F00204074BB6
S31508004C309D4201D0002003E024B1002000E00120BD
S31508004C4003B030BD0120FBE700000450F1650020E9
S31508004C50037D0E4A03EB430102EB0111C96E03EB18
S31508004C60430302EB0312136F03F00203084A91424F
S31508004C7001D0002070470BB900207047036A006D09
S31508004C80984214BF00200120704700BF000004505E
S31508004C90F165002038B5047D2046FCF789FE04EB53
S31508004CA044031B0103F1A04303F58023DB6E044D87
S31508004CB0ED1A18BF01252046FCF79AFE284638BD8E
S31508004CC0F165002030B583B003464169026902F1F7
S31508004CD0FF3CC5684C6F01F17C020020C867506034
S31508004CE09060D060B1F87C006CF30E10A1F87C00DF
S31508004CF091F87E0040F0100081F87E0091F87F0060
S31508004D0040F0300081F87F00C1F88050C1F8844037
S31508004D10012081F88C0091F878000093024B6431E9
S31508004D20FCF71AFE03B030BD091702082DE9F04159
S31508004D3084B0044600F1380600F11808002585639A
S31508004D407560B560F56090F83A3043F0100380F866
S31508004D503A3090F83B3043F0030380F83B30494F34
S31508004D60C7630764007DFCF723FEA5637560B5601D
S31508004D70F56094F83A3043F0100384F83A3094F822
S31508004D803B3043F0030384F83B30E7632764207D18
S31508004D9000EB40031B0103F1A04303F58023DB6E00
S31508004DA0BB4219D00DF10F0120F0D2FD9DF80F304E
S31508004DB0ABB194F844306FF3410384F8443000945F
S31508004DC0314B32462146207DFCF7C6FD207DFCF797
S31508004DD00FFE04B0BDE8F081FCF70AFEF9E72046AD
S31508004DE01CF0BFFA054602A9207D20F0D5FD029BDE
S31508004DF0591E20690023A361E36123626362228B43
S31508004E0061F30E122283A27E42F01002A276E27E9F
S31508004E1042F00302E276E0612562227D1B4902EB3D
S31508004E20420001EB0010056FC5F3400594F82470A5
S31508004E3065F3410784F82470A57E63F30415A57607
S31508004E40056FF8B265F3000084F8240002EB42020D
S31508004E5001EB02110A6F9210616A62F39F016162A7
S31508004E6094F8442042F0020284F84420D2B263F354
S31508004E70000284F844204FEAA808636C68F39F038D
S31508004E8063649CE7F1650020711502080000045070
S31508004E90F0B587B004460E46007DFCF789FD20462E
S31508004EA0FFF7AEFE074620461CF05BFA0546236D63
S31508004EB083424AD2A26C934216D0238DC3F30A12B8
S31508004EC0324462F30E132385236D1E442665A26CB5
S31508004ED0E36C13449E426DD0236DAB426CD0207DAB
S31508004EE0FCF786FD07B0F0BD701ED4F810C004F1BB
S31508004EF028030021A162E16221636163278D60F3C3
S31508004F000E17278594F82A0040F0100084F82A0026
S31508004F1094F82B0040F0030084F82B00C4F82CC04A
S31508004F20226394F82A2061F3041284F82A2023F0D5
S31508004F300302237D42F0020203EB43031B0103F144
S31508004F40A04303F580231A67BEE7B7B9227D1E483A
S31508004F5002EB420300EB0313596EC1F30A11314405
S31508004F605B6E23F4FF4323F0700343EA011302EB5D
S31508004F70420200EB02104366A6E70494134B039320
S31508004F8000230293019601230093236902462168B0
S31508004F90207D1BF004F8237D0B4A03EB430102EB4B
S31508004FA00111496E21F4801103EB430302EB03124E
S31508004FB0516689E722658FE7012384F85430204635
S31508004FC0FFF7B4FE8BE700BF000004507115020816
S31508004FD070B588B006460C461546A4220021204620
S31508004FE01DF0A8FDA446AE46BEE80F00ACE80F00CB
S31508004FF0DEF80030CCF8003004F1640C05F1140E2C
S31508005000BEE80F00ACE80F00DEF80030CCF8003040
S31508005010AB6AA364EA6AE264236595F8302084F8EB
S31508005020992095F8332084F89A20C4F89C300123F7
S3150800503084F8A03084F85430AB6B236695F8313089
S3150800504084F898303460464B7360464BB360464BE1
S31508005050F360464B7361464BB361464B3361FCF7CD
S3150800506049FC10B1444A904270D1002107A8FCF7C8
S31508005070BFFB00286CD19DF81C302375002107A8BA
S31508005080FCF7B6FB00285CD19DF81C3084F8783014
S315080050903A4B7362012384F8A130394AF261394ADE
S315080050A03262002284F8962084F8953095F83210FA
S315080050B020461CF031F9AB6B93F91100FFF72EFB74
S315080050C0AB6B93F911001CF058F8207DFCF770FCC7
S315080050D0002840D1E36C04942B4A039200220292E2
S315080050E00193012300932369A26C2168207D1AF09D
S315080050F056FF90BB237D03EB43031B0103F1A0433B
S3150800510003F5802342F264024FF480119950AB6B89
S3150800511093F91000FFF702FBAB6B93F910001CF034
S315080051202CF804F190001AF0E2FD3046FFF720FB58
S315080051302046FFF7FBFD207DFCF75AFC48B11020FE
S3150800514007E0207DFCF7ACFB102002E0102000E011
S31508005150102008B070BD1020FBE71020F9E700BF4B
S31508005160171502082B150208D11602080D13020896
S31508005170131302084D170208038000F0AF13020844
S31508005180191302085D1302087115020838B5056877
S315080051902C7D2046FCF70CFC04EB44031B0103F1B1
S315080051A0A04303F58023DA6E114B9A4203D02046BA
S315080051B0FCF71EFC38BD2846FFF722FD70B121F02A
S315080051C04BFB0122A2400B4B03F500514A6503F540
S315080051D080539A625A6321F03AFBE8E72846FFF7BC
S315080051E037FD0028E3D10123A340024A9364DEE792
S315080051F0F16500200000045000B583B0684600F051
S3150800520025F8094B1B7853B9084B022201990098D7
S315080052101CF0EFFD20B9044B01221A7000E01220A1
S3150800522003B05DF804FB00BFF26500201C0E0020E9
S3150800523000B583B0009313460A46014602481CF09F
S315080052402EFB03B05DF804FB1C0E0020024901602A
S31508005250024A521A42607047A072002000000420D9
S31508005260BFF34F8F0549CA6802F4E062044B134343
S31508005270CB60BFF34F8F00BFFDE700BF00ED00E036
S315080052800400FA05BFF35F8F074B5A6A22F480328F
S315080052905A62D3F8942022F00102C3F89420BFF38F
S315080052A04F8FBFF36F8F704700ED00E070B5FFF7C3
S315080052B0E9FFA022002121481CF0BBFD204B214913
S315080052C08B4206D021F01F02203AB2F1005F0FD3BD
S315080052D000E01D4A1D4D286842F001021C4CC4F826
S315080052E098001C4EC4F89C60C4F8A02001302860C1
S315080052F08B4210D01F3323F01F0343F003031348D8
S3150800530002681349C1F89820C1F89C30124BC1F8BD
S31508005310A03001320260BFF35F8F0D4B0522C3F840
S3150800532094205A6A42F480325A62BFF34F8FBFF311
S315080053306F8FBFF34F8FBFF36F8F70BD90ED00E097
S31508005340806600208066002000000420440E0020AD
S3150800535000ED00E003000020E1FF032038B5044615
S31508005360416021F070FA0546214603481AF0C2FC4E
S31508005370284621F063FA38BD480E002038B50546A0
S3150800538021F061FA0446294603481AF0C7FC20466C
S3150800539021F054FA38BD00BF480E002008B502486F
S315080053A01AF0A5FC08BD00BF480E0020134B5B6E23
S315080053B013F4005F09D0124B9B6813F0100F04D04A
S315080053C00F4B5B6813F0010F10D10C4B9B6E13F457
S315080053D0003F0DD00B4B9B6813F0100F0AD0094BFA
S315080053E05B6813F0010F07D1002070470120704752
S315080053F00020704700207047012070470080005049
S315080054000040005B0080005B08B521F015FAFFF745
S31508005410CDFF174BDC6E24F0030444F00204DD6E66
S3150800542045F003054AF6E8521A66FDF787F9114A68
S31508005430136F23F0070343F0010313670120FDF7F9
S31508005440A3F90020FDF79CFA1CF01FFD002304E0D9
S31508005450074AD466D5660133DBB2032BF8D9044B69
S31508005460DC66BFF34F8FBFF36F8F30BFFEE700BF19
S31508005470004000500080005010B521F0E4F90446C1
S31508005480144821F012FA144B1B786BB100F0A0F8FF
S315080054901CF006FD114B18600F4B01221A702046AE
S315080054A021F0CCF9002010BD00F0BCF9FFF776FF1B
S315080054B021F09AFB0A4B00221A6021F065F8094B85
S315080054C01860094A536F43F0010353671CF0D1FC77
S315080054D0DCE700BF606F0208FF650020500E002061
S315080054E04C0E0020740E002000400050014B186836
