S02B00002F55736572732F6A65636C6F7574652F53696D706C696369747953747564696F2F73616E64626F781D
S3150800000000040020010B0008090A0108090A010872
S31508000010090A0108090A0108090A0108090A010862
S31508000020090A0108090A0108090A0108453E0108E2
S31508000030090A0108090A0108E93D01081F620108C1
S31508000040090A0108090A0108090A0108090A010832
S31508000050090A0108090A0108090A0108090A010822
S31508000060090A0108090A0108090A0108DD670008E2
S31508000070292B0108090A0108090A0108090A0108C1
S31508000080090A0108090A0108090A0108090A0108F2
S31508000090090A0108AD140008090A0108090A010835
S315080000A0090A0108ED100008CD100008090A010820
S315080000B0090A010805F40008D9FC0008D339010823
S315080000C0CF3901084DF40008E9390108D739010884
S315080000D0A9FC0008DB39010819FD000881FD0008A4
S315080000E0090A0108090A0108090A0108090A010892
S315080000F0D1160108090A0108090A0108090A0108AE
S31508000100090A0108090A0108090A0108090A010871
S31508000110090A0108090A0108090A0108090A010861
S31508000120090A0108090A0108090A0108090A010851
S31508000130090A0108090A0108090A0108090A010841
S31508000140090A0108090A0108090A01089774010839
S315080001500DE10008090A0108BD390108C33901087B
S31508000160090A0108090A0108090A0108090A010811
S31508000170013800D0FCE770472DE9F04F93B0CDE980
S315080001800A32DDE91C530E9353EC102BCDE9080116
S31508000190104619468DED060B1E9E06F049FF80B1E6
S315080001A0DDE906014FF0FF32C54B06F069FF40B99D
S315080001B0DDE906014FF0FF326FF4801306F042FFC7
S315080001C070B1DDE908019DED060B0E9B1E96CDE983
S315080001D01C53DDE90A3213B0BDE8F04F00F088B9C8
S315080001E00022DDE90601002306F02CFF002800F0B6
S315080001F03381DDE906A303F1004BCBF30A5016F46D
S315080002008063A0F2FF3008BF06250F9306F03EFC78
S315080002109BA3D3E9002306F0A3FC9BA3D3E9002301
S3150800022006F0E8FACBF31304894644F07F5180467A
S315080002300022A44B504641F4401106F0D9FA94A383
S31508000240D3E9002306F08CFC02460B464046494695
S3150800025006F0D0FA06F01EFF044606F017FC8EA339
S31508000260D3E900238046894606F07AFC0022964B9D
S3150800027006F0C0FA06F00EFF89A3D3E90023074665
S315080002804946404606F06CFC80463846894606F0E4
S31508000290FDFB85A3D3E9002306F062FC02460B4664
S315080002A04046494606F0A4FA02460B46CDE90C2319
S315080002B006F056FCDDE90C238046894610461946A9
S315080002C006F098FA0022CDE91001804B40464946CF
S315080002D006F070FD00227E4B06F08CFA02460B46AD
S315080002E04046494606F066FD00227A4B06F082FA39
S315080002F002460B464046494606F05CFDDDE90C23FE
S315080003008046894600204FF0804106F071FA024681
S315080003100B464046494606F06DFA02460B46DDE9AD
S31508000320100106F047FD07F2FF3700226A4B06F078
S3150800033061FA00223B0506F013FC52465B468046EE
S31508000340894606F09DFE002840F08980CDE90C8993
S3150800035004F16303C72B34BF0427052731051BD5D2
S3150800036053A3D3E900235046594606F07FFE0028DA
S315080003707FD051A3D3E900235046594606F062FEC2
S31508000380002876D00027A542C6BF2C1B04F1FF35EE
S3150800039000253C4646F480660E9B9F422CBF4FF0D4
S315080003A00008A3EB070816F0020903D0002F18BFB0
S315080003B04FF000083CB1DDE90C235046594606F0DB
S315080003C0F9FC82468B46DDE906010022002306F089
S315080003D039FE10B10BF100439B46DDE9080126F40E
S315080003E00063CDE90183DDE90A324BEC10AB0095D9
S315080003F000F07EF802465FB3DDE9091316F0200F18
S3150800040000F10105089E0CBF65204520B047DDE9CF
S3150800041008010523002205930A23002CCDE90232A0
S3150800042007F1FF374FEAD473B8BF64422A460193EF
S3150800043004970A9B009412F07FFA0246B9F1000F5E
S3150800044006D00B9BC41A0B9B1A190E9BA34245D8C0
S31508000450104613B0BDE8F08FDDE906ABCDE6002205
S31508000460404649461A4B06F0A5FC013CCDE90C016D
S315080004706EE7002D90D00F9B002B8DD0013D8BE7AA
S31508000480FB799F501344D33FB3C8608B288AC63F75
S3150800049061436F63A787D23F71A379094F930A40D7
S315080004A01655B5BBB16B0240EF39FAFE422EE63F50
S315080004B02D431CEBE2361A3F0000000080842E41D3
S315080004C0FFFFEF7F0000F83F0000E03F00002C40F0
S315080004D000002440000018400000F03F2020DDE91D
S315080004E00913089DA8470134ADE700BF00000000C6
S315080004F02DE9F04F5BEC10AB97B0CDE90501DDE9CE
S315080005002057CDE90723504652465B465946229E58
S3150800051006F08EFD70B90323CDE902760193B04B40
S315080005200093DDE90501DDE9072312F025F917B087
S31508000530BDE8F08F4FF0FF326FF4801350465946EE
S3150800054006F080FD28B10423CDE902760193A54B78
S31508000550E6E74FF0FF3250465946A34B06F090FDAA
S3150800056068B1A24A06F00403002B08BF0322A04B79
S315080005701CBF13460422CDE902760192D0E7504605
S3150800058093A3D3E90023594606F07AFD38B992A316
S31508000590D3E900235046594606F054FD68B1DDE913
S315080005A00723DDE905014BEC10ABCDE92176209553
S315080005B017B0BDE8F04FFFF7DFBD00220023504615
S315080005C0594606F03FFD002800F09A805B465246E1
S315080005D00020002106F00CF9012382468B46099378
S315080005E016F4806400F08E80092D40F28E80002477
S315080005F030210EABA5F109020134202C03F8011BAA
S31508000600A5EB040901D09442F6D15946504606F0A6
S3150800061041FD784B054603EBC90393ED007B8DED51
S315080006200A7B06F033FA02460B465046594606F050
S31508000630DFF8DDE90A2306F093FA02460B46CDE910
S315080006400C2306F04FFD804606F010FA02460B46CC
S31508000650DDE90C0106F0CCF802460B46CDE90C2381
S315080006600022654B06F00CFD002851D008F1010860
S31508000670404606F0FBF902460B46DDE90A0106F09C
S31508000680EBFC10B14FF000080135B9F1000F50D15D
S31508000690284606F0FBF902460B465046594606F030
S315080006A0A7F80022544B8046894606F0CBFC30B1A9
S315080006B0002240464946504B06F0E2FC10B1E807D6
S315080006C000D501350A210EAB1A19202C0AD095FB44
S315080006D0F1F001FB1055303502F8015B013405468F
S315080006E00028F2D106F00302012A57D1002F55D06F
S315080006F0099A12B916F00C0F00D0013F302245E0D6
S3150800070009906DE74FF006097FE7A94600247CE7C4
S315080007100022DDE90C01384B06F094FC0028B4D120
S31508000720B8F1000F02D018F0010FAED008F1010899
S31508000730ABE70A210EAB2344202C0ED0B8FBF1F010
S3150800074001FB1082B8F1090F02F1300209F1FF39F5
S3150800075004F1010403F8012B11D83021A1440EAA93
S31508000760202CAFD0A14504F101030AD11C4609F19A
S3150800077058030DEB03092E2309F8203CA2E780460F
S31508000780DAE7A1541C46EBE71A550134A74205D906
S31508000790202CF9D1CDE902760194C1E6202CF9D0B6
S315080007A0099A3AB12D2104F158026A4402F8201C2C
S315080007B00134EFE7710704D504F158022B216A4486
S315080007C0F4E73207E6D504F1580220216A44EDE73A
S315080007D00000000065CDCD410000000065CDCDC10B
S315080007E0B1780108B5780108FFFFEF7FA8780108FE
S315080007F0AD780108C07801080000E03F0348044BC3
S31508000800834202D0034B03B118477047883900204A
S315080008108839002000000000064B0749C91A8910CC
S3150800082048BF0131491003D0044B0BB101481847A2
S31508000830704700BF88390020883900200000000072
S3150800084010B5064C237843B9FFF7D8FF044B13B10C
S315080008500448AFF300800123237010BD6C360020D6
S315080008600000000014E5010808B5054B1BB1054951
S315080008700548AFF30080BDE80840FFF7CDBF00BFCD
S3150800088000000000C81E002014E50108A3F5803A00
S31508000890704700BF174B002B08BF134B9D46FFF749
S315080008A0F5FF00218B460F461348144A121A12F018
S315080008B0B8F90E4B002B00D098470D4B002B00D0F3
S315080008C098470020002104000D000D48002802D09A
S315080008D00C48AFF3008007F03BF82000290011F020
S315080008E004FF06F0AFFD00BF00000800000000008E
S315080008F000000000000400200004002084370020C7
S3150800090000000000000000002DE9F0415D4C92B0A7
S3150800091009AD94E80F0085E80F000DAA174604F103
S31508000920100304F1200C164618685968083303C6E4
S3150800093063453246F7D11868534B08A930601879D1
S3150800094016F0B0FC514816F0B2FC514816F0AFFC50
S315080009504FF4807308984F49ADF83430814228BF68
S3150800096001460C9710F003FB294602250A904A48CF
S3150800097002F056FB484810F0A2FA474810F0C8FAA9
S31508000980454810F0B1FAB4F82480012204216846DB
S31508000990ADF8008010F0BBF9E78C0022012101A810
S315080009A0ADF8047010F0B3F9268D0122042102A8CF
S315080009B0ADF8086010F0ABF90122042103A8374C02
S315080009C0ADF80C5010F0A3F9354B4FF44870C4F845
S315080009D0C8344FF00213C4F8C43403F58033C4F89E
S315080009E0CC341C23C4F8B43404F0CAFC07A8ADF808
S315080009F01C5000F05BFB142004F0C2FC07A8ADF8FD
S31508000A001C5000F043FB232004F0BAFC07A8ADF8FD
S31508000A101C5000F04BFBB9211F4810F09EFA07A89E
S31508000A20ADF81C5000F032FB002204A81146ADF8C0
S31508000A30108010F06CF9002205A81146ADF8147064
S31508000A4010F065F90122002106A8ADF8186010F02B
S31508000A505EF90122002107A8ADF81C5010F057F9DD
S31508000A600D4802F0A3FA00230948C4F8B434C4F8C0
S31508000A70C834C4F8C434C4F8CC3416F01BFC12B01D
S31508000A80BDE8F081F8740108D4770108BC7701083D
S31508000A90C0770108E070720000000A5000C00350D9
S31508000AA00200010008B5044816F001FC11F0F6FF33
S31508000AB0BDE80840FFF728BFBC770108014816F0D3
S31508000AC0F6BB00BFBC77010840B1054A1378012B75
S31508000AD004D8037001330020137070470120704753
S31508000AE06D3600200348044A0449121A92100FF082
S31508000AF08CBF00BF70010008700100088437002011
S31508000B0008B5154B83F30A8800F030F8FFF7EAFFBB
S31508000B10124B13498B4212D30020124B12498B42B7
S31508000B2018D3FFF7B7FE186850F82240586840F8FF
S31508000B302240013298688242F5D30C33EAE7002254
S31508000B40F8E71C6844F8220001325C68A242F8D330
S31508000B500833E4E70022F8E7000000201CE5010856
S31508000B6028E5010828E5010828E501084FF4804131
S31508000B70124B134A70B59A60D3F88820114D42F487
S31508000B807002C3F88820104A05F5005491664FF0A4
S31508000B90FF3222660D4A62660222C3F8D020BFF3EE
S31508000BA04F8FBFF36F8F4FF44036002003F09AFB48
S31508000BB00020E66003F07AFB2E6170BD00ED00E0D0
S31508000BC0000000080080004400900050F7FF37003E
S31508000BD0014B1860704700BF88370020054B186026
S31508000BE0054B1B6F03F00703032B01D112F04CBF13
S31508000BF0704700BF9037002000800050002307B5DB
S31508000C000193054B1B6815F0DEFE019B002BFCD0FB
S31508000C1003B05DF804FB00BF94370020EFF30583AB
S31508000C200F2B84BF034A9B5C4FF0E023D3F80C3D9F
S31508000C30704700BFF0E300E008B500216FF004003C
S31508000C4010F048FD14F096FF4FF47A7300F2E7307F
S31508000C50B0FBF3F0084B094A18604FF0FF33B3FBBB
S31508000C60F0F30A3B136016F0D2FB054B186001201F
S31508000C70BDE8084013F0F2B8D8240020D02400209C
S31508000C80D424002070B5D0B1C9B10E4E431E013927
S31508000C9013F8014F2046325D02F00302012A11F8CB
S31508000CA0012F08BF04F12000B55C05F00305012DEE
S31508000CB008BF2032801A01D1002CE9D170BD01206D
S31508000CC0FCE700BF25A3010808B503F043FB014B69
S31508000CD0186008BDB82A002001480FF0A4BE00BF5E
S31508000CE0BC2A00202DE9F0410E469046054608B379
S31508000CF005291FD8F2B116F0CFFA07460E4B1C6825
S31508000D006CB9012329460C482B752E71C5F8088045
S31508000D100FF08CFE384616F0BAFA204606E023791C
S31508000D20B34205D1384616F0B2FA2E20BDE8F08156
S31508000D302468E5E72120F9E7BC2A002070B50546B6
S31508000D4068B116F0A9FA00240646294605482C7506
S31508000D500FF07FFE304616F09AFA204670BD212025
S31508000D60FCE700BFBC2A002005282DE9F34104460C
S31508000D708846164635D8002A33D016F08DFA074627
S31508000D80194B1D683DB92D24384616F080FA2046C1
S31508000D9002B0BDE8F0812B79A34214D12969A1B923
S31508000DA00C2001AA019104F085F804460028EBD12D
S31508000DB0019905F11000C1E901860FF037FE2B7B7A
S31508000DC001332B7309E02D68DCE78B689E4206D158
S31508000DD04B68019143EA08034B600024D4E709688D
S31508000DE0DDE72124D3E700BFBC2A002005282DE92A
S31508000DF0F04104460E4617462ED869B362B316F07C
S31508000E004BFA8046154B1D6835B92D24404616F019
S31508000E103EFA2046BDE8F0812B79A34203D12C691E
S31508000E201CB90024F2E72D68EEE7A3689F4211D1AA
S31508000E30636823EA06036360002BF2D105F110000C
S31508000E4021460FF006FE2B7B2046013B2B7311F043
S31508000E5015F9E6E72468E3E72124DAE7BC2A002047
S31508000E60F7B5054610B9212003B0F0BD174B1C682D
S31508000E709CB922462346284601A915F01AFCC21C2D
S31508000E80044619D1284615F046FC0028ECD0031D67
S31508000E90E9D0033017D11B20E6E7274657F8106F2D
S31508000EA00EB92468E4E7B368AB4203D13146384645
S31508000EB00FF0CFFD3668F3E71CB901A80FF05BFE0B
S31508000EC0D7E70434CFD00120CEE700BFBC2A0020E4
S31508000ED0194608B51346002215F0EBFB0430042822
S31508000EE096BF024B0120185C08BD00BF3475010887
S31508000EF0002307B52948019316F0D9F94FF4407332
S31508000F00012204216846ADF800300FF000FF0122E7
S31508000F10234B0520C3F8442401A916F0C3F9002879
S31508000F2039D1204BD3F8F02042F00102C3F8F02063
S31508000F30D3F8FC2042F08072C3F8FC201A4AA3F5C5
S31508000F405D431A60019B194A03F5D52303F2FC4356
S31508000F50B3FBF2F3164A013B13610223C2F8F030E1
S31508000F604FF48073C2F804334FF06043114AC3F854
S31508000F70B02F114AC3F8802ED3F8002E42F480729F
S31508000F80C3F8002EFF2283F82020D3F8002E22F47F
S31508000F908072C3F8002E03B05DF804FBBC77010825
S31508000FA000D0035000ED00E0FF030040F8590D00A3
S31508000FB0000004E055CEACC5090001004FF06043BF
S31508000FC0D3F8802E30B5D20715D501240B4D8440B1
S31508000FD0D5F8FC2042F08072C5F8FC20D3F8002E24
S31508000FE02243C3F8002E53F82020002AF0D003F835
S31508000FF02010002030BD1120FCE700BF00ED00E006
S31508001000F8B504460127124D0CB314F001000BD0B5
S31508001010002024F0010405EBC0021668002EF3D068
S315080010205168C0B2B047EFE72246013020284FEAA0
S31508001030520201D0D307F8D507FA00F20F2824EA9E
S315080010400204E8D9421E05EBC2021038E5E7F8BDEE
S31508001050C02A002008B50C4816F029F9192003F013
S3150800106033F928B1192003F03DF9192003F01EF9C8
S315080010701A2003F029F928B11A2003F033F91A20A7
S3150800108003F014F9002008BDBC77010848B1012215
S31508001090437801789A4030235943034B00205A502D
S315080010A070472220704700BF40D0035048B1012244
S315080010B0437801789A4030235943034B00205A500D
S315080010C070472220704700BF40E0035008B502F081
S315080010D05DF8054B00F0553020F05020C3F8200489
S315080010E0BDE80840FFF78CBF00E0035008B502F0E2
S315080010F04DF8054B00F0AA3020F0A020C3F82004D4
S31508001100BDE80840FFF77CBF00E003502DE9F04F2B
S315080011109A46564B85B01B7806460F461546DDF8A7
S315080011203C909DF844B0DDF85080002B00F0978085
S31508001130072A00F296800E9B002B00F09280B9F1E8
S31508001140000F00F08E80129BB3F5006F00F38980C4
S31508001150012803D1109B002B00F08380444B03EB3E
S3150800116005131B7B002B7ED0424C102200216846BB
S3150800117011F057FD04EB45141022A7BB394620464B
S3150800118011F04FFD43F210036380BBF1000F03D14A
S31508001190E37843F00303E370364A0E9B02EB451CE3
S315080011A0CCE90193129B6901581E9DF84C30C0F397
S315080011B00A0003F003039B0643EA001E53582E4811
S315080011C0012E00EA03004EEA0003CDF800A05350B2
S315080011D017D0B8F1000F2ED19CF8023068F304132B
S315080011E08CF8023027E00021204611F01AFD4FF452
S315080011F044736380BBF1000FCED1E37843F030032C
S31508001200C9E713230CF1100ECCF80C309CE80F003C
S315080012108EE80F006FF00301DCF81C20109B61F3C9
S315080012209F02012FCCF81C20CCF8143003D1CCF83F
S315080012301890CCF8043000270D4A290102EB051353
S3150800124042F80180159A28465A60694622469F60E8
S315080012505E7301F0C3FD384605B0BDE8F08F074858
S31508001260FAE70748F8E70748F6E700BF0F37002010
S31508001270B02C0020B02B00200F80FFF3028000F076
S31508001280018000F0078000F038B5124B05461B7840
S31508001290DBB1E0B116F000F80F4A00231146147BC3
S315080012A054B92B6001251A0101EB03131D738C50E9
S315080012B015F0EDFF204638BD0133082B02F1100268
S315080012C0EDD115F0E4FF0548F5E70548F3E70548CD
S315080012D0F1E700BF0F370020B02C0020048000F093
S315080012E0028000F0018000F038B515F0D5FF002324
S315080012F005460B4A147B6CB90133082B02F1100220
S31508001300F8D101F017FD074B28461C7015F0BFFFF2
S31508001310204603E0284615F0BAFF034838BD00BF4B
S31508001320B02C00200F370020058000F00D4B10B5BB
S315080013301B78044693B1072812D815F0ADFF0A4B5F
S3150800134003EB04131A7B2AB100241C7315F09FFFC4
S31508001350204610BD15F09BFF0448FAE70448F8E755
S315080013600448F6E70F370020B02C0020068000F06E
S31508001370028000F0018000F0154B13B518680023B1
S3150800138001908DF8043015F087FF124B1C7824B1B4
S3150800139015F07DFF104802B010BD01221A7015F035
S315080013A076FF0E4B01A81C731C7783F82C4083F834
S315080013B03C4083F84C4083F85C4083F86C4083F8E3
S315080013C07C4008238DF8073001F0D8FC2046E2E778
S315080013D0397501080F370020038000F0B02C002073
S315080013E0F8B50D4D2D7885B1072810DC0B4D060193
S315080013F005EB0014277B67B1AB510025069BA5605A
S31508001400636001F0EBFC2846F8BD0548FCE7054893
S31508001410FAE70548F8E700BF0F370020B02C002090
S31508001420028000F0018000F0078000F00A4A08B543
S3150800143012785AB107280BD8084A02EB00131B7B0F
S3150800144043B1002101F08CFC002008BD0448FCE7EC
S315080014500448FAE70448F8E70F370020B02C0020C4
S31508001460028000F0018000F0078000F00A4A08B503
S3150800147012785AB107280BD8084A02EB00131B7BCF
S3150800148043B1012101F06CFC002008BD0448FCE7CB
S315080014900448FAE70448F8E70F370020B02C002084
S315080014A0028000F0018000F0078000F0184B2DE95B
S315080014B0F0411F6D5B6D1F4000D5FEE70126002534
S315080014C0144CDFF85880374218D02368C8F85060A3
S315080014D0A3B1A168284601316268A1609847637B79
S315080014E0012B0BD150B90C4B03EB45131A7B60F358
S315080014F041021A731A7F60F341021A770135082DE3
S315080015004FEA460604F11004DDD1BDE8F08100BFBC
S3150800151000000450B02C0020B02B002000200450FE
S31508001520044BD3F88420D206FBD4D3F88400C0F346
S31508001530811070470040005038B5174B0546D3F860
S3150800154028310C4603F00703013B052B20D8DFE8BA
S3150800155003F003131B0F0B1712F070FA052305B1DE
S31508001560286004B1236038BD12F068FA0623F6E74E
S3150800157012F0AEFA0723F2E712F0A0FA0323EEE719
S3150800158012F09CFA0423EAE712F094FA0223E6E73B
S3150800159000231846E3E700BF00800050002337B554
S315080015A00193164B0546D3F820320C4603F0070381
S315080015B0042B21D8DFE803F0030B11161B000123C7
S315080015C00DB1019A2A6004B1236003B030BD002131
S315080015D001A8FFF7B1FF1223F2E712F079FA072301
S315080015E00190EDE714F000FE0A230190E8E712F0F7
S315080015F0C3FA09230190E3E70023E1E700800050DE
S3150800160038B5104B0546D3F880300C4603F0030373
S31508001610022B0BD0032B0DD0012B0FD112F014FA8D
S315080016200E2305B1286004B1236038BD12F050FAC4
S315080016300723F6E712F002FA0623F2E70023184614
S31508001640EFE700BF0080005038B5104B0546D3F8C9
S3150800165000310C4603F00303022B0BD0032B0DD0ED
S31508001660012B0FD112F02AFA032305B1286004B121
S31508001670236038BD12F080FA0923F6E712F024FA3F
S315080016800823F2E701230020EFE700BF008000509F
S3150800169038B5184B0546D3F820010C4600F007006C
S315080016A0062823D8DFE800F0040A0E16121A1E00D0
S315080016B0012305B1286004B1236038BD12F0BEF9D4
S315080016C00523F6E712F0FAF90323F2E712F000FA17
S315080016D00723EEE712F0EEF90223EAE712F0AEF975
S315080016E00623E6E712F0EAF90423E2E700231846A0
S315080016F0DFE700BF0080005038B5104B0546D3F829
S3150800170040310C4603F00303022B0BD0032B0DD0FC
S31508001710012B0FD114F068FD0A2305B1286004B126
S31508001720236038BD12F028FA0923F6E714F05FFDA6
S315080017300C23F2E701230020EFE700BF00800050EA
S31508001740002337B50193164B0546D3F860320C468D
S3150800175003F00703013B032B1FD8DFE803F0020E53
S315080017601914002101A8FFF793FF10230DB1019A60
S315080017702A6004B1236003B030BD002101A8FFF739
S31508001780BBFF1123F2E712F0A3F907230190EDE757
S3150800179012F090F902230190E8E70023E6E700BF7C
S315080017A000800050002337B50193164B0546D3F841
S315080017B094320C4603F00703013B032B1FD8DFE8DE
S315080017C003F0020E1914002101A8FFF761FF102388
S315080017D00DB1019A2A6004B1236003B030BD00211F
S315080017E001A8FFF789FF1123F2E712F071F9072321
S315080017F00190EDE712F05EF902230190E8E7002375
S31508001800E6E700BF0080005038B5104B0546D3F810
S3150800181060310C4603F00303022B0BD0032B0DD0CB
S31508001820012B0FD114F0E0FC0A2305B1286004B19E
S31508001830236038BD12F0A0F90923F6E714F0D7FCA7
S315080018400C23F2E701230020EFE700BF00800050D9
S315080018502E4B98424AD022D82D4B984240D014D8C5
S315080018602C4B984239D00AD82B4B984232D02B4B66
S3150800187098422FD02A4B98422CD000207047294BEB
S315080018809842FAD1284B186F7047284B98422AD0AD
S31508001890274B9842F1D1244BD3F880007047254B4B
S315080018A098422BD009D8244B984223D0234B9842F0
S315080018B0E3D11D4BD3F88C007047214B984221D0B9
S315080018C003F5740303F510539842D6D1164BD3F893
S315080018D098007047144B986D7047134B586E7047B5
S315080018E0114B586F7047104B986F70470E4BD3F8D3
S315080018F0840070470C4BD3F8880070470A4BD3F81E
S3150800190090007047084BD3F8940070470048E801E8
S315080019100024F400C0CF6A0080841E0000093D0040
S3150800192040420F00405DC6000080E00FC0EA21017A
S3150800193080BA8C01007E560380D54302006CDC0217
S315080019400090D00373B50D460021114B0191D3F8D1
S315080019508041064604F00304022C13D0032C0CD055
S31508001960012C13D101A8FFF793FE10240EB1019B99
S31508001970336005B12C6002B070BD12F0A9F80724D7
S315080019800190F3E712F096F80190EFE70C46EDE7C1
S315080019900080005038B5104B0546D3F840320C4647
S315080019A003F00303022B0BD0032B0DD0012B0FD111
S315080019B014F01AFC0A2305B1286004B1236038BD67
S315080019C012F0DAF80923F6E714F011FC0C23F2E713
S315080019D001230020EFE700BF0080005038B5144B04
S315080019E00546D3F800020C4600F0070004281BD869
S315080019F0DFE800F003090D111500012305B1286081
S31508001A0004B1236038BD14F0EFFB0A23F6E712F0A1
S31508001A10B3F80923F2E714F0EAFB0C23EEE712F019
S31508001A2033F80F23800AE9E700231846E6E700BFE4
S31508001A300080005038B5144B0546D3F808020C460A
S31508001A4000F0070004281BD8DFE800F003090D1191
S31508001A501500012305B1286004B1236038BD14F0D0
S31508001A60C3FB0A23F6E712F087F80923F2E714F016
S31508001A70BEFB0C23EEE712F007F80F23800AE9E70E
S31508001A8000231846E6E700BF00800050B0F5207F27
S31508001A901FD009D8B0F5007F15D003D868B1B0F5C6
S31508001AA0C07F0AD000200CE0B0F5607FFAD10B4B5E
S31508001AB0D3F88000C0F3011003E0084B186FC0F399
S31508001AC0033001307047054BD3F89000C0F304602B
S31508001AD0F7E7024B186FC0F38020F2E7008000504A
S31508001AE002464FF48030104B10B598660020FFF779
S31508001AF0CDFF504341F671320C4BDC69DA635A6804
S31508001B0004F4803422F4401259B90949884294BF32
S31508001B1000200120000502435A600CB10022DA6356
S31508001B2010BD0449F2E700BF0090005000000350C2
S31508001B30005A6202002D3101430905D0012B0CD051
S31508001B40022B084B18BF002300F01F0039B103F51C
S31508001B508053012282401A607047034BF4E703F56D
S31508001B600053F6E768800050648000501FB50021D6
S31508001B70B0F5807F0446CDE9001100F0D2803AD84E
S31508001B805E2833D85E2833D8DFE800F04532323293
S31508001B903232323232323232323232323232323217
S31508001BA032323232323232323232323245AC45ACED
S31508001BB0BCBCBCBCBCACC64E6BDC4EACACAC3232AE
S31508001BC0323232323232ACACAC7EE6AC32323232FF
S31508001BD0323232323232323232BC454545E14E4E2D
S31508001BE0EB8D63C132323232329E4500802870D086
S31508001BF0009804B010BDB0F5D06F00F0A38035D8BA
S31508001C00B0F5607F79D01AD8B0F5007F65D005D8D1
S31508001C10B0F5C07FECD111F037FF5CE0B0F5207F5E
S31508001C2060D0B0F5407FE3D111F02EFF02464FF4A5
S31508001C302070FFF72BFFB2FBF0F252085BE0B0F51D
S31508001C40B06F69D00AD8B0F5806F5BD0B0F5A06FD9
S31508001C50CED100216846FFF7A1FCC9E7B0F5C06FF1
S31508001C60C6D100216846FFF747FDC1E7B0F5106FFA
S31508001C706DD00ED8B0F5086F78D0B9D8B0F5E06F4A
S31508001C806AD0B0F5F06FB3D100216846FFF7BCFD06
S31508001C90AEE7B0F5406F3AD013D8B0F5206F60D0F4
S31508001CA0B0F5286FA4D10021324B0391D3F87032D6
S31508001CB003F00303012B02D103A8FFF71DFD039BC5
S31508001CC039E0B0F5486F93D100216846FFF76AFD01
S31508001CD08EE711F0B9FE00908AE711F0B5FE0246CC
S31508001CE0204604E011F0D0FE02464FF42070FFF7BC
S31508001CF0CDFEB2FBF0F200927AE701A8FFF780FC6E
S31508001D00019AEDE700216846FFF7C2FC70E700215B
S31508001D106846FFF711FC6BE700216846FFF712FEDD
S31508001D2066E74FF0E02302911B695B0705D511F0C2
S31508001D30ABFE0290029B00935AE703A902A8FFF79D
S31508001D40DBFCF7E700216846FFF748FE50E700216D
S31508001D506846FFF76FFE4BE700216846FFF71AFE55
S31508001D6046E700216846FFF7EBFC41E76846FFF7C0
S31508001D706BFC3DE70080005008B58020FFF7F6FEB3
S31508001D80034B98429EBF4FF48032024B1A6708BD38
S31508001D90005A620200A000501FB503460020B3F5A2
S31508001DA0807F019000F0C58065D85D2B56D84C2BF6
S31508001DB007D82D2B48D8232B2CD8019805B05DF8C9
S31508001DC004FB4D3B102BF8D801A252F823F000BFB4
S31508001DD0291F0008BB1D0008BB1D0008BB1D000805
S31508001DE0D71E0008BB1D0008BB1D0008831F00087E
S31508001DF0F51E00089B1E0008791F0008BB1D000879
S31508001E00BB1D0008BB1D0008BB1D0008BB1D000844
S31508001E108D1F0008243B092BCFD801A252F823F0C6
S31508001E20291F0008291F0008291F0008291F000864
S31508001E30291F0008BB1D00081F1F0008BB1D00083E
S31508001E40B71E00085F1F00083D2B00F083803E2B5D
S31508001E50B3D1002001A9FFF79DFDAEE7802BACD1D9
S31508001E60504B1B6F03F00703013B032BA5D8DFE894
S31508001E7003F0544D5052B3F5F06F6BD020D8B3F53C
S31508001E80B06F4CD00ED8B3F5607F71D095D3B3F54B
S31508001E90806F49D0B3F5A06F8FD1002001A9FFF755
S31508001EA07DFB8AE7B3F5D06F59D0B3F5E06FD0D094
S31508001EB0B3F5C06F81D1002001A9FFF71DFC7CE7AF
S31508001EC0B3F5206F5DD00BD8B3F5086F4CD0B3F5DA
S31508001ED0106F7FF472AF002001A9FFF7ABFD6CE726
S31508001EE0B3F5406F48D0B3F5486F4FD0B3F5286FB8
S31508001EF07FF463AF2B4BD3F8703203F00303012B47
S31508001F0049D0022B0CBF1523002300E005230193BB
S31508001F1053E70323FBE70823F9E70223F7E7002043
S31508001F2001A9FFF70FFD48E7002001A9FFF7B0FB5D
S31508001F3043E74FF0E02302901B695B0705D511F0D4
S31508001F40A3FD0D230393039BE1E703A902A8FFF76B
S31508001F50D3FBF8E7002001A9FFF756FC2DE7002080
S31508001F6001A9FFF73BFD28E701A9FFF76DFB24E769
S31508001F7001A9FFF745FB20E7002001A9FFF7DCFAD6
S31508001F801BE7002001A9FFF7DBFB16E7002001A9E4
S31508001F90FFF708FC11E7002103A8FFF7ADFB1123A3
S31508001FA0B5E700BF008000504FF48032074B084960
S31508001FB0586E03F580535A664B6A23F001034B6249
S31508001FC0C3035CBF034B5A66704700BF00800050CE
S31508001FD000C0075000A0005038B504468020FFF71F
S31508001FE0DBFE032800F083804FF48012524B4FF03B
S31508001FF0A0615A6645F60E02504BC3F88020504A37
S3150800200091624FF4803102F5805291629A6DD20343
S31508002010FCD4996D11F08041FBD1D4E90002120578
S3150800202042EA0062E07B0243207B42EA0042607B90
S3150800203042EA0032A07B42EA80121A619869D4E922
S315080020400452120642EA856200F000400243A07E6E
S31508002050E57E0243207E42EA0042607E42EA002292
S315080020609A611A6AE06922F00F0242EA8502354D42
S3150800207000283DD11A6294F82420996A94F8200021
S31508002080D200294042EA40120A4394F8211042EA53
S31508002090011242F480329A622B49284A936D31EA3A
S315080020A00303FBD14FF08071254881621369A56847
S315080020B023F4700343EA055313614FF00043836129
S315080020C094F822300BB9214B996294F823303BB926
S315080020D04FF480321D4B9A62184A936D5B00FCD40C
S315080020E094F825301BB1154B194AC3F8802038BD22
S315080020F0024342F0080202281A6208D119614FF415
S315080021000852996113484FF47F410EF02EFE0B4991
S3150800211094F822308A6A94F820001B062A4043EA7B
S315080021204013134394F8242043EAC20394F8232067
S3150800213043EA02438B62D3E7009000500040005AFE
S315080021400050005AC7FFFEFE030001000060005A57
S31508002150F1A7FFFF3440005A014B93F9000070477E
S3150800216072390020F0B5D0E901434FF400061A4A47
S315080021704178057856664FF4D156022702F5B832EB
S315080021805662164E4F2977604FF0010728BF4F2138
S3150800219006F5805677601669F603FCD441EA0521F0
S315080021A051611B01417B43EA04230B43017B43EA4C
S315080021B041039360C37B817B1B0143EA4113417C46
S315080021C00B43017C43EA41035360837C13B16FF4EC
S315080021D0D1535362F0BD00BF00900050001002506A
S315080021E0014B1880704700BF66390020014B1880E4
S315080021F0704700BF643900204FF4800208B5184BB9
S315080022005A660223174A5360936813F48033FBD146
S31508002210012822D111F052FC134B984215D003F530
S31508002220122303F5F863984213D0104B00EB800293
S31508002230400AB3FBF0F3520A0A49CA620B63012348
S315080022404B620022074B5A6008BD45F67A13084AC6
S31508002250F2E745F61A03074AEEE75362F1E700BFCD
S31508002260009000500040025000F04902646666661D
S31508002270D8B80500BBCF0500B0F5207F10B50C46D1
S315080022805DD008D8B0F5007F4ED003D8C0B1B0F500
S31508002290C07F15D010BDB0F5607FFBD12C4B4C1E0E
S315080022A0D3F8FC202B4912F0807F4FEA041427D17B
S315080022B0D1F8803023F030032343C1F88030E9E7B2
S315080022C00EF062FD0EF06EFD4FF48031224B214A6E
S315080022D01967136F013C23F4704343EA0433136709
S315080022E011F0D2FB0446FFF71BF9C0F102012046A4
S315080022F00EF052FD00F04AF8BDE81040FFF73CBD6D
S31508002300D3F8FC2022F08072C3F8FC20D1F8802094
S3150800231022F030022243C1F88020D3F8FC2042F094
S315080023208072C3F8FC20B5E70A4A4C1ED2F89030F2
S3150800233023F0F85343EA0463C2F89030AAE7054A43
S315080023404C1E136F23F4806343EA84231367A1E7C3
S3150800235000ED00E0008000500090005008B5012113
S31508002360022000F095F94FF42070FFF78FFB054B1C
S3150800237018700EF009FD0EF015FD4FF48032024B71
S315080023801A6708BD103700200090005008B54FF4B2
S31508002390C070FFF7EBFBBDE808400449884294BFCC
S315080023A0012102214FF42070FFF766BF80F0FA0280
S315080023B038B5044611F068FB0546FFF7B1F8C0F1D9
S315080023C0020128460EF0E8FC0121002000F0A0F9E1
S315080023D02CB1FFF7DBFFBDE83840FFF7CDBC034B58
S315080023E04FF420701978FFF747FFF4E710370020FD
S315080023F04FF4C02270B50546FFF72AFA314B04465A
S315080024005A6603F598335A68012A04D12E494A6058
S315080024105A689207FCD48020FFF7BEFC052807D12E
S315080024200EF0B2FC0EF0BEFC4FF48032254B1A6754
S31508002430264B24F040749D4230D0254B9D4230D027
S3150800244011F0FCFA8542064603D90121284600F018
S315080024505FF9204BDA6812F0060FFBD199689C6089
S315080024609A68624012F4F81F1ED12846FEF7B0FBA0
S315080024708020FFF791FC05280DD111F005FB0446D5
S31508002480FFF74EF8C0F1020120460EF085FCFFF773
S315080024907DFFFFF771FCAE420CD270BD44F00074AC
S315080024A0CEE744F08074CBE780209960FFF774FC90
S315080024B0052805D0BDE870400121002000F028B9A4
S315080024C03546DAE70090005000E0015040420F0020
S315080024D080841E00000001503D4B3E4A984263D05E
S315080024E021D83D4B98426BD011D83C4B4FF4002174
S315080024F0984261D008D83A4B98423AD0394B98421C
S3150800250030D0394B984240D00023516639E0374BDA
S31508002510984243D0364B4FF400219842F4D1354BBC
S31508002520D3F8BC3021E0344B984241D011D8A3F5FA
S315080025303703A3F5D853984246D003F5B70303F5F6
S31508002540586398424FF40021DED12A4BD3F8C8309D
S315080025500BE02A4B4FF400219842D5D1254BD3F8EE
S31508002560D03002E0234BD3F8A030516623F04073F5
S3150800257007E0204BD3F8A030516623F0407343F0B0
S3150800258080734FF0B442936070471A4BD3F8A0306B
S31508002590516623F0407343F00073F2E7154BD3F806
S315080025A0B8304FF40021E0E7124BD3F8C030F8E713
S315080025B0104BD3F8CC30F4E70E4BD3F8A430D4E75D
S315080025C00C4BD3F8B030ECE70A4BD3F8C430E8E745
S315080025D0C0EA21010090005080969800404B4C00BC
S315080025E080841E0000093D0040420F00405DC60081
S315080025F00024F4000080E00F0048E801005A620257
S31508002600024A536B0342FCD1704700BF0040095091
S31508002610044A4178536F23F4407343EA012353670E
S31508002620704700BF00400050104A10B513690446B1
S3150800263043F00403136113F001F90EF0B8FB0C4BD9
S315080026405B6E5B0142BF0B4B0B4AC3F82024BFF3FA
S315080026504F8FBFF36F8F30BF0EF0AAFB02F096FDC7
S315080026601CB9BDE8104011F00FBA10BD00ED00E02E
S315080026700080005000E003500000FF0F034A017974
S31508002680D36E23F030030B43D366704700400050E7
S31508002690F8B504461C4BD3F88420D106FBD4D3F8EE
S315080026A08430C3F381139C422CD011F0CDF9012C50
S315080026B0064602D121460EF06FFB14F0E4FD4FF0FA
S315080026C00072124B07465A6620460EF074FB4FF40A
S315080026D080630D4D621E93402B676B6E9A0103D47F
S315080026E0D5F884309B060AD5384614F0C7FD022C67
S315080026F008D13046BDE8F84000210EF04DBBD5F8AC
S315080027008430EAE7F8BD00BF004000500060005082
S3150800271010B50C4608B911F097F9074B21461B78F6
S315080027203BB1064B984204D80120BDE81040FFF79C
S31508002730AFBF0220F9E700BF11370020005A620236
S315080027400278034B012100201A70FFF7E1BF00BF92
S31508002750113700204FF0004238B5244B244C5A66F6
S315080027604AF6CD33656C014605F00105236428BB9E
S315080027700120FFF745FF6368DB0715D51D4B586039
S3150800278008461D4B226BD2070CD4984208D1072461
S3150800279015B1174B194A1A6410F032FC204638BD99
S315080027A00130EFE79842F2D00024F1E70132236BBB
S315080027B013F0080305D08A42F8D1E8E700220E494B
S315080027C0F5E78A42E3D020210A4A91620121A2F55F
S315080027D0805251600649084A886A800603D49342A3
S315080027E0D5D00133F8E79342DDE700BF00900050EB
S315080027F0004009500060095040420F003254FFFF64
S315080028004FF0004238B5164B01465A664AF6CD33A4
S31508002810144C154A656C236443780B205B0043F01F
S315080028200103D363FFF7ECFE63688A7823F4F87331
S3150800283043EA02136360CA784B7943EA0223A3602A
S315080028400A798B7943EA022323610878FFF782FF26
S31508002850EB0744BF054B236410F0D2FB012038BDBB
S315080028600090005000400950004000503254FFFFCD
S315080028704FF00042124B70B55D6E03F580535A66F1
S315080028804AF6CD3304460F4980204E6C0B64FFF799
S31508002890B7FE0B6A23F00F030F2C94BF234343F0B4
S315080028A00F030B62F30744BF074B0B64002DA2BF4F
S315080028B04FF00042054B5A6610F0A2FB70BD00BFF0
S315080028C000800050004009503254FFFF00A000501D
S315080028D04FF00042104B70B55D6E03F580535A6693
S315080028E04AF6CD3304460D4980204E6C0B64FFF73B
S315080028F087FE0B6A23F4F85343EA04230B62F307B3
S3150800290044BF074B0B64002DA2BF4FF00042054B96
S315080029105A6610F075FB70BD0080005000400950E3
S315080029203254FFFF00A0005010B50EF049FA0423F8
S3150800293000F5805100F500520B6113610B611361BC
S315080029400B6113610B611361202341F202010361DC
S315080029500023C360836041614FF4A02183618365CE
S3150800296041620549C36103628362C36243630365C7
S31508002970D164036310BD00BFFF3F0D0370B5054664
S315080029801446084641B9354B9D4218D0344B9D42F2
S3150800299008BF5720FFF7EAF8AB6813F0010F6B681A
S315080029A030D0B0FBF4F4D80704F1FF344FEA0464DE
S315080029B007D42B6923F07F4323432B6170BD562030
S315080029C0E8E7282128460EF0F7F9AB6C990715D1E8
S315080029D0AB6CDA0714D4AB6C13F0020F14BF0626DF
S315080029E0002628460EF0ECF92B69314623F07F4382
S315080029F023432B61BDE870400EF0FCB90526F0E7CD
S31508002A000926EEE7AB6DDB07AB6848BF640003F049
S31508002A10E003402B1BD004D8DBB1202BCED10823F2
S31508002A2004E0602B17D0802BC8D1012363434101F2
S31508002A30B1FBF3F20B4B203A284603EAC202012106
S31508002A400EF0BAF92A63BDE870400EF0B5B9062350
S31508002A50ECE71023EAE70423E8E700BF0000015B80
S31508002A6000000A50F8FF7F002DE9F04198464368B8
S31508002A7004460E4617461BB140F6FF710EF09CF948
S31508002A802046FFF751FFF189737B62690B43318A50
S31508002A9022F44C5222F00F020B4313436361A268DF
S31508002AA096F818C0337B22F0804222F0E2024CEA04
S31508002AB00303134372691343B268A3601AB9A36880
S31508002AC043F00043A360F06904F58053002878D0EA
S31508002AD0857A017A6D04D4F808E045EA81556E498D
S31508002AE00EEA01010D43818801F4C0410D43417886
S31508002AF045EA8105417B45EAC105817B45EA011521
S31508002B00817845EA8125A560D4F80CE0D0E904155A
S31508002B102943624D0EEA05052943857941EA85214F
S31508002B20C57941EA4521E16001785D4D012914D155
S31508002B30E16841F00401E160AC4200F09280594935
S31508002B408C420CBF01214FF0FF31490101F1A04130
S31508002B5042F2944501F5703114E003297BD1E1680E
S31508002B6041F00401E160AC4279D04E498C420CBF79
S31508002B7001214FF0FF3141F29445490101F1A0418D
S31508002B8001F570314FF0020E41F805E0417A99627D
S31508002B9019B1E16841F40061E160C17A59B1E168AF
S31508002BA041F40041E1603E498C425CD1017B3E4DD7
S31508002BB001F00F016967616AC07B21F003010143D7
S31508002BC061622FB197F82010002956D001211962A9
S31508002BD0B8F1000F2DD0BCF1000F02D04FF4004120
S31508002BE099652F49B8F822508C4298F8211051D08F
S31508002BF02C48844213D10120112934BF4FF0010C0F
S31508002C004FF0020C294FB5F5006F07F800C094BFC6
S31508002C104FF0010C4FF0020C254F07F800C0A06DCD
S31508002C20294320F4F95020F01E000143A165012133
S31508002C309965012159601AB120467168FFF79EFE11
S31508002C40204631780EF0D6F8A36CDB4313F4405FC8
S31508002C50FAD1BDE8F0810239012984D96CE700214F
S31508002C6089E7002171E70F498C4201BF017B0E4DB0
S31508002C7001F00F01C5F880109DE7E06997F822106A
S31508002C8097F8215020F009002943014341F001013A
S31508002C90D9619DE70020AFE7E39BBDFFFFF9F08709
S31508002CA00000015B00000A50009003501437002012
S31508002CB0123700202DE9F04105460F461E4690467C
S31508002CC04AB101233022194C8B4002FB004436B32B
S31508002CD004F5825423600F21072F05EB450388BFAF
S31508002CE0A7F108044FEA0313114895BFBC00A400D6
S31508002CF004330C3308FA04F2A14018440EF0A7F87E
S31508002D00B8F1000F09D101233021084ABB4001FB65
S31508002D1005223EB102F582521360BDE8F08104F542
S31508002D200154D7E702F50152F6E700BF00C0035089
S31508002D3030C0035010B5152001F0A6FA0024FF2272
S31508002D40064B21465C6520209A625C60FEF7F4FE1D
S31508002D502146BDE810402120FEF7EEBE00000450D3
S31508002D60044A054B002908BF1346012282401A600F
S31508002D70704700BF401004504020045010B5012190
S31508002D8004462020FEF7D8FE01212120FEF7D4FEB6
S31508002D900122114B15205A60227812069A60617832
S31508002DA0A27842EA01429A61FF229A6200229A6355
S31508002DB01A644FF000425A654FF0FF3203F500538C
S31508002DC01A6501F08FFA1520E1780EF083FCBDE84C
S31508002DD01040152001F06ABA00000450F8B5012524
S31508002DE0C3B2D1F800C08F7A0E7B0C469D40CB7AD1
S31508002DF01C491B050D65810001F1A04101F58821DB
S31508002E00C1F804C04FF0300C0CFB00F0617B00F1F8
S31508002E10A04043EA074300F5802043EA465322F0E0
S31508002E2003020166C365026714F036FA0E4B227A6E
S31508002E305D6502B11D64627A02B19D632279A37948
S31508002E4043EA0243074A93616179E37943EA014316
S31508002E5005498B61054B55639D64BDE8F84014F040
S31508002E6016BA00BF00200450001004500000045099
S31508002E7010B50124C0B2844014F00EFA044B5A6D02
S31508002E8022EA04025A659C62BDE8104014F0FFB9B4
S31508002E900000045010B50124C0B2844014F0FCF9B7
S31508002EA0074BDA6A224208D15B6B9C430CBF0124AC
S31508002EB0002414F0ECF9204610BD0024F9E700BF01
S31508002EC00000045070B5054614F0E6F93022084BA8
S31508002ED05E6B02FB05335C6E14F0D9F90123EDB283
S31508002EE0AB4033420ABFC4F30A100020013070BD5C
S31508002EF000000450013831289ABF024B185C0020A4
S31508002F00704700BF3D750108021E30B54FF000003E
S31508002F100CBF1025042547F60774084952B9831DC6
S31508002F2051F82330234023B101308542F6D14FF0C2
S31508002F30FF3030BD00F11603F2E700BF00800350F2
S31508002F4038B5C2F30625044602F0070241B942EA3B
S31508002F50052242F440220634074B43F8242038BDA4
S31508002F60114628460DF082FF02462846FFF7C2FFA3
S31508002F70163442EA0022EFE7008003504FF480320D
S31508002F80064B5A6603F5E6239B69C3F385128270DE
S31508002F9003F03F021B0B427003707047009000500D
S31508002FA0014B986CD96C70470080E00F10B5044649
S31508002FB00DF0B8FF0DF0A2FF50210DF079FF0DF0CE
S31508002FC088FF20460DF08CFF0DF0B6FF0DF0BBFF15
S31508002FD0042304F5805104F500520B6113610B615B
S31508002FE013610B6113610B611361202341F2020126
S31508002FF023610023E360A36061614FF4A02161624D
S315080030000649E3612362A361A365A362E3622365BC
S31508003010D16423636363236310BD00BFFF3F0D03C1
S31508003020F8B504460D46FFF7C1FF23692A7823F051
S31508003030870313436A7A43EA420343F08003236112
S31508003040A368AA7A23F0030343EA420343F0010381
S31508003050A36063692A7A23F00F0313436361236924
S315080030606A6823F07F4343EA02632361EB68002B17
S315080030705AD02269187922F0F80242EAC012187862
S31508003080997942EA4012D87842EA0012D87A42EA96
S31508003090C00242EA81122261E2689E7C22F0F04276
S315080030A022F4702242EAC662DE7C587942EA064277
S315080030B09E7842EA862242EAC032E260A2689E7A96
S315080030C022F4C04242EA4632A2605A7804F5805693
S315080030D09202B260676ADA7B234E02F003023E4030
S315080030E032431E7B360106F0700632435E7B36029B
S315080030F006F4E06632439E7B360306F4E046324326
S315080031005E7A360406F47026324362621A8AA2612F
S31508003110C8B1164A944208D17422D87900210DF014
S3150800312039FFEB689A799AB9F8BD114A9442FBD1EE
S315080031308022D87900210DF02DFFEB689A79002AB4
S31508003140F2D07C2205E00029EED0084A944206D146
S315080031507022187A0021BDE8F8400DF01BBF044A1A
S315080031609442E1D1EDE700BF8C88F0FF0000015BD7
S3150800317000000A500122437801789A4030235943C7
S31508003180014B5A50704700BF40E00350034BD3F839
S315080031902424D3F820041040704700BF00C0035011
S315080031A02DE9F8431F4B0546D3F810334B1E0E2B5B
S315080031B00E461746047890F8018026D951B34FF089
S315080031C0000928461FB311F081FF0F21B8F1070F38
S315080031D004EB440488BFA8F108084FEA041412480F
S315080031E095BF4FEA88084FEA880804340C3409FA70
S315080031F008F201FA08F120440DF0BDFE86B928460A
S3150800320057B1BDE8F84311F061BF8946D9E7FFF722
S31508003210B1FFDAE78946D8E7BDE8F843FFF7AABF62
S31508003220BDE8F88300C0035030C00350054B9A68C8
S315080032309107FCD45A689207F9D4DA69002AF6D1BC
S31508003240704700BF00800A5010B5034C636811F040
S3150800325049FF0223236110BD00800A5008B5FFF715
S31508003260E5FF0122024B03F580514A601A6108BD49
S3150800327000800A50044B10B55C68012C03D1FFF797
S31508003280E3FF024B5C6010BD00800A5000A00A50A4
S3150800329038B5074DFFF7CAFF6B680446012B03D103
S315080032A0FFF7E8FFFFF7C2FF2378EB6038BD00BFE2
S315080032B000800A5010B511F01FFFB8B94A680B789C
S315080032C012B1127843EAC2034A7843EA42038A688B
S315080032D012B1127843EA8213CA7843EA82030A696A
S315080032E012B1127843EA4223014A936410BD00BF23
S315080032F000800A5010B54FF42F72002104460FF0D3
S3150800330090FC8023C4F88C30054B04F19C00C4F86B
S315080033108430012384F88830BDE810400DF083BB63
S315080033206F75010810B5D0F8A0400A468CB90DF0A3
S31508003330EEFF044610B90024204610BD2D2896BF7E
S31508003340064B074953F82010064A07480EF025F998
S31508003350F2E7D0F8A4101046A047ECE72C7601084F
S3150800336072750108498401085D77010870B590F8FF
S315080033708050044615B10025284670BD0DF01AFE8A
S315080033800028F8D1012384F8803094F8883033B1C6
S31508003390D4F884101B4884F888500EF0FEF80EF016
S315080033A0E1F8431C1FD010F0FF061AD020460DF096
S315080033B0FEFD3146204600F0F9FB0028EFD02046F6
S315080033C00DF0FAFD94F888303BB1D4F884100D4816
S315080033D00EF0E3F8002384F88830002384F8803060
S315080033E0CAE70125DBE7D4F88C30D4F89420013BF2
S315080033F09A4204DB044A054905480EF0CEF8012531
S31508003400EBE700BF5F77010849840108807501086A
S315080034105D77010870B50C4605468AB0FFF76AFF66
S315080034206368A168C5F8B03228460DF063FF12F04C
S3150800343000FF4FF47A76236A5843B0FBF6F0C5F8D6
S31508003440B40212F0F6FE636A294658432368B0FBB5
S31508003450F6F00193E369C5F8B8020793636901AA10
S315080034600593A36908480693236903936023049385
S3150800347000230293089312F0DFFEE06028460DF061
S3150800348097FD0AB070BD00BFDF0F0108F8B50B78CD
S315080034900446302B0D46164604D14B7803F0DF035D
S315080034A0582B11D0284F6A1E12F8011F002934D153
S315080034B028460A2204F004FB202C03460D4631D187
S315080034C0B1FA81F040091AE04A1C1F4912F8013F77
S315080034D08BB928460FF0BDFB1C4B02382340032B43
S315080034E012D10134A41084420AD1A87837288CBF97
S315080034F00020012003E0CB5C13F04400E6D1F8BDC0
S31508003500CCBF01200020FAE7002CB8BF0334B0EB8B
S31508003510A40FD4BF01200020F1E77B5C13F0040060
S31508003520C2D1ECE726B1084302D0013B61F10005A0
S315080035300122A240013A1A40002D08BF9A420CBF48
S3150800354001200020DBE700BF25A301080300008057
S31508003550F0B5037801467B2B17D1064602240022D4
S315080035600B4F16F8015F7D2D05D10B5D6BB9D24364
S3150800357002F0010008E07B5D13F0440002D001323E
S315080035800134EEE7202DFBD0F0BD0020FCE700BF9C
S3150800359025A3010870B506460D460FF05AFB0446EA
S315080035A030460DF0FAFF044EAC4200D370BD3046EB
S315080035B00DF0F3FF0134F7E7527701082DE9F84FCC
S315080035C0044602216048FFF7E5FF1E212068FFF741
S315080035D0E1FF636858680DF0E0FF5C480DF0DDFF19
S315080035E067683B7BFD2B12D8D7F808804FF0FF346D
S315080035F040460FF02EFB0646DFF84C91DFF8A8A1EF
S31508003600DFF864B10C3717F8013BFF2B01D1BDE891
S31508003610F88F212B14D8212B14D8DFE803F0178C48
S315080036208884807C78741313131313131313706C24
S315080036306864605C58541313131313131313504C14
S31508003640FE2B34D006B10134414D02E006B10134F7
S31508003650404D02214846FFF79DFF1E214846FFF7C9
S3150800366099FF50460DF099FF594628460FF0F9FA8A
S315080036703949002818BF294638480DF08EFF3B788F
S31508003680202B02D12B200DF07CFF35480DF085FF4D
S315080036904EB118F804301F2B05D018F804001F285F
S315080036A001D0B4424BDB29480DF077FFABE706B1F2
S315080036B001342C4DCDE706B101342B4DC9E7002E58
S315080036C0A1D001349FE706B10134284DC1E706B100
S315080036D00134274DBDE706B10134264DB9E706B1D9
S315080036E00134254DB5E706B10134244DB1E706B1DD
S315080036F00134234DADE706B10134224DA9E706B1E1
S315080037000134214DA5E706B10134204DA1E706B1E4
S3150800371001341F4D9DE706B101341E4D99E706B1E8
S3150800372001341D4D95E706B101341C4D91E706B1EC
S3150800373001341B4D8DE706B101341A4D89E70DF0AA
S3150800374020FF0134A9E700BF66770108498401080C
S31508003750F1760108EB760108487701085F770108DA
S315080037604C770108F9760108FF7601080877010801
S315080037700F7701081A770108247701082E770108C0
S3150800378019770108237701082D770108367701088C
S315080037903A77010842770108E5760108EC760108D0
S315080037A041770108E47601084A7701082DE9F04FC8
S315080037B093B005468B460024009204930FF049FA0D
S315080037C01C9F049B05901C6028463C600AAA09A910
S315080037D00DF005FF064658B90A980FF03AFA34462E
S315080037E0B146049B1860D5F89C300393039B1BB91C
S315080037F0204613B0BDE8F08F039B9B680193002B0E
S3150800380069D02E4416F8013B202B12D000260C2333
S315080038107343019A02EB030AD3580293002B55D03F
S31508003820DDF82480C84551DB9AF808302BB1721CA4
S3150800383035E03B6801333B60E4E73B68D5F8942004
S315080038400299D21A049B1A6012AB03EB890353F848
S31508003850203C184606930FF0B8F907900028E6D1E1
S3150800386002980FF0F6F9DAF804100346087BD7F841
S3150800387000A0FE28079A16D108F1FF38C8452ED0B1
S315080038800B680698029201930FF0E3F90AF1010317
S31508003890029A0344E95C21B13B6009F10109164625
S315080038A0B5E70133F6E7D5F89420A2EB0A029A4267
S315080038B0BDDC584606930FF0CCF9069B03447B2BD8
S315080038C01DD958461E4A00990DF0EFF82B46059A61
S315080038D02A449A422AD1039B1B68039386E7D5F8A4
S315080038E09420A2EB0A029A42E3DDD1F8008058F848
S315080038F00C2B82B9059B3B60049B1A60E6E7584689
S31508003900029A00990DF0D1F858460E4A00990134EA
S315080039100DF0CBF88BE7584600990DF0C6F85846D7
S31508003920084A00990DF0C1F80134E0E713F8011BC5
S315080039300029CED14FF0200103F8011CC9E700BFCA
S315080039404F770108527701082DE9F047002486B021
S315080039501C60DDE90EA8064689468AF8004011680B
S31508003960154888F8004017461D468DF81740FDF79C
S3150800397089F918B901242B6801332B600020D6F881
S315080039809C6036B914B1012388F8003006B0BDE84A
S31508003990F087B06868B14B460021CDE902A8CDE9A9
S315080039A000750DF117020DF04FFC9DF81730002B2E
S315080039B0E8D13668E5E700BF547701082DE9F043FA
S315080039C000260446ADF5457D7C22314605A802AFA2
S315080039D004960FF026F980222046009703AB04A927
S315080039E0FFF7E4FE01283ED104A80FF032F9039947
S315080039F03B68A0EB01080B44234428EAE87805460F
S31508003A0004A80144424618460FF016F900F8086063
S31508003A10D4F89060039B3968D4F890201944B142D1
S31508003A2012DCD4F89410E81A0244C4F89020014431
S31508003A3004AAC4F89410D41825182B1B002B0DDCE7
S31508003A400DF5457DBDE8F083A05C0DF09AFDD4F830
S31508003A50903001360133C4F89030DBE714F8010BD7
S31508003A600DF08FFDE9E7EBDD24AD802231462846CF
S31508003A700FF0D7F844AB4FF40072314618460FF0F2
S31508003A80D0F80DF1100903464A464FF001083146B1
S31508003A9012F8016B002E49D104A843F828100FF03C
S31508003AA0D8F82946334619F8016B0DF5887C5CF879
S31508003AB0042B824243D10133984501F8016BF2DAAF
S31508003AC0D4F89060039BB34242DC2346354A04A9E6
S31508003AD035480DF062FD28460FF0BBF80646039BF5
S31508003AE03F68F61A1F44E0191D4426EAE67204F1F7
S31508003AF098031744984204EB07014ED204F1900349
S31508003B0099424AD96A1E81190B1A002B39DD12F817
S31508003B10013F00F8013BD4F890300133C4F89030E7
S31508003B20D4F894300133C4F89430EDE7202E01F12F
S31508003B30010104BF43F8281008F10108A8E70DF1B0
S31508003B40100E7244D25CB242B1D00022EA54B7E7F2
S31508003B50D4F890300136E05C0DF013FDD4F89030BF
S31508003B600133C4F89030ADE7D4F89020013B013218
S31508003B70C4F89020D4F894200132C4F89420002B7D
S31508003B80F2DC00232E44E355731B002B7FF758AF56
S31508003B9015F8010B0DF0F5FCF6E729460FF04CF881
S31508003BA03346ECE76F750108597701082DE9F843A4
S31508003BB0D0E9245604460F46002294F89830012B83
S31508003BC007D10A2F07D1002384F898300020BDE8D2
S31508003BD0F88300F29F801B2F01D10223F4E70D2FF3
S31508003BE00DD1012384F898300D200DF0CAFC0A2067
S31508003BF00DF0C7FC00230120C4E92433E7E74FF0A2
S31508003C000008082F84F8988034D1454530DDB54240
S31508003C100FD138460DF0B5FC20200DF0B2FC013D61
S31508003C2038460DF0AEFC013E04F80580C4E924567A
S31508003C30CCE7FBDA05F1FF3938460DF0A2FC04EBB8
S31508003C400903A6EB0902611918460EF0D0FF04F81D
S31508003C5006800146013E48480DF09FFC35464D4515
S31508003C6001DC4D46E2E708200DF08BFC013DF6E746
S31508003C70ACD0DBE77F2F1CD1002EA7DDB542A5DA35
S31508003C806319691C21441846721B0EF0B0FF04F82C
S31508003C900680014639480DF080FC0820013E0DF0EB
S31508003CA070FCB542F9D1D4F89430013BC4F894308D
S31508003CB08CE70A2F98D0092F03D12046FFF77EFEFE
S31508003CC084E7D4F88C30013BB3427FF77FAFB54227
S31508003CD004EB050805F101090CDB384688F8007085
S31508003CE0D4F89430C4F890900133C4F894300DF0A9
S31508003CF048FC6BE74146721B04EB09000EF077FFA0
S31508003D0040460DF04AFC0820013E0DF03AFCB5424B
S31508003D10F9DDE2E7022B06D15B2F01D1032353E736
S31508003D2084F8982049E7032B7FF450AF413F84F885
S31508003D309820032F3FF64AAFDFE807F002070A1676
S31508003D40012120460DF0CEFB40E74FF0FF31F8E7A2
S31508003D50B542BFF63BAF605D0DF013FCD4F890306A
S31508003D600133C4F8903031E7002D7FF72FAF013DBE
S31508003D700820C4F89050BAE7627701086777010807
S31508003D8030B58BB06C46864D864813F090FA0FCD49
S31508003D900FC42B68844A2360FF238DF80130D2F8BC
S31508003DA04C3113F4802340F0EE80D2F850218DF880
S31508003DB001309DF801306C46FF2B08BF2C2368465E
S31508003DC07A4D8DF80130FEF7CDF93220FEF708FA64
S31508003DD00FCD0FC40FCD0FC495E8030084E8030088
S31508003DE0714BD3F84C21120300F1BC80D3F8504133
S31508003DF0E4B28DF81940FEF7AFF9044484F30804D9
S31508003E006B488DF81840FCF7E9FE6846FEF7E4F8BB
S31508003E103220FEF7EBF96748FEF7EAFA6648FEF73E
S31508003E205BFB664C664813F042FA0020FEF7E4F99D
S31508003E30FEF794FA236F002023F0070343F00303E9
S31508003E402367FEF7B5FA236F5E4923F474432367A5
S31508003E505D4BD3F8FC2012F0807200F08980D3F80D
S31508003E60FC2022F08072C3F8FC20D4F8802022F0CF
S31508003E70030242F00102C4F880200022C1F8802023
S31508003E80D3F8FC2042F08072C3F8FC204B4CD4F8DF
S31508003E90203123F0070343F00203C4F82031D4F895
S31508003EA0283123F0070343F00203C4F82831D4F875
S31508003EB0803123F0030343F00103C4F88031D4F8BA
S31508003EC0403123F0030343F00203C4F84031D4F829
S31508003ED0603123F0030343F00203C4F86031D4F8D9
S31508003EE0403223F0030343F00203C4F84032D4F807
S31508003EF0003223F0070343F00203C4F80032D4F873
S31508003F00083223F0070343F00203C4F80832D4F852
S31508003F10703223F0030343F00103C4F87032D4F877
S31508003F20203223F0070343F00103C4F82032FEF7DA
S31508003F303BF84FF0E0220020136943F004031361B5
S31508003F40D4F8603223F0070343F00103C4F8603263
S31508003F50D4F8943223F0070343F00103C4F89432EB
S31508003F600BB030BD194B1C88FF2C88BF522440E784
S31508003F70D4F8803023F0030343F00103C4F88030FB
S31508003F80C1F8802082E74FF07E6393F89C2093F96E
S31508003F909C30002BFFF60DAF8DF8012009E700BF16
S31508003FA06C770108B07701080080E00F8077010878
S31508003FB0005A620200B4C404C0EA2101008000501D
S31508003FC0B87701080090005000ED00E00001E00F0E
S31508003FD007B5094B18689A889B7900906846ADF82A
S31508003FE004208DF80630FEF70BFC0C20FEF740FC8B
S31508003FF0002003B05DF804FBA877010870B501F04E
S315080040001DF90446E8B901F0A3F911F0B3FD4FF420
S31508004010167343430C4A03F5742303F23F23B3FB99
S31508004020F2F30A490A480B600A230268094D0E682A
S31508004030013B45F8046B0E6813F0FF033244F6D1D2
S315080040400260204670BD00BF40420F006C2D002064
S315080040503C2D0020402D0020012208B5034B1A7084
S3150800406013F0D5F9024B186008BD00BF16370020BB
S31508004070382D002010B511F07DFD044612F0B7F872
S31508004080844207D913F0CFF920B10122024B1860F8
S31508004090024B1A7010BD00BF382D002016370020BD
S315080040A0F8B51F4C2378E3B113F0B1F91D4B1E4D3B
S315080040B01B68C01A28602B68A3B12B682B6011F007
S315080040C059FD4FF416725043184A00F5742000F251
S315080040D03F20B0FBF2F02B682B68834204D90023FB
S315080040E02370F8BD0123E9E71148124E03782968C1
S315080040F056F82320104F511A3A68521A29683A601E
S3150800410046F823100A210932B2FBF1F20B4D0133AE
S31508004110DBB22A60B3FBF1F201FB12330370DEE770
S3150800412016370020382D0020682D002040420F0049
S3150800413017370020402D00203C2D00206C2D002034
S31508004140014B1868704700BF6C2D0020F8B5032195
S315080041502C200DF0BFFA04264FF480120D4C0E4B9E
S315080041600E4F04F500555A662C206F676E672F6749
S315080041702E6700F0B7F82C2000F098F84FF0007280
S3150800418004F580535F675E67AA624FF480529A62AD
S31508004190F8BD00BF0040005A00900050010000A082
S315080041A0064B074A996D11F0050F01D0117811B128
S315080041B00028F7D170470120704700BF0040005A19
S315080041C018370020164B10B51C6F14F0040111D0D7
S315080041D0144A1167082191629B6DDA0701D4FFF72B
S315080041E049FF00F043FF00F023FF012011F000FD16
S315080041F013F01BF9E30706D501220A4B1A67FFF7E6
S315080042004FFF00F015FF14F000521CBF054B1A674C
S31508004210002CBEBF4FF00042024B1A6710BD00BF0C
S315080042200040005A0060005A0028ACBF00F1604008
S31508004230064B4FEA0111C9B2ABBF00F5614000F069
S315080042400F0080F800131954704700BF14ED00E002
S3150800425008B513F021F80B4B1A7872B901221A70B7
S3150800426013F015F86FF0040210460132052152B218
S31508004270FFF7DAFF4C2AF7D108BDBDE8084013F06E
S3150800428006B800BF1937002000280CDB01220649B2
S31508004290430900F01F008240203341F82320BFF372
S315080042A04F8FBFF36F8F704700E100E0002807DBF0
S315080042B001234109034A00F01F00834042F82130D8
S315080042C0704700BF00E100E0054B421153F8223069
S315080042D000F01F0023FA00F0C04300F00100704709
S315080042E000E100E0002808DB01224309034900F049
S315080042F01F008240603341F82320704700E100E048
S3150800430073B5044612F0C8FF054611F0E8FF60B120
S315080043100E4E3378FF2B8DF8073006D10DF10700C6
S31508004320FCF7D2FB9DF807303370094B28461C6012
S3150800433012F0ADFF11F0D3FF28B1224600209DF8F8
S3150800434007100CF05CFB002002B070BD733900202A
S31508004350702D002073B512F09FFF0D4D0D4B2E7872
S315080043601C6812F094FF11F0BAFF38B1FF2E05D081
S315080043700020297801AA0CF03BFB019C2CB912F00D
S315080043808BFF054B1C6812F082FF204602B070BDF9
S3150800439073390020702D0020742D002010B50446B6
S315080043A012F07AFF024B1C6012F071FF002010BD5C
S315080043B0742D002038B50C461546014610B9FFF78E
S315080043C0C9FF01462B462246034801F0A5FA0028F4
S315080043D0D4BF3720002038BD4317010838B5044636
S315080043E0D0F870311D68AB6C5906FCD5002394F8DB
S315080043F079111A4694F87801FEF75CFC002394F8C4
S315080044007B111A4694F87A01FEF754FC94F8803129
S31508004410DA0707D5002394F87D111A4694F87C012B
S31508004420FEF748FC94F880319B0707D5002394F8DB
S315080044307F111A4694F87E01FEF73CFC012205F529
S3150800444000531A65042200211A652846094D0CF006
S31508004450D1FCD4F8740112F02DFF284604F5C27178
S315080044600CF0F7FA2B6813B9034800F05DFD00203D
S3150800447038BD00BF782D00207C2D0020012910B5FD
S3150800448002D9022914D010BD134B1C68A4F5C274B6
S3150800449014F5C27FF7D0D4F8740112F008FFD4F8E7
S315080044A07031052118680CF0A5FCD4F88441EDE7B5
S315080044B0094B1C68A4F5C27414F5C27FE3D094F8BE
S315080044C0973033B994F895301BB9D4F8740112F0C3
S315080044D0F1FED4F88441EDE7782D00202DE9F04768
S315080044E01D4613688EB01F6891F83130814688469C
S315080044F0144606AE002B00F0F180DFF820C2BCE8B7
S315080045000F000FC69CE80F0086E80F00182200214E
S3150800451068460EF086FBA3680893237B012B00F000
S31508004520E080022B0CBF4FF440730023ADF8263011
S31508004530637B4FF0010A032B8CBF4FF480536C4A00
S31508004540CDF834D098BF32F813308DF806A0ADF800
S315080045502830A37B29465A1E022A88BF0023654AAB
S315080045608DF80030D8F8383048461A60624A5A60E2
S31508004570624A9A60624ADA60424600F043FB06469F
S31508004580002840F0A78023695E48C5F87431237E69
S3150800459085F87B31E37D85F87A31A37D85F8793115
S315080045A0637D85F87831A37E85F87D31637E85F84D
S315080045B07C31237F85F87F31E37E85F87E31236859
S315080045C0C5F8703112F073FE53460422A17D607D52
S315080045D0FEF770FB5346217E0222E07DFEF76AFB5A
S315080045E085F88061206912F062FE98F83130384605
S315080045F006A9002B78D00CF024FC95F8803143F0FE
S31508004600040385F880311421227D3F4B03EB4210C9
S31508004610C0F8941494F816C0617D253241EA0C411D
S31508004620C0F8AC14207EE17D03EB421341EA004159
S315080046305960A37B03F0FD03012B0BD195F880315C
S31508004640022243F0010385F88031A17E0023607EB3
S31508004650FEF730FBA37B023B012B0BD895F8803184
S31508004660042243F0020385F88031217F0023E07E8F
S31508004670FEF720FB95F88031DB0717D5A17E627E11
S31508004680237D42EA014241F29C415B0103F1A043CA
S3150800469003F570335A5041F2944202219950217F12
S315080046A0E27E03F5A55342EA01421A60174B1B68DE
S315080046B01BB91749174800F025FC144805F5C271BF
S315080046C00CF0B4F9144A07F5005305213846DA64A4
S315080046D00CF090FB30460EB0BDE8F087DFF840C01E
S315080046E00DE74FF4007321E70CF0AFFB8BE700BF33
S315080046F00C78010855170108871701086B17010878
S31508004700DD430008BC77010800C00350782D00205F
S315080047109C3700207C2D0020FF3F0D0314780108EC
S3150800472034780108034B022218680023806819466A
S3150800473002F09ABE18380020302337B5007D0DF1F7
S315080047400701434303F1A04303F58023DD6E1C6F85
S3150800475010F078FC9DF8070040B9054B9D4203D13F
S3150800476084F00204C4F3400003B030BD0120FBE727
S315080047701A3700203021037D02464B4303F1A0433C
S3150800478003F58023D86E07491B6F884208D113F0BA
S31508004790020006D0106A136D1B1A5842584170471A
S315080047A0002070471A3700207FB504460D4690F85A
S315080047B0A1600FF0FDF9022817D1D5B1AEB9114B9A
S315080047C06846CDE9003604F1FC03029320230393DF
S315080047D011F0AFFDC4F8F80020460DF02EF820B908
S315080047E00121D4F8F80011F0BAFD84F8A15004B0FC
S315080047F070BD002EF9D0D4F8F80011F038FEC4F8D0
S31508004800F850F2E7547801082DE9F743D0E9043463
S3150800481004F17C07D0F80C900646013B10220021D3
S315080048203846D4F874809DB20EF0FBF90B4BC5F3ED
S315080048300A0543EA0513C4E91F39012394F87800E9
S3150800484084F88C30C4F884803A46054B009604F107
S315080048506401FCF7C5FD03B0BDE8F0830000103025
S31508004860571801082DE9F04F04464FF444764FF0E7
S3150800487030093F4D00F138071022002185B038462F
S315080048800EF0CFF96687C4E90F55207DFCF7CEFDFB
S315080048901022002138460EF0C4F96687207D354E71
S315080048A0C4E90F5509FB0063DB6EAB4204D105B0C2
S315080048B0BDE8F04FFCF7DABD0DF10B0110F0C2FBB5
S315080048C09DF80B50002D4CD120460CF0A0FF8046D9
S315080048D003A9207D10F0D8FB039B2946013B1FFA4C
S315080048E083FB04F118031D4610221846D4F810A0BD
S315080048F00EF097F9A169204ACBF30A031B010A4077
S3150800490043F040731343C4E9063A237DC4F8208074
S3150800491009FB0366336F94F824205B0863F34102AE
S3150800492084F82420326F94F8243025F0030562F3C6
S31508004930000384F82430336F626A9B0863F39F028E
S3150800494045F002056262656400943A4621460B4BBF
S31508004950207DFCF745FD207DFCF788FD05B0BDE808
S31508004960F08F94F844306FF3410384F84430EBE752
S315080049701A370020000004500F80FFFCC5180108F4
S315080049802DE9F04F8BB004469946089106920FF030
S315080049900FF90228054613D14FF0FF31D4F8A400C9
S315080049A011F0B4FD002840F0298194F8A1303BB1FC
S315080049B04FF0FF332A460121D4F8F80011F023FD01
S315080049C00023C9F80030D9F80050069B5E1B00F09A
S315080049D0A180089B5D1900F09D8020460CF02DFFF4
S315080049E08346002840F0968020460CF010FF216D83
S315080049F094F89AA088429BBFD4E912329B18431AAE
S31508004A005B1A9E4228BF1E46BAF1000F00F0BA8014
S31508004A1012F042FC236D079020460993FFF78CFE9F
S31508004A203746099B804698198342D4F89C1040F073
S31508004A308280D4E912030344994208BFC4F89C0053
S31508004A40079812F024FCC246207DFCF7EFFC2046AE
S31508004A50FFF772FE054620460CF0D9FE236D834605
S31508004A60984240F29D80A26CB5B2934240F0908085
S31508004A70099304F128082369102200214046079368
S31508004A800EF0CFF83021079B013DE362099BC5F381
S31508004A900A052363237D2D014B4328F0030803F100
S31508004AA0A04345F0407548F0020203F58023A5624D
S31508004AB01A67236DD4E9121233440A44934208BF95
S31508004AC00B465B4523650DD194F8A13023B101212E
S31508004AD0D4F8F80011F070FC0123204684F854300D
S31508004AE0FFF7C0FE207DFCF7C1FC94F89A303BB175
S31508004AF0BAF1000F04D0236E112120465B6898474F
S31508004B0047B1D9F80030069A3B449342C9F80030B9
S31508004B10FFF459AF0FF04CF8022803D1D4F8A400DB
S31508004B2011F019FDD9F80030002B14BF00201B2006
S31508004B300BB0BDE8F08F013303F1FF3C614510D19E
S31508004B40C4F89C3013F8011C112901D0132915D17A
S31508004B50013FA1F1110251425141D34684F8A010F8
S31508004B6062E713F8011C01F0FD0CBCF1110F06D128
S31508004B70013FBBF1000F3FF457AFEAE7D34605F80C
S31508004B80011B51E7324628460EF056F837465BE7D2
S31508004B90238DC3F30A12154465F30E13238588E79C
S31508004BA0207D95B93023584300F1A04000F58020B8
S31508004BB0426E436EC2F30A1223F4FF43324423F0D3
S31508004BC0700343EA0213436673E70D4B0494039399
S31508004BD00023CDE90163012300935A46236921681E
S31508004BE00CF0A9F83022237D534303F1A04303F5C3
S31508004BF080235A6E22F480125A665AE7284697E7A7
S31508004C00C51801082DE9F0410C46154606464FF42D
S31508004C10B872002190B020460EF003F82746AC463D
S31508004C20BCE80F000FC7DCF8003005F1140C3B6038
S31508004C3004F16407BCE80F000FC7DCF80030EA6A25
S31508004C403B60AB6AC4E9132395F83020A36484F863
S31508004C50992095F83320C4F89C30012384F89A20CB
S31508004C6084F8A03084F85430AB6B236695F831305D
S31508004C7084F89830544B34607360544BB360544B8B
S31508004C80F360544B7361544BB361544B3361FCF777
S31508004C9073FB10B1524B98420FD1002107A8FCF7BD
S31508004CA0F3FA014648B9079B07A82375FCF7ECFAFF
S31508004CB0074630B1207DFCF739FB102010B0BDE85F
S31508004CC0F081079B4FF0010884F87830454B7362F2
S31508004CD0454BB362454B84F8A180CDE9083004F111
S31508004CE0A8030A93502308A80B9311F0D2FB404B54
S31508004CF0C4F8A400CDE9083708A804F590730A9308
S31508004D0011F0C7FB3B4BC4F81C01CDE90C3704F185
S31508004D10FC030E9320230CA80F9311F00AFB364BC5
S31508004D20C4F8F800F361354B95F832103362204623
S31508004D3084F8967084F895800CF0B3FEAB6B93F903
S31508004D401100FFF7CFFAAB6B93F91100FFF7AEFA34
S31508004D50207DFCF76BFB0028AFD1294B0494CDE9E5
S31508004D600203E36CCDE900832369A26C2168207DE8
S31508004D700BF0E1FF0028A0D13022237D4FF48011EB
S31508004D80534342F2640203F1A04303F5802399508A
S31508004D90AB6B93F91000FFF7A5FAAB6B93F910000C
S31508004DA0FFF784FA04F190000BF03DFE3046FFF75A
S31508004DB0F5FA2046FFF756FD207DFCF757FB00382D
S31508004DC018BF0120000179E7511901087F18010869
S31508004DD081490008F7170108FD1701081B1B010880
S31508004DE0038000F0A9470008091801086B78010834
S31508004DF07578010854780108A31A010803180108F0
S31508004E00C518010870B50568144E2C7D2046FCF7B8
S31508004E100DFB302303FB0463DA6E114B9A420FD164
S31508004E202846FFF789FC80B112F036FA01230D4AAD
S31508004E30A3405365A2F580529362536312F027FA92
S31508004E402046BDE87040FCF711BB2846FFF792FCE8
S31508004E500028F5D10123A340B364F1E7000004500C
S31508004E601A3700200020045013B5094C684600F094
S31508004E703FF8237853B9DDE900010222054B0DF00E
S31508004E80FCFB08B90123237002B010BD1220FBE712
S31508004E901B370020842D002007B5009313460A46C9
S31508004EA0014603480CF0FDFE03B05DF804FB00BFA5
S31508004EB0842D002013460A46014601480CF0E1BF3E
S31508004EC0842D002013460A46014601480DF0DCB839
S31508004ED0842D0020014601480DF02DBA842D0020AE
S31508004EE013460A46014601480DF0F2BA842D002001
S31508004EF00249034A0160521A426070478839002005
S31508004F000000042038B54160044612F0BCF9054695
S31508004F10214604480BF08AFD2846BDE8384012F0C1
S31508004F20ADB900BFAC2D002038B5054612F0ABF977
S31508004F300446294603480BF08CFD2046BDE8384058
S31508004F4012F09CB9AC2D002001480BF06CBD00BFD7
S31508004F50AC2D002070B512F096F9134D044613488F
S31508004F6012F0A5F92E7896B900F0D8F9FFF7ECFFFC
S31508004F7012F06EFA0E4B1E6010F0FCFD0D4B0E4A39
S31508004F801860536F43F0010353670DF094FB00F06C
S31508004F90A1F80DF0A6FB094B1860012320462B70DB
S31508004FA012F06CF9002070BD28370020BC77010884
S31508004FB0B02D0020D82D002000400050B42D002030
S31508004FC038B5044612F05FF90F4D02462B78FF2BD1
S31508004FD004D1B4B1BDE8384012F050B91BB9002C61
S31508004FE0F8D0012103E0002C0CBFFF2101210B445E
S31508004FF0DBB22B70B3FA83F304495B0910460B70D6
S31508005000E8E71946F3E700BF2537002024370020D4
S31508005010054B1B685843054B00F5742000F23F20EA
S31508005020B0FBF3F0704700BFD82D002040420F00B8
S3150800503010B5094B1B786BB1084C237853B110F0A7
S31508005040B3FB0023064A237013700123054A137025
S31508005050054A137010BD00BF2737002022370020ED
S31508005060213700201D3700201C370020034B1B78F2
S3150800507013B10122024B1A70704700BF2737002070
S315080050802237002073B5114E0446337883420FD079
S315080050904FF400730E4DADF8043058B101A8FDF772
S315080050A0B7FA4020FFF7B4FF2B68181A2860347047
S315080050B002B070BD8DF8050001A8FDF7A9FA4020D9
S315080050C0FFF7A6FF2B681844F0E700BF74390020E5
S315080050D0DC2D002073B5002401A88DF80440FDF7E7
S315080050E02FFB2046224CFFF7CDFFD4F80031214A8A
S315080050F003F0030313604FF480121F4B1F4D5A66CB
S315080051004FF400325A6610F07DFA1D4B1B780BB32C
S31508005110D4F8003103F00303022B23D0032B24D049
S31508005120012B17D10EF0CAFC024698B1154B164E44
S31508005130DC6800231946C4F30B04013404EB840429
S315080051400138E4FB060101F0EDFFFFF761FF2B686C
S3150800515003442B601F20FFF75BFF2B6803442B607B
S3150800516002B070BD0EF008FDDEE70EF0ADFCDBE721
S3150800517000800050E82D002000900050DC2D002013
S315080051802B37002000C0015040420F000122114B6E
S3150800519010B55A67104B114C1B78A3B1022012F0B8
S315080051A046F980B110F00EFD68B1A36DD90302D59A
S315080051B0E36D9A0703D4094B9B6DDB0704D54FF4BF
S315080051C08032044B9A6210BD0122054B1A70FEF715
S315080051D043FFF4E70050005A2C3700200040005ADD
S315080051E0293700200122014B1A7070472C370020FE
S315080051F008B50DF09BFC034B1868BDE8084011F094
S3150800520070B800BFF42D002030B5094D8BB001AC45
S315080052100FCD0FC40FCD0FC42B68002101AA054876
S31508005220236011F009F8044B18600BB030BD00BFBD
S3150800523084780108F1510008F42D002070B512F0A9
S315080052402BF8144E05463478FCB9134B1C60134BE7
S315080052501C60134B1C6000F02BF8012012F0FDF8BF
S3150800526010F092FD0F4B0246186020B9284612F03E
S315080052700EF8232070BD234640F2E7310A4801F0B4
S3150800528051FF0A4B186001233370284611F0FFFFBF
S315080052900020EFE72F370020002E0020FC2D0020ED
S315080052A0082E0020042E002018FCFFFFF82D0020F1
S315080052B010B5002486B01422214601A88DF80040B6
S315080052C00DF0AFFC012313488DF8043011F0EFFF01
S315080052D0BFF34F8F6846FDF7DBFF204601A98DF81F
S315080052E00440FDF7E7FF20460F210FF017FF0F21B7
S315080052F020460FF019FFFDF7B1FF0FF0F3FE064B3E
S3150800530043209C61FEF7EEFF4320FEF7CFFF06B071
S3150800531010BD00BFB077010800800A5008B50A48DA
S3150800532011F0C5FF40F6015200210120FDF708FEE5
S315080053304FF49672002101200BF0AEFD4FF48072F7
S31508005340024B9A6408BD00BFB477010800900A5062
S3150800535008B5094811F0ABFF40F6016200210220AA
S31508005360FDF7EEFD4FF49272002102200BF094FD3A
S315080053700022024B9A6408BDB477010800900A50CF
S3150800538010B504460EF080FB0C4BA0F57A729A42D3
S3150800539012D84FF47A73B0FBF3F05C43084BB3FBB7
S315080053A0F0F3B4FBF3F0022806D9BDE81040032356
S315080053B0B0FBF3F0FAF7DCBE10BD00BFFFC99A3B9D
S315080053C040420F002DE9F04F9B4691B00B1E0A9301
S315080053D0AD4B904614BF8146994600241A9E9BF809
S315080053E0000070B9444538BF224643464FF00000D6
S315080053F00A9928BF08F1FF32C847204611B0BDE810
S31508005400F08F25280BF1010B06D0224643460A9950
S31508005410651CC8472C46E2E700230DE02D2A2AD052
S31508005420302A06D0303A092A4FF0000711D80A2543
S3150800543032E043F001038B46594611F8012B2B2A1B
S315080054401CD0EBD8202A1CD0232A1DD02A2A2BD0E0
S3150800545000279BF800202E2A64D19BF801100BF137
S315080054600102A1F13000092843F4806351D80025D0
S315080054704FF00A0C26E043F00203DCE743F004038E
S31508005480D9E743F00803D6E743F01003D3E78B4682
S3150800549005FB0722A2F13007594611F8012BA2F1A4
S315080054A030000928F3D9D4E756F8047B8B46002F39
S315080054B0BCBF43F002037F42CBE702460CFB051153
S315080054C0A1F13005104610F8011BA1F1300EBEF10E
S315080054D0090FF2D9114611F8010B6C282CD024D8E3
S315080054E0682830D06A2837D011468B461BF8010B3E
