S02B00002F55736572732F6A65636C6F7574652F53696D706C696369747953747564696F2F73616E64626F781D
S3150800000000300020353A00087D6D01087D6D010835
S315080000107D6D01087D6D01087D6D01087D6D010806
S315080000207D6D01087D6D01087D6D0108B9B2010875
S315080000307D6D01087D6D01085DB20108EFDB0108E1
S315080000407D6D01087D6D01087D6D01087D6D0108D6
S315080000507D6D01087D6D01087D6D01087D6D0108C6
S315080000607D6D01087D6D01087D6D0108B9B5000833
S31508000070019C01087D6D01087D6D01087D6D0108F3
S315080000807D6D01087D6D01087D6D01087D6D010896
S315080000907D6D0108394400087D6D01087D6D0108F4
S315080000A07D6D010845400008254000087D6D010862
S315080000B07D6D0108A95101087D5A010867AB010841
S315080000C063AB0108F15101087DAB01086BAB010870
S315080000D04D5A01086FAB0108BD5A0108255B010896
S315080000E07D6D01087D6D01087D6D01087D6D010836
S315080000F0E78501087D6D01087D6D01087D6D0108A4
S315080001007D6D01087D6D01087D6D01087D6D010815
S315080001107D6D01087D6D01087D6D01087D6D010805
S315080001207D6D01087D6D01087D6D01087D6D0108F5
S315080001307D6D01087D6D01087D6D01087D6D0108E5
S315080001407D6D01087D6D01087D6D010867EE01086A
S31508000150B13C01087D6D0108819F0108879F010850
S315080001607D6D01087D6D01087D6D01087D6D0108B5
S31508000170F0B5114A114C124E00F00105E3695F070C
S3150800018013D40DB9334213D103EA00078F4207D1BE
S315080001900B4A1A40002A0CBF00206FF00100F0BD80
S315080001A0013AEBD16FF00200F9E74FF0FF30F6E7BE
S315080001B06FF00100F3E700BF809698000000035037
S315080001C0020001000B4B70B5D96911F480310DD1CD
S315080001D001244FF48072084E084DF46020462C64C2
S315080001E01A61FFF7C5FF3464EC6070BD6FF001005B
S315080001F0FBE700BF00000350001003500020035027
S315080002004FF4803238B50E4B0E4C9A66E56941F6C6
S31508000210713315400122E3630B4B0021DA60022398
S31508000220606121202361FFF7A3FF10B92120FFF7A2
S315080002309FFF0122054BDA600DB10023E36338BD49
S315080002400090005000000350001003500020035097
S3150800025070B5134C6061E3695B071ED40E4656F809
S31508000260043B8D18A361AE420BD104230021212043
S315080002702361FFF77DFF58B9BDE870402120FFF7DD
S3150800028077BF08210846FFF773FF10B104232361DF
S3150800029070BD56F8043BA361E5E74FF0FF30F7E77A
S315080002A0000003502DE9F84315464FF48032184BE9
S315080002B089469A6603F51C33DF690646174041F6F8
S315080002C07132DA63012203F58053DFF84C80DA6075
S315080002D055B9284601220F4BDA601FB10022A3F553
S315080002E00053DA63BDE8F88306F5005404EA080407
S315080002F0A41BAC4228BF2C46494622463046FFF787
S31508000300A7FF0028E6D12644A1442D1BE0E700BF3D
S31108000310009000500020035000E0FFFFA2
S31508000320013800D0FCE770472DE9F04F93B0CDE9CE
S315080003300A32DDE91C530E9353EC102BCDE9080164
S31508000340104619468DED060B1E9E0BF0F1FF80B187
S31508000350DDE906014FF0FF32C54B0CF011F840B944
S31508000360DDE906014FF0FF326FF480130BF0EAFF68
S3150800037070B1DDE908019DED060B0E9B1E96CDE9D1
S315080003801C53DDE90A3213B0BDE8F04F00F088B916
S315080003900022DDE9060100230BF0D4FF002800F057
S315080003A03381DDE906A303F1004BCBF30A5016F4BB
S315080003B08063A0F2FF3008BF06250F930BF0E6FC1A
S315080003C09BA3D3E900230BF04BFD9BA3D3E90023A2
S315080003D00BF090FBCBF31304894644F07F5180461B
S315080003E00022A44B504641F440110BF081FB94A324
S315080003F0D3E900230BF034FD02460B464046494636
S315080004000BF078FB0BF0C6FF04460BF0BFFC8EA37F
S31508000410D3E90023804689460BF022FD0022964B3D
S315080004200BF068FB0BF0B6FF89A3D3E90023074658
S31508000430494640460BF014FD8046384689460BF07F
S31508000440A5FC85A3D3E900230BF00AFD02460B465B
S31508000450404649460BF04CFB02460B46CDE90C23B9
S315080004600BF0FEFCDDE90C2380468946104619464A
S315080004700BF040FB0022CDE91001804B404649466F
S315080004800BF018FE00227E4B0BF034FB02460B469F
S31508000490404649460BF00EFE00227A4B0BF02AFB2B
S315080004A002460B46404649460BF004FEDDE90C239E
S315080004B08046894600204FF080410BF019FB024622
S315080004C00B46404649460BF015FB02460B46DDE94E
S315080004D010010BF0EFFD07F2FF3700226A4B0BF015
S315080004E009FB00223B050BF0BBFC52465B468046E7
S315080004F089460BF045FF002840F08980CDE90C8934
S3150800050004F16303C72B34BF0427052731051BD520
S3150800051053A3D3E90023504659460BF027FF00287A
S315080005207FD051A3D3E90023504659460BF00AFF62
S31508000530002876D00027A542C6BF2C1B04F1FF353C
S3150800054000253C4646F480660E9B9F422CBF4FF022
S315080005500008A3EB070816F0020903D0002F18BFFE
S315080005604FF000083CB1DDE90C23504659460BF024
S31508000570A1FD82468B46DDE90601002200230BF029
S31508000580E1FE10B10BF100439B46DDE9080126F4B4
S315080005900063CDE90183DDE90A324BEC10AB009527
S315080005A000F07EF802465FB3DDE9091316F0200F66
S315080005B000F10105089E0CBF65204520B047DDE91E
S315080005C008010523002205930A23002CCDE90232EF
S315080005D007F1FF374FEAD473B8BF64422A4601933E
S315080005E004970A9B009419F042F90246B9F1000FE4
S315080005F006D00B9BC41A0B9B1A190E9BA34245D80F
S31508000600104613B0BDE8F08FDDE906ABCDE6002253
S31508000610404649461A4B0BF04DFD013CCDE90C010D
S315080006206EE7002D90D00F9B002B8DD0013D8BE7F8
S31508000630FB799F501344D33FB3C8608B288AC63FC3
S3150800064061436F63A787D23F71A379094F930A4025
S315080006501655B5BBB16B0240EF39FAFE422EE63F9E
S315080006602D431CEBE2361A3F0000000080842E4121
S31508000670FFFFEF7F0000F83F0000E03F00002C403E
S3150800068000002440000018400000F03F2020DDE96B
S315080006900913089DA8470134ADE700BF0000000014
S315080006A02DE9F04F5BEC10AB97B0CDE90501DDE91C
S315080006B02057CDE90723504652465B465946229EA7
S315080006C00BF036FE70B90323CDE902760193B04BE1
S315080006D00093DDE90501DDE9072318F0E8FF17B007
S315080006E0BDE8F08F4FF0FF326FF48013504659463D
S315080006F00BF028FE28B10423CDE902760193A54B19
S31508000700E6E74FF0FF3250465946A34B0BF038FE4A
S3150800071068B1A24A06F00403002B08BF0322A04BC7
S315080007201CBF13460422CDE902760192D0E7504653
S3150800073093A3D3E9002359460BF022FE38B992A3B6
S31508000740D3E90023504659460BF0FCFD68B1DDE9B4
S315080007500723DDE905014BEC10ABCDE921762095A1
S3150800076017B0BDE8F04FFFF7DFBD00220023504663
S3150800077059460BF0E7FD002800F09A805B46524682
S31508000780002000210BF0B4F9012382468B46099319
S3150800079016F4806400F08E80092D40F28E800024C5
S315080007A030210EABA5F109020134202C03F8011BF8
S315080007B0A5EB040901D09442F6D1594650460BF0F0
S315080007C0E9FD784B054603EBC90393ED007B8DEDF8
S315080007D00A7B0BF0DBFA02460B46504659460BF0ED
S315080007E087F9DDE90A230BF03BFB02460B46CDE908
S315080007F00C230BF0F7FD80460BF0B8FA02460B46C1
S31508000800DDE90C010BF074F902460B46CDE90C2321
S315080008100022654B0BF0B4FD002851D008F1010801
S3150800082040460BF0A3FA02460B46DDE90A010BF037
S3150800083093FD10B14FF000080135B9F1000F50D102
S3150800084028460BF0A3FA02460B46504659460BF0CB
S315080008504FF90022544B804689460BF073FD30B1A0
S31508000860002240464946504B0BF08AFD10B1E80776
S3150800087000D501350A210EAB1A19202C0AD095FB92
S31508000880F1F001FB1055303502F8015B01340546DD
S315080008900028F2D106F00302012A57D1002F55D0BD
S315080008A0099A12B916F00C0F00D0013F302245E024
S315080008B009906DE74FF006097FE7A94600247CE713
S315080008C00022DDE90C01384B0BF03CFD0028B4D1C1
S315080008D0B8F1000F02D018F0010FAED008F10108E8
S315080008E0ABE70A210EAB2344202C0ED0B8FBF1F05F
S315080008F001FB1082B8F1090F02F1300209F1FF3944
S3150800090004F1010403F8012B11D83021A1440EAAE1
S31508000910202CAFD0A14504F101030AD11C4609F1E8
S3150800092058030DEB03092E2309F8203CA2E780465D
S31508000930DAE7A1541C46EBE71A550134A74205D954
S31508000940202CF9D1CDE902760194C1E6202CF9D004
S31508000950099A3AB12D2104F158026A4402F8201C7A
S315080009600134EFE7710704D504F158022B216A44D4
S31508000970F4E73207E6D504F1580220216A44EDE788
S315080009800000000065CDCD410000000065CDCDC159
S31508000990C9F20108CDF20108FFFFEF7FC0F2010896
S315080009A0C5F20108D8F201080000E03F0000000087
S315080009B02DE9F04F2DED088BDFF854B28A4CDBF8A1
S315080009C0005AF1B0ABF570479DB916F03BFA16F030
S315080009D03AFA8649206817F04AFE2846834919F0EC
S315080009E062F801238BF80C3A71B0BDEC088BBDE8B0
S315080009F0F08F092D12D816F025FA16F024FADBF82E
S31508000A00002A0A237A49206817F031FE0A23DBF800
S31508000A10002A7749002019F046F8E2E716F012FA9C
S31508000A2016F011FADBF8002A7249206817F01FFE43
S31508000A300020DBF8002A6F4919F035F8DBF8006A60
S31508000A409EB901238BF80C3A16F0FCF916F0FBF95F
S31508000A506949206817F00BFE6749002071B0BDECA4
S31508000A60088BBDE8F04F19F01EB8642EB1463D4616
S31508000A7028BF4FF064093A4600236049D2ED9F7AB1
S31508000A80FDEEE77A01339945E1EC017A02F5207229
S31508000A90F4D14A4601215A4819F03FF9012E594A1C
S31508000AA040F08D8000264FF4207AB046544B0093D0
S31508000AB0009A12F8013B009253B1B04507D04FF4A3
S31508000AC020720AFB08710AFB067019F031F9013623
S31508000AD008F10108C145EBD1092ECBF8006A19DCEB
S31508000AE016F0B0F916F0AFF90A23DBF8002A4649E2
S31508000AF0206817F0BCFD0A23DBF8002A42490020CB
S31508000B0018F0D1FF00220323114604208BF80C3A73
S31508000B100AF07AFC9BF80C3A012B95D0DBF8006AB0
S31508000B20092E91D997ED9F8A4FF0000801274FF0BB
S31508000B300009DFF8E0A0F0EE487A9AED008A78EE30
S31508000B40677AF0EEE77A17EE900A0BF031F902466B
S31508000B500B46404649460AF0CDFF0137BE4280465D
S31508000B6089460AF5207AE6D130460BF0FFF80246A8
S31508000B700B46404649460BF09DFA15F009FE08EE6D
S31508000B80100ADFED229AF0EEC87AF4EE697AF1EEF1
S31508000B9010FA41D903221E4B83F80C2A002204209E
S31508000BA0114671B0BDEC088BBDE8F04F0AF02CBCBD
S31508000BB063B901334B4502F10402F9D172E7012307
S31508000BC04FF0000EDFF838C009F1FF369E42F0D02C
S31508000BD052E90110411A1829EBDD5168401A182804
S31508000BE0C8BF0CF803E0E4E7B05700208D2F0208D1
S31508000BF0C92F0208F62F020863300208286D002064
S31508000C00558501202C6D002019300208FFFF7F7FD3
S31508000C105C60012058750020D54900238A46D54ACC
S31508000C20D2F87C0201339E4241F8040B02F5207289
S31508000C30F6DC0422D04B3146CD4819F0F1FF701E80
S31508000C400BF0A4F8C6A3D3E900230BF009F941EC8D
S31508000C501A0BB0EE4A0AF0EE6A0A02F0E5FC51EC0D
S31508000C60100B0BF097FBB0EE4A0AF0EE6A0A8046C4
S31508000C7002F05AFC51EC100B0BF08CFB8045074632
S31508000C8002D0864200F336810AEB8808D8ED007A4E
S31508000C90B0EEE77AB4EE697AF1EE10FA3FF67AAF7B
S31508000CA038EE088A38EE278AF0EEC87AF4EE697AC2
S31508000CB0F1EE10FA3FF66EAFDFEDB07AB4EE678A62
S31508000CC0F1EE10FA0DF1300848BFB0EE678AC1465A
S31508000CD000279FEDB19ADBF8006ABE4240F3A68171
S31508000CE0642F40F05B81132E40F3D981C14600245E
S31508000CF00025002759F8040B0BF05AF802460B4654
S31508000D00204629460AF0F6FE00970137BE420446F9
S31508000D100D46EFD130460BF039F802460B46CDE9C1
S31508000D200401204629460BF0C5F915F031FD0024CB
S31508000D3009EE100A00254FF0000958F8040B0BF0CD
S31508000D4037F8064619EE100A0F460BF031F8024638
S31508000D500B46304639460AF0CBFE02460B460BF0E8
S31508000D607FF802460B46204629460AF0C3FE009A3B
S31508000D7004464A450D4609F10109DED1DDE9042399
S31508000D800BF098F941EC100B15F0A2FE51EC100B84
S31508000D9015F0FEFC4FF000099FED737B0AEE100A72
S31508000DA0CA468DED027BC846DFED7BAA46469FED17
S31508000DB06E7B132EB8BF13268DED087B8DED067B53
S31508000DC0133EA8EB06077B1C0B930CAB03EB8607BD
S31508000DD0464540F340810B980AF0D8FF04460D4675
S31508000DE002460B46DDE906010BF064F92246064683
S31508000DF00F46DDE908012B460BF05CF9324604463E
S31508000E000D463B46304639460BF02AF802460B4655
S31508000E10204629460AF06CFE02460B4643EC1B2B7D
S31508000E20002200230BF0ACFA002800F03281B0EE65
S31508000E304B0AF0EE6B0A15F04BFE51EC100B15F051
S31508000E40A7FC08EE900A18EE900A0AF0B1FF0B46C6
S31508000E500246DDE902010AF04DFEF5EE007AF4EEEF
S31508000E60E78AF1EE10FACDE9020108F1010340F133
S31508000E7013810AF1010AD145B8BFD146009A424505
S31508000E8040F0E780DDE90423DDE902010BF012F901
S31508000E9015F07EFC3A4B08EE900A3A48B9F11D0F58
S31508000EA0C8BF1846B0EEC99AB4EE699AF1EE10FAC0
S31508000EB0354D0ED8B0EECAAAB4EE69AAF1EE10FA0C
S31508000EC007D8F0EEE87AF4EE697AF1EE10FA40F215
S31508000ED0EE8015F0B7FF15F0B6FF2C4B2C491868B5
S31508000EE017F0C5FB2A49002018F0DDFD032385F815
S31508000EF00C3A53E640460AF049FF02460B4651ECC7
S31508000F001A0B0AF0F5FD0AEB8808CDE90001D8F8B6
S31508000F1000000AF04DFFDDE90023804689460020DF
S31508000F201C490AF0E5FD02460B46404649460AF0CA
S31508000F3097FF0AEB870A8046DAF8000089460AF026
S31508000F4037FFDDE900230AF08BFF02460B464046D1
S31508000F5049460AF0CFFD15F01BFC07EE900A97E606
S31508000F60666666666666EE3F0000000000000000E2
S31508000F70B86E00205C7000204B9F010800002042DC
S31508000F80742F0208722F02085C600120B0570020F7
S31508000F90D53002080000F03F0000000005F59C71FE
S31508000FA02A468C4600235FED047A05F59E705CF8A8
S31508000FB004EFBEF1000F04D092ED007A77EE877A3F
S31508000FC0013304329042F2D1012B07DCF0EE497A64
S31508000FD0E9EC017A013705F520757EE607EE103A49
S31508000FE0B8EEC77A2A46C7EE878A1FED157A51F8F2
S31508000FF004CFBCF1000F05D0D2ED007A77EEE87A7F
S3150800100007EEA77A04329042F1D1013B00EE103A7E
S31508001010B8EEC00A87EE000A15F038FDB5EEC00A2C
S31508001020F1EE10FAD2DDC8EE807AD1E7002E3FF74E
S315080010305AAE15F007FF15F006FF8149206817F02C
S3150800104016FB00207E4918F02EFD03238BF80C3A78
S31508001050A4E59846AAE657F8040B0AF0A9FE044642
S315080010600D4602460B46DDE906010AF043FD224617
S31508001070CDE906012B46204629460AF0F1FE02462E
S315080010800B46DDE908010AF035FD0136CDE9080110
S315080010909EE6F0EE6A8AD6E64FF0000AEEE6DFED47
S315080010A0698A6948B0EE68AAB0EE689AFAE66749AE
S315080010B018F053FE002840F09780B2EE047AF1EE5D
S315080010C0047A48EE877AB0EEE77AB4EE697AF1EEFA
S315080010D010FA7ED838EE278A5D4BDFED5E7A93EDFF
S315080010E0017A37EE277AF7EE007A37EE276A93ED1C
S315080010F0020AC7EE066A38EE408A77EEE67A08EE06
S31508001100260A67EE877AC3ED017AF0EEC07AF4EE26
S31508001110697AF1EE10FA83ED020A3FF63BADF1EE7D
S31508001120047AB4EEE70AF1EE10FA6BD4DFED4A7AE8
S31508001130B4EE670AF1EE10FA37FE800AB8FE400AE6
S31508001140FDEEC07A17EE903A412BA8BF4123052B36
S31508001150B8BF052307EE903AB8EEE70A0BF5216308
S3150800116083ED000A02233D4C3D4A3E493E488BF832
S315080011700C3A3E4B84ED000A0BF0D6FE21460422BB
S3150800118001200CF0A5FE04220446374910460CF04F
S315080011909FFE04223249044005200CF099FEE4B271
S315080011A004223049044006200CF092FE04222F49FE
S315080011B0044007200CF08CFE2D4E04B128BB15F018
S315080011C041FE15F040FE2B49306817F050FA2949C0
S315080011D089E615F037FE15F036FE254B26491868C0
S315080011E017F045FA24497EE615F02CFE15F02BFE7D
S315080011F01F4B2249186817F03AFA2049002018F0C0
S3150800120052FC69E7B0EE670A98E715F01BFE15F081
S315080012101AFE9BF80C2A1A49306817F028FA9BF828
S315080012200C2A1749002018F03EFC15F00BFE15F0A5
S315080012300AFE1449306817F01AFA12490DE400BF7D
S31508001240AD300208000000007B2F0208722F02084A
S3150800125050700020CDCCCC3D000082425C7E01203F
S31508001260507E01204C7E0120547E0120487E0120BC
S31508001270B05700204B310208043102082731020812
S3150800128079310208B63102081A4A107870B35368E1
S315080012906BB330B4946834B3174890F8222072B10F
S315080012A000211D781846013115B95D78954204D09C
S315080012B08C4203F11403F4D1002030BC7047194660
S315080012C090F800C004EB840403E0A24201F1140183
S315080012D0F2D013F8220005320128F6D14D680846E7
S315080012E06545F2D1E9E7204630BC70477047184695
S315080012F0704700BFA8360020B888012010B50D4CED
S31508001300237883B90C4B93F82220012A06D01A7841
S315080013100A4B0E2053F8223013B910BD084B1B6830
S315080013200020E36010BDFFF7AFFF08B18368F7E759
S31508001330212010BDA8360020B88801200488012085
S3150800134094FC0108C0F30732C0F30741C0F3075302
S3150800135012F00E0003D002F00F02013AD0B211F0DB
S315080013600E0F04D001F00F0101390844C0B213F082
S315080013701E0F04D003F01F03013B1844C0B2704788
S31508001380434A2DE9F041536D166FC3F3071706F06C
S315080013900F04C6F30425E21EC6F3031E2A4472444C
S315080013A0D2B2904228BF1046C3F30311C6F30726EC
S315080013B0002867D017F00E0F5FFA83F803F00F0CBA
S315080013C04FF00102034602D109E0914207D90132E2
S315080013D0013BD2B2F9D14FF4881C120334E018F05D
S315080013E00E0F4FF0010102D10AE08C4508D90131F0
S315080013F0013BC9B2F9D1090441F4801C120323E068
S3150800140016F01E0F08BF4FF4801C11D04FF0010CC8
S3150800141001E065450AD90CF1010C013B5FFA8CFC29
S31508001420F7D1090441EA0C5C12030DE04FEA0C5CA3
S315080014308C4202D810E08C420ED00131013BC9B271
S31508001440F9D14CEA014C12034CEA020C00F03F00B9
S3150800145040EA0C00BDE8F081964502D8F1E79645CA
S3150800146004D00132013BD2B2F9D1EAE74CEA014C89
S315080014704FEA0E324CEA020C00F03F0040EA0C003C
S31508001480BDE8F0814FF480524FF4881CDCE700BFBA
S3150800149000C000B8002210B584B0CDE9012203923D
S315080014A0A0B1B0F5803F03460ED3B0F1807F2CBFC4
S315080014B0202218220B4801A9C06A8DF8042002933D
S315080014C018F06FFE04B010BD1022F3E7054C01A911
S315080014D0E06A18F064FE0028F4D1029BA36004B009
S315080014E010BD00BFB888012000202DE9F0413B4E11
S315080014F03B4C328BB6F87C30013A7261B4F84C201A
S31508001500618E30611344E06A84B0E1867367C6F879
S31508001510881018F0A2FEE76A002F3FD0A1886388DA
S315080015208B4205D038460EF00FF9054660BB618838
S3150800153038460EF009F9054630BB94F82130E3B970
S3150800154094F85D30CBB1D6F88C30B3B1326AA06A64
S31508001550E36802EB400103F51C52103291420CD8A5
S31508001560D6F88C201344A3EB0008384618F09EFEE4
S31508001570A8EB0000B0F57A7F15DA002238466188B4
S3150800158018F019FD05461DB1284604B0BDE8F081DE
S315080015901CF0A2F8284604B0BDE8F08122252846AA
S315080015A004B0BDE8F0812B46D6F88C208DF804509F
S315080015B0ADF80C508DF80E50E568316A2A44A56AD4
S315080015C00A44154438466A4661880295CDF8008073
S315080015D018F0F3FC0546002DD6D1D9E7A836002029
S315080015E0B888012070B582B0002940D0244A054643
S315080015F00E460DF0E9FE044610B1204602B070BD55
S315080016003146284618F06BFD4FF6FF73984203D013
S31508001610014628460EF098F81A4E337C5BB34FF411
S31508001620C073194ACDE9002328464FF0FF324FF020
S31508001630FF3318F051FD04460028DED1284618F07D
S315080016409EFD0328014612D0284618F0AFF9044635
S315080016500028D2D12846B6F912100EF08DF80446A5
S315080016600028CAD128460EF0A3F87082C5E72124BF
S31508001670204602B070BD4FF0AB424FF4D973D1E7A4
S31508001680F9D20108B88801206CC401002DE9F0419F
S3150800169084468E4604460D4690F82060C769BEE823
S315080016A00F00ACE80F00BEE80F00ACE80F009EE89C
S315080016B007008CE80700E76195F820108CB0B14266
S315080016C00BD0B9B937B3384617F076FC684607F039
S315080016D001FF95F820600023E36184F82060E9693A
S315080016E021B1E06910B1B20018F022FB00200CB05D
S315080016F0BDE8F0813846890017F0ADFD804668469A
S3150800170007F0E8FEB8F1000F06D0C4F81C8095F87B
S315080017102060E2E73E46DEE71920E76184F82060AC
S31508001720E5E700BF2DE9F041144E8CB07368FBB1B4
S31508001730B2686F46A2B100246F462546A0461A191C
S315080017401069013540B117F037FC384607F0C2FE7C
S3150800175073681A19C2F81080B2681434AA42EED80F
S31508001760184617F029FC384607F0B4FE00237360C4
S315080017700023B36033700CB0BDE8F081A8360020B2
S315080017802DE9F043624D01220021E86A89B018F07C
S3150800179007FC00205F4CB5F84C20238BA988013B39
S315080017A06361B4F87C302061134463676B882A8EC2
S315080017B08B42C4F8882003D0E86A0DF0C5FF698813
S315080017C0E86A0DF0C1FF278B002F6BD0A36FB3F526
S315080017D0806F67D8EB7D002B40D14FF0000CB5F831
S315080017E04C6095F85000B4F87C9095F854E007F1F1
S315080017F0FF3819464EB1F11889B21A4601339BB221
S315080018002244994282F89000F7D1C44517DB0B466B
S315080018100CF1010C6745ECD1298EE86AA98618F007
S315080018201AFD0123B4F878203B49E86A18F0EDFC64
S31508001830A36F984217D0012009B0BDE8F083B9F12B
S31508001840000FE4D009EB01039BB20A46013189B2C5
S3150800185022448B4282F890E0F7D1D9E7AA6904239B
S31508001860C4F89020B9E795F82120FAB12B4A276ADF
S3150800187095F8206005AB07CA83E80700ADF81A702B
S3150800188036B3721ED2B295F85D108DF8162011B1D6
S31508001890D4F8902462BB00226988E86A009218F09E
S315080018A086FBC9E7212009B0BDE8F08395F85D30CD
S315080018B013B1D4F890346BB9002201246988E86A18
S315080018C005AB00920592ADF8184018F06EFBB3E729
S315080018D00322D8E7EB68D4F89014009219440591CE
S315080018E0E86A698805ABADF8182018F05EFBA3E72F
S315080018F00022E968D4F8904400930C44E86A6988A1
S3150800190003AB01920394ADF8102018F052FB93E74D
S31508001910B8880120A836002038370020D03F0208B2
S3150800192052B370B505460E4614460021012218F03A
S3150800193037FB314628460DF007FF31460022284678
S3150800194018F039FB0D4A0E4B9268284662615A6CAC
S3150800195000212260DA6C62605A6BA3F58043A260AC
S31508001960D3F81C21E260D3F83C3101222361268397
S31508001970BDE8704018F014BB704700BF00C000B83F
S31508001980008001B830B52C4D8DB095F85D30002B30
S3150800199045D12A4C686C30B117F00EFB684607F043
S315080019A099FD00236B64D4F8940438B117F004FB4E
S315080019B0684607F08FFD0023C4F89434D4F89804D9
S315080019C038B117F0F9FA684607F084FD0023C4F821
S315080019D09834D4F89C0438B117F0EEFA684607F044
S315080019E079FD0023C4F89C340CF01AFFD4F8A0043F
S315080019F048B117F0E1FA684607F06CFD0023C4F811
S31508001A00A034C4F8A434FFF78DFE0CF0A1FF0C48EF
S31508001A1017F0E5FC002384F8B8340DB030BD012278
S31508001A200021E86A18F0BCFA044C0028B2D185F8FF
S31508001A305D0084F87000ADE7B8880120A83600205C
S31508001A40503B0020002800F086802DE9F047054627
S31508001A501DF00AF9404C81461DF0FDF8636D23F030
S31508001A60040363651DF0F2F81DF0F5F83B4B5A6C5C
S31508001A7000225A641DF0EAF84FF00043384A136210
S31508001A8000BF00BF02F58052136202F5903213615F
S31508001A9000BF00BF4FF08043324F13610A2128462A
S31508001AA018F00AFCD7F8A034DFF8C080D3F800A0F5
S31508001AB01DF0D1F8636CC4F844A01DF0C7F8D7F838
S31508001AC0A034294ED3F804A01DF0C5F8E36CC4F879
S31508001AD04CA01DF0BBF8D7F8A034D3F808A01DF029
S31508001AE0BAF8636BC4F834A01DF0B0F8D7F8A03480
S31508001AF0DC681DF0B0F8D8F81C31C8F81C411DF098
S31508001B00A5F8D7F8A0341C691DF0A5F8D8F83C311B
S31508001B10C8F83C411DF09AF848461DF0A0F8336B0A
S31508001B20284699B2736318F096FBF18E284618F08A
S31508001B3094FBB18873888B4204D12846BDE8F047E8
S31508001B400DF002BE28460DF0FFFD28467188BDE857
S31508001B50F0470DF0F9BD7047008001B800C000B825
S31508001B6000D000B8A8360020B8880120004001B887
S31508001B702DE9F04F8A4291B09DF86880C0F0308117
S31508001B809B46002B00F02C81B8F1000F00F028814D
S31508001B90BF4C8A46E36A914620700293FFF7AEFB74
S31508001BA0002840F02181BB4DE9688A68D689178AE2
S31508001BB0B14507D3BA4505D8564538BF56464F45A9
S31508001BC028BF4F46BE4200F20B81E06AFFF70AFDC6
S31508001BD00146002840F0088184F80680A7EB06082D
S31508001BE0E862C5F8BC04C5E90900C5F8C0041FFACF
S31508001BF088FAA9480AF101032022C0E90111C0E9BF
S31508001C000311C0E905111FFA83F91C30A4F84CB07A
S31508001C106680A780A5F8189018F07FF80022029829
S31508001C20AA66002800F0E780B9F1000F00F0D88016
S31508001C3018F06CFAE861002800F0D6809749B4F8E5
S31508001C405220B1FBF0F1013A0A44B2FBF1F21BFA59
S31508001C5082FC01FB0CFC92B2BCF1270FC5F8801080
S31508001C60A5F87C2009D801F1270BBBFBF1FBABEBF0
S31508001C70020B1FFA8BFBA4F84CB0B4F85630002BB5
S31508001C8000F0B68003F1FF3C8C44BCFBF1FC5FFA24
S31508001C908CFC85F885C0B4F84EC0DC4505D30CF13C
S31508001CA0010C1FFA8CFBA4F84CB01AFB02FA19FBBC
S31508001CB00BF3E27D1FFA8AFA1AFA83F303EB82031F
S31508001CC0A268AB67002A00F0988095F884C0DFF810
S31508001CD0D0E1B4F85A200EFB0CFC0EFB02F2B2FB64
S31508001CE0F0F2BCFBF0FC94F85C00184401FB0022FF
S31508001CF062442A62B4F84C209A4271D80020E17DE9
S31508001D0095F885C0DDF80890CCEB810C02EB8101D3
S31508001D105B1A99B2624461F30F0062F31F40C4E98B
S31508001D200C00484618F097FAE18E484618F095FADE
S31508001D304846B5F8781018F0CDF9237CAA6F002B21
S31508001D406DD10CF06DFD2B8B002B49D0D5F8A00476
S31508001D50C3EBC3034FEA830A002800F08680514686
S31508001D6017F079FA834604AB1846039307F0B2FBDB
S31508001D70BBF1000F00F08980C5F8A0B452460021D7
S31508001D80584617F0CAFF2B78C5F8A4A4002B58D0DC
S31508001D90FFF77AFA40B3016931B3828996421FD3B5
S31508001DA0C389BB421CD3B61A1C22584602FB06112D
S31508001DB008FB022217F0BCFF257D012D72D0022DEB
S31508001DC000F0A080002D00F09780237C002B40F0C7
S31508001DD09E8001220021029818F0E2F8002000E017
S31508001DE0212011B0BDE8F08F012011B0BDE8F08FB9
S31508001DF04FF0030C4DE72220F3E704A90298CDE93A
S31508001E000422069218F0CBF9059B9DF810C0A36032
S31508001E10E869AB6FD5F8801085F884C057E7E37D8D
S31508001E2094F85C000193B5F87C3010440093B4F83C
S31508001E304C302A8BA17980B20CF03EFC002882D067
S31508001E40CFE79946D5F8A0241FFA89F33146C3EBA4
S31508001E50C3030136029802EB8302B6B2FFF760FDB0
S31508001E60B74209F10109EDD2A6E7504616F097FFE9
S31508001E7004ABC5F8A0041846039307F02BFBD5F866
S31508001E80A0B4BBF1000F7FF479AF1920A9E700BF12
S31508001E90B8880120A8360020D436002000127A001F
S31508001EA040420F000025606C84F84050E56328B175
S31508001EB017F082F8039807F00DFB6564A07D800093
S31508001EC016F06DFF03460398636407F003FB636C23
S31508001ED0002BDAD01CF0BFFE00220E4B596C5A6458
S31508001EE01CF0B4FE4FF000430B4A136200BF00BF5C
S31508001EF002F58052136268E71CF0ADFE054B5A6C7A
S31508001F005D64EDE7607DFFF73BFAA063E2E70CF05E
S31508001F1087FB5EE700C000B800D000B800232DE9B3
S31508001F20F04F2DED048B1D469FEDCD9ADFEDCD9A32
S31508001F309FEDC98BA3B0DFF850A3DFF848838DF86F
S31508001F402B304FF0FF33C849DAF830050DF12B0274
S31508001F501CF097F805238AF838359AF8C83485B1FD
S31508001F607BB908238AF878350423C049CAF880352E
S31508001F709DF82B204FF0FF33DAF8E0051CF04DF8FA
S31508001F80DFE7072B00F26186DFE813F0F60097001B
S31508001F90580148004D012401800108000723012249
S31508001FA00021D8F82C008AF8783517F0F9FF18B907
S31508001FB08AF8700088F85D00042300258AF8383509
S31508001FC09AF8C834CAF88005CAF84005032B00F009
S31508001FD07081052B3DD04FF0FF339DF82B20A34988
S31508001FE0DAF8E0051CF019F89AF8C834022B40F024
S31508001FF05C819AF83835032B4AD00022CAF88C201F
S31508002000022B9ED198F85D3023B198F81030002B3A
S3150800201000F05E810023CAF8903492E79449DAF812
S31508002020D034D1E90221002B00F05881540102F086
S31508002030806040F14484DAF82C000130CAF82C009C
S31508002040CAF840358B4BC3E9022102238AF8383592
S3150800205000259AF83835052B00F08A80042B40F2C3
S315080020602A814FF0FF300121834A0CF089FC9AF847
S3150800207038350028BFD0032BBFD1192800F04B8470
S315080020807C4B83ED028B0023CAF84035CAF85035DD
S31508002090DAF8E84924B10CF0D9FBDAF8E014A047DD
S315080020A00CF0D2FB98F85D30002B40F009819AF8C5
S315080020B03835022B7FF445AFACE701238AF878352B
S315080020C0DAE912321344DAF850201344DAF85420C5
S315080020D01344DAF858201344DAF85C201344DAF883
S315080020E060201344DAF864201344DAF8BC24CAF8EA
S315080020F02420DAF8C024CAF82820D21800F0EB8089
S3150800210007EE903A07EE102AF8EE677AB8EE477AA5
S31508002110C7EE876A66EEA97ACAED1A7A0CF0A0FBB2
S31508002120DAF8A4340344D8F83C00CAF86C3008B18D
S31508002130FFF708F98AF87100DAF8E40518B1DAF851
S31508002140E405FFF7FFF84D498AF872005C2201F5AD
S31508002150AD6017F0EDFD0023CAF8DC359AF8C834EF
S31508002160032B7FF436AF9AF83835052B7FF476AF14
S315080021700023CAF88C30E4E616A807F0ABF9002766
S3150800218001229AF8D0348AF838758AF84035CAF8A0
S315080021904425CAF8B0258AF87875002B00F0138113
S315080021A0934240F00881BC46354C364E8AF8803555
S315080021B00FCE0FC40FCE0FC496E8070084E80700B9
S315080021C0CAF8B07516A8CAF844C507F083F99AF88C
S315080021D0C834C5E72649DAF8D024D1E90231059191
S315080021E0002A00F00481D80303F4803140F1BB8053
S315080021F0DAF848100131CAF84810CAF868251D4AA5
S3150800220013631346059A83ED028B5A630023032250
S31508002210CAF840358AF83825AAF84435CAF8503538
S31508002220AAF8643514E704238AF87835FFF75CF9C9
S3150800223001259AF8C834CAF8800591E702238AF876
S315080022407835FFF79DFA01259AF8C834CAF880054B
S3150800225086E700BFAFF30080000000000000000022
S31508002260000000000000C842703B0020203C00200F
S31508002270783B0020E83B0020E03B0020C0360020E9
S315080022802C3C0020B8880120A8360020062398F8A0
S315080022905D508AF8783555B324230122CAF880356B
S315080022A08AF83825CAF8403595E6042B3FF4A1AEDE
S315080022B0CFE69AF83835BB4A02EB8303D868D2E6EC
S315080022C0FFF712F90446002859D19AF8383597E6E7
S315080022D0FFF756FA35E6F0EE497A1DE7CAF84035B3
S315080022E0B14B83ED028B02238AF83835B0E6AF4B43
S315080022F0202203F11C002946C3E90255C3E9045507
S31508002300CAF8BC54CAF828509D61C3E90055CAF8F2
S315080023102450CAF8C05417F000FD98F814308AED16
S315080023201A9A012B00F065830022012598F81010EF
S31508002330CAF8E4258AF8722088F85D508AF8705041
S31508002340002900F0E582A94240F0D682FFF7CCF8D2
S3150800235001229AF8C8341546CAF88005CAF8400515
S315080023608AF8382532E6059800F48000014300F023
S31508002370B182DAF84C100131CAF84C103DE7002357
S315080023808B4816A9169316F0CAFF00289DD1052278
S315080023900026002716990346C1E904678C60886100
S315080023A00A700246DAF830051BF037FE169980489F
S315080023B016F0CEFF89E7212308229C468AF878255D
S315080023C0CAF88035FEE67B498AF8803501F1600057
S315080023D0FFF75CF9CAF8B005002800F0D7829AF82A
S315080023E07835002B40F08182DAF8B0C5EAE6069324
S315080023F0DAF8E034D8F82C9004930CF02DFA022180
S3150800240083460BAA484617F01EFF0646002800F02A
S31508002410BB805A46CB4691460795584666490BAA4D
S3150800242017F01DFF98F81730BDF82E40C3B1D8F83D
S315080024301C30DAF8E805002B00F0158298F8201011
S31508002440002900F010821A68013209D003EB8101D5
S3150800245002E0994200F0078253F8042B8242F8D131
S31508002460314610AA584617F0F0FE109B31465846DA
S31508002470CAF88C3017F0EDFE049B002B40F026813D
S31508002480494B83ED028B4FF003038AF83835002356
S31508002490CAF84035AAF84435CAF85035AAF864355A
S315080024A0002C40F0FF800024DAF89434ABB1BAF877
S315080024B01800800016F073FCCAF8480516A807F03D
S315080024C009F8DAF84805002800F0C981BAF8182092
S315080024D0DAF89414920017F02BFCDAF89834ABB1BA
S315080024E0BAF81800C00016F05AFCCAF84C0516A827
S315080024F006F0F0FFDAF84C05002800F0AE81BAF8CD
S315080025001820DAF89814D20017F012FCDAF89C347E
S3150800251093B1BAF8180016F042FCCAF8500516A886
S3150800252006F0D8FFDAF85005002847D0BAF8182080
S31508002530DAF89C1417F0FCFB1B4B83ED0C8BBDF8EB
S315080025405430AAF860359DF94E30AAF856359DF8EC
S315080025504F308AF85835109BCAF85C35002C3FD1A5
S31508002560BAF81830CAF86845AAF8643598F81430E5
S31508002570012B6DD0022158460BAA17F064FE0646B9
S3150800258000287FF44AAF079D9AF838259AF8C83488
S31508002590052A40F05183032B7FF41BAD0023CAF8AC
S315080025A08C30CEE4D03F0208E83B0020D436002029
S315080025B0503B0020B8880120903C0020CC4B83ED8E
S315080025C00C8BBDF85430AAF860359DF94E30AAF840
S315080025D056359DF84F308AF85835109BCAF85C3541
S315080025E0DAF8400538B116F0E7FC16A806F072FFCF
S315080025F00023CAF84035DAF8480538B116F0DCFC8D
S3150800260016A806F067FF0023CAF84835DAF84C051D
S3150800261038B116F0D1FC16A806F05CFF0023CAF8FC
S315080026204C35DAF8500538B116F0C6FC16A806F08F
S3150800263051FF0023CAF8503500231924AAF8443557
S31508002640AAF8643598F81430CAF86845012B91D170
S3150800265098F8403098F81660B3428BD2D8F84450B0
S31508002660002D00F08F81DAF8E42545F823200133A0
S31508002670DBB29E4288F840303FF67CAF002705EB78
S31508002680860455F8040BFEF75DFEA5420744F8D10B
S3150800269007EB5600B0FBF6F0C0B2FEF771FEC8F8BD
S315080026A03C0067E72046AAF8444516F078FBCAF8C6
S315080026B0400516A806F00EFFDAF84005002800F0D7
S315080026C0D08022468B4917F033FBECE6BAF818306F
S315080026D093B300252A460CE0D9F80030013503EB00
S315080026E082034FF001021A72BAF81830AAB293425E
S315080026F022D998F817E0BAF87CC0B8F84E70B8F83E
S315080027004C6098F850302146CDE902CECDE90067F5
S3150800271078481BF067F8ABB203EB43021346002870
S31508002720DAD1D9F80020013502EB8302BAF818305D
S315080027301072AAB29342DCD8DAF8940438B116F0CB
S315080027403BFC16A806F0C6FE0023CAF89434DAF84D
S31508002750980438B116F030FC16A806F0BBFE002324
S31508002760CAF89834DAF89C0438B116F025FC16A88D
S3150800277006F0B0FE0023CAF89C34BAF818008000A8
S3150800278016F00DFBCAF8940416A806F0A3FEBAF8CC
S315080027901800C00016F003FBCAF8980416A806F03D
S315080027A099FEBAF8180016F0FAFACAF89C0416A8A0
S315080027B006F090FEDAF89C34002B72D1DAF894040D
S315080027C000283FF45DAEDAF89834002B3FF458AE93
S315080027D098F806C0B7EE087A07EE90CAF8EEE76AE8
S315080027E0C6EE877AFCEEE77A17EE902ABAF8183022
S315080027F01FFA82FE002B3FF443AE0026CDE908B44B
S3150800280032463746F34603E0DAF8940498F806C0E9
S315080028100124D9F80030B5B205EB450153F821106B
S3150800282000EB85005B46CDE9017C00941BF05AF964
S31508002830DAF89424DAF8983452F8250003EBC5053B
S315080028401BF09EF92644BAF81830B2B29342C5E98D
S315080028500001D9D8DDE908B412E6012456E60124B8
S315080028603BE6012420E64FF00302214B8AF838257F
S31508002870069A83ED028B1A63059A31465A6300233A
S315080028802A225846CAF86825CAF84035AAF84435AF
S31508002890CAF85035AAF86435CAF88C3017F0D9FC4E
S315080028A068E6BAF81800002888D0D9F80020184435
S315080028B0117A0C3203F8011B9842F9D17EE702F02F
S315080028C08054204353D0DAF830000130CAF830007B
S315080028D0FFF7B6BB03F48061084300F0A180DAF87D
S315080028E050100131CAF8501087E4DAF880C569E457
S315080028F0E83B0020903C00209AF8C83488F85D2010
S31508002900CAF880558AF83855CAF84055FFF75EBBAD
S31508002910FEF736FF1CE5DAF8400520B116F04CFB49
S3150800292016A806F0D7FDDAF8480520B116F044FBDC
S3150800293016A806F0CFFDDAF84C0520B116F03CFBD8
S3150800294016A806F0C7FDDAF8500520B116F034FBD4
S3150800295016A806F0BFFDC14A9AF8383582ED028BF3
S315080029600022CAF84025CAF85025FFF744BB02F0F2
S31508002970804004435FD0DAF834000130CAF83400E6
S31508002980FFF75EBB013388F84030F3E5B449B54834
S31508002990FEF77CFECAF8B005002840F0F08098F8EB
S315080029A0004098F86030A34262D0FEF7A7FCCAF848
S315080029B0B005002800F0F780DAF8B045AA49A1F179
S315080029C06000FEF763FEFEF799FC98F80630B8F843
S315080029D00420B8F80210009398F80000B8F84C30B4
S315080029E0FFF7C6F8D8F80800FEF754FDCAF8B04550
S315080029F0F5E488F84050C8F83C508AF871501CF045
S31508002A002AF99A4B5A6C5D641CF020F94FF0004382
S31508002A10974A136200BF00BF02F58052136283E42F
S31508002A2003F48070014312D0DAF854100131CAF861
S31508002A305410FFF7E2BB01F00204204300F088803F
S31508002A40DAF838000130CAF83800FFF7F9BA03F4A3
S31508002A508051084340F0998003F44040014300F058
S31508002A60BE80DAF85C100131CAF85C10FFF7C5BB06
S31508002A70B8F86220B8F802309A4296D1B8F86420BD
S31508002A80B8F804309A4290D198F8662098F806303B
S31508002A909A428AD1D8F86820D8F808309A4284D160
S31508002AA098F8702098F810309A427FF47EAFB8F9FB
S31508002AB07220B8F912309A427FF477AF98F87420EA
S31508002AC098F814309A427FF470AF98F8752098F801
S31508002AD015309A427FF469AF98F8762098F8163040
S31508002AE09A427FF462AF98F8772098F817309A429E
S31508002AF07FF45BAFD8F81820D8F878309A427FF47C
S31508002B0054AF98F8803098F820209A427FF44DAF59
S31508002B107AB1D8F87C0000283FF447AFD8F81C10E3
S31508002B2000293FF442AF920017F0CDF800287FF451
S31508002B303CAF98F8812098F821309A427FF435AF57
S31508002B4098F8822098F822309A423FF448AC2CE74D
S31508002B5001F0200004431FD101F4807420434ED0B5
S31508002B6003F00F00022803F0F00456D0302C54D09E
S31508002B70DAF840000130CAF84000FFF761BA3A496E
S31508002B80A1F16000FEF782FD29E4DAF85810013158
S31508002B90CAF85810FFF731BBDAF83C000130CAF81A
S31508002BA03C00FFF74DBA98F8063020460093B8F86F
S31508002BB00420B8F84C30B8F80210FEF7D9FFCAF866
S31508002BC0B00500287FF4F8AED8F80800FEF762FCD6
S31508002BD00446CAF8B00500283FF401ACEEE60599AC
S31508002BE001F48071084311D002F00F01022920D0A8
S31508002BF0DAF860100131CAF86010FFF7FEBADAF8A1
S31508002C0044000130CAF84400FFF71ABADAF864102B
S31508002C100131CAF86410FFF7F0BAFEF7B1FD9AF869
S31508002C2038259AF8C834052A3FF4B5AC0025FFF7CD
S31508002C3097BAFEF759FCA7E4032B02D00025FFF745
S31508002C40C8B913460025FFF709BA08238AF8783564
S31508002C502123CAF88035FFF7BEB900BFE83B00203C
S31508002C607C3B0020B88801201889012000C000B8E4
S31508002C7000D000B810B5064C042104F5956268200A
S31508002C8006F02EFC0BF018FE012384F8B83410BDAC
S31508002C90A8360020002848D030B50446244B254DD8
S31508002CA01B680022B3FA83F301200A21E56041F28A
S31508002CB088355B096282A28284F8212084F8223052
S31508002CC08DB0A5622074A17504F060FC0422E36946
S31508002CD0A06184F82020D3B11021184616F0BBFA5B
S31508002CE00546684606F0F6FBE5B1E5614FF0FF33A9
S31508002CF02B6094F82020012A06D9013AD2B2002185
S31508002D009200281D17F009F800200DB030BD1020DC
S31508002D1016F045F803466846E36106F0DBFBE5690D
S31508002D20002DE3D119200DB030BD0120704700BF3A
S31508002D3004880120400D03002DE9F04F0546A9B08F
S31508002D409DF8C800BB4C02901CA81F460395164662
S31508002D500D4606F0BFFB94F8B834002B67D0AE4298
S31508002D6059D3002F57D0029B002B54D04FF000099F
S31508002D70DFF80C834046FFF78DFF08F16000FFF788
S31508002D8089FFAD4B20220793AC4B494614A80D93F7
S31508002D90CDE90899CDE90A99CDE90E99CDE91099B9
S31508002DA0CDF83090CDF8489016F0B7FF4FF4406252
S31508002DB02823CDE91823A24B68210A2007AA1393D2
S31508002DC01BF0EBF8C4F8300558B368210A200DAAA1
S31508002DD01BF0E3F8C4F8E00518B34946994813AA66
S31508002DE01AF012FFE8B1984B4A46C8F848009749C6
S31508002DF008F12C00C4F8C03A0CF0E6F9814638B957
S31508002E00D8F82C0008F18C010CF01CFA8146D0B1D8
S31508002E10FEF7B8FD01E04FF02109484629B0BDE8A4
S31508002E20F08F4FF00109484629B0BDE8F08F04211C
S31508002E3004F59562682006F053FB0BF03DFD01236F
S31508002E4084F8B8348BE78249D8F82C000CF044FD96
S31508002E5081460028DCD17F49D8F82C0008F1900279
S31508002E6017F0EBF981460028D2D17B4A7B49D8F87E
S31508002E702C0017F0E6F981460028C9D17849D8F818
S31508002E802C0017F0C0F981460028C1D100900346EE
S31508002E904FF480627349D8F82C0017F0B8F98146C8
S31508002EA00028B5D17049D8F82C0017F0AAF9814640
S31508002EB00028ADD10146D8F82C0017F025F96B4942
S31508002EC0D8F82C0017F004F981460028A0D16849E3
S31508002ED0D8F82C0017F0E6F88146002898D16549FD
S31508002EE0D8F82C000CF086FA8146002890D10222E8
S31508002EF04FF0FF31D8F82C0017F00CF9814600285E
S31508002F0086D10121D8F82C000CF0BAF981460028A0
S31508002F107FF47EAFFEF706FC574B4FF0000B1B689D
S31508002F20002B00F0FF80544B05E00BF1010BBBF1C1
S31508002F30410F00F0FB8053F8042B002AF5D10BF162
S31508002F40010303EB8302049392001046059215F0E1
S31508002F5026FF60601CA806F0BDFAD4F804A0BAF1F2
S31508002F60000F00F0E6800021059A504616F0D5FEBF
S31508002F704FF48072AAF800200022CAF804203F4ABB
S31508002F80049B1268A3609168CAF80820D1F80E104D
S31508002F90CAF80C10BBF1000F15D052464FF0010CC1
S31508002FA04B463548A2F814C050F8041B9361D1610A
S31508002FB089680133D1F80E105B45116202F11402DB
S31508002FC0F0D1DAF80820049B4FF0140903EB830BC1
S31508002FD03B464FEA8B0B3746049556465D469A465E
S31508002FE0CB46002A72D0F289B1898A426ED3013261
S31508002FF0521AC2EBC2024FEA8209484615F0CFFEC2
S3150800300030611CA806F066FA3069002863D00021F2
S315080030104A4616F082FEB168D8F82C00FEF7E2FAA6
S3150800302000285BD1B6F80C90F2894A453FD34B4647
S3150800303029E000BFA8360020B03F0208BC3F0208BE
S31508003040C83F02081D1F000841D301086841002037
S3150800305007001100904100204A890120D041002034
S31508003060F03F0208D0450020F43F0208F83F020866
S31508003070FC3F0208D04900200488012094FC01087E
S31508003080B8880120B389A9EB030332699BB2C3EB65
S31508003090C303494602EB8302D8F82C00FEF740FC2E
S315080030A009F10109F3891FFA89F94B45EAD2012288
S315080030B00021D8F82C0016F073FF5D4519D0636817
S315080030C003EB0B06B2680BF1140B8AE74FF02109E4
S315080030D0FEF728FB9CE64FF01909F9E7306915F069
S315080030E06BFF1CA806F0F6F900224FF001093261C1
S315080030F0EEE7049D029B2946012500933A4653466E
S3150800310003982570FEF734FD814600287FF480AECB
S315080031100BF0EAFB814600287FF47AAE1CA806F07D
S31508003120D9F97AE60123142204930EE74FF0210910
S315080031306EE64FF019096BE610B50C4882B0FFF73A
S31508003140A9FDFEF7DBF818B10346184602B010BD14
S315080031500624074BDB689B681A8AD98904230094DE
S31508003160FFF7EAFD0346184602B010BDB8880120ED
S31508003170A836002030B583B0002847D0002304467F
S3150800318001A92448019316F0CAF800283AD1234623
S31508003190019904F120050870087201F10C02D3F8B0
S315080031A000E0D3F804C09C68D8681033AB42C2F874
S315080031B000E0C2F804C09460D06002F11002EED1BB
S315080031C01C6858689B681460134C936050604FF0F5
S315080031D0FF330022D4F830051AF01FFF4FF0FF33F3
S315080031E001990E4AD4F8E0051AF04BFF01990B78BD
S315080031F033B18C68074816F0ABF8204603B030BDEB
S315080032008C6BF7E71924204603B030BD21242046ED
S3150800321003B030BD503B0020A8360020EC49002002
S3150800322070B582B000284AD00023274D044601A96C
S3150800323005F59560019316F072F8024600283AD112
S31508003240012601994FF0FF3308700E72D5F8300544
S315080032501AF0E3FE4FF0FF3301991C4AD5F8E00552
S315080032601AF00FFF01990B781BBB8D6BDDB9204651
S3150800327001F10C0301F12C06D3F800E0D3F804C0E1
S315080032809C68DA681033B342C0F800E0C0F804C09E
S315080032908460C26000F11000EED11C685A689B6811
S315080032A00460426083600A4816F052F8284602B065
S315080032B070BD8D68DAE71925284602B070BD21254C
S315080032C0284602B070BD00BFA8360020EC49002091
S315080032D0503B002070B582B0002833D000231B4D28
S315080032E0044601A905F59560019316F018F80246FB
S315080032F020BB01260199D5F830050E704FF0FF3333
S315080033001AF08BFED5F8E0054FF0FF33104A019905
S315080033101AF0B7FE019E3378012B0CBF756EB5689F
S315080033202DB95C22204606F1080116F001FD31464A
S31508003330084816F00DF8284602B070BD192528462B
S3150800334002B070BD2125284602B070BDA8360020FF
S31508003350EC490020503B0020034630B14FF4007181
S315080033600122002019809A7070472220704700BFFA
S3150800337010B5184B82B01B7C43BB174C01A904F54A
S315080033809560019315F0CBFF0246D8B94FF0020CB1
S3150800339001994FF0FF3381F800C0D4F830051AF0D0
S315080033A03CFE4FF0FF3301990C4AD4F8E0051AF0B9
S315080033B068FE019904F595608C6815F0C9FF2046EA
S315080033C002B010BD1924204602B010BD24242046A0
S315080033D002B010BDB8880120A8360020EC490020AC
S315080033E010B5194B82B01B7C012B03D02424204630
S315080033F002B010BD0023154C01A904F59560019390
S3150800340015F08DFF0246D8B94FF0040C01994FF01C
S31508003410FF3381F800C0D4F830051AF0FEFD4FF0EE
S31508003420FF3301990A4AD4F8E0051AF02AFE0199F1
S3150800343004F595608C6815F08BFF204602B010BD28
S315080034401924204602B010BDB8880120A8360020ED
S31508003450EC490020002310B5144C82B001A904F5EC
S315080034609560019315F05BFFE0B94FF0060C0199E2
S31508003470024681F800C04FF0FF33D4F830051AF041
S31508003480CCFD4FF0FF330199094AD4F8E0051AF04C
S31508003490F8FD019904F595608C6815F059FF2046EA
S315080034A002B010BD1924204602B010BDA83600206F
S315080034B0EC490020002310B5144C82B001A904F58C
S315080034C09560019315F02BFFE0B94FF0070C0199B1
S315080034D0024681F800C04FF0FF33D4F830051AF0E1
S315080034E09CFD4FF0FF330199094AD4F8E0051AF01C
S315080034F0C8FD019904F595608C6815F029FF2046EA
S3150800350002B010BD1924204602B010BDA83600200E
S31508003510EC490020704700BF0246024B0020C3F862
S31508003520E8297047A836002051EC100BC1F30A535E
S315080035302DE9F041A3F2FF350C460646132D34DC7F
S31508003540002D20DB364B0F4643FA05F801EA08033F
S3150800355003432FD030A3D3E9002308F0CBFA002287
S31508003560002308F00DFF40B1002C03DD4FF4801353
S315080035702B411F4427EA080400262346324643EC1B
S31508003580102BBDE8F08124A3D3E9002308F0B2FA92
S315080035900022002308F0F4FE0028EED0002C36DBCB
S315080035A03443E9D000261F4CE7E7332D06DDB5F591
S315080035B0806F25D041EC100BBDE8F081A3F21343D0
S315080035C04FF0FF37DF403842F4D013A3D3E9002386
S315080035D008F090FA0022002308F0D2FE0028CCD08A
S315080035E0002C334609DD142D06D0C5F13405012219
S315080035F0AA4013449E4200D9013423EA0706BCE7D1
S3150800360002460B4608F076FA41EC100BD4E7002682
S315080036104FF00044B1E700BF9C7500883CE4377E54
S31508003620FFFF0F000000F03F51EC100BC1F30A53E7
S315080036302DE9F041A3F2FF350C460646132D32DC80
S31508003640002D20DB384B0F4643FA05F801EA08033C
S3150800365003432DD032A3D3E9002308F04BFA002206
S31508003660002308F08DFE40B1002C03DA4FF48013D6
S315080036702B411F4427EA080400262346324643EC1A
S31508003680102BBDE8F08126A3D3E9002308F032FA0F
S315080036900022002308F074FE0028EED0002C2ADB56
S315080036A000263446E9E7332D06DDB5F5806F1BD0D5
S315080036B041EC100BBDE8F081A3F213434FF0FF373E
S315080036C0DF400742F4D016A3D3E9002308F012FA24
S315080036D00022002308F054FE0028CED0002C3346E2
S315080036E010DB23EA0706C8E702460B4608F002FA8B
S315080036F041EC100BDEE724F0004426430DD14FF0D1
S315080037000044BAE7142D06D0C5F134050122AA40B3
S315080037101344B342E5D20134E3E70026034CACE791
S315080037209C7500883CE4377EFFFF0F000000F0BF61
S315080037300348044B834202D0034B03B11847704732
S3150800374048B8012048B8012000000000064B074988
S31508003750C91A891048BF0131491003D0044B0BB16F
S3150800376001481847704700BF48B8012048B80120EB
S315080037700000000010B5064C237843B9FFF7D8FFC0
S31508003780044B13B10448AFF300800123237010BD26
S315080037906C80012000000000B088020808B5054BBF
S315080037A01BB105490548AFF30080BDE80840FFF79F
S315080037B0CDBF00BF00000000C04B0020B088020843
S315080037C0A3F5803A704700BF174B002B08BF134B71
S315080037D09D46FFF7F5FF00218B460F461348144A0E
S315080037E0121A16F09AFA0E4B002B00D098470D4B7A
S315080037F0002B00D098470020002104000D000D483A
S31508003800002802D00C48AFF3008009F071FA2000B6
S31508003810290015F004FF08F0E5FF00BF00000800C6
S3150800382000000000000000000030002000300020EA
S31508003830EC85012000000000000000002DE9F041A1
S315080038405D4C92B009AD94E80F0085E80F000DAA0B
S31508003850174604F1100304F1200C16461868596837
S31508003860083303C663453246F7D11868534B08A98F
S31508003870306018791BF0FEF951481BF000FA5148E0
S315080038801BF0FDF94FF4807308984F49ADF83430B2
S31508003890814228BF01460C9714F0F4FA29460225FE
S315080038A00A904A4803F0BCFE484814F093FA474881
S315080038B014F0B9FA454814F0A2FAB4F824800122A3
S315080038C004216846ADF8008013F0DDFBE78C002282
S315080038D0012101A8ADF8047013F0D5FB268D01224D
S315080038E0042102A8ADF8086013F0CDFB01220421DB
S315080038F003A8374CADF80C5013F0C5FB354B4FF405
S315080039004870C4F8C8344FF00213C4F8C43403F539
S315080039108033C4F8CC341C23C4F8B43406F030F829
S3150800392007A8ADF81C5000F06DFB142006F028F827
S3150800393007A8ADF81C5000F055FB232006F020F828
S3150800394007A8ADF81C5000F05DFBB9211F4814F01C
S315080039508FFA07A8ADF81C5000F044FB002204A813
S315080039601146ADF8108013F08EFB002205A811460B
S31508003970ADF8147013F087FB0122002106A8ADF8F4
S31508003980186013F080FB0122002107A8ADF81C502F
S3150800399013F079FB0D4803F009FE00230948C4F823
S315080039A0B434C4F8C834C4F8C434C4F8CC341BF0EE
S315080039B069F912B0BDE8F081E8EE0108ECF10108FA
S315080039C0D4F10108D8F10108E070720000000A502D
S315080039D000C003500200010008B504481BF04FF967
S315080039E016F0C0F8BDE80840FFF728BFD4F1010873
S315080039F001481BF044B900BFD4F1010840B1054A9B
S31508003A001378012B04D80370013300201370704714
S31508003A10012070476D8001200348044A0449121AA0
S31508003A20921013F0ACB900BF700100081C0300081F
S31508003A30EC85012008B5154B83F30A8800F030F8A9
S31508003A40FFF7EAFF124B13498B4212D30020124BA1
S31508003A5012498B4218D3FFF7B7FE186850F8224070
S31508003A60586840F82240013298688242F5D30C33F0
S31508003A70EAE70022F8E71C6844F8220001325C688D
S31508003A80A242F8D30833E4E70022F8E70000002052
S31508003A90B8880208C4880208C4880208C4880208CC
S31508003AA04FF48041124B134A70B59A60D3F88820B8
S31508003AB0114D42F47002C3F88820104A05F50054E7
S31508003AC091664FF0FF3222660D4A62660222C3F8FB
S31508003AD0D020BFF34F8FBFF36F8F4FF440360020CF
S31508003AE004F000FF0020E66004F0E0FE2E6170BDE1
S31508003AF000ED00E00000000800800044009000503F
S31508003B00F7FF3700014B1860704700BFAC870120EC
S31508003B10054B1860054B1B6F03F00703032B01D1F8
S31508003B2017F0ECB9704700BFB48701200080005039
S31508003B30002307B50193054B1B681AF02CFC019B63
S31508003B40002BFCD003B05DF804FB00BFB88701204A
S31508003B50EFF305830F2B84BF034A9B5C4FF0E023EA
S31508003B60D3F80C3D704700BFF0E300E008B500212C
S31508003B706FF0040014F03BFD19F046FA4FF47A731F
S31508003B8000F2E730B0FBF3F0084B094A18604FF033
S31508003B90FF33B3FBF0F30A3B13601BF020F9054B28
S31508003BA018600120BDE8084017F092BBD0510020EC
S31508003BB0C8510020CC51002070B5D0B1C9B10E4E05
S31508003BC0431E013913F8014F2046325D02F0030205
S31508003BD0012A11F8012F08BF04F12000B55C05F091
S31508003BE00305012D08BF2032801A01D1002CE9D126
S31508003BF070BD0120FCE700BFE12D020808B504F0FE
S31508003C00A9FE014B186008BDB0570020BFF34F8FBF
S31508003C100549064BCA6802F4E0621343CB60BFF35A
S31508003C204F8F00BFFDE700BF00ED00E00400FA0576
S31508003C30014813F0B2B800BFB45700202DE9F0418F
S31508003C400E469046054608B305291FD8F2B11BF063
S31508003C500BF807460E4B1C686CB9012329460C481D
S31508003C602B752E71C5F8088013F09AF838461AF0A5
S31508003C70F6FF204606E02379B34205D138461AF006
S31508003C80EEFF2E20BDE8F0812468E5E72120F9E75C
S31508003C90B457002070B5054668B11AF0E5FF002450
S31508003CA00646294605482C7513F08DF830461AF055
S31508003CB0D6FF204670BD2120FCE700BFB457002080
S31508003CC005282DE9F34104468846164635D8002AC4
S31508003CD033D01AF0C9FF0746194B1D683DB92D2484
S31508003CE038461AF0BCFF204602B0BDE8F0812B79B1
S31508003CF0A34214D12969A1B90C2001AA019105F0A2
S31508003D00D9FB04460028EBD1019905F11000C1E959
S31508003D10018613F045F82B7B01332B7309E02D68D8
S31508003D20DCE78B689E4206D14B68019143EA08039B
S31508003D304B600024D4E70968DDE72124D3E700BFF8
S31508003D40B457002005282DE9F04104460E461746CB
S31508003D502ED869B362B31AF087FF8046154B1D68E3
S31508003D6035B92D2440461AF07AFF2046BDE8F08181
S31508003D702B79A34203D12C691CB90024F2E72D68DC
S31508003D80EEE7A3689F4211D1636823EA06036360DE
S31508003D90002BF2D105F11000214613F014F82B7B05
S31508003DA02046013B2B7315F003F9E6E72468E3E7A1
S31508003DB02124DAE7B4570020F7B5054610B92120C3
S31508003DC003B0F0BD174B1C689CB92246234628460B
S31508003DD001A91AF056F9C21C044619D128461AF048
S31508003DE082F90028ECD0031DE9D0033017D11B2037
S31508003DF0E6E7274657F8106F0EB92468E4E7B36874
S31508003E00AB4203D13146384612F0DDFF3668F3E798
S31508003E101CB901A813F06BF8D7E70434CFD00120FA
S31508003E20CEE700BFB4570020194608B5134600224E
S31508003E301AF027F90430042896BF024B0120185CB3
S31508003E4008BD00BF24EF0108002307B529480193E0
S31508003E501AF015FF4FF44073012204216846ADF8A5
S31508003E60003013F010F90122234B0520C3F844242F
S31508003E7001A91AF0FFFE002839D1204BD3F8F0200B
S31508003E8042F00102C3F8F020D3F8FC2042F0807219
S31508003E90C3F8FC201A4AA3F55D431A60019B194A28
S31508003EA003F5D52303F2FC43B3FBF2F3164A013BB1
S31508003EB013610223C2F8F0304FF48073C2F804335A
S31508003EC04FF06043114AC3F8B02F114AC3F8802E49
S31508003ED0D3F8002E42F48072C3F8002EFF2283F82E
S31508003EE02020D3F8002E22F48072C3F8002E03B0E7
S31508003EF05DF804FBD4F1010800D0035000ED00E0A2
S31508003F00FF030040F8590D00000004E055CEACC58B
S31508003F10090001004FF06043D3F8802E30B5D20770
S31508003F2015D501240B4D8440D5F8FC2042F080724B
S31508003F30C5F8FC20D3F8002E2243C3F8002E53F808
S31508003F402020002AF0D003F82010002030BD1120D0
S31508003F50FCE700BF00ED00E0F8B504460127124D66
S31508003F600CB314F001000BD0002024F0010405EB7B
S31508003F70C0021668002EF3D05168C0B2B047EFE70A
S31508003F802246013020284FEA520201D0D307F8D53D
S31508003F9007FA00F20F2824EA0204E8D9421E05EBC4
S31508003FA0C2021038E5E7F8BDB857002008B50C4836
S31508003FB01AF065FE192004F087FC28B1192004F0D0
S31508003FC091FC192004F072FC1A2004F07DFC28B13B
S31508003FD01A2004F087FC1A2004F068FC002008BDAB
S31508003FE0D4F1010848B10122437801789A40302378
S31508003FF05943034B00205A5070472220704700BF90
S3150800400040D0035048B10122437801789A403023C2
S315080040105943034B00205A5070472220704700BF6F
S3150800402040E0035008B503F0B1FB054B00F05530EE
S3150800403020F05020C3F82004BDE80840FFF78CBFE5
S3150800404000E0035008B503F0A1FB054B00F0AA30C9
S3150800405020F0A020C3F82004BDE80840FFF77CBF85
S3150800406000E0035013B504460A481AF008FEA27881
S315080040700421B2FA82F2237852098DF80430637863
S315080040800DEB01008DF8053012F0FDFF002002B09F
S3150800409010BD00BFD4F101082DE9F04F9A46564BE2
S315080040A085B01B7806460F461546DDF83C909DF808
S315080040B044B0DDF85080002B00F09780072A00F204
S315080040C096800E9B002B00F09280B9F1000F00F04D
S315080040D08E80129BB3F5006F00F38980012803D107
S315080040E0109B002B00F08380444B03EB05131B7BCE
S315080040F0002B7ED0424C10220021684615F00DFE9A
S3150800410004EB45141022A7BB3946204615F005FED8
S3150800411043F210036380BBF1000F03D1E37843F049
S315080041200303E370364A0E9B02EB451CCCE9019368
S31508004130129B6901581E9DF84C30C0F30A0003F023
S3150800414003039B0643EA001E53582E48012E00EA35
S3150800415003004EEA0003CDF800A0535017D0B8F17B
S31508004160000F2ED19CF8023068F304138CF8023045
S3150800417027E00021204615F0D0FD4FF444736380F4
S31508004180BBF1000FCED1E37843F03003C9E7132320
S315080041900CF1100ECCF80C309CE80F008EE80F00DE
S315080041A06FF00301DCF81C20109B61F39F02012FBE
S315080041B0CCF81C20CCF8143003D1CCF81890CCF8E5
S315080041C0043000270D4A290102EB051342F8018045
S315080041D0159A28465A60694622469F605E7303F020
S315080041E0C3F8384605B0BDE8F08F0748FAE7074830
S315080041F0F8E70748F6E700BF0F810120A859002015
S31508004200A85800200F80FFF3028000F0018000F01C
S31508004210078000F038B5124B05461B78DBB1E0B1D4
S315080042201AF022FD0F4A00231146147B54B92B605D
S3150800423001251A0101EB03131D738C501AF00FFDAB
S31508004240204638BD0133082B02F11002EDD11AF0D1
S3150800425006FD0548F5E70548F3E70548F1E700BF19
S315080042600F810120A8590020048000F0028000F088
S31508004270018000F038B51AF0F7FC002305460B4A12
S31508004280147B6CB90133082B02F11002F8D103F044
S3150800429017F8074B28461C701AF0E1FC204603E085
S315080042A028461AF0DCFC034838BD00BFA859002090
S315080042B00F810120058000F00D4B10B51B780446D0
S315080042C093B1072812D81AF0CFFC0A4B03EB041354
S315080042D01A7B2AB100241C731AF0C1FC204610BDB3
S315080042E01AF0BDFC0448FAE70448F8E70448F6E77C
S315080042F00F810120A8590020068000F0028000F0F6
S31508004300018000F0154B13B51868002301908DF84D
S3150800431004301AF0A9FC124B1C7824B11AF09FFC41
S31508004320104802B010BD01221A701AF098FC0E4B04
S3150800433001A81C731C7783F82C4083F83C4083F84B
S315080043404C4083F85C4083F86C4083F87C40082333
S315080043508DF8073002F0D8FF2046E2E729EF01087A
S315080043600F810120038000F0A8590020F8B50D4DF3
S315080043702D7885B1072810DC0B4D060105EB0014D6
S31508004380277B67B1AB510025069BA560636002F0E9
S31508004390EBFF2846F8BD0548FCE70548FAE7054857
S315080043A0F8E700BF0F810120A8590020028000F01D
S315080043B0018000F0078000F00A4A08B512785AB161
S315080043C007280BD8084A02EB00131B7B43B10021D0
S315080043D002F08CFF002008BD0448FCE70448FAE711
S315080043E00448F8E70F810120A8590020028000F050
S315080043F0018000F0078000F00A4A08B512785AB121
S3150800440007280BD8084A02EB00131B7B43B101218E
S3150800441002F06CFF002008BD0448FCE70448FAE7F0
S315080044200448F8E70F810120A8590020028000F00F
S31508004430018000F0078000F0184B2DE9F0411F6D50
S315080044405B6D1F4000D5FEE701260025144CDFF8FA
S315080044505880374218D02368C8F85060A3B1A168BD
S31508004460284601316268A1609847637B012B0BD10E
S3150800447050B90C4B03EB45131A7B60F341021A73D0
S315080044801A7F60F341021A770135082D4FEA46066E
S3150800449004F11004DDD1BDE8F08100BF000004502E
S315080044A0A8590020A8580020002004502DE9F04FF4
S315080044B0144605460E469B46C36B87B001225B69C8
S315080044C002A960689847EB6B01225B6903A930462D
S315080044D0984702A813F0CFFA074648B10023A375F8
S315080044E063754FF0FF33A360002007B0BDE8F08F77
S315080044F003A813F0CDFA0123A375237E04EBC303A7
S31508004500DE611F846368B3420ED1206003A813F0EE
S31508004510E1FA4FF0FF332075A360237D043B022B9D
S3150800452026D80023A375DFE723681A1A5342534196
S31508004530A37503A813F0CEFA237D834218BFA77587
S3150800454003A813F0A9FA074602A813F0A5FA8742AA
S3150800455018BF002303A818BFA37513F0A5FA0746CA
S3150800456002A813F0A1FA87421CBF0023A375D4E75B
S3150800457003A813F091FA80B1EB6B022230465B690F
S3150800458004A9984704A813F096FA0346207D032841
S3150800459039D8DFE800F03838040903A8F3E7CC2255
S315080045A0237E04EBC3031A8401F002FA109B1870E9
S315080045B003A8277E13F064FA04EBC70787F82200DE
S315080045C0237E03A804EBC303B3F8209093F8227064
S315080045D013F062FA804603A813F066FA8246B8F129
S315080045E0000F15D0EB6B022230465B6904A9984789
S315080045F004A813F025FA6075637D6BB90023A375CB
S315080046004FF0000838E0227E04EBC2021384CBE7A1
S3150800461003A813F000FAEEE794F81680B8F1000F35
S31508004620EED0B9F1000F09D1DFB10123E375637E3E
S31508004630002B4FD1012F42D1677614E06B6C06EB45
S315080046400A02594286EA020008421CBF0021A175E7
S31508004650591E0A409B1A9945D0D8A37D002BE3D151
S31508004660CEE7E37D43B94FF000084B465246314644
S31508004670284612F042FFA060A27D12B123694B447E
S3150800468023611A49237E097899422AD90133237668
S31508004690BBF1000F27D032B3E37D23B3B8F1000F87
S315080046A021D1032F1FD0A1684B1C1CD0109B22467A
S315080046B0009328460123FFF7F9FEA07513E095F845
S315080046C0343063B9EB6A0133CFD1032FCDD101233F
S315080046D0A376C8E7012FCFD0032FC4D1F7E79846B2
S315080046E0C3E70023A375A07DFFE600BF50EF0108CE
S315080046F02DE9F04F0E46984600238BB004464FF03E
S31508004700FF31104617468DF8133001F03BF9B6F520
S31508004710801F3BD3B21C53D1E56A6B1C57D1204688
S31508004720616A12F030FE0546B31C18BF0123DFF894
S3150800473010910193636A626C0293236805A902FBD0
S31508004740053AE36B05225B695046984705A813F0BE
S315080047502DFA13F050FA504613F058FA4FF0000BA2
S31508004760824601464B1C05D0636C81EA0A025B420D
S31508004770134232D02946204612F005FE029BAB4270
S315080047804DD0BBF1000F4DD10546D3E7314605AAFA
S3150800479004F1080013F0C1F80146481C10D0384649
S315080047A001F0F0F80122394620460DF1130312F004
S315080047B0F6FE28B19DF8133088F80030002003E093
S315080047C0237C002BA8D12D200BB0BDE8F08F2368E1
S315080047D0ED1A636CB5FBF3F5A6E7484601F0D2F887
S315080047E00DF1130349462046019A12F0D8FE0346F6
S315080047F090B1B21C03D0D9F80020B2420CD19DF872
S31508004800132003930D4B88F8002049461A6838464A
S3150800481015F08EFA039B9B46D9F80810A2E7BBF160
S31508004820000FD0D0B6F5801FC8D2314698F80030B0
S315080048307A6804F1080000F0D3FFBFE74CEF0108DF
S315080048409C6000202DE9F3410446174698460E461B
S31508004850194D816AE36A8B422AD04B1C18E0284618
S3150800486001F090F80122294620460DF1070312F0BF
S3150800487096FE30B14346294620469DF80720B8479C
S31508004880B0B1A9684A1C05D0012E0AD0E36A99423C
S31508004890E5D10DE06968204612F002FE012E0146B8
S315080048A0D8D16B6881EA0302636C5B421A42D1D0A5
S315080048B002B0BDE8F08100BF706000202DE9F04726
S315080048C04FF0FF334FF6FF720025044600F1080645
S315080048D0C0E909238AB0C3620562056330460F46FC
S315080048E012F0ECFF204612F0CEFC28BB20463946D3
S315080048F012F099FD204612F0C6FC28BB5E200AB0CD
S31508004900BDE8F087E26B2368606CD2F814C000FB40
S315080049100530052205A9E04705A813F047F901283F
S3150800492040F083802946204612F04EFD421C294657
S31508004930204612F0C7FC0135E3699D42E2D32046C2
S3150800494012F0A1FC0028D1D0204612F0CCFC4FF67C
S31508004950FF72636A934200F0B080E26B676C20686E
S31508004960694607FB030055690522A847684613F000
S31508004970F4F8626A2368606C514D00FB023013F04C
S3150800498045F94FF0FF33A062E3622A466FF0010152
S31508004990204605ABFFF7ACFE002850D1AD68294686
S315080049A02046E56212F04BFC206320B92046E16AF6
S315080049B012F076FDE0622946204612F071FD0546A2
S315080049C0A36A9D423DD1204612F0F7FB0027804698
S315080049D0B946E369994546D3B84563D92046616A1D
S315080049E012F0D1FC0026054604F1400ABE4212D355
S315080049F0626C2368694602FB0539E36B05225B692D
S31508004A0048469847684613F0A8F85346024649466A
S31508004A10E06B13F0FDF82946204612F0B4FC013687
S31508004A20B0450546E2D1642069E713F0E9F80028A5
S31508004A3081D02946204612F0C7FC024677E7A56AC8
S31508004A40ADE72946204612F0FAFB236B29460344B4
S31508004A5007462363204612F023FD0546002FAFD1F3
S31508004A60C4E90B07ACE7636C2568052203FB095507
S31508004A70E36B05A95B692846984705A813F096F8DD
S31508004A8013F0B9F858B1284613F0C0F80146204685
S31508004A9012F0D5FB636C143B984208BF013709F145
S31508004AA0010996E7304612F009FF00232046194609
S31508004AB0044AFFF7C7FE002021E767201FE700BF6B
S31508004AC0C86000208D7501082DE9F041036B9046FA
S31508004AD0826B07689A4288BF8363426C436A90B0C8
S31508004AE002FB0377C36B0E46052201A95B690446E0
S31508004AF03846984701A813F059F80128014630703E
S31508004B0057D0656CE26B2368606AD2F814C005FB5F
S31508004B100030052206A9E04706A813F047F8012841
S31508004B204FF0000523D0D4E90A3201219342CDE99A
S31508004B300B458DF834800E958DF83C102AD1194610
S31508004B40204612F0ADFC236B626C14339B1AE062AC
S31508004B5023630C9B53B99DF83C303BB1626A616C88
S31508004B602368E06B01FB023112F0D8FF0C9DE36B62
S31508004B7005225B6901A93846984701A813F016F87B
S31508004B8030702846236BA26B9A4288BFA36310B085
S31508004B90BDE8F081237C33B91C490BAA04F108004F
S31508004BA000F06CFED5E72046194A0BABFFF74AFE24
S31508004BB0CFE7237C23BB2246164904F1080000F000
S31508004BC05DFE616A204612F0FFFB616A421C2046C0
S31508004BD012F078FB054620B9236B626C1344143B2C
S31508004BE023632046A16A12F05BFC2368A062C01A00
S31508004BF0636CB0FBF3F06062204612F094FCB6E7F3
S31508004C0000232046044AFFF71DFEDAE76153000831
S31508004C10DD52000827760108C375010873B50D46ED
S31508004C20D11E4A421C461B7E4A419A4226D1296811
S31508004C302368994222D3636899421FD8114E0DF111
S31508004C4007033246FFF754FDC0B972686B689A428B
S31508004C5014D19DF80730DA1E53425341227E9342FF
S31508004C600CD1636901336361D4E90323934205D206
S31508004C702968A26842F8231001332361012002B093
S31508004C8070BD00BFC86000202DE9F04F9A468BB072
S31508004C909DF85030DFF850B10293DBF810308046AB
S31508004CA053450D461646C0F09980D146DBF80430C8
S31508004CB00193B9F1000F00F08D80D8F83C3001223D
S31508004CC05B6907A90198984707A812F0E1FEDBF887
S31508004CD00030984240F0858007A812F0E5FE0428C7
S31508004CE0074614D107A812F0E6FE019B029A04466D
S31508004CF03B44002A3FD1864212D91446361A40460A
S31508004D00019912F0CDFBA9EB04090190D1E7D8F877
S31508004D103C3002225B69019808A9984708A8E2E78F
S31508004D20841B544528BF5446032C03EB0607AAEBFD
S31508004D30040A4FEA94021CD9D8F83C30294638466A
S31508004D405B69984724F0030304F003061F441D44D7
S31508004D50002ED4D0D8F83C3001225B6908A9384621
S31508004D6098473246284608A9354414F0E1FF00263C
S31508004D70C5E72646ECE7074600F00302039203441C
S31508004D802A1804920593049BDD1B059BD81B039BDD
S31508004D909F420FD1002FB2D0D8F83C30012208A983
S31508004DA05B6998473A46284608A914F08CFF78B9F3
S31508004DB03D44A4E7D8F83C30012208A95B69984726
S31508004DC00422284608A914F07EFF08B9043FDAE74A
S31508004DD04FF0360948460BB0BDE8F08F4FF063092F
S31508004DE0F8E74FF06F09F5E7F46000202DE9F04188
S31508004DF00F4616469846044688B060B390F8345075
S31508004E00FDB1012112F034FA00210E9BCDE90511FE
S31508004E10CDE902379DF83C30CDF804808DF81C307A
S31508004E20237C04968BB90D4901AA04F1080000F009
S31508004E3025FDDDE90553E06B002E08BF1D4612F07F
S31508004E4000FC284608B0BDE8F0812046044A01ABBC
S31508004E50FFF7F8FCEDE70546F3E700BFF175010833
S31508004E601D4C00082DE9F04F99B00F4609920A69C2
S31508004E70416C0E931439D31DB3FBF1F3013302EBE6
S31508004E80C302036B04469342C0F0BC810023DFF8DB
S31508004E9044940D93E36A48461946079300F072FD59
S31508004EA0D7E9033604930E9B022B4ED1CC2E40F045
S31508004EB08A81099B002B42D03946204612F01FFCF6
S31508004EC0656C079A6B1E13401490ED1AE36B01226A
S31508004ED05B6916A97868984716A812F0DDFD0028C0
S31508004EE00CBF04230823782E06933DD901230025F9
S31508004EF04FF0080A05933B6805990E98C9F80030E3
S31508004F00C9F8106012F0EAFD4FEA9A0310930023DD
S31508004F10DDF81CB089F814000B930F9308930C93D3
S31508004F20616C4A1E0BEA02028B1A002E38D05544D1
S31508004F30AB4240D8236B5B1A13442363ABE0049B54
S31508004F401B68149308230693D0E7656C079A6B1EB3
S31508004F501340782EA5EB030516D8FB7D7BB9099B74
S31508004F60002BB3D104230693331DAB4210D9A6B147
S31508004F70082DBBD804250023AA460593BBE7099B41
S31508004F80002BA3D10823EEE7099B002B9ED1D9E776
S31508004F90002505954FF0040AADE704250596F9E7BF
S31508004FA05345C7D3B0460BEB0A030393089B002B64
S31508004FB018BF032313E0A3EB0A039E42B0460BEB8C
S31508004FC00A0228BF98469E420392EFD90123D9F8D0
S31508004FD0102089F81730964271D1C9F804B00893A1
S31508004FE099F81730002B6CD099F818200899D31C1B
S31508004FF009EBC3030132C3F804B0A3F80880997219
S3150800500089F81820B8F1000F14D00E9B022B5BD13B
S315080050100B9B7BB90F9B4344032B0BD9E36B0122F4
S315080050209B69039814A998470546002840F0EC8028
S3150800503001230B93089B16A80193059B009399F8E7
S3150800504014204346396800F053FCE36B58469B69C5
S31508005050109A16A99847051E0D9B18BF5B4652461F
S315080050600D9359464346204612F047FA236B08F13A
S315080050700302A3EB0A0322F003029B1AC9F80800ED
S315080050802363002D40F0C0800F9BDDF80CB043442D
S31508005090A6EB08060F935946204612F001FA00259A
S315080050A08346002E7FF43CAF8A4A3968936804F138
S315080050B00800E36252680E9B00F092FB84E002232C
S315080050C08DE7C9F804B09DE7099B002B30D1049BF6
S315080050D0B8F1030F43440A9327D9DDE90301E36BCB
S315080050E04FEA98029B6998470546002865D118F04B
S315080050F003025FD0049B28F003052B440493039B0B
S315080051001D444FF0FF33049915A8159314F010FEAB
S31508005110E36B28469B69012215A9984705460A9B11
S315080051200493002D86D0039B99E74246039DE8E742
S31508005130039B0A9307F120031193FB7D78689BB1C3
S3150800514000233D7E0C9AD9B28D4211D9119903F1EB
S31508005150010C31F83310914226D9069907EBC3039F
S31508005160D8690A44104403E00C9B069A1344184471
S31508005170E36B01225B6915A99847159B01221393D6
S315080051800C9B0A9804330C93E36B13A99B69984705
S31508005190039B0A9A43449B1A042B054607D978B9F8
S315080051A0134604330A93C8E76346521ACBE70A9BA9
S315080051B00393B6E70A9B04933CE70A9B0493B2E77A
S315080051C00A9B0393AFE77026304619B0BDE8F08F07
S315080051D0002657E004F1080012F070FB334631460A
S315080051E020463D4AFFF72EFB3A69616CD31D1439F8
S315080051F0B3FBF1F3013302EBC302236B9342BFF413
S3150800520049AE65E01C26DFE73D2D61D104F10803B0
S3150800521003932368079A606CD61AB6FBF0F600FB70
S31508005220063012F0F3FCE16A8246204612F038F99D
S31508005230A26A8242D8D0626CD9F80830511E0B4057
S31508005240216BE062891A0B4423630D992368CB1AF4
S31508005250B3FBF2F84645BBD1079BB3EB0A0611D060
S31508005260E36BB20851469B6998478346E36A079AF7
S315080052703344E362236B03989B1A5344236312F067
S315080052801DFB5E462368616CE06B01FB083112F07A
S3150800529032FC204611F0F7FF204612F024F8626A25
S315080052A02368606C00FB023012F0B0FCA062204656
S315080052B012F039F92063002E8CD03A69616CD31D3F
S315080052C01439B3FBF1F3013302EBC3029042A0D2C7
S315080052D02E4679E79C6000208D750108032A2DE982
S315080052E0F34106460D4617461C4606D1237A012B7E
S315080052F023D0012002B0BDE8F081DFF8608009689C
S3150800530042460DF10703FFF7F3F960600028EDD177
S315080053109DF80720237A032AE8D0D8F804106A688B
S315080053209142E3D1012B2969D4F80CC007D17269DF
S315080053300CEB0103934202D92074207CDAE708318A
S315080053406144E1603B46012229463046FFF78AFD63
S3150800535060600028CAD00020CCE700BFC8600020E3
S315080053602DE9F341089C032A1746266806D1237AB5
S31508005370012B24D0012002B0BDE8F081DFF890802F
S31508005380304642460DF10703FFF7B2F96060002880
S31508005390EDD12568D8F80400A96AD5F844C0484074
S315080053A0CCF100031840227AE1D1012A09D1E2683A
S315080053B0D8F8103013447269934202D92074207CBD
S315080053C0D9E72868EB6A1B1A081AB3FBFCF3B0FB8B
S315080053D0FCF083420BD1706CF36A421E1340326BA9
S315080053E0121A13442846336312F05AF8E862D8F8BA
S315080053F01020E36808321344E36001223B4604495F
S315080054002068FFF72FFD60600028B0D00020B2E7C3
S31508005410C86000202DE9F0410025634B0E46D3F8FD
S31508005420008004461D6018B921252846BDE8F0818C
S3150800543090F8347007B30A6803689A4240F0AA8065
S315080054404A6843689A4240F0A5808A6883689A4207
S3150800545040F0A080CA68C3689A4240F09B800A69F7
S3150800546043699A4240F096808A69C36B9A4240F033
S3150800547091804B698361D8E768223946856B14F0B9
S315080054804CFCD6E90212336804F1080023607368FD
S31508005490A5636360336963617369A36112F020FAD7
S315080054A0B36904F14000E3639B68984720B9676CC9
S315080054B017B16368B3FBF7F794F84330E761002B3D
S315080054C0B2D00023656C2366002D6BD0002F69D0FF
S315080054D02368B3FBF5F205FB1233002B5CD1676832
S315080054E0B7FBF5F605FB1676002E55D1204611F0CA
